{
  "contractName": "Dao",
  "abi": [
    {
      "constant": false,
      "inputs": [
        {
          "name": "_taskId",
          "type": "uint256"
        },
        {
          "name": "_solId",
          "type": "uint256"
        },
        {
          "name": "banSubmitter",
          "type": "bool"
        }
      ],
      "name": "penalizeSolutionSubmitter",
      "outputs": [],
      "payable": false,
      "stateMutability": "nonpayable",
      "type": "function"
    },
    {
      "constant": true,
      "inputs": [],
      "name": "mainAddress",
      "outputs": [
        {
          "name": "",
          "type": "address"
        }
      ],
      "payable": false,
      "stateMutability": "view",
      "type": "function"
    },
    {
      "constant": true,
      "inputs": [
        {
          "name": "",
          "type": "uint256"
        }
      ],
      "name": "minForPercent",
      "outputs": [
        {
          "name": "",
          "type": "uint256"
        },
        {
          "name": "description",
          "type": "string"
        },
        {
          "name": "quorumPercent",
          "type": "uint256"
        },
        {
          "name": "minForPercent",
          "type": "uint256"
        },
        {
          "name": "activeTimeInBlocks",
          "type": "uint256"
        },
        {
          "name": "goodRepWeight",
          "type": "uint256"
        },
        {
          "name": "badRepWeight",
          "type": "uint256"
        }
      ],
      "payable": false,
      "stateMutability": "view",
      "type": "function"
    },
    {
      "constant": false,
      "inputs": [
        {
          "name": "_name",
          "type": "string"
        },
        {
          "name": "_description",
          "type": "string"
        },
        {
          "name": "_startBlockNumber",
          "type": "uint256"
        },
        {
          "name": "_executionHash",
          "type": "bytes32"
        },
        {
          "name": "_executionTarget",
          "type": "address"
        }
      ],
      "name": "createVoting",
      "outputs": [],
      "payable": false,
      "stateMutability": "nonpayable",
      "type": "function"
    },
    {
      "constant": true,
      "inputs": [],
      "name": "decimals",
      "outputs": [
        {
          "name": "",
          "type": "uint256"
        }
      ],
      "payable": false,
      "stateMutability": "view",
      "type": "function"
    },
    {
      "constant": false,
      "inputs": [
        {
          "name": "_votingId",
          "type": "uint256"
        },
        {
          "name": "index",
          "type": "uint256"
        }
      ],
      "name": "concludeVoting",
      "outputs": [
        {
          "name": "",
          "type": "bytes32"
        }
      ],
      "payable": false,
      "stateMutability": "nonpayable",
      "type": "function"
    },
    {
      "constant": true,
      "inputs": [
        {
          "name": "name",
          "type": "string"
        },
        {
          "name": "description",
          "type": "string"
        },
        {
          "name": "votingTypeId",
          "type": "uint256"
        },
        {
          "name": "startBlockNumber",
          "type": "uint256"
        },
        {
          "name": "executionHashList",
          "type": "bytes32[]"
        },
        {
          "name": "executionModule",
          "type": "string"
        }
      ],
      "name": "badRepWeight",
      "outputs": [
        {
          "name": "",
          "type": "uint256"
        }
      ],
      "payable": false,
      "stateMutability": "view",
      "type": "function"
    },
    {
      "constant": true,
      "inputs": [
        {
          "name": "",
          "type": "uint256"
        }
      ],
      "name": "votingList",
      "outputs": [
        {
          "name": "name",
          "type": "string"
        },
        {
          "name": "description",
          "type": "string"
        },
        {
          "name": "creator",
          "type": "address"
        },
        {
          "name": "startBlockNumber",
          "type": "uint256"
        },
        {
          "name": "forVotes",
          "type": "uint256"
        },
        {
          "name": "againstVotes",
          "type": "uint256"
        },
        {
          "name": "votedMemberCount",
          "type": "uint256"
        },
        {
          "name": "executionHash",
          "type": "bytes32"
        },
        {
          "name": "executionTarget",
          "type": "address"
        },
        {
          "name": "isInvalid",
          "type": "bool"
        },
        {
          "name": "isPassed",
          "type": "bool"
        }
      ],
      "payable": false,
      "stateMutability": "view",
      "type": "function"
    },
    {
      "constant": true,
      "inputs": [
        {
          "name": "_votingId",
          "type": "uint256"
        },
        {
          "name": "_addr",
          "type": "address"
        }
      ],
      "name": "vHasVoted",
      "outputs": [
        {
          "name": "",
          "type": "bool"
        },
        {
          "name": "description",
          "type": "string"
        },
        {
          "name": "typeId",
          "type": "uint256"
        },
        {
          "name": "creator",
          "type": "address"
        },
        {
          "name": "startBlockNumber",
          "type": "uint256"
        },
        {
          "name": "forVotes",
          "type": "uint256"
        },
        {
          "name": "againstVotes",
          "type": "uint256"
        },
        {
          "name": "votedMemberCount",
          "type": "uint256"
        },
        {
          "name": "executionModule",
          "type": "string"
        },
        {
          "name": "isInvalid",
          "type": "bool"
        },
        {
          "name": "passed",
          "type": "bool"
        }
      ],
      "payable": false,
      "stateMutability": "view",
      "type": "function"
    },
    {
      "constant": true,
      "inputs": [
        {
          "name": "votingId",
          "type": "uint256"
        },
        {
          "name": "addr",
          "type": "address"
        }
      ],
      "name": "tokenWeight",
      "outputs": [
        {
          "name": "",
          "type": "uint256"
        }
      ],
      "payable": false,
      "stateMutability": "view",
      "type": "function"
    },
    {
      "constant": false,
      "inputs": [
        {
          "name": "_taskId",
          "type": "uint256"
        },
        {
          "name": "_solId",
          "type": "uint256"
        }
      ],
      "name": "paySolutionReward",
      "outputs": [],
      "payable": false,
      "stateMutability": "nonpayable",
      "type": "function"
    },
    {
      "constant": false,
      "inputs": [
        {
          "name": "_votingId",
          "type": "uint256"
        },
        {
          "name": "_executionBytecode",
          "type": "bytes"
        }
      ],
      "name": "executeVoting",
      "outputs": [],
      "payable": false,
      "stateMutability": "nonpayable",
      "type": "function"
    },
    {
      "constant": true,
      "inputs": [
        {
          "name": "typeId",
          "type": "uint256"
        },
        {
          "name": "groupHash",
          "type": "bytes32"
        }
      ],
      "name": "getVotingListCount",
      "outputs": [
        {
          "name": "",
          "type": "uint256"
        }
      ],
      "payable": false,
      "stateMutability": "view",
      "type": "function"
    },
    {
      "constant": true,
      "inputs": [],
      "name": "goodRepWeight",
      "outputs": [
        {
          "name": "",
          "type": "uint256"
        }
      ],
      "payable": false,
      "stateMutability": "view",
      "type": "function"
    },
    {
      "constant": false,
      "inputs": [
        {
          "name": "_index",
          "type": "uint256"
        },
        {
          "name": "symbol",
          "type": "string"
        },
        {
          "name": "tokenAddress",
          "type": "address"
        },
        {
          "name": "rewardTokenCap",
          "type": "uint256"
        }
      ],
      "name": "invalidateVotingAtIndex",
      "outputs": [],
      "payable": false,
      "stateMutability": "nonpayable",
      "type": "function"
    },
    {
      "constant": false,
      "inputs": [
        {
          "name": "_votingId",
          "type": "uint256"
        },
        {
          "name": "_support",
          "type": "bool"
        }
      ],
      "name": "vote",
      "outputs": [
        {
          "name": "",
          "type": "bytes32"
        }
      ],
      "payable": false,
      "stateMutability": "nonpayable",
      "type": "function"
    },
    {
      "constant": true,
      "inputs": [
        {
          "name": "",
          "type": "uint256"
        }
      ],
      "name": "activeTimeInBlocks",
      "outputs": [
        {
          "name": "",
          "type": "uint256"
        },
        {
          "name": "symbol",
          "type": "string"
        },
        {
          "name": "tokenAddress",
          "type": "address"
        }
      ],
      "payable": false,
      "stateMutability": "view",
      "type": "function"
    },
    {
      "constant": true,
      "inputs": [
        {
          "name": "typeId",
          "type": "uint256"
        }
      ],
      "name": "quorumPercent",
      "outputs": [
        {
          "name": "",
          "type": "uint256"
        }
      ],
      "payable": false,
      "stateMutability": "view",
      "type": "function"
    },
    {
      "constant": true,
      "inputs": [
        {
          "name": "_mainAddr",
          "type": "address"
        },
        {
          "name": "_quorumPercent",
          "type": "uint256"
        },
        {
          "name": "_minForPercent",
          "type": "uint256"
        },
        {
          "name": "_activeTimeInBlocks",
          "type": "uint256"
        },
        {
          "name": "_goodRepWeight",
          "type": "uint256"
        },
        {
          "name": "_badRepWeight",
          "type": "uint256"
        },
        {
          "name": "_tokenWeight",
          "type": "uint256"
        }
      ],
      "name": "vtTokenWeight",
      "outputs": [
        {
          "name": "",
          "type": "uint256"
        }
      ],
      "payable": false,
      "stateMutability": "nonpayable",
      "type": "constructor"
    },
    {
      "constant": false,
      "inputs": [
        {
          "name": "index",
          "type": "uint256"
        }
      ],
      "name": "invalidateVotingAtIndex",
      "outputs": [],
      "payable": false,
      "stateMutability": "nonpayable",
      "type": "fallback"
    },
    {
      "constant": false,
      "inputs": [
        {
          "name": "votingId",
          "type": "uint256",
          "indexed": false
        },
        {
          "name": "bytecodeHashId",
          "type": "uint256"
        },
        {
          "name": "executionBytecode",
          "type": "bytes"
        }
      ],
      "name": "VotingCreated",
      "outputs": [],
      "payable": false,
      "stateMutability": "nonpayable",
      "type": "event",
      "anonymous": false
    },
    {
      "constant": true,
      "inputs": [
        {
          "indexed": false,
          "name": "votingId",
          "type": "uint256"
        },
        {
          "indexed": false,
          "name": "passed",
          "type": "bool"
        }
      ],
      "name": "VotingConcluded",
      "outputs": [
        {
          "name": "",
          "type": "uint256"
        }
      ],
      "payable": false,
      "stateMutability": "view",
      "type": "event",
      "anonymous": false
    },
    {
      "constant": false,
      "inputs": [
        {
          "name": "votingId",
          "type": "uint256"
        },
        {
          "name": "support",
          "type": "bool"
        }
      ],
      "name": "vote",
      "outputs": [],
      "payable": false,
      "stateMutability": "nonpayable",
      "type": "function"
    },
    {
      "constant": false,
      "inputs": [
        {
          "name": "name",
          "type": "string"
        },
        {
          "name": "description",
          "type": "string"
        },
        {
          "name": "quorumPercent",
          "type": "uint256"
        },
        {
          "name": "minForPercent",
          "type": "uint256"
        },
        {
          "name": "activeTimeInBlocks",
          "type": "uint256"
        },
        {
          "name": "goodRepWeight",
          "type": "uint256"
        },
        {
          "name": "badRepWeight",
          "type": "uint256"
        },
        {
          "name": "tokenIdList",
          "type": "uint256[]"
        },
        {
          "name": "tokenWeightList",
          "type": "uint256[]"
        },
        {
          "name": "votableGroupList",
          "type": "bytes32[]"
        }
      ],
      "name": "createVotingType",
      "outputs": [],
      "payable": false,
      "stateMutability": "nonpayable",
      "type": "function"
    },
    {
      "constant": true,
      "inputs": [],
      "name": "getVotingTypeListCount",
      "outputs": [
        {
          "name": "",
          "type": "uint256"
        }
      ],
      "payable": false,
      "stateMutability": "view",
      "type": "function"
    },
    {
      "constant": false,
      "inputs": [],
      "name": "init",
      "outputs": [],
      "payable": false,
      "stateMutability": "nonpayable",
      "type": "function"
    },
    {
      "constant": false,
      "inputs": [
        {
          "name": "index",
          "type": "uint256"
        }
      ],
      "name": "removeRecognizedTokenAtIndex",
      "outputs": [],
      "payable": false,
      "stateMutability": "nonpayable",
      "type": "function"
    },
    {
      "inputs": [
        {
          "name": "mainAddr",
          "type": "address"
        }
      ],
      "payable": false,
      "stateMutability": "nonpayable",
      "type": "constructor"
    },
    {
      "payable": false,
      "stateMutability": "nonpayable",
      "type": "fallback"
    },
    {
      "anonymous": false,
      "inputs": [
        {
          "indexed": false,
          "name": "votingId",
          "type": "uint256"
        }
      ],
      "name": "VotingCreated",
      "type": "event"
    },
    {
      "anonymous": false,
      "inputs": [
        {
          "indexed": false,
          "name": "votingId",
          "type": "uint256"
        },
        {
          "indexed": false,
          "name": "passed",
          "type": "bool"
        }
      ],
      "name": "VotingConcluded",
      "type": "event"
    }
  ],
  "bytecode": "0x6060604052341561000f57600080fd5b60405160e080612b4f8339810160405280805190602001909190805190602001909190805190602001909190805190602001909190805190602001909190805190602001909190805190602001909190505086806000806101000a81548173ffffffffffffffffffffffffffffffffffffffff021916908373ffffffffffffffffffffffffffffffffffffffff1602179055505085600181905550846002819055508360038190555082600481905550816005819055508060068190555050505050505050612a6c806100e36000396000f3006060604052600436106100fc576000357c0100000000000000000000000000000000000000000000000000000000900463ffffffff16806305b496bb1461010c5780630cdd4234146101385780631e3c23b21461018d578063220f1aee146101b6578063313ce5671461028b578063345f342e146102b4578063499abc40146102d757806358652f4d146103005780635d95738b146104e95780636d899e9e146105435780637a66e5cf1461056c5780638a433274146105985780639444991d146105fe578063b67e5c2614610627578063bbeadcad14610650578063c9d27afe14610673578063d675f9c2146106a1578063f81cbd26146106ca575b341561010757600080fd5b600080fd5b341561011757600080fd5b61013660048080359060200190919080359060200190919050506106f3565b005b341561014357600080fd5b61014b610a36565b604051808273ffffffffffffffffffffffffffffffffffffffff1673ffffffffffffffffffffffffffffffffffffffff16815260200191505060405180910390f35b341561019857600080fd5b6101a0610a5b565b6040518082815260200191505060405180910390f35b34156101c157600080fd5b610289600480803590602001908201803590602001908080601f0160208091040260200160405190810160405280939291908181526020018383808284378201915050505050509190803590602001908201803590602001908080601f016020809104026020016040519081016040528093929190818152602001838380828437820191505050505050919080359060200190919080356000191690602001909190803573ffffffffffffffffffffffffffffffffffffffff16906020019091905050610a61565b005b341561029657600080fd5b61029e610f16565b6040518082815260200191505060405180910390f35b34156102bf57600080fd5b6102d56004808035906020019091905050610f1b565b005b34156102e257600080fd5b6102ea6113df565b6040518082815260200191505060405180910390f35b341561030b57600080fd5b61032160048080359060200190919050506113e5565b6040518080602001806020018c73ffffffffffffffffffffffffffffffffffffffff1673ffffffffffffffffffffffffffffffffffffffff1681526020018b81526020018a815260200189815260200188815260200187600019166000191681526020018673ffffffffffffffffffffffffffffffffffffffff1673ffffffffffffffffffffffffffffffffffffffff168152602001851515151581526020018415151515815260200183810383528e81815460018160011615610100020316600290048152602001915080546001816001161561010002031660029004801561044c5780601f106104215761010080835404028352916020019161044c565b820191906000526020600020905b81548152906001019060200180831161042f57829003601f168201915b505083810382528d8181546001816001161561010002031660029004815260200191508054600181600116156101000203166002900480156104cf5780601f106104a4576101008083540402835291602001916104cf565b820191906000526020600020905b8154815290600101906020018083116104b257829003601f168201915b50509d505050505050505050505050505060405180910390f35b34156104f457600080fd5b610529600480803590602001909190803573ffffffffffffffffffffffffffffffffffffffff169060200190919050506114a6565b604051808215151515815260200191505060405180910390f35b341561054e57600080fd5b61055661151b565b6040518082815260200191505060405180910390f35b341561057757600080fd5b6105966004808035906020019091908035906020019091905050611521565b005b34156105a357600080fd5b6105fc600480803590602001909190803590602001908201803590602001908080601f0160208091040260200160405190810160405280939291908181526020018383808284378201915050505050509190505061195e565b005b341561060957600080fd5b610611611d51565b6040518082815260200191505060405180910390f35b341561063257600080fd5b61063a611d5e565b6040518082815260200191505060405180910390f35b341561065b57600080fd5b6106716004808035906020019091905050611d64565b005b341561067e57600080fd5b61069f60048080359060200190919080351515906020019091905050611e2c565b005b34156106ac57600080fd5b6106b4612610565b6040518082815260200191505060405180910390f35b34156106d557600080fd5b6106dd612616565b6040518082815260200191505060405180910390f35b6000806000806000806040805190810160405280600581526020017f5441534b5300000000000000000000000000000000000000000000000000000081525061073b8161261c565b73ffffffffffffffffffffffffffffffffffffffff163373ffffffffffffffffffffffffffffffffffffffff1614151561077457600080fd5b6107b26040805190810160405280600581526020017f5441534b5300000000000000000000000000000000000000000000000000000081525061261c565b96508673ffffffffffffffffffffffffffffffffffffffff16632a1c52a58a600060405161010001526040518263ffffffff167c01000000000000000000000000000000000000000000000000000000000281526004018082815260200191505061010060405180830381600087803b151561082d57600080fd5b6102c65a03f1151561083e57600080fd5b50505060405180519060200180519060200180519060200180519060200180519060200180519060200180519060200180519050505050985050505095508673ffffffffffffffffffffffffffffffffffffffff16637ed08e228a8a600060405160a001526040518363ffffffff167c0100000000000000000000000000000000000000000000000000000000028152600401808381526020018281526020019250505060a060405180830381600087803b15156108fb57600080fd5b6102c65a03f1151561090c57600080fd5b50505060405180519060200180519060200180519060200180519060200180519050505050935093506109736040805190810160405280600681526020017f4d454d424552000000000000000000000000000000000000000000000000000081525061261c565b91508173ffffffffffffffffffffffffffffffffffffffff1663e56044c884876040518363ffffffff167c0100000000000000000000000000000000000000000000000000000000028152600401808373ffffffffffffffffffffffffffffffffffffffff1673ffffffffffffffffffffffffffffffffffffffff16815260200182815260200192505050600060405180830381600087803b1515610a1757600080fd5b6102c65a03f11515610a2857600080fd5b505050505050505050505050565b6000809054906101000a900473ffffffffffffffffffffffffffffffffffffffff1681565b60025481565b6040805190810160405280600d81526020017f6372656174655f766f74696e67000000000000000000000000000000000000008152506000610ad76040805190810160405280600681526020017f4d454d424552000000000000000000000000000000000000000000000000000081525061261c565b90508073ffffffffffffffffffffffffffffffffffffffff16636c3ea72133846000604051602001526040518363ffffffff167c0100000000000000000000000000000000000000000000000000000000028152600401808373ffffffffffffffffffffffffffffffffffffffff1673ffffffffffffffffffffffffffffffffffffffff16815260200180602001828103825283818151815260200191508051906020019080838360005b83811015610b9d578082015181840152602081019050610b82565b50505050905090810190601f168015610bca5780820380516001836020036101000a031916815260200191505b509350505050602060405180830381600087803b1515610be957600080fd5b6102c65a03f11515610bfa57600080fd5b505050604051805190501515610c0f57600080fd5b8073ffffffffffffffffffffffffffffffffffffffff166397f735d5336000604051602001526040518263ffffffff167c0100000000000000000000000000000000000000000000000000000000028152600401808273ffffffffffffffffffffffffffffffffffffffff1673ffffffffffffffffffffffffffffffffffffffff168152602001915050602060405180830381600087803b1515610cb257600080fd5b6102c65a03f11515610cc357600080fd5b50505060405180519050151515610cd957600080fd5b60078054806001018281610ced9190612844565b91600052602060002090600b02016000610160604051908101604052808b81526020018a81526020013373ffffffffffffffffffffffffffffffffffffffff168152602001898152602001600081526020016000815260200160008152602001886000191681526020018773ffffffffffffffffffffffffffffffffffffffff1681526020016000151581526020016000151581525090919091506000820151816000019080519060200190610da4929190612876565b506020820151816001019080519060200190610dc1929190612876565b5060408201518160020160006101000a81548173ffffffffffffffffffffffffffffffffffffffff021916908373ffffffffffffffffffffffffffffffffffffffff160217905550606082015181600301556080820151816004015560a0820151816005015560c0820151816006015560e082015181600701906000191690556101008201518160080160006101000a81548173ffffffffffffffffffffffffffffffffffffffff021916908373ffffffffffffffffffffffffffffffffffffffff16021790555061012082015181600a0160006101000a81548160ff02191690831515021790555061014082015181600a0160016101000a81548160ff0219169083151502179055505050507f3205be6c9f54a5e02a1ee7ed665ab460898cce94d5976b5937f48ec19682036d6001600780549050036040518082815260200191505060405180910390a150505050505050565b601281565b60008060006040805190810160405280600481526020017f766f7465000000000000000000000000000000000000000000000000000000008152506000610f966040805190810160405280600681526020017f4d454d424552000000000000000000000000000000000000000000000000000081525061261c565b90508073ffffffffffffffffffffffffffffffffffffffff16636c3ea72133846000604051602001526040518363ffffffff167c0100000000000000000000000000000000000000000000000000000000028152600401808373ffffffffffffffffffffffffffffffffffffffff1673ffffffffffffffffffffffffffffffffffffffff16815260200180602001828103825283818151815260200191508051906020019080838360005b8381101561105c578082015181840152602081019050611041565b50505050905090810190601f1680156110895780820380516001836020036101000a031916815260200191505b509350505050602060405180830381600087803b15156110a857600080fd5b6102c65a03f115156110b957600080fd5b5050506040518051905015156110ce57600080fd5b8073ffffffffffffffffffffffffffffffffffffffff166397f735d5336000604051602001526040518263ffffffff167c0100000000000000000000000000000000000000000000000000000000028152600401808273ffffffffffffffffffffffffffffffffffffffff1673ffffffffffffffffffffffffffffffffffffffff168152602001915050602060405180830381600087803b151561117157600080fd5b6102c65a03f1151561118257600080fd5b5050506040518051905015151561119857600080fd5b6007868154811015156111a757fe5b90600052602060002090600b0201945084600a0160009054906101000a900460ff161515156111d557600080fd5b600185600a0160006101000a81548160ff021916908315150217905550600354856003015401431015151561120957600080fd5b6112476040805190810160405280600681526020017f4d454d424552000000000000000000000000000000000000000000000000000081525061261c565b93508373ffffffffffffffffffffffffffffffffffffffff1663a483e61460405180807f7465616d5f6d656d626572000000000000000000000000000000000000000000815250600b01905060405180910390206000604051602001526040518263ffffffff167c0100000000000000000000000000000000000000000000000000000000028152600401808260001916600019168152602001915050602060405180830381600087803b15156112fd57600080fd5b6102c65a03f1151561130e57600080fd5b50505060405180519050925060025485600501548660040154016012600a0a60648860040154020281151561133f57fe5b04101580156113685750600154836012600a0a60648860060154020281151561136457fe5b0410155b85600a0160016101000a81548160ff0219169083151502179055507f0c77796cd10a570d9e9676dfefd3bd24776fa13e25f41d0b2e13a0069add50ab8686600a0160019054906101000a900460ff1660405180838152602001821515151581526020019250505060405180910390a1505050505050565b60055481565b6007818154811015156113f457fe5b90600052602060002090600b0201600091509050806000019080600101908060020160009054906101000a900473ffffffffffffffffffffffffffffffffffffffff16908060030154908060040154908060050154908060060154908060070154908060080160009054906101000a900473ffffffffffffffffffffffffffffffffffffffff169080600a0160009054906101000a900460ff169080600a0160019054906101000a900460ff1690508b565b60006007838154811015156114b757fe5b90600052602060002090600b020160090160008373ffffffffffffffffffffffffffffffffffffffff1673ffffffffffffffffffffffffffffffffffffffff16815260200190815260200160002060009054906101000a900460ff16905092915050565b60065481565b6000806000806000806000806040805190810160405280600581526020017f5441534b5300000000000000000000000000000000000000000000000000000081525061156c8161261c565b73ffffffffffffffffffffffffffffffffffffffff163373ffffffffffffffffffffffffffffffffffffffff161415156115a557600080fd5b6115e36040805190810160405280600581526020017f5441534b5300000000000000000000000000000000000000000000000000000081525061261c565b98508873ffffffffffffffffffffffffffffffffffffffff16632a1c52a58c600060405161010001526040518263ffffffff167c01000000000000000000000000000000000000000000000000000000000281526004018082815260200191505061010060405180830381600087803b151561165e57600080fd5b6102c65a03f1151561166f57600080fd5b505050604051805190602001805190602001805190602001805190602001805190602001805190602001805190602001805190505050509850985098505097508873ffffffffffffffffffffffffffffffffffffffff16637ed08e228c8c600060405160a001526040518363ffffffff167c0100000000000000000000000000000000000000000000000000000000028152600401808381526020018281526020019250505060a060405180830381600087803b151561172e57600080fd5b6102c65a03f1151561173f57600080fd5b50505060405180519060200180519060200180519060200180519060200180519050505050935093506117a66040805190810160405280600581526020017f5641554c5400000000000000000000000000000000000000000000000000000081525061261c565b91508173ffffffffffffffffffffffffffffffffffffffff16637e1db49588856001806040518563ffffffff167c0100000000000000000000000000000000000000000000000000000000028152600401808581526020018473ffffffffffffffffffffffffffffffffffffffff1673ffffffffffffffffffffffffffffffffffffffff1681526020018315151515815260200182151515158152602001945050505050600060405180830381600087803b151561186357600080fd5b6102c65a03f1151561187457600080fd5b5050506118818386612747565b8173ffffffffffffffffffffffffffffffffffffffff16637e1db4958785600160006040518563ffffffff167c0100000000000000000000000000000000000000000000000000000000028152600401808581526020018473ffffffffffffffffffffffffffffffffffffffff1673ffffffffffffffffffffffffffffffffffffffff1681526020018315151515815260200182151515158152602001945050505050600060405180830381600087803b151561193d57600080fd5b6102c65a03f1151561194e57600080fd5b5050505050505050505050505050565b60006040805190810160405280600481526020017f766f74650000000000000000000000000000000000000000000000000000000081525060006119d66040805190810160405280600681526020017f4d454d424552000000000000000000000000000000000000000000000000000081525061261c565b90508073ffffffffffffffffffffffffffffffffffffffff16636c3ea72133846000604051602001526040518363ffffffff167c0100000000000000000000000000000000000000000000000000000000028152600401808373ffffffffffffffffffffffffffffffffffffffff1673ffffffffffffffffffffffffffffffffffffffff16815260200180602001828103825283818151815260200191508051906020019080838360005b83811015611a9c578082015181840152602081019050611a81565b50505050905090810190601f168015611ac95780820380516001836020036101000a031916815260200191505b509350505050602060405180830381600087803b1515611ae857600080fd5b6102c65a03f11515611af957600080fd5b505050604051805190501515611b0e57600080fd5b8073ffffffffffffffffffffffffffffffffffffffff166397f735d5336000604051602001526040518263ffffffff167c0100000000000000000000000000000000000000000000000000000000028152600401808273ffffffffffffffffffffffffffffffffffffffff1673ffffffffffffffffffffffffffffffffffffffff168152602001915050602060405180830381600087803b1515611bb157600080fd5b6102c65a03f11515611bc257600080fd5b50505060405180519050151515611bd857600080fd5b600785815481101515611be757fe5b90600052602060002090600b0201925082600a0160019054906101000a900460ff161515611c1457600080fd5b836040518082805190602001908083835b602083101515611c4a5780518252602082019150602081019050602083039250611c25565b6001836020036101000a038019825116818451168082178552505050505050905001915050604051809103902060001916836007015460001916141515611c9057600080fd5b8260080160009054906101000a900473ffffffffffffffffffffffffffffffffffffffff1673ffffffffffffffffffffffffffffffffffffffff168460405180828051906020019080838360005b83811015611cf9578082015181840152602081019050611cde565b50505050905090810190601f168015611d265780820380516001836020036101000a031916815260200191505b5091505060006040518083038160008661646e5a03f19150501515611d4a57600080fd5b5050505050565b6000600780549050905090565b60045481565b6040805190810160405280600381526020017f44414f0000000000000000000000000000000000000000000000000000000000815250611da38161261c565b73ffffffffffffffffffffffffffffffffffffffff163373ffffffffffffffffffffffffffffffffffffffff16141515611ddc57600080fd5b60078054905082101515611def57600080fd5b6001600783815481101515611e0057fe5b90600052602060002090600b0201600a0160006101000a81548160ff0219169083151502179055505050565b6000806000806000806040805190810160405280600481526020017f766f7465000000000000000000000000000000000000000000000000000000008152506000611eab6040805190810160405280600681526020017f4d454d424552000000000000000000000000000000000000000000000000000081525061261c565b90508073ffffffffffffffffffffffffffffffffffffffff16636c3ea72133846000604051602001526040518363ffffffff167c0100000000000000000000000000000000000000000000000000000000028152600401808373ffffffffffffffffffffffffffffffffffffffff1673ffffffffffffffffffffffffffffffffffffffff16815260200180602001828103825283818151815260200191508051906020019080838360005b83811015611f71578082015181840152602081019050611f56565b50505050905090810190601f168015611f9e5780820380516001836020036101000a031916815260200191505b509350505050602060405180830381600087803b1515611fbd57600080fd5b6102c65a03f11515611fce57600080fd5b505050604051805190501515611fe357600080fd5b8073ffffffffffffffffffffffffffffffffffffffff166397f735d5336000604051602001526040518263ffffffff167c0100000000000000000000000000000000000000000000000000000000028152600401808273ffffffffffffffffffffffffffffffffffffffff1673ffffffffffffffffffffffffffffffffffffffff168152602001915050602060405180830381600087803b151561208657600080fd5b6102c65a03f1151561209757600080fd5b505050604051805190501515156120ad57600080fd5b60078a8154811015156120bc57fe5b90600052602060002090600b0201975061210a6040805190810160405280600681526020017f4d454d424552000000000000000000000000000000000000000000000000000081525061261c565b96508673ffffffffffffffffffffffffffffffffffffffff1663b307fc6d8873ffffffffffffffffffffffffffffffffffffffff166339106821336000604051602001526040518263ffffffff167c0100000000000000000000000000000000000000000000000000000000028152600401808273ffffffffffffffffffffffffffffffffffffffff1673ffffffffffffffffffffffffffffffffffffffff168152602001915050602060405180830381600087803b15156121cb57600080fd5b6102c65a03f115156121dc57600080fd5b50505060405180519050600060405160a001526040518263ffffffff167c01000000000000000000000000000000000000000000000000000000000281526004018082815260200191505060a060405180830381600087803b151561224057600080fd5b6102c65a03f1151561225157600080fd5b505050604051805190602001805190602001805190602001805190602001805190509850985050505087600a0160009054906101000a900460ff1615151561229857600080fd5b876003015443101580156122b3575060035488600301540143105b15156122be57600080fd5b8760090160003373ffffffffffffffffffffffffffffffffffffffff1673ffffffffffffffffffffffffffffffffffffffff16815260200190815260200160002060009054906101000a900460ff1615151561231957600080fd5b60018860090160003373ffffffffffffffffffffffffffffffffffffffff1673ffffffffffffffffffffffffffffffffffffffff16815260200190815260200160002060006101000a81548160ff0219169083151502179055508673ffffffffffffffffffffffffffffffffffffffff16636c3ea721336000604051602001526040518263ffffffff167c0100000000000000000000000000000000000000000000000000000000028152600401808273ffffffffffffffffffffffffffffffffffffffff1673ffffffffffffffffffffffffffffffffffffffff168152602001806020018281038252600e8152602001807f71756f72756d5f696e636c75646500000000000000000000000000000000000081525060200192505050602060405180830381600087803b151561244f57600080fd5b6102c65a03f1151561246057600080fd5b505050604051805190501561248357600188600601600082825401925050819055505b6012600a0a856005540281151561249657fe5b046012600a0a87600454028115156124aa57fe5b040393506124ec6040805190810160405280600581526020017f544f4b454e00000000000000000000000000000000000000000000000000000081525061261c565b92506012600202600a0a8373ffffffffffffffffffffffffffffffffffffffff166370a08231336000604051602001526040518263ffffffff167c0100000000000000000000000000000000000000000000000000000000028152600401808273ffffffffffffffffffffffffffffffffffffffff1673ffffffffffffffffffffffffffffffffffffffff168152602001915050602060405180830381600087803b151561259957600080fd5b6102c65a03f115156125aa57600080fd5b50505060405180519050600654028115156125c157fe5b048401935060008412156125d457600093505b88156125f157838860040160008282540192505081905550612604565b8388600501600082825401925050819055505b50505050505050505050565b60035481565b60015481565b6000806000809054906101000a900473ffffffffffffffffffffffffffffffffffffffff1690508073ffffffffffffffffffffffffffffffffffffffff166310a8169c846040518082805190602001908083835b6020831015156126955780518252602082019150602081019050602083039250612670565b6001836020036101000a03801982511681845116808217855250505050505090500191505060405180910390206000604051602001526040518263ffffffff167c0100000000000000000000000000000000000000000000000000000000028152600401808260001916600019168152602001915050602060405180830381600087803b151561272457600080fd5b6102c65a03f1151561273557600080fd5b50505060405180519050915050919050565b60006127876040805190810160405280600681526020017f4d454d424552000000000000000000000000000000000000000000000000000081525061261c565b90508073ffffffffffffffffffffffffffffffffffffffff166306ebe49f84846040518363ffffffff167c0100000000000000000000000000000000000000000000000000000000028152600401808373ffffffffffffffffffffffffffffffffffffffff1673ffffffffffffffffffffffffffffffffffffffff16815260200182815260200192505050600060405180830381600087803b151561282b57600080fd5b6102c65a03f1151561283c57600080fd5b505050505050565b81548183558181151161287157600b0281600b02836000526020600020918201910161287091906128f6565b5b505050565b828054600181600116156101000203166002900490600052602060002090601f016020900481019282601f106128b757805160ff19168380011785556128e5565b828001600101855582156128e5579182015b828111156128e45782518255916020019190600101906128c9565b5b5090506128f291906129d3565b5090565b6129d091905b808211156129cc576000808201600061291591906129f8565b60018201600061292591906129f8565b6002820160006101000a81549073ffffffffffffffffffffffffffffffffffffffff0219169055600382016000905560048201600090556005820160009055600682016000905560078201600090556008820160006101000a81549073ffffffffffffffffffffffffffffffffffffffff0219169055600a820160006101000a81549060ff0219169055600a820160016101000a81549060ff021916905550600b016128fc565b5090565b90565b6129f591905b808211156129f15760008160009055506001016129d9565b5090565b90565b50805460018160011615610100020316600290046000825580601f10612a1e5750612a3d565b601f016020900490600052602060002090810190612a3c91906129d3565b5b505600a165627a7a7230582073b5aaac764972dba6cfb1072380327cb8270326177b7f706f410a10347c23c50029",
  "source": "/*\r\n    dao.sol\r\n    Created by Zefram Lou (Zebang Liu) as part of the WikiGit project.\r\n\r\n    This file implements the mechanics of the DAO, including managing members,\r\n    holding votings, modifying the bylaws and structure of the DAO, calling and\r\n    managing other modules, allowing modules to access other modules, and so on.\r\n\r\n    The DAO is the absolute source of power of the entire DAP.\r\n*/\r\n\r\npragma solidity ^0.4.18;\r\n\r\nimport './token.sol';\r\nimport './vault.sol';\r\nimport './tasks_handler.sol';\r\nimport './member_handler.sol';\r\n\r\ncontract Dao is Module {\r\n    struct Voting {\r\n        string name;\r\n        string description;\r\n        address creator;\r\n        uint startBlockNumber;\r\n        uint forVotes;\r\n        uint againstVotes;\r\n        uint votedMemberCount;\r\n        bytes32 executionHash; //The hash of the transaction bytecode that is executed after the voting is passed.\r\n        address executionTarget; //The address that the transaction would be sent to.\r\n        mapping(address => bool) hasVoted;\r\n        bool isInvalid;\r\n        bool isPassed;\r\n    }\r\n\r\n    modifier notBanned {\r\n        MemberHandler h = MemberHandler(moduleAddress('MEMBER'));\r\n        require(! h.isBanned(msg.sender));\r\n        _;\r\n     }\r\n    //Should only be used in functions meant to be directly called by members and don't need any rights.\r\n\r\n    modifier needsRight(string right) {\r\n        MemberHandler h = MemberHandler(moduleAddress('MEMBER'));\r\n        require(h.memberHasRight(msg.sender, right));\r\n        require(! h.isBanned(msg.sender)); //Makes function declarations more concise.\r\n        _;\r\n    }\r\n\r\n    //Voting session parameters\r\n    uint public quorumPercent; //Decimal (ex. 34.567%)\r\n    uint public minForPercent; //Minimum proportion of for votes needed to pass the voting. Decimal.\r\n    uint public activeTimeInBlocks; //The number of blocks for which the voting is active.\r\n    uint public goodRepWeight; //Decimal\r\n    uint public badRepWeight; //Decimal\r\n    uint public tokenWeight; //Decimal\r\n\r\n    Voting[] public votingList;\r\n\r\n    event VotingCreated(uint votingId);\r\n    event VotingConcluded(uint votingId, bool passed);\r\n\r\n    //Initializing\r\n\r\n    function Dao(\r\n        address _mainAddr,\r\n        uint _quorumPercent,\r\n        uint _minForPercent,\r\n        uint _activeTimeInBlocks,\r\n        uint _goodRepWeight,\r\n        uint _badRepWeight,\r\n        uint _tokenWeight\r\n    )\r\n        Module(_mainAddr)\r\n        public\r\n    {\r\n        quorumPercent = _quorumPercent;\r\n        minForPercent = _minForPercent;\r\n        activeTimeInBlocks = _activeTimeInBlocks;\r\n        goodRepWeight = _goodRepWeight;\r\n        badRepWeight = _badRepWeight;\r\n        tokenWeight = _tokenWeight;\r\n    }\r\n\r\n    //Voting\r\n\r\n    function createVoting(\r\n        string _name,\r\n        string _description,\r\n        uint _startBlockNumber,\r\n        bytes32 _executionHash,\r\n        address _executionTarget\r\n    )\r\n        public\r\n        needsRight('create_voting')\r\n    {\r\n        votingList.push(Voting({\r\n            name: _name,\r\n            description: _description,\r\n            creator: msg.sender,\r\n            startBlockNumber: _startBlockNumber,\r\n            executionHash: _executionHash,\r\n            executionTarget: _executionTarget,\r\n            forVotes: 0,\r\n            againstVotes: 0,\r\n            votedMemberCount: 0,\r\n            isInvalid: false,\r\n            isPassed:false\r\n        }));\r\n\r\n        VotingCreated(votingList.length - 1);\r\n    }\r\n\r\n    function invalidateVotingAtIndex(uint _index) public onlyMod('DAO') {\r\n        require(_index < votingList.length);\r\n\r\n        votingList[_index].isInvalid = true;\r\n    }\r\n\r\n    function vote(uint _votingId, bool _support) public needsRight('vote') {\r\n        Voting storage voting = votingList[_votingId];\r\n\r\n        MemberHandler h = MemberHandler(moduleAddress('MEMBER'));\r\n        var (,goodRep, badRep) = h.memberList(h.memberId(msg.sender));\r\n\r\n        require(!voting.isInvalid);\r\n        require(block.number >= voting.startBlockNumber && block.number < voting.startBlockNumber + activeTimeInBlocks);\r\n        require(!voting.hasVoted[msg.sender]);\r\n\r\n        voting.hasVoted[msg.sender] = true;\r\n\r\n        //Only team members count towards quorum\r\n        if (h.memberHasRight(msg.sender, 'quorum_include')) {\r\n            voting.votedMemberCount += 1;\r\n        }\r\n\r\n        int memberVotes = int(goodRepWeight * goodRep / 10**decimals) - int(badRepWeight * badRep / 10**decimals);\r\n        Token token = Token(moduleAddress('TOKEN'));\r\n        memberVotes += int(tokenWeight * token.balanceOf(msg.sender) / 10**(2 * decimals));\r\n\r\n        if (memberVotes < 0) {\r\n            memberVotes = 0;\r\n        }\r\n\r\n        if (_support) {\r\n            voting.forVotes += uint(memberVotes);\r\n        } else {\r\n            voting.againstVotes += uint(memberVotes);\r\n        }\r\n    }\r\n\r\n    function concludeVoting(uint _votingId) public needsRight('vote') {\r\n        Voting storage voting = votingList[_votingId];\r\n        require(!voting.isInvalid);\r\n        voting.isInvalid = true;\r\n\r\n        require(block.number >= voting.startBlockNumber + activeTimeInBlocks);\r\n\r\n        MemberHandler h = MemberHandler(moduleAddress('MEMBER'));\r\n\r\n        uint teamMemberCount = h.groupMemberCount(keccak256('team_member'));\r\n\r\n        voting.isPassed = (voting.forVotes * 100 * 10**decimals / (voting.forVotes + voting.againstVotes) >= minForPercent)\r\n                        && (voting.votedMemberCount * 100 * 10**decimals / teamMemberCount >= quorumPercent);\r\n        VotingConcluded(_votingId, voting.isPassed);\r\n    }\r\n\r\n    function executeVoting(\r\n        uint _votingId,\r\n        bytes _executionBytecode\r\n    )\r\n        public\r\n        needsRight('vote')\r\n    {\r\n        Voting storage voting = votingList[_votingId];\r\n        require(voting.isPassed);\r\n        require(voting.executionHash == keccak256(_executionBytecode));\r\n\r\n        require(voting.executionTarget.call(_executionBytecode));\r\n    }\r\n\r\n    function paySolutionReward(uint _taskId, uint _solId) public onlyMod('TASKS') {\r\n        TasksHandler handler = TasksHandler(moduleAddress('TASKS'));\r\n        var (_,,rewardInWeis, rewardTokenAmount, rewardGoodRep,) = handler.taskList(_taskId);\r\n        var (__,submitter,) = handler.taskSolutionList(_taskId, _solId);\r\n\r\n        //Reward in ether\r\n        Vault vault = Vault(moduleAddress('VAULT'));\r\n        vault.addPendingWithdrawl(rewardInWeis, submitter, true, true);\r\n\r\n        //Reward in reputation\r\n        paySolutionRewardGoodRep(submitter, rewardGoodRep);\r\n\r\n        //Reward in tokens\r\n        vault.addPendingWithdrawl(rewardTokenAmount, submitter, true, false);\r\n    }\r\n\r\n    //Split out as an independent function to prevent StackTooDeep error\r\n    function paySolutionRewardGoodRep(address _submitter, uint _rewardGoodRep) internal {\r\n        MemberHandler h = MemberHandler(moduleAddress('MEMBER'));\r\n        h.incMemberGoodRep(_submitter, _rewardGoodRep);\r\n    }\r\n\r\n    /*\r\n        Used for penalizing malicious solution submitters.\r\n    */\r\n    function penalizeSolutionSubmitter(\r\n        uint _taskId,\r\n        uint _solId\r\n    )\r\n        public\r\n        onlyMod('TASKS')\r\n    {\r\n        TasksHandler handler = TasksHandler(moduleAddress('TASKS'));\r\n        var (_,,,, penaltyBadRep,) = handler.taskList(_taskId);\r\n        var (__,submitter,) = handler.taskSolutionList(_taskId, _solId);\r\n\r\n        //Penalize reputation\r\n        MemberHandler h = MemberHandler(moduleAddress('MEMBER'));\r\n        h.incMemberBadRep(submitter, penaltyBadRep);\r\n    }\r\n\r\n    //Getters\r\n\r\n    function getVotingListCount() public view returns(uint) {\r\n        return votingList.length;\r\n    }\r\n\r\n    function vHasVoted(uint _votingId, address _addr) public view returns(bool) {\r\n        return votingList[_votingId].hasVoted[_addr];\r\n    }\r\n\r\n    //Fallback\r\n    function() public {\r\n        revert();\r\n    }\r\n}\r\n",
  "sourcePath": "D:\\WebstormProjects\\WikiGit\\dev\\contracts\\dao.sol",
  "compiler": {
    "name": "solc",
    "version": "0.4.18+commit.9cf6e910.Emscripten.clang"
  },
  "schemaVersion": "1.0.1",
  "updatedAt": "2018-01-06T02:20:33.232Z"
}