{
  "contractName": "Dao",
  "abi": [
    {
      "constant": false,
      "inputs": [
        {
          "name": "taskId",
          "type": "uint256"
        },
        {
          "name": "solId",
          "type": "uint256"
        },
        {
          "name": "banSubmitter",
          "type": "bool"
        }
      ],
      "name": "penalizeSolutionSubmitter",
      "outputs": [],
      "payable": false,
      "stateMutability": "nonpayable",
      "type": "function"
    },
    {
      "constant": true,
      "inputs": [],
      "name": "mainAddress",
      "outputs": [
        {
          "name": "",
          "type": "address"
        }
      ],
      "payable": false,
      "stateMutability": "view",
      "type": "function"
    },
    {
      "constant": true,
      "inputs": [
        {
          "name": "",
          "type": "uint256"
        }
      ],
      "name": "votingTypeList",
      "outputs": [
        {
          "name": "name",
          "type": "string"
        },
        {
          "name": "description",
          "type": "string"
        },
        {
          "name": "quorumPercent",
          "type": "uint256"
        },
        {
          "name": "minForPercent",
          "type": "uint256"
        },
        {
          "name": "activeTimeInBlocks",
          "type": "uint256"
        },
        {
          "name": "goodRepWeight",
          "type": "uint256"
        },
        {
          "name": "badRepWeight",
          "type": "uint256"
        }
      ],
      "payable": false,
      "stateMutability": "view",
      "type": "function"
    },
    {
      "constant": false,
      "inputs": [
        {
          "name": "votingId",
          "type": "uint256"
        }
      ],
      "name": "concludeVoting",
      "outputs": [],
      "payable": false,
      "stateMutability": "nonpayable",
      "type": "function"
    },
    {
      "constant": true,
      "inputs": [],
      "name": "isInitialized",
      "outputs": [
        {
          "name": "",
          "type": "bool"
        }
      ],
      "payable": false,
      "stateMutability": "view",
      "type": "function"
    },
    {
      "constant": true,
      "inputs": [
        {
          "name": "votingId",
          "type": "uint256"
        },
        {
          "name": "index",
          "type": "uint256"
        }
      ],
      "name": "getVExecutionHash",
      "outputs": [
        {
          "name": "",
          "type": "bytes32"
        }
      ],
      "payable": false,
      "stateMutability": "view",
      "type": "function"
    },
    {
      "constant": false,
      "inputs": [
        {
          "name": "name",
          "type": "string"
        },
        {
          "name": "description",
          "type": "string"
        },
        {
          "name": "votingTypeId",
          "type": "uint256"
        },
        {
          "name": "startBlockNumber",
          "type": "uint256"
        },
        {
          "name": "executionHashList",
          "type": "bytes32[]"
        },
        {
          "name": "executionModule",
          "type": "string"
        }
      ],
      "name": "createVoting",
      "outputs": [],
      "payable": false,
      "stateMutability": "nonpayable",
      "type": "function"
    },
    {
      "constant": true,
      "inputs": [
        {
          "name": "votingId",
          "type": "uint256"
        }
      ],
      "name": "getVExecutionHashLishCount",
      "outputs": [
        {
          "name": "",
          "type": "uint256"
        }
      ],
      "payable": false,
      "stateMutability": "view",
      "type": "function"
    },
    {
      "constant": true,
      "inputs": [
        {
          "name": "",
          "type": "uint256"
        }
      ],
      "name": "votingList",
      "outputs": [
        {
          "name": "name",
          "type": "string"
        },
        {
          "name": "description",
          "type": "string"
        },
        {
          "name": "typeId",
          "type": "uint256"
        },
        {
          "name": "creator",
          "type": "address"
        },
        {
          "name": "startBlockNumber",
          "type": "uint256"
        },
        {
          "name": "forVotes",
          "type": "uint256"
        },
        {
          "name": "againstVotes",
          "type": "uint256"
        },
        {
          "name": "votedMemberCount",
          "type": "uint256"
        },
        {
          "name": "executionModule",
          "type": "string"
        },
        {
          "name": "isInvalid",
          "type": "bool"
        },
        {
          "name": "passed",
          "type": "bool"
        }
      ],
      "payable": false,
      "stateMutability": "view",
      "type": "function"
    },
    {
      "constant": true,
      "inputs": [
        {
          "name": "votingId",
          "type": "uint256"
        },
        {
          "name": "addr",
          "type": "address"
        }
      ],
      "name": "vHasVoted",
      "outputs": [
        {
          "name": "",
          "type": "bool"
        }
      ],
      "payable": false,
      "stateMutability": "view",
      "type": "function"
    },
    {
      "constant": false,
      "inputs": [
        {
          "name": "taskId",
          "type": "uint256"
        },
        {
          "name": "solId",
          "type": "uint256"
        }
      ],
      "name": "paySolutionReward",
      "outputs": [],
      "payable": false,
      "stateMutability": "nonpayable",
      "type": "function"
    },
    {
      "constant": false,
      "inputs": [
        {
          "name": "index",
          "type": "uint256"
        }
      ],
      "name": "removeVotingTypeAtIndex",
      "outputs": [],
      "payable": false,
      "stateMutability": "nonpayable",
      "type": "function"
    },
    {
      "constant": true,
      "inputs": [
        {
          "name": "typeId",
          "type": "uint256"
        },
        {
          "name": "groupHash",
          "type": "bytes32"
        }
      ],
      "name": "vtIsEligible",
      "outputs": [
        {
          "name": "",
          "type": "bool"
        }
      ],
      "payable": false,
      "stateMutability": "view",
      "type": "function"
    },
    {
      "constant": true,
      "inputs": [],
      "name": "getVotingListCount",
      "outputs": [
        {
          "name": "",
          "type": "uint256"
        }
      ],
      "payable": false,
      "stateMutability": "view",
      "type": "function"
    },
    {
      "constant": false,
      "inputs": [
        {
          "name": "name",
          "type": "string"
        },
        {
          "name": "symbol",
          "type": "string"
        },
        {
          "name": "tokenAddress",
          "type": "address"
        },
        {
          "name": "rewardTokenCap",
          "type": "uint256"
        }
      ],
      "name": "addRecognizedToken",
      "outputs": [],
      "payable": false,
      "stateMutability": "nonpayable",
      "type": "function"
    },
    {
      "constant": true,
      "inputs": [
        {
          "name": "typeId",
          "type": "uint256"
        },
        {
          "name": "index",
          "type": "uint256"
        }
      ],
      "name": "getVTVotableGroup",
      "outputs": [
        {
          "name": "",
          "type": "bytes32"
        }
      ],
      "payable": false,
      "stateMutability": "view",
      "type": "function"
    },
    {
      "constant": true,
      "inputs": [
        {
          "name": "",
          "type": "uint256"
        }
      ],
      "name": "recognizedTokenList",
      "outputs": [
        {
          "name": "name",
          "type": "string"
        },
        {
          "name": "symbol",
          "type": "string"
        },
        {
          "name": "tokenAddress",
          "type": "address"
        }
      ],
      "payable": false,
      "stateMutability": "view",
      "type": "function"
    },
    {
      "constant": true,
      "inputs": [
        {
          "name": "typeId",
          "type": "uint256"
        }
      ],
      "name": "getVTVotableGroupListCount",
      "outputs": [
        {
          "name": "",
          "type": "uint256"
        }
      ],
      "payable": false,
      "stateMutability": "view",
      "type": "function"
    },
    {
      "constant": true,
      "inputs": [
        {
          "name": "typeId",
          "type": "uint256"
        },
        {
          "name": "tokenId",
          "type": "uint256"
        }
      ],
      "name": "vtTokenWeight",
      "outputs": [
        {
          "name": "",
          "type": "uint256"
        }
      ],
      "payable": false,
      "stateMutability": "view",
      "type": "function"
    },
    {
      "constant": false,
      "inputs": [
        {
          "name": "index",
          "type": "uint256"
        }
      ],
      "name": "invalidateVotingAtIndex",
      "outputs": [],
      "payable": false,
      "stateMutability": "nonpayable",
      "type": "function"
    },
    {
      "constant": false,
      "inputs": [
        {
          "name": "votingId",
          "type": "uint256"
        },
        {
          "name": "bytecodeHashId",
          "type": "uint256"
        },
        {
          "name": "executionBytecode",
          "type": "bytes"
        }
      ],
      "name": "executeVoting",
      "outputs": [],
      "payable": false,
      "stateMutability": "nonpayable",
      "type": "function"
    },
    {
      "constant": true,
      "inputs": [],
      "name": "getRecognizedTokenListCount",
      "outputs": [
        {
          "name": "",
          "type": "uint256"
        }
      ],
      "payable": false,
      "stateMutability": "view",
      "type": "function"
    },
    {
      "constant": false,
      "inputs": [
        {
          "name": "votingId",
          "type": "uint256"
        },
        {
          "name": "support",
          "type": "bool"
        }
      ],
      "name": "vote",
      "outputs": [],
      "payable": false,
      "stateMutability": "nonpayable",
      "type": "function"
    },
    {
      "constant": false,
      "inputs": [
        {
          "name": "name",
          "type": "string"
        },
        {
          "name": "description",
          "type": "string"
        },
        {
          "name": "quorumPercent",
          "type": "uint256"
        },
        {
          "name": "minForPercent",
          "type": "uint256"
        },
        {
          "name": "activeTimeInBlocks",
          "type": "uint256"
        },
        {
          "name": "goodRepWeight",
          "type": "uint256"
        },
        {
          "name": "badRepWeight",
          "type": "uint256"
        },
        {
          "name": "tokenIdList",
          "type": "uint256[]"
        },
        {
          "name": "tokenWeightList",
          "type": "uint256[]"
        },
        {
          "name": "votableGroupList",
          "type": "bytes32[]"
        }
      ],
      "name": "createVotingType",
      "outputs": [],
      "payable": false,
      "stateMutability": "nonpayable",
      "type": "function"
    },
    {
      "constant": true,
      "inputs": [],
      "name": "getVotingTypeListCount",
      "outputs": [
        {
          "name": "",
          "type": "uint256"
        }
      ],
      "payable": false,
      "stateMutability": "view",
      "type": "function"
    },
    {
      "constant": false,
      "inputs": [],
      "name": "init",
      "outputs": [],
      "payable": false,
      "stateMutability": "nonpayable",
      "type": "function"
    },
    {
      "constant": false,
      "inputs": [
        {
          "name": "index",
          "type": "uint256"
        }
      ],
      "name": "removeRecognizedTokenAtIndex",
      "outputs": [],
      "payable": false,
      "stateMutability": "nonpayable",
      "type": "function"
    },
    {
      "inputs": [
        {
          "name": "mainAddr",
          "type": "address"
        }
      ],
      "payable": false,
      "stateMutability": "nonpayable",
      "type": "constructor"
    },
    {
      "payable": false,
      "stateMutability": "nonpayable",
      "type": "fallback"
    },
    {
      "anonymous": false,
      "inputs": [
        {
          "indexed": false,
          "name": "votingId",
          "type": "uint256"
        }
      ],
      "name": "VotingCreated",
      "type": "event"
    },
    {
      "anonymous": false,
      "inputs": [
        {
          "indexed": false,
          "name": "votingId",
          "type": "uint256"
        },
        {
          "indexed": false,
          "name": "passed",
          "type": "bool"
        }
      ],
      "name": "VotingConcluded",
      "type": "event"
    }
  ],
  "bytecode": "0x6060604052341561000f57600080fd5b6040516020806148b78339810160405280805190602001909190505080806000806101000a81548173ffffffffffffffffffffffffffffffffffffffff021916908373ffffffffffffffffffffffffffffffffffffffff160217905550505061483a8061007d6000396000f30060606040526004361061015f576000357c0100000000000000000000000000000000000000000000000000000000900463ffffffff16806308b7371e1461016f5780630cdd4234146101a65780632430215f146101fb578063345f342e14610360578063392e53cd146103835780634d9f8522146103b05780634db366fc146103f8578063532e0e151461052d57806358652f4d146105645780635d95738b1461079b5780637a66e5cf146107f557806384601e2414610821578063880cfc60146108445780639444991d1461088c5780639ec03a8d146108b5578063a204815a1461097d578063ae802e47146109c5578063b28dd93a14610b3a578063ba42be1b14610b71578063bbeadcad14610bb1578063c714cfc814610bd4578063c93edc8d14610c43578063c9d27afe14610c6c578063d9523be114610c9a578063d9943bb114610e27578063e1c7392a14610e50578063ecf37ba714610e65575b341561016a57600080fd5b600080fd5b341561017a57600080fd5b6101a460048080359060200190919080359060200190919080351515906020019091905050610e88565b005b34156101b157600080fd5b6101b9611423565b604051808273ffffffffffffffffffffffffffffffffffffffff1673ffffffffffffffffffffffffffffffffffffffff16815260200191505060405180910390f35b341561020657600080fd5b61021c6004808035906020019091905050611448565b60405180806020018060200188815260200187815260200186815260200185815260200184815260200183810383528a8181546001816001161561010002031660029004815260200191508054600181600116156101000203166002900480156102c75780601f1061029c576101008083540402835291602001916102c7565b820191906000526020600020905b8154815290600101906020018083116102aa57829003601f168201915b505083810382528981815460018160011615610100020316600290048152602001915080546001816001161561010002031660029004801561034a5780601f1061031f5761010080835404028352916020019161034a565b820191906000526020600020905b81548152906001019060200180831161032d57829003601f168201915b5050995050505050505050505060405180910390f35b341561036b57600080fd5b6103816004808035906020019091905050611497565b005b341561038e57600080fd5b610396611987565b604051808215151515815260200191505060405180910390f35b34156103bb57600080fd5b6103da600480803590602001909190803590602001909190505061199a565b60405180826000191660001916815260200191505060405180910390f35b341561040357600080fd5b61052b600480803590602001908201803590602001908080601f0160208091040260200160405190810160405280939291908181526020018383808284378201915050505050509190803590602001908201803590602001908080601f016020809104026020016040519081016040528093929190818152602001838380828437820191505050505050919080359060200190919080359060200190919080359060200190820180359060200190808060200260200160405190810160405280939291908181526020018383602002808284378201915050505050509190803590602001908201803590602001908080601f016020809104026020016040519081016040528093929190818152602001838380828437820191505050505050919050506119dd565b005b341561053857600080fd5b61054e6004808035906020019091905050611f1a565b6040518082815260200191505060405180910390f35b341561056f57600080fd5b6105856004808035906020019091905050611f47565b6040518080602001806020018c81526020018b73ffffffffffffffffffffffffffffffffffffffff1673ffffffffffffffffffffffffffffffffffffffff1681526020018a815260200189815260200188815260200187815260200180602001861515151581526020018515151515815260200184810384528f81815460018160011615610100020316600290048152602001915080546001816001161561010002031660029004801561067a5780601f1061064f5761010080835404028352916020019161067a565b820191906000526020600020905b81548152906001019060200180831161065d57829003601f168201915b505084810383528e8181546001816001161561010002031660029004815260200191508054600181600116156101000203166002900480156106fd5780601f106106d2576101008083540402835291602001916106fd565b820191906000526020600020905b8154815290600101906020018083116106e057829003601f168201915b50508481038252878181546001816001161561010002031660029004815260200191508054600181600116156101000203166002900480156107805780601f1061075557610100808354040283529160200191610780565b820191906000526020600020905b81548152906001019060200180831161076357829003601f168201915b50509e50505050505050505050505050505060405180910390f35b34156107a657600080fd5b6107db600480803590602001909190803573ffffffffffffffffffffffffffffffffffffffff16906020019091905050611fe7565b604051808215151515815260200191505060405180910390f35b341561080057600080fd5b61081f600480803590602001909190803590602001909190505061205c565b005b341561082c57600080fd5b610842600480803590602001909190505061276e565b005b341561084f57600080fd5b610872600480803590602001909190803560001916906020019091905050612862565b604051808215151515815260200191505060405180910390f35b341561089757600080fd5b61089f6128b3565b6040518082815260200191505060405180910390f35b34156108c057600080fd5b61097b600480803590602001908201803590602001908080601f0160208091040260200160405190810160405280939291908181526020018383808284378201915050505050509190803590602001908201803590602001908080601f0160208091040260200160405190810160405280939291908181526020018383808284378201915050505050509190803573ffffffffffffffffffffffffffffffffffffffff169060200190919080359060200190919050506128c0565b005b341561098857600080fd5b6109a76004808035906020019091908035906020019091905050612b50565b60405180826000191660001916815260200191505060405180910390f35b34156109d057600080fd5b6109e66004808035906020019091905050612b93565b6040518080602001806020018473ffffffffffffffffffffffffffffffffffffffff1673ffffffffffffffffffffffffffffffffffffffff168152602001838103835286818154600181600116156101000203166002900481526020019150805460018160011615610100020316600290048015610aa55780601f10610a7a57610100808354040283529160200191610aa5565b820191906000526020600020905b815481529060010190602001808311610a8857829003601f168201915b5050838103825285818154600181600116156101000203166002900481526020019150805460018160011615610100020316600290048015610b285780601f10610afd57610100808354040283529160200191610b28565b820191906000526020600020905b815481529060010190602001808311610b0b57829003601f168201915b50509550505050505060405180910390f35b3415610b4557600080fd5b610b5b6004808035906020019091905050612bea565b6040518082815260200191505060405180910390f35b3415610b7c57600080fd5b610b9b6004808035906020019091908035906020019091905050612c17565b6040518082815260200191505060405180910390f35b3415610bbc57600080fd5b610bd26004808035906020019091905050612c53565b005b3415610bdf57600080fd5b610c41600480803590602001909190803590602001909190803590602001908201803590602001908080601f01602080910402602001604051908101604052809392919081815260200183838082843782019150505050505091905050612d1a565b005b3415610c4e57600080fd5b610c566131bc565b6040518082815260200191505060405180910390f35b3415610c7757600080fd5b610c98600480803590602001909190803515159060200190919050506131c9565b005b3415610ca557600080fd5b610e25600480803590602001908201803590602001908080601f0160208091040260200160405190810160405280939291908181526020018383808284378201915050505050509190803590602001908201803590602001908080601f01602080910402602001604051908101604052809392919081815260200183838082843782019150505050505091908035906020019091908035906020019091908035906020019091908035906020019091908035906020019091908035906020019082018035906020019080806020026020016040519081016040528093929190818152602001838360200280828437820191505050505050919080359060200190820180359060200190808060200260200160405190810160405280939291908181526020018383602002808284378201915050505050509190803590602001908201803590602001908080602002602001604051908101604052809392919081815260200183836020028082843782019150505050505091905050613a26565b005b3415610e3257600080fd5b610e3a613b64565b6040518082815260200191505060405180910390f35b3415610e5b57600080fd5b610e63613b71565b005b3415610e7057600080fd5b610e866004808035906020019091905050613d80565b005b6000806000806000806040805190810160405280600381526020017f44414f0000000000000000000000000000000000000000000000000000000000815250610ed081613fa7565b73ffffffffffffffffffffffffffffffffffffffff163373ffffffffffffffffffffffffffffffffffffffff16141515610f0957600080fd5b610f476040805190810160405280600581526020017f5441534b53000000000000000000000000000000000000000000000000000000815250613fa7565b96508673ffffffffffffffffffffffffffffffffffffffff16632a1c52a58b600060405161010001526040518263ffffffff167c01000000000000000000000000000000000000000000000000000000000281526004018082815260200191505061010060405180830381600087803b1515610fc257600080fd5b6102c65a03f11515610fd357600080fd5b50505060405180519060200180519060200180519060200180519060200180519060200180519060200180519060200180519050505050985050505095508673ffffffffffffffffffffffffffffffffffffffff16637ed08e228b8b600060405160a001526040518363ffffffff167c0100000000000000000000000000000000000000000000000000000000028152600401808381526020018281526020019250505060a060405180830381600087803b151561109057600080fd5b6102c65a03f115156110a157600080fd5b50505060405180519060200180519060200180519060200180519060200180519050505050935093508673ffffffffffffffffffffffffffffffffffffffff16636b3b1d178b856000604051602001526040518363ffffffff167c0100000000000000000000000000000000000000000000000000000000028152600401808381526020018273ffffffffffffffffffffffffffffffffffffffff1673ffffffffffffffffffffffffffffffffffffffff16815260200192505050602060405180830381600087803b151561117557600080fd5b6102c65a03f1151561118657600080fd5b5050506040518051905015151561119c57600080fd5b8673ffffffffffffffffffffffffffffffffffffffff16635ce57b508b8560016040518463ffffffff167c0100000000000000000000000000000000000000000000000000000000028152600401808481526020018373ffffffffffffffffffffffffffffffffffffffff1673ffffffffffffffffffffffffffffffffffffffff168152602001821515151581526020019350505050600060405180830381600087803b151561124b57600080fd5b6102c65a03f1151561125c57600080fd5b50505061129d6040805190810160405280600681526020017f4d454d4245520000000000000000000000000000000000000000000000000000815250613fa7565b91508173ffffffffffffffffffffffffffffffffffffffff1663e56044c884876040518363ffffffff167c0100000000000000000000000000000000000000000000000000000000028152600401808373ffffffffffffffffffffffffffffffffffffffff1673ffffffffffffffffffffffffffffffffffffffff16815260200182815260200192505050600060405180830381600087803b151561134157600080fd5b6102c65a03f1151561135257600080fd5b5050508715611417578173ffffffffffffffffffffffffffffffffffffffff16635bc724608460016040518363ffffffff167c0100000000000000000000000000000000000000000000000000000000028152600401808373ffffffffffffffffffffffffffffffffffffffff1673ffffffffffffffffffffffffffffffffffffffff1681526020018215151515815260200192505050600060405180830381600087803b151561140257600080fd5b6102c65a03f1151561141357600080fd5b5050505b50505050505050505050565b6000809054906101000a900473ffffffffffffffffffffffffffffffffffffffff1681565b60028181548110151561145757fe5b90600052602060002090600a0201600091509050806000019080600101908060020154908060030154908060040154908060050154908060060154905087565b60008060008060006040805190810160405280600481526020017f766f74650000000000000000000000000000000000000000000000000000000081525060006115156040805190810160405280600681526020017f4d454d4245520000000000000000000000000000000000000000000000000000815250613fa7565b90508073ffffffffffffffffffffffffffffffffffffffff16636c3ea72133846000604051602001526040518363ffffffff167c0100000000000000000000000000000000000000000000000000000000028152600401808373ffffffffffffffffffffffffffffffffffffffff1673ffffffffffffffffffffffffffffffffffffffff16815260200180602001828103825283818151815260200191508051906020019080838360005b838110156115db5780820151818401526020810190506115c0565b50505050905090810190601f1680156116085780820380516001836020036101000a031916815260200191505b509350505050602060405180830381600087803b151561162757600080fd5b6102c65a03f1151561163857600080fd5b50505060405180519050151561164d57600080fd5b8073ffffffffffffffffffffffffffffffffffffffff166397f735d5336000604051602001526040518263ffffffff167c0100000000000000000000000000000000000000000000000000000000028152600401808273ffffffffffffffffffffffffffffffffffffffff1673ffffffffffffffffffffffffffffffffffffffff168152602001915050602060405180830381600087803b15156116f057600080fd5b6102c65a03f1151561170157600080fd5b5050506040518051905015151561171757600080fd5b60018881548110151561172657fe5b90600052602060002090600c0201965086600b0160009054906101000a900460ff1615151561175457600080fd5b600187600b0160006101000a81548160ff0219169083151502179055506002876002015481548110151561178457fe5b90600052602060002090600a02019550856004015487600401540143101515156117ad57600080fd5b6117eb6040805190810160405280600681526020017f4d454d4245520000000000000000000000000000000000000000000000000000815250613fa7565b9450600092505b85600701805490508310156118c8578473ffffffffffffffffffffffffffffffffffffffff1663a483e614876007018581548110151561182e57fe5b9060005260206000209001546000604051602001526040518263ffffffff167c0100000000000000000000000000000000000000000000000000000000028152600401808260001916600019168152602001915050602060405180830381600087803b151561189c57600080fd5b6102c65a03f115156118ad57600080fd5b505050604051805190508401935082806001019350506117f2565b85600301546064886006015489600501540189600501548115156118e857fe5b04021015801561190e57508560020154606485896007015481151561190957fe5b040210155b87600b0160016101000a81548160ff0219169083151502179055507f0c77796cd10a570d9e9676dfefd3bd24776fa13e25f41d0b2e13a0069add50ab8888600b0160019054906101000a900460ff1660405180838152602001821515151581526020019250505060405180910390a15050505050505050565b600460009054906101000a900460ff1681565b60006001838154811015156119ab57fe5b90600052602060002090600c0201600801828154811015156119c957fe5b906000526020600020900154905092915050565b6040805190810160405280600d81526020017f6372656174655f766f74696e67000000000000000000000000000000000000008152506000611a536040805190810160405280600681526020017f4d454d4245520000000000000000000000000000000000000000000000000000815250613fa7565b90508073ffffffffffffffffffffffffffffffffffffffff16636c3ea72133846000604051602001526040518363ffffffff167c0100000000000000000000000000000000000000000000000000000000028152600401808373ffffffffffffffffffffffffffffffffffffffff1673ffffffffffffffffffffffffffffffffffffffff16815260200180602001828103825283818151815260200191508051906020019080838360005b83811015611b19578082015181840152602081019050611afe565b50505050905090810190601f168015611b465780820380516001836020036101000a031916815260200191505b509350505050602060405180830381600087803b1515611b6557600080fd5b6102c65a03f11515611b7657600080fd5b505050604051805190501515611b8b57600080fd5b8073ffffffffffffffffffffffffffffffffffffffff166397f735d5336000604051602001526040518263ffffffff167c0100000000000000000000000000000000000000000000000000000000028152600401808273ffffffffffffffffffffffffffffffffffffffff1673ffffffffffffffffffffffffffffffffffffffff168152602001915050602060405180830381600087803b1515611c2e57600080fd5b6102c65a03f11515611c3f57600080fd5b50505060405180519050151515611c5557600080fd5b604051806000019050604051809103902060001916600287815481101515611c7957fe5b90600052602060002090600a02016000016040518082805460018160011615610100020316600290048015611ce55780601f10611cc3576101008083540402835291820191611ce5565b820191906000526020600020905b815481529060010190602001808311611cd1575b505091505060405180910390206000191614151515611d0357600080fd5b60018054806001018281611d179190614361565b91600052602060002090600c02016000610180604051908101604052808c81526020018b81526020018a81526020013373ffffffffffffffffffffffffffffffffffffffff1681526020018981526020016000815260200160008152602001600081526020018881526020018781526020016000151581526020016000151581525090919091506000820151816000019080519060200190611dba929190614393565b506020820151816001019080519060200190611dd7929190614393565b506040820151816002015560608201518160030160006101000a81548173ffffffffffffffffffffffffffffffffffffffff021916908373ffffffffffffffffffffffffffffffffffffffff1602179055506080820151816004015560a0820151816005015560c0820151816006015560e08201518160070155610100820151816008019080519060200190611e6e929190614413565b50610120820151816009019080519060200190611e8c929190614393565b5061014082015181600b0160006101000a81548160ff02191690831515021790555061016082015181600b0160016101000a81548160ff0219169083151502179055505050507f3205be6c9f54a5e02a1ee7ed665ab460898cce94d5976b5937f48ec19682036d60018080549050036040518082815260200191505060405180910390a15050505050505050565b6000600182815481101515611f2b57fe5b90600052602060002090600c0201600801805490509050919050565b600181815481101515611f5657fe5b90600052602060002090600c0201600091509050806000019080600101908060020154908060030160009054906101000a900473ffffffffffffffffffffffffffffffffffffffff1690806004015490806005015490806006015490806007015490806009019080600b0160009054906101000a900460ff169080600b0160019054906101000a900460ff1690508b565b6000600183815481101515611ff857fe5b90600052602060002090600c0201600a0160008373ffffffffffffffffffffffffffffffffffffffff1673ffffffffffffffffffffffffffffffffffffffff16815260200190815260200160002060009054906101000a900460ff16905092915050565b60008060008060008060008060008060006040805190810160405280600581526020017f5441534b530000000000000000000000000000000000000000000000000000008152506120ac81613fa7565b73ffffffffffffffffffffffffffffffffffffffff163373ffffffffffffffffffffffffffffffffffffffff161415156120e557600080fd5b6121236040805190810160405280600581526020017f5441534b53000000000000000000000000000000000000000000000000000000815250613fa7565b9b508b73ffffffffffffffffffffffffffffffffffffffff16632a1c52a58f600060405161010001526040518263ffffffff167c01000000000000000000000000000000000000000000000000000000000281526004018082815260200191505061010060405180830381600087803b151561219e57600080fd5b6102c65a03f115156121af57600080fd5b50505060405180519060200180519060200180519060200180519060200180519060200180519060200180519060200180519050505050509b509b50509a508b73ffffffffffffffffffffffffffffffffffffffff16637ed08e228f8f600060405160a001526040518363ffffffff167c0100000000000000000000000000000000000000000000000000000000028152600401808381526020018281526020019250505060a060405180830381600087803b151561226d57600080fd5b6102c65a03f1151561227e57600080fd5b50505060405180519060200180519060200180519060200180519060200180519050505050975097506122e56040805190810160405280600581526020017f5641554c54000000000000000000000000000000000000000000000000000000815250613fa7565b95508573ffffffffffffffffffffffffffffffffffffffff1663f8bd65328b8960016040518463ffffffff167c0100000000000000000000000000000000000000000000000000000000028152600401808481526020018373ffffffffffffffffffffffffffffffffffffffff1673ffffffffffffffffffffffffffffffffffffffff168152602001821515151581526020019350505050600060405180830381600087803b151561239657600080fd5b6102c65a03f115156123a757600080fd5b5050506123b4878a6140d2565b600094505b8b73ffffffffffffffffffffffffffffffffffffffff1663105d1f668f6000604051602001526040518263ffffffff167c010000000000000000000000000000000000000000000000000000000002815260040180828152602001915050602060405180830381600087803b151561243057600080fd5b6102c65a03f1151561244157600080fd5b5050506040518051905085101561275e578b73ffffffffffffffffffffffffffffffffffffffff1663ab5976ea8f876000604051602001526040518363ffffffff167c01000000000000000000000000000000000000000000000000000000000281526004018083815260200182815260200192505050602060405180830381600087803b15156124d157600080fd5b6102c65a03f115156124e257600080fd5b5050506040518051905093508b73ffffffffffffffffffffffffffffffffffffffff166329ba71cf8f876000604051602001526040518363ffffffff167c01000000000000000000000000000000000000000000000000000000000281526004018083815260200182815260200192505050602060405180830381600087803b151561256d57600080fd5b6102c65a03f1151561257e57600080fd5b50505060405180519050925060038481548110151561259957fe5b906000526020600020906003020191508573ffffffffffffffffffffffffffffffffffffffff1663217bc6948489856001018660020160009054906101000a900473ffffffffffffffffffffffffffffffffffffffff1660016040518663ffffffff167c0100000000000000000000000000000000000000000000000000000000028152600401808681526020018573ffffffffffffffffffffffffffffffffffffffff1673ffffffffffffffffffffffffffffffffffffffff168152602001806020018473ffffffffffffffffffffffffffffffffffffffff1673ffffffffffffffffffffffffffffffffffffffff1681526020018315151515815260200182810382528581815460018160011615610100020316600290048152602001915080546001816001161561010002031660029004801561271a5780601f106126ef5761010080835404028352916020019161271a565b820191906000526020600020905b8154815290600101906020018083116126fd57829003601f168201915b50509650505050505050600060405180830381600087803b151561273d57600080fd5b6102c65a03f1151561274e57600080fd5b50505084806001019550506123b9565b5050505050505050505050505050565b6040805190810160405280600381526020017f44414f00000000000000000000000000000000000000000000000000000000008152506127ad81613fa7565b73ffffffffffffffffffffffffffffffffffffffff163373ffffffffffffffffffffffffffffffffffffffff161415156127e657600080fd5b6002828154811015156127f557fe5b90600052602060002090600a0201600080820160006128149190614466565b6001820160006128249190614466565b6002820160009055600382016000905560048201600090556005820160009055600682016000905560078201600061285c91906144ae565b50505050565b600060028381548110151561287357fe5b90600052602060002090600a02016009016000836000191660001916815260200190815260200160002060009054906101000a900460ff16905092915050565b6000600180549050905090565b60006040805190810160405280600381526020017f44414f000000000000000000000000000000000000000000000000000000000081525061290181613fa7565b73ffffffffffffffffffffffffffffffffffffffff163373ffffffffffffffffffffffffffffffffffffffff1614151561293a57600080fd5b6003805480600101828161294e91906144cf565b916000526020600020906003020160006060604051908101604052808a81526020018981526020018873ffffffffffffffffffffffffffffffffffffffff16815250909190915060008201518160000190805190602001906129b1929190614393565b5060208201518160010190805190602001906129ce929190614393565b5060408201518160020160006101000a81548173ffffffffffffffffffffffffffffffffffffffff021916908373ffffffffffffffffffffffffffffffffffffffff160217905550505050612a576040805190810160405280600581526020017f5441534b53000000000000000000000000000000000000000000000000000000815250613fa7565b91508173ffffffffffffffffffffffffffffffffffffffff16632b331e0a84866040518363ffffffff167c010000000000000000000000000000000000000000000000000000000002815260040180806020018481526020018373ffffffffffffffffffffffffffffffffffffffff1673ffffffffffffffffffffffffffffffffffffffff168152602001828103825260058152602001807f746f6b656e0000000000000000000000000000000000000000000000000000008152506020019350505050600060405180830381600087803b1515612b3457600080fd5b6102c65a03f11515612b4557600080fd5b505050505050505050565b6000600283815481101515612b6157fe5b90600052602060002090600a020160070182815481101515612b7f57fe5b906000526020600020900154905092915050565b600381815481101515612ba257fe5b9060005260206000209060030201600091509050806000019080600101908060020160009054906101000a900473ffffffffffffffffffffffffffffffffffffffff16905083565b6000600282815481101515612bfb57fe5b90600052602060002090600a0201600701805490509050919050565b6000600283815481101515612c2857fe5b90600052602060002090600a0201600801600083815260200190815260200160002054905092915050565b6040805190810160405280600381526020017f44414f0000000000000000000000000000000000000000000000000000000000815250612c9281613fa7565b73ffffffffffffffffffffffffffffffffffffffff163373ffffffffffffffffffffffffffffffffffffffff16141515612ccb57600080fd5b60018054905082101515612cde57600080fd5b60018083815481101515612cee57fe5b90600052602060002090600c0201600b0160006101000a81548160ff0219169083151502179055505050565b60006040805190810160405280600481526020017f766f7465000000000000000000000000000000000000000000000000000000008152506000612d926040805190810160405280600681526020017f4d454d4245520000000000000000000000000000000000000000000000000000815250613fa7565b90508073ffffffffffffffffffffffffffffffffffffffff16636c3ea72133846000604051602001526040518363ffffffff167c0100000000000000000000000000000000000000000000000000000000028152600401808373ffffffffffffffffffffffffffffffffffffffff1673ffffffffffffffffffffffffffffffffffffffff16815260200180602001828103825283818151815260200191508051906020019080838360005b83811015612e58578082015181840152602081019050612e3d565b50505050905090810190601f168015612e855780820380516001836020036101000a031916815260200191505b509350505050602060405180830381600087803b1515612ea457600080fd5b6102c65a03f11515612eb557600080fd5b505050604051805190501515612eca57600080fd5b8073ffffffffffffffffffffffffffffffffffffffff166397f735d5336000604051602001526040518263ffffffff167c0100000000000000000000000000000000000000000000000000000000028152600401808273ffffffffffffffffffffffffffffffffffffffff1673ffffffffffffffffffffffffffffffffffffffff168152602001915050602060405180830381600087803b1515612f6d57600080fd5b6102c65a03f11515612f7e57600080fd5b50505060405180519050151515612f9457600080fd5b600186815481101515612fa357fe5b90600052602060002090600c0201925082600b0160019054906101000a900460ff161515612fd057600080fd5b836040518082805190602001908083835b6020831015156130065780518252602082019150602081019050602083039250612fe1565b6001836020036101000a038019825116818451168082178552505050505050905001915050604051809103902060001916836008018681548110151561304857fe5b9060005260206000209001546000191614151561306457600080fd5b613109836009018054600181600116156101000203166002900480601f0160208091040260200160405190810160405280929190818152602001828054600181600116156101000203166002900480156130ff5780601f106130d4576101008083540402835291602001916130ff565b820191906000526020600020905b8154815290600101906020018083116130e257829003601f168201915b5050505050613fa7565b73ffffffffffffffffffffffffffffffffffffffff168460405180828051906020019080838360005b8381101561314d578082015181840152602081019050613132565b50505050905090810190601f16801561317a5780820380516001836020036101000a031916815260200191505b5091505060006040518083038160008661646e5a03f19150505082600801858154811015156131a557fe5b906000526020600020900160009055505050505050565b6000600380549050905090565b60008060008060008060008060006040805190810160405280600481526020017f766f746500000000000000000000000000000000000000000000000000000000815250600061324d6040805190810160405280600681526020017f4d454d4245520000000000000000000000000000000000000000000000000000815250613fa7565b90508073ffffffffffffffffffffffffffffffffffffffff16636c3ea72133846000604051602001526040518363ffffffff167c0100000000000000000000000000000000000000000000000000000000028152600401808373ffffffffffffffffffffffffffffffffffffffff1673ffffffffffffffffffffffffffffffffffffffff16815260200180602001828103825283818151815260200191508051906020019080838360005b838110156133135780820151818401526020810190506132f8565b50505050905090810190601f1680156133405780820380516001836020036101000a031916815260200191505b509350505050602060405180830381600087803b151561335f57600080fd5b6102c65a03f1151561337057600080fd5b50505060405180519050151561338557600080fd5b8073ffffffffffffffffffffffffffffffffffffffff166397f735d5336000604051602001526040518263ffffffff167c0100000000000000000000000000000000000000000000000000000000028152600401808273ffffffffffffffffffffffffffffffffffffffff1673ffffffffffffffffffffffffffffffffffffffff168152602001915050602060405180830381600087803b151561342857600080fd5b6102c65a03f1151561343957600080fd5b5050506040518051905015151561344f57600080fd5b60018d81548110151561345e57fe5b90600052602060002090600c02019a5060028b6002015481548110151561348157fe5b90600052602060002090600a020199506134cf6040805190810160405280600681526020017f4d454d4245520000000000000000000000000000000000000000000000000000815250613fa7565b98508873ffffffffffffffffffffffffffffffffffffffff1663b307fc6d8a73ffffffffffffffffffffffffffffffffffffffff166339106821336000604051602001526040518263ffffffff167c0100000000000000000000000000000000000000000000000000000000028152600401808273ffffffffffffffffffffffffffffffffffffffff1673ffffffffffffffffffffffffffffffffffffffff168152602001915050602060405180830381600087803b151561359057600080fd5b6102c65a03f115156135a157600080fd5b50505060405180519050600060405160a001526040518263ffffffff167c01000000000000000000000000000000000000000000000000000000000281526004018082815260200191505060a060405180830381600087803b151561360557600080fd5b6102c65a03f1151561361657600080fd5b505050604051805190602001805190602001805190602001805190602001805190509a509a505050508a600b0160009054906101000a900460ff1615151561365d57600080fd5b8a60040154431015801561367a575089600401548b600401540143105b151561368557600080fd5b8a600a0160003373ffffffffffffffffffffffffffffffffffffffff1673ffffffffffffffffffffffffffffffffffffffff16815260200190815260200160002060009054906101000a900460ff161515156136e057600080fd5b8960090160008a73ffffffffffffffffffffffffffffffffffffffff166319b5176e336000604051602001526040518263ffffffff167c0100000000000000000000000000000000000000000000000000000000028152600401808273ffffffffffffffffffffffffffffffffffffffff1673ffffffffffffffffffffffffffffffffffffffff168152602001915050602060405180830381600087803b151561378957600080fd5b6102c65a03f1151561379a57600080fd5b505050604051805190506000191660001916815260200190815260200160002060009054906101000a900460ff1615156137d357600080fd5b60018b600a0160003373ffffffffffffffffffffffffffffffffffffffff1673ffffffffffffffffffffffffffffffffffffffff16815260200190815260200160002060006101000a81548160ff021916908315150217905550868a6006015402888b6005015402039550600094505b6003805490508510156139c65760038581548110151561385f57fe5b9060005260206000209060030201935060008460020160009054906101000a900473ffffffffffffffffffffffffffffffffffffffff1673ffffffffffffffffffffffffffffffffffffffff16141515156138b957600080fd5b8360020160009054906101000a900473ffffffffffffffffffffffffffffffffffffffff1692508273ffffffffffffffffffffffffffffffffffffffff166370a08231336000604051602001526040518263ffffffff167c0100000000000000000000000000000000000000000000000000000000028152600401808273ffffffffffffffffffffffffffffffffffffffff1673ffffffffffffffffffffffffffffffffffffffff168152602001915050602060405180830381600087803b151561398357600080fd5b6102c65a03f1151561399457600080fd5b505050604051805190508a60080160008781526020019081526020016000205402860195508480600101955050613843565b60008612156139d457600095505b8b156139f157858b60050160008282540192505081905550613a04565b858b600601600082825401925050819055505b60018b6007016000828254019250508190555050505050505050505050505050565b60006040805190810160405280600381526020017f44414f0000000000000000000000000000000000000000000000000000000000815250613a6781613fa7565b73ffffffffffffffffffffffffffffffffffffffff163373ffffffffffffffffffffffffffffffffffffffff16141515613aa057600080fd5b83518551141515613ab057600080fd5b613ac08c8c8c8c8c8c8c8a6141cf565b600091505b8251821015613b4c5760016002600160028054905003815481101515613ae757fe5b90600052602060002090600a020160090160008585815181101515613b0857fe5b906020019060200201516000191660001916815260200190815260200160002060006101000a81548160ff0219169083151502179055508180600101925050613ac5565b613b5685856142c9565b505050505050505050505050565b6000600280549050905090565b600080600460009054906101000a900460ff16151515613b9057600080fd5b6001600460006101000a81548160ff02191690831515021790555060405180807f66756c6c5f74696d6500000000000000000000000000000000000000000000008152506009019050604051809103902091506001600281818054905001915081613bfb9190614501565b506002600160028054905003815481101515613c1357fe5b90600052602060002090600a020190506040805190810160405280600781526020017f44656661756c7400000000000000000000000000000000000000000000000000815250816000019080519060200190613c70929190614533565b506040805190810160405280601081526020017f466f7220696e697469616c697a696e6700000000000000000000000000000000815250816001019080519060200190613cbe929190614533565b506064816002018190555060648160030181905550601981600401819055506001816005018190555060018160060181905550806007018054806001018281613d0791906145b3565b91600052602060002090016000849091909150906000191690555060016002600160028054905003815481101515613d3b57fe5b90600052602060002090600a02016009016000846000191660001916815260200190815260200160002060006101000a81548160ff0219169083151502179055505050565b60006040805190810160405280600381526020017f44414f0000000000000000000000000000000000000000000000000000000000815250613dc181613fa7565b73ffffffffffffffffffffffffffffffffffffffff163373ffffffffffffffffffffffffffffffffffffffff16141515613dfa57600080fd5b60038054905083101515613e0d57600080fd5b613e4b6040805190810160405280600581526020017f5441534b53000000000000000000000000000000000000000000000000000000815250613fa7565b91508173ffffffffffffffffffffffffffffffffffffffff16636f48e676600385815481101515613e7857fe5b906000526020600020906003020160020160009054906101000a900473ffffffffffffffffffffffffffffffffffffffff166040518263ffffffff167c0100000000000000000000000000000000000000000000000000000000028152600401808273ffffffffffffffffffffffffffffffffffffffff1673ffffffffffffffffffffffffffffffffffffffff168152602001915050600060405180830381600087803b1515613f2757600080fd5b6102c65a03f11515613f3857600080fd5b505050600383815481101515613f4a57fe5b906000526020600020906003020160008082016000613f699190614466565b600182016000613f799190614466565b6002820160006101000a81549073ffffffffffffffffffffffffffffffffffffffff02191690555050505050565b6000806000809054906101000a900473ffffffffffffffffffffffffffffffffffffffff1690508073ffffffffffffffffffffffffffffffffffffffff166310a8169c846040518082805190602001908083835b6020831015156140205780518252602082019150602081019050602083039250613ffb565b6001836020036101000a03801982511681845116808217855250505050505090500191505060405180910390206000604051602001526040518263ffffffff167c0100000000000000000000000000000000000000000000000000000000028152600401808260001916600019168152602001915050602060405180830381600087803b15156140af57600080fd5b6102c65a03f115156140c057600080fd5b50505060405180519050915050919050565b60006141126040805190810160405280600681526020017f4d454d4245520000000000000000000000000000000000000000000000000000815250613fa7565b90508073ffffffffffffffffffffffffffffffffffffffff166306ebe49f84846040518363ffffffff167c0100000000000000000000000000000000000000000000000000000000028152600401808373ffffffffffffffffffffffffffffffffffffffff1673ffffffffffffffffffffffffffffffffffffffff16815260200182815260200192505050600060405180830381600087803b15156141b657600080fd5b6102c65a03f115156141c757600080fd5b505050505050565b600280548060010182816141e391906145df565b91600052602060002090600a02016000610100604051908101604052808c81526020018b81526020018a8152602001898152602001888152602001878152602001868152602001858152509091909150600082015181600001908051906020019061424f929190614393565b50602082015181600101908051906020019061426c929190614393565b5060408201518160020155606082015181600301556080820151816004015560a0820151816005015560c0820151816006015560e08201518160070190805190602001906142bb929190614413565b505050505050505050505050565b60008060008092505b845183101561435a5784838151811015156142e957fe5b906020019060200201519150838381518110151561430357fe5b90602001906020020151905080600260016002805490500381548110151561432757fe5b90600052602060002090600a020160080160008481526020019081526020016000208190555082806001019350506142d2565b5050505050565b81548183558181151161438e57600c0281600c02836000526020600020918201910161438d9190614611565b5b505050565b828054600181600116156101000203166002900490600052602060002090601f016020900481019282601f106143d457805160ff1916838001178555614402565b82800160010185558215614402579182015b828111156144015782518255916020019190600101906143e6565b5b50905061440f91906146e7565b5090565b828054828255906000526020600020908101928215614455579160200282015b82811115614454578251829060001916905591602001919060010190614433565b5b509050614462919061470c565b5090565b50805460018160011615610100020316600290046000825580601f1061448c57506144ab565b601f0160209004906000526020600020908101906144aa91906146e7565b5b50565b50805460008255906000526020600020908101906144cc919061470c565b50565b8154818355818115116144fc576003028160030283600052602060002091820191016144fb9190614731565b5b505050565b81548183558181151161452e57600a0281600a02836000526020600020918201910161452d9190614797565b5b505050565b828054600181600116156101000203166002900490600052602060002090601f016020900481019282601f1061457457805160ff19168380011785556145a2565b828001600101855582156145a2579182015b828111156145a1578251825591602001919060010190614586565b5b5090506145af91906146e7565b5090565b8154818355818115116145da578183600052602060002091820191016145d9919061470c565b5b505050565b81548183558181151161460c57600a0281600a02836000526020600020918201910161460b9190614797565b5b505050565b6146e491905b808211156146e057600080820160006146309190614466565b6001820160006146409190614466565b60028201600090556003820160006101000a81549073ffffffffffffffffffffffffffffffffffffffff0219169055600482016000905560058201600090556006820160009055600782016000905560088201600061469f91906144ae565b6009820160006146af9190614466565b600b820160006101000a81549060ff0219169055600b820160016101000a81549060ff021916905550600c01614617565b5090565b90565b61470991905b808211156147055760008160009055506001016146ed565b5090565b90565b61472e91905b8082111561472a576000816000905550600101614712565b5090565b90565b61479491905b8082111561479057600080820160006147509190614466565b6001820160006147609190614466565b6002820160006101000a81549073ffffffffffffffffffffffffffffffffffffffff021916905550600301614737565b5090565b90565b61480b91905b8082111561480757600080820160006147b69190614466565b6001820160006147c69190614466565b600282016000905560038201600090556004820160009055600582016000905560068201600090556007820160006147fe91906144ae565b50600a0161479d565b5090565b905600a165627a7a7230582020502068aaffadf1ee8047b5f22536da82f0fc17f27cd58644d6093520c897c80029",
  "source": "/*\r\n    dao.sol\r\n    Created by Zefram Lou (Zebang Liu) as part of the WikiGit project.\r\n\r\n    This file implements the mechanics of the DAO, including managing members,\r\n    holding votings, modifying the bylaws and structure of the DAO, calling and\r\n    managing other modules, allowing modules to access other modules, and so on.\r\n\r\n    The DAO is the absolute source of power of the entire DAP.\r\n*/\r\n\r\npragma solidity ^0.4.18;\r\n\r\nimport './erc20.sol';\r\nimport './vault.sol';\r\nimport './tasks_handler.sol';\r\nimport './member_handler.sol';\r\n\r\ncontract Dao is Module {\r\n    /*\r\n        Defines an ERC20 token recognized by the DAO.\r\n    */\r\n    struct RecognizedToken {\r\n        string name;\r\n        string symbol;\r\n        address tokenAddress;\r\n    }\r\n\r\n    /*\r\n        Defines a certain type of voting.\r\n        The weights are the linear coefficients for tallying the votes.\r\n    */\r\n    struct VotingType {\r\n        string name;\r\n        string description;\r\n        uint quorumPercent;\r\n        uint minForPercent; //Minimum proportion of for votes needed to pass the voting.\r\n        uint activeTimeInBlocks; //The number of blocks for which the voting is active.\r\n        uint goodRepWeight;\r\n        uint badRepWeight;\r\n        bytes32[] votableGroupList;\r\n        mapping(uint => uint) tokenWeight; //From token's index in recognizedTokenList to weight\r\n        mapping(bytes32 => bool) isEligible; //From group name's keccak256 hash to bool. For checking whether a group is allowed to vote.\r\n    }\r\n\r\n    struct Voting {\r\n        string name;\r\n        string description;\r\n        uint typeId; //The index of the voting type in the votingTypeList array.\r\n        address creator;\r\n        uint startBlockNumber;\r\n        uint forVotes;\r\n        uint againstVotes;\r\n        uint votedMemberCount;\r\n        bytes32[] executionHashList; //The list of hashes of the transaction bytecodes that are executed after the voting is passed.\r\n        string executionModule; //The name of the module that'll execute the transaction bytecode.\r\n        mapping(address => bool) hasVoted;\r\n        bool isInvalid;\r\n        bool passed;\r\n    }\r\n\r\n    modifier notBanned {\r\n        MemberHandler h = MemberHandler(moduleAddress('MEMBER'));\r\n        require(! h.isBanned(msg.sender));\r\n        _;\r\n     }\r\n    //Should only be used in functions meant to be directly called by members and don't need any rights.\r\n\r\n    modifier needsRight(string right) {\r\n        MemberHandler h = MemberHandler(moduleAddress('MEMBER'));\r\n        require(h.memberHasRight(msg.sender, right));\r\n        require(! h.isBanned(msg.sender)); //Makes function declarations more concise.\r\n        _;\r\n    }\r\n\r\n    Voting[] public votingList;\r\n    VotingType[] public votingTypeList;\r\n    RecognizedToken[] public recognizedTokenList;\r\n\r\n    bool public isInitialized;\r\n\r\n    event VotingCreated(uint votingId);\r\n    event VotingConcluded(uint votingId, bool passed);\r\n\r\n    //Initializing\r\n\r\n    function Dao(address mainAddr) Module(mainAddr) public {\r\n\r\n    }\r\n\r\n    //Not in constructor to lower deployment cost\r\n    function init() public {\r\n        require(! isInitialized);\r\n        isInitialized = true;\r\n\r\n        bytes32 fullTimeHash = keccak256('full_time');\r\n\r\n        //Initialize voting types\r\n        votingTypeList.length += 1;\r\n\r\n        VotingType storage vType = votingTypeList[votingTypeList.length - 1];\r\n        vType.name = 'Default';\r\n        vType.description = 'For initializing';\r\n        vType.quorumPercent = 100;\r\n        vType.minForPercent = 100;\r\n        vType.activeTimeInBlocks = 25;\r\n        vType.goodRepWeight = 1;\r\n        vType.badRepWeight = 1;\r\n        vType.votableGroupList.push(fullTimeHash);\r\n\r\n        votingTypeList[votingTypeList.length - 1].isEligible[fullTimeHash] = true;\r\n    }\r\n\r\n    //Voting\r\n\r\n    function createVoting(\r\n        string name,\r\n        string description,\r\n        uint votingTypeId,\r\n        uint startBlockNumber,\r\n        bytes32[] executionHashList,\r\n        string executionModule\r\n    )\r\n        public\r\n        needsRight('create_voting')\r\n    {\r\n        require(keccak256(votingTypeList[votingTypeId].name) != keccak256(''));\r\n\r\n        votingList.push(Voting({\r\n            name: name,\r\n            description: description,\r\n            typeId: votingTypeId,\r\n            creator: msg.sender,\r\n            startBlockNumber: startBlockNumber,\r\n            executionHashList: executionHashList,\r\n            executionModule: executionModule,\r\n            forVotes: 0,\r\n            againstVotes: 0,\r\n            votedMemberCount: 0,\r\n            isInvalid: false,\r\n            passed:false\r\n        }));\r\n\r\n        VotingCreated(votingList.length - 1);\r\n    }\r\n\r\n    function invalidateVotingAtIndex(uint index) public onlyMod('DAO') {\r\n        require(index < votingList.length);\r\n\r\n        votingList[index].isInvalid = true;\r\n    }\r\n\r\n    function vote(uint votingId, bool support) public needsRight('vote') {\r\n        Voting storage voting = votingList[votingId];\r\n        VotingType storage vType = votingTypeList[voting.typeId];\r\n\r\n        MemberHandler h = MemberHandler(moduleAddress('MEMBER'));\r\n        var (,goodRep, badRep) = h.memberList(h.memberId(msg.sender));\r\n\r\n        require(!voting.isInvalid);\r\n        require(block.number >= voting.startBlockNumber && block.number < voting.startBlockNumber + vType.activeTimeInBlocks);\r\n        require(!voting.hasVoted[msg.sender]);\r\n        require(vType.isEligible[h.memberGroupNameHash(msg.sender)]);\r\n\r\n        voting.hasVoted[msg.sender] = true;\r\n\r\n        int memberVotes = int(vType.goodRepWeight * goodRep) - int(vType.badRepWeight * badRep);\r\n        for (uint i = 0; i < recognizedTokenList.length; i++) {\r\n            RecognizedToken storage t = recognizedTokenList[i];\r\n\r\n            require(t.tokenAddress != 0);\r\n\r\n            ERC20 token = ERC20(t.tokenAddress);\r\n            memberVotes += int(vType.tokenWeight[i] * token.balanceOf(msg.sender));\r\n        }\r\n        if (memberVotes < 0) {\r\n            memberVotes = 0;\r\n        }\r\n        if (support) {\r\n            voting.forVotes += uint(memberVotes);\r\n        } else {\r\n            voting.againstVotes += uint(memberVotes);\r\n        }\r\n        voting.votedMemberCount += 1;\r\n    }\r\n\r\n    function concludeVoting(uint votingId) public needsRight('vote') {\r\n        Voting storage voting = votingList[votingId];\r\n        require(!voting.isInvalid);\r\n        voting.isInvalid = true;\r\n\r\n        VotingType storage vType = votingTypeList[voting.typeId];\r\n        require(block.number >= voting.startBlockNumber + vType.activeTimeInBlocks);\r\n\r\n        MemberHandler h = MemberHandler(moduleAddress('MEMBER'));\r\n\r\n        uint votingMemberCount;\r\n        for (uint i = 0; i < vType.votableGroupList.length; i++) {\r\n            votingMemberCount += h.groupMemberCount(vType.votableGroupList[i]);\r\n        }\r\n\r\n        voting.passed = (voting.forVotes / (voting.forVotes + voting.againstVotes) * 100 >= vType.minForPercent)\r\n                        && (voting.votedMemberCount / votingMemberCount * 100 >= vType.quorumPercent);\r\n        VotingConcluded(votingId, voting.passed);\r\n    }\r\n\r\n    function executeVoting(\r\n        uint votingId,\r\n        uint bytecodeHashId,\r\n        bytes executionBytecode\r\n    )\r\n        public\r\n        needsRight('vote')\r\n    {\r\n        Voting storage voting = votingList[votingId];\r\n        require(voting.passed);\r\n        require(voting.executionHashList[bytecodeHashId] == keccak256(executionBytecode));\r\n\r\n        moduleAddress(voting.executionModule).call(executionBytecode);\r\n        delete voting.executionHashList[bytecodeHashId];\r\n    }\r\n\r\n    function createVotingType(\r\n        string name,\r\n        string description,\r\n        uint quorumPercent,\r\n        uint minForPercent,\r\n        uint activeTimeInBlocks,\r\n        uint goodRepWeight,\r\n        uint badRepWeight,\r\n        uint[] tokenIdList,\r\n        uint[] tokenWeightList,\r\n        bytes32[] votableGroupList\r\n    )\r\n        public\r\n        onlyMod('DAO')\r\n    {\r\n        require(tokenIdList.length == tokenWeightList.length);\r\n\r\n        pushNewVotingType(\r\n            name,\r\n            description,\r\n            quorumPercent,\r\n            minForPercent,\r\n            activeTimeInBlocks,\r\n            goodRepWeight,\r\n            badRepWeight,\r\n            votableGroupList\r\n        );\r\n\r\n        for (uint i = 0; i < votableGroupList.length; i++) {\r\n            votingTypeList[votingTypeList.length - 1].isEligible[votableGroupList[i]] = true;\r\n        }\r\n\r\n        setVotingTypeTokenWeights(tokenIdList, tokenWeightList);\r\n    }\r\n\r\n    //Split out as an independent function to prevent StackTooDeep error\r\n    function pushNewVotingType(\r\n        string name,\r\n        string description,\r\n        uint quorumPercent,\r\n        uint minForPercent,\r\n        uint activeTimeInBlocks,\r\n        uint goodRepWeight,\r\n        uint badRepWeight,\r\n        bytes32[] votableGroupList\r\n    )\r\n        internal\r\n    {\r\n        votingTypeList.push(VotingType({\r\n            name: name,\r\n            description: description,\r\n            quorumPercent: quorumPercent,\r\n            minForPercent: minForPercent,\r\n            activeTimeInBlocks: activeTimeInBlocks,\r\n            goodRepWeight: goodRepWeight,\r\n            badRepWeight: badRepWeight,\r\n            votableGroupList: votableGroupList\r\n        }));\r\n    }\r\n\r\n    //Split out as an independent function to prevent StackTooDeep error\r\n    function setVotingTypeTokenWeights(uint[] tokenIdlist, uint[] tokenWeightList) internal {\r\n        for (uint i = 0; i < tokenIdlist.length; i++) {\r\n            uint id = tokenIdlist[i];\r\n            uint weight = tokenWeightList[i];\r\n            votingTypeList[votingTypeList.length - 1].tokenWeight[id] = weight;\r\n        }\r\n    }\r\n\r\n    function removeVotingTypeAtIndex(uint index) public onlyMod('DAO') {\r\n        delete votingTypeList[index];\r\n    }\r\n\r\n    //Token functions\r\n\r\n    function addRecognizedToken(\r\n        string name,\r\n        string symbol,\r\n        address tokenAddress,\r\n        uint rewardTokenCap\r\n    )\r\n        public\r\n        onlyMod('DAO')\r\n    {\r\n        recognizedTokenList.push(RecognizedToken({\r\n            name: name,\r\n            symbol: symbol,\r\n            tokenAddress: tokenAddress\r\n        }));\r\n\r\n        TasksHandler handler = TasksHandler(moduleAddress('TASKS'));\r\n        handler.setCap('token', rewardTokenCap, tokenAddress);\r\n    }\r\n\r\n    function removeRecognizedTokenAtIndex(uint index) public onlyMod('DAO')\r\n    {\r\n        require(index < recognizedTokenList.length);\r\n\r\n        TasksHandler handler = TasksHandler(moduleAddress('TASKS'));\r\n        handler.deleteRewardTokenCap(recognizedTokenList[index].tokenAddress);\r\n\r\n        delete recognizedTokenList[index];\r\n    }\r\n\r\n    function paySolutionReward(uint taskId, uint solId) public onlyMod('TASKS') {\r\n        TasksHandler handler = TasksHandler(moduleAddress('TASKS'));\r\n        var (_,,rewardInWeis, rewardGoodRep,) = handler.taskList(taskId);\r\n        var (__,submitter,) = handler.taskSolutionList(taskId, solId);\r\n\r\n        //Reward in ether\r\n        Vault vault = Vault(moduleAddress('VAULT'));\r\n        vault.addPendingWithdrawl(rewardInWeis, submitter, true);\r\n\r\n        //Reward in reputation\r\n        paySolutionRewardGoodRep(submitter, rewardGoodRep);\r\n\r\n        //Reward in tokens\r\n        for (uint i = 0; i < handler.getTRewardTokenListCount(taskId); i++) {\r\n            uint id = handler.getTRewardTokenIndex(taskId, i);\r\n            uint reward = handler.getTRewardTokenAmount(taskId, i);\r\n\r\n            RecognizedToken storage token = recognizedTokenList[id];\r\n\r\n            vault.addPendingTokenWithdrawl(reward, submitter, token.symbol, token.tokenAddress, true);\r\n        }\r\n    }\r\n\r\n    //Split out as an independent function to prevent StackTooDeep error\r\n    function paySolutionRewardGoodRep(address submitter, uint rewardGoodRep) internal {\r\n        MemberHandler h = MemberHandler(moduleAddress('MEMBER'));\r\n        h.incMemberGoodRep(submitter, rewardGoodRep);\r\n    }\r\n\r\n    /*\r\n        Used for penalizing malicious solution submitters.\r\n    */\r\n    function penalizeSolutionSubmitter(\r\n        uint taskId,\r\n        uint solId,\r\n        bool banSubmitter\r\n    )\r\n        public\r\n        onlyMod('DAO')\r\n    {\r\n        TasksHandler handler = TasksHandler(moduleAddress('TASKS'));\r\n        var (_,,,, penaltyBadRep,) = handler.taskList(taskId);\r\n        var (__,submitter,) = handler.taskSolutionList(taskId, solId);\r\n\r\n        //Check if submitter has already been penalized\r\n        require(!handler.tHasBeenPenalized(taskId, submitter));\r\n        handler.setPenalizedStatus(taskId, submitter, true);\r\n\r\n        //Penalize reputation\r\n        MemberHandler h = MemberHandler(moduleAddress('MEMBER'));\r\n        h.incMemberBadRep(submitter, penaltyBadRep);\r\n\r\n        if (banSubmitter) {\r\n            h.alterBannedStatus(submitter, true);\r\n        }\r\n    }\r\n\r\n    //Getters\r\n\r\n    function getVotingListCount() public view returns(uint) {\r\n        return votingList.length;\r\n    }\r\n\r\n    function getVotingTypeListCount() public view returns(uint) {\r\n        return votingTypeList.length;\r\n    }\r\n\r\n    function getRecognizedTokenListCount() public view returns(uint) {\r\n        return recognizedTokenList.length;\r\n    }\r\n\r\n    function getVTVotableGroup(uint typeId, uint index) public view returns(bytes32) {\r\n        return votingTypeList[typeId].votableGroupList[index];\r\n    }\r\n\r\n    function getVTVotableGroupListCount(uint typeId) public view returns(uint) {\r\n        return votingTypeList[typeId].votableGroupList.length;\r\n    }\r\n\r\n    function vtTokenWeight(uint typeId, uint tokenId) public view returns(uint) {\r\n        return votingTypeList[typeId].tokenWeight[tokenId];\r\n    }\r\n\r\n    function vtIsEligible(uint typeId, bytes32 groupHash) public view returns(bool) {\r\n        return votingTypeList[typeId].isEligible[groupHash];\r\n    }\r\n\r\n    function getVExecutionHash(uint votingId, uint index) public view returns(bytes32) {\r\n        return votingList[votingId].executionHashList[index];\r\n    }\r\n\r\n    function getVExecutionHashLishCount(uint votingId) public view returns(uint) {\r\n        return votingList[votingId].executionHashList.length;\r\n    }\r\n\r\n    function vHasVoted(uint votingId, address addr) public view returns(bool) {\r\n        return votingList[votingId].hasVoted[addr];\r\n    }\r\n\r\n    //Fallback\r\n    function() public {\r\n        revert();\r\n    }\r\n}\r\n",
  "sourcePath": "D:\\WebstormProjects\\WikiGit\\dev\\contracts\\dao.sol",
  "compiler": {
    "name": "solc",
    "version": "0.4.18+commit.9cf6e910.Emscripten.clang"
  },
  "schemaVersion": "1.0.1",
  "updatedAt": "2017-11-09T05:23:50.052Z"
}