{
  "contractName": "Dao",
  "abi": [
    {
      "constant": false,
      "inputs": [
        {
          "name": "taskId",
          "type": "uint256"
        },
        {
          "name": "solId",
          "type": "uint256"
        },
        {
          "name": "banSubmitter",
          "type": "bool"
        }
      ],
      "name": "penalizeSolutionSubmitter",
      "outputs": [],
      "payable": false,
      "type": "function",
      "stateMutability": "nonpayable"
    },
    {
      "constant": true,
      "inputs": [],
      "name": "mainAddress",
      "outputs": [
        {
          "name": "",
          "type": "address"
        }
      ],
      "payable": false,
      "type": "function",
      "stateMutability": "view"
    },
    {
      "constant": true,
      "inputs": [
        {
          "name": "",
          "type": "uint256"
        }
      ],
      "name": "votingTypeList",
      "outputs": [
        {
          "name": "name",
          "type": "string"
        },
        {
          "name": "description",
          "type": "string"
        },
        {
          "name": "quorumPercent",
          "type": "uint256"
        },
        {
          "name": "minForPercent",
          "type": "uint256"
        },
        {
          "name": "activeTimeInBlocks",
          "type": "uint256"
        },
        {
          "name": "goodRepWeight",
          "type": "uint256"
        },
        {
          "name": "badRepWeight",
          "type": "uint256"
        }
      ],
      "payable": false,
      "type": "function",
      "stateMutability": "view"
    },
    {
      "constant": false,
      "inputs": [
        {
          "name": "votingId",
          "type": "uint256"
        }
      ],
      "name": "concludeVoting",
      "outputs": [],
      "payable": false,
      "type": "function",
      "stateMutability": "nonpayable"
    },
    {
      "constant": true,
      "inputs": [],
      "name": "isInitialized",
      "outputs": [
        {
          "name": "",
          "type": "bool"
        }
      ],
      "payable": false,
      "type": "function",
      "stateMutability": "view"
    },
    {
      "constant": false,
      "inputs": [
        {
          "name": "name",
          "type": "string"
        },
        {
          "name": "description",
          "type": "string"
        },
        {
          "name": "votingTypeId",
          "type": "uint256"
        },
        {
          "name": "startBlockNumber",
          "type": "uint256"
        },
        {
          "name": "executionHashList",
          "type": "bytes32[]"
        },
        {
          "name": "executionModule",
          "type": "string"
        }
      ],
      "name": "createVoting",
      "outputs": [],
      "payable": false,
      "type": "function",
      "stateMutability": "nonpayable"
    },
    {
      "constant": true,
      "inputs": [
        {
          "name": "",
          "type": "uint256"
        }
      ],
      "name": "votingList",
      "outputs": [
        {
          "name": "name",
          "type": "string"
        },
        {
          "name": "description",
          "type": "string"
        },
        {
          "name": "typeId",
          "type": "uint256"
        },
        {
          "name": "creator",
          "type": "address"
        },
        {
          "name": "startBlockNumber",
          "type": "uint256"
        },
        {
          "name": "forVotes",
          "type": "uint256"
        },
        {
          "name": "againstVotes",
          "type": "uint256"
        },
        {
          "name": "votedMemberCount",
          "type": "uint256"
        },
        {
          "name": "executionModule",
          "type": "string"
        },
        {
          "name": "isInvalid",
          "type": "bool"
        },
        {
          "name": "passed",
          "type": "bool"
        }
      ],
      "payable": false,
      "type": "function",
      "stateMutability": "view"
    },
    {
      "constant": true,
      "inputs": [],
      "name": "recognizedTokensCount",
      "outputs": [
        {
          "name": "",
          "type": "uint256"
        }
      ],
      "payable": false,
      "type": "function",
      "stateMutability": "view"
    },
    {
      "constant": false,
      "inputs": [
        {
          "name": "taskId",
          "type": "uint256"
        },
        {
          "name": "solId",
          "type": "uint256"
        }
      ],
      "name": "paySolutionReward",
      "outputs": [],
      "payable": false,
      "type": "function",
      "stateMutability": "nonpayable"
    },
    {
      "constant": false,
      "inputs": [
        {
          "name": "index",
          "type": "uint256"
        }
      ],
      "name": "removeVotingTypeAtIndex",
      "outputs": [],
      "payable": false,
      "type": "function",
      "stateMutability": "nonpayable"
    },
    {
      "constant": false,
      "inputs": [
        {
          "name": "name",
          "type": "string"
        },
        {
          "name": "symbol",
          "type": "string"
        },
        {
          "name": "tokenAddress",
          "type": "address"
        },
        {
          "name": "rewardTokenCap",
          "type": "uint256"
        }
      ],
      "name": "addRecognizedToken",
      "outputs": [],
      "payable": false,
      "type": "function",
      "stateMutability": "nonpayable"
    },
    {
      "constant": true,
      "inputs": [
        {
          "name": "",
          "type": "uint256"
        }
      ],
      "name": "recognizedTokenList",
      "outputs": [
        {
          "name": "name",
          "type": "string"
        },
        {
          "name": "symbol",
          "type": "string"
        },
        {
          "name": "tokenAddress",
          "type": "address"
        }
      ],
      "payable": false,
      "type": "function",
      "stateMutability": "view"
    },
    {
      "constant": false,
      "inputs": [
        {
          "name": "name",
          "type": "string"
        },
        {
          "name": "description",
          "type": "string"
        },
        {
          "name": "quorumPercent",
          "type": "uint256"
        },
        {
          "name": "minForPercent",
          "type": "uint256"
        },
        {
          "name": "activeTimeInBlocks",
          "type": "uint256"
        },
        {
          "name": "goodRepWeight",
          "type": "uint256"
        },
        {
          "name": "badRepWeight",
          "type": "uint256"
        },
        {
          "name": "tokenAddresses",
          "type": "address[]"
        },
        {
          "name": "tokenWeights",
          "type": "uint256[]"
        },
        {
          "name": "votableGroupList",
          "type": "bytes32[]"
        }
      ],
      "name": "createVotingType",
      "outputs": [],
      "payable": false,
      "type": "function",
      "stateMutability": "nonpayable"
    },
    {
      "constant": false,
      "inputs": [
        {
          "name": "index",
          "type": "uint256"
        }
      ],
      "name": "invalidateVotingAtIndex",
      "outputs": [],
      "payable": false,
      "type": "function",
      "stateMutability": "nonpayable"
    },
    {
      "constant": false,
      "inputs": [
        {
          "name": "votingId",
          "type": "uint256"
        },
        {
          "name": "bytecodeHashId",
          "type": "uint256"
        },
        {
          "name": "executionBytecode",
          "type": "bytes"
        }
      ],
      "name": "executeVoting",
      "outputs": [],
      "payable": false,
      "type": "function",
      "stateMutability": "nonpayable"
    },
    {
      "constant": false,
      "inputs": [
        {
          "name": "votingId",
          "type": "uint256"
        },
        {
          "name": "support",
          "type": "bool"
        }
      ],
      "name": "vote",
      "outputs": [],
      "payable": false,
      "type": "function",
      "stateMutability": "nonpayable"
    },
    {
      "constant": false,
      "inputs": [],
      "name": "init",
      "outputs": [],
      "payable": false,
      "type": "function",
      "stateMutability": "nonpayable"
    },
    {
      "constant": false,
      "inputs": [
        {
          "name": "index",
          "type": "uint256"
        }
      ],
      "name": "removeRecognizedTokenAtIndex",
      "outputs": [],
      "payable": false,
      "type": "function",
      "stateMutability": "nonpayable"
    },
    {
      "inputs": [
        {
          "name": "mainAddr",
          "type": "address"
        }
      ],
      "payable": false,
      "type": "constructor",
      "stateMutability": "nonpayable"
    },
    {
      "anonymous": false,
      "inputs": [
        {
          "indexed": false,
          "name": "votingId",
          "type": "uint256"
        }
      ],
      "name": "VotingCreated",
      "type": "event"
    },
    {
      "anonymous": false,
      "inputs": [
        {
          "indexed": false,
          "name": "votingId",
          "type": "uint256"
        },
        {
          "indexed": false,
          "name": "passed",
          "type": "bool"
        }
      ],
      "name": "VotingConcluded",
      "type": "event"
    }
  ],
  "bytecode": "0x6060604052341561000f57600080fd5b6040516020806144978339810160405280805190602001909190505080806000806101000a81548173ffffffffffffffffffffffffffffffffffffffff021916908373ffffffffffffffffffffffffffffffffffffffff160217905550505061441a8061007d6000396000f3006060604052600436106100fc576000357c0100000000000000000000000000000000000000000000000000000000900463ffffffff16806308b7371e146101015780630cdd4234146101385780632430215f1461018d578063345f342e146102f2578063392e53cd146103155780634db366fc1461034257806358652f4d14610477578063672a7443146106ae5780637a66e5cf146106d757806384601e24146107035780639ec03a8d14610726578063ae802e47146107ee578063b43005b614610963578063bbeadcad14610af0578063c714cfc814610b13578063c9d27afe14610b82578063e1c7392a14610bb0578063ecf37ba714610bc5575b600080fd5b341561010c57600080fd5b61013660048080359060200190919080359060200190919080351515906020019091905050610be8565b005b341561014357600080fd5b61014b611183565b604051808273ffffffffffffffffffffffffffffffffffffffff1673ffffffffffffffffffffffffffffffffffffffff16815260200191505060405180910390f35b341561019857600080fd5b6101ae60048080359060200190919050506111a8565b60405180806020018060200188815260200187815260200186815260200185815260200184815260200183810383528a8181546001816001161561010002031660029004815260200191508054600181600116156101000203166002900480156102595780601f1061022e57610100808354040283529160200191610259565b820191906000526020600020905b81548152906001019060200180831161023c57829003601f168201915b50508381038252898181546001816001161561010002031660029004815260200191508054600181600116156101000203166002900480156102dc5780601f106102b1576101008083540402835291602001916102dc565b820191906000526020600020905b8154815290600101906020018083116102bf57829003601f168201915b5050995050505050505050505060405180910390f35b34156102fd57600080fd5b61031360048080359060200190919050506111f7565b005b341561032057600080fd5b6103286116e7565b604051808215151515815260200191505060405180910390f35b341561034d57600080fd5b610475600480803590602001908201803590602001908080601f0160208091040260200160405190810160405280939291908181526020018383808284378201915050505050509190803590602001908201803590602001908080601f016020809104026020016040519081016040528093929190818152602001838380828437820191505050505050919080359060200190919080359060200190919080359060200190820180359060200190808060200260200160405190810160405280939291908181526020018383602002808284378201915050505050509190803590602001908201803590602001908080601f016020809104026020016040519081016040528093929190818152602001838380828437820191505050505050919050506116fa565b005b341561048257600080fd5b6104986004808035906020019091905050611c37565b6040518080602001806020018c81526020018b73ffffffffffffffffffffffffffffffffffffffff1673ffffffffffffffffffffffffffffffffffffffff1681526020018a815260200189815260200188815260200187815260200180602001861515151581526020018515151515815260200184810384528f81815460018160011615610100020316600290048152602001915080546001816001161561010002031660029004801561058d5780601f106105625761010080835404028352916020019161058d565b820191906000526020600020905b81548152906001019060200180831161057057829003601f168201915b505084810383528e8181546001816001161561010002031660029004815260200191508054600181600116156101000203166002900480156106105780601f106105e557610100808354040283529160200191610610565b820191906000526020600020905b8154815290600101906020018083116105f357829003601f168201915b50508481038252878181546001816001161561010002031660029004815260200191508054600181600116156101000203166002900480156106935780601f1061066857610100808354040283529160200191610693565b820191906000526020600020905b81548152906001019060200180831161067657829003601f168201915b50509e50505050505050505050505050505060405180910390f35b34156106b957600080fd5b6106c1611cd7565b6040518082815260200191505060405180910390f35b34156106e257600080fd5b6107016004808035906020019091908035906020019091905050611ce4565b005b341561070e57600080fd5b61072460048080359060200190919050506123f6565b005b341561073157600080fd5b6107ec600480803590602001908201803590602001908080601f0160208091040260200160405190810160405280939291908181526020018383808284378201915050505050509190803590602001908201803590602001908080601f0160208091040260200160405190810160405280939291908181526020018383808284378201915050505050509190803573ffffffffffffffffffffffffffffffffffffffff169060200190919080359060200190919050506124ea565b005b34156107f957600080fd5b61080f600480803590602001909190505061277a565b6040518080602001806020018473ffffffffffffffffffffffffffffffffffffffff1673ffffffffffffffffffffffffffffffffffffffff1681526020018381038352868181546001816001161561010002031660029004815260200191508054600181600116156101000203166002900480156108ce5780601f106108a3576101008083540402835291602001916108ce565b820191906000526020600020905b8154815290600101906020018083116108b157829003601f168201915b50508381038252858181546001816001161561010002031660029004815260200191508054600181600116156101000203166002900480156109515780601f1061092657610100808354040283529160200191610951565b820191906000526020600020905b81548152906001019060200180831161093457829003601f168201915b50509550505050505060405180910390f35b341561096e57600080fd5b610aee600480803590602001908201803590602001908080601f0160208091040260200160405190810160405280939291908181526020018383808284378201915050505050509190803590602001908201803590602001908080601f016020809104026020016040519081016040528093929190818152602001838380828437820191505050505050919080359060200190919080359060200190919080359060200190919080359060200190919080359060200190919080359060200190820180359060200190808060200260200160405190810160405280939291908181526020018383602002808284378201915050505050509190803590602001908201803590602001908080602002602001604051908101604052809392919081815260200183836020028082843782019150505050505091908035906020019082018035906020019080806020026020016040519081016040528093929190818152602001838360200280828437820191505050505050919050506127d1565b005b3415610afb57600080fd5b610b11600480803590602001909190505061290f565b005b3415610b1e57600080fd5b610b80600480803590602001909190803590602001909190803590602001908201803590602001908080601f016020809104026020016040519081016040528093929190818152602001838380828437820191505050505050919050506129d6565b005b3415610b8d57600080fd5b610bae60048080359060200190919080351515906020019091905050612e78565b005b3415610bbb57600080fd5b610bc3613725565b005b3415610bd057600080fd5b610be66004808035906020019091905050613934565b005b6000806000806000806040805190810160405280600381526020017f44414f0000000000000000000000000000000000000000000000000000000000815250610c3081613b5b565b73ffffffffffffffffffffffffffffffffffffffff163373ffffffffffffffffffffffffffffffffffffffff16141515610c6957600080fd5b610ca76040805190810160405280600581526020017f5441534b53000000000000000000000000000000000000000000000000000000815250613b5b565b96508673ffffffffffffffffffffffffffffffffffffffff16632a1c52a58b600060405161010001526040518263ffffffff167c01000000000000000000000000000000000000000000000000000000000281526004018082815260200191505061010060405180830381600087803b1515610d2257600080fd5b6102c65a03f11515610d3357600080fd5b50505060405180519060200180519060200180519060200180519060200180519060200180519060200180519060200180519050505050985050505095508673ffffffffffffffffffffffffffffffffffffffff16637ed08e228b8b600060405160a001526040518363ffffffff167c0100000000000000000000000000000000000000000000000000000000028152600401808381526020018281526020019250505060a060405180830381600087803b1515610df057600080fd5b6102c65a03f11515610e0157600080fd5b50505060405180519060200180519060200180519060200180519060200180519050505050935093508673ffffffffffffffffffffffffffffffffffffffff1663a8f2dc798b856000604051602001526040518363ffffffff167c0100000000000000000000000000000000000000000000000000000000028152600401808381526020018273ffffffffffffffffffffffffffffffffffffffff1673ffffffffffffffffffffffffffffffffffffffff16815260200192505050602060405180830381600087803b1515610ed557600080fd5b6102c65a03f11515610ee657600080fd5b50505060405180519050151515610efc57600080fd5b8673ffffffffffffffffffffffffffffffffffffffff16635ce57b508b8560016040518463ffffffff167c0100000000000000000000000000000000000000000000000000000000028152600401808481526020018373ffffffffffffffffffffffffffffffffffffffff1673ffffffffffffffffffffffffffffffffffffffff168152602001821515151581526020019350505050600060405180830381600087803b1515610fab57600080fd5b6102c65a03f11515610fbc57600080fd5b505050610ffd6040805190810160405280600681526020017f4d454d4245520000000000000000000000000000000000000000000000000000815250613b5b565b91508173ffffffffffffffffffffffffffffffffffffffff1663e56044c884876040518363ffffffff167c0100000000000000000000000000000000000000000000000000000000028152600401808373ffffffffffffffffffffffffffffffffffffffff1673ffffffffffffffffffffffffffffffffffffffff16815260200182815260200192505050600060405180830381600087803b15156110a157600080fd5b6102c65a03f115156110b257600080fd5b5050508715611177578173ffffffffffffffffffffffffffffffffffffffff16635bc724608460016040518363ffffffff167c0100000000000000000000000000000000000000000000000000000000028152600401808373ffffffffffffffffffffffffffffffffffffffff1673ffffffffffffffffffffffffffffffffffffffff1681526020018215151515815260200192505050600060405180830381600087803b151561116257600080fd5b6102c65a03f1151561117357600080fd5b5050505b50505050505050505050565b6000809054906101000a900473ffffffffffffffffffffffffffffffffffffffff1681565b6002818154811015156111b757fe5b90600052602060002090600a0201600091509050806000019080600101908060020154908060030154908060040154908060050154908060060154905087565b60008060008060006040805190810160405280600481526020017f766f74650000000000000000000000000000000000000000000000000000000081525060006112756040805190810160405280600681526020017f4d454d4245520000000000000000000000000000000000000000000000000000815250613b5b565b90508073ffffffffffffffffffffffffffffffffffffffff16636c3ea72133846000604051602001526040518363ffffffff167c0100000000000000000000000000000000000000000000000000000000028152600401808373ffffffffffffffffffffffffffffffffffffffff1673ffffffffffffffffffffffffffffffffffffffff16815260200180602001828103825283818151815260200191508051906020019080838360005b8381101561133b578082015181840152602081019050611320565b50505050905090810190601f1680156113685780820380516001836020036101000a031916815260200191505b509350505050602060405180830381600087803b151561138757600080fd5b6102c65a03f1151561139857600080fd5b5050506040518051905015156113ad57600080fd5b8073ffffffffffffffffffffffffffffffffffffffff166397f735d5336000604051602001526040518263ffffffff167c0100000000000000000000000000000000000000000000000000000000028152600401808273ffffffffffffffffffffffffffffffffffffffff1673ffffffffffffffffffffffffffffffffffffffff168152602001915050602060405180830381600087803b151561145057600080fd5b6102c65a03f1151561146157600080fd5b5050506040518051905015151561147757600080fd5b60018881548110151561148657fe5b90600052602060002090600c0201965086600b0160009054906101000a900460ff161515156114b457600080fd5b600187600b0160006101000a81548160ff021916908315150217905550600287600201548154811015156114e457fe5b90600052602060002090600a020195508560040154876004015401431015151561150d57600080fd5b61154b6040805190810160405280600681526020017f4d454d4245520000000000000000000000000000000000000000000000000000815250613b5b565b9450600092505b8560070180549050831015611628578473ffffffffffffffffffffffffffffffffffffffff1663a483e614876007018581548110151561158e57fe5b9060005260206000209001546000604051602001526040518263ffffffff167c0100000000000000000000000000000000000000000000000000000000028152600401808260001916600019168152602001915050602060405180830381600087803b15156115fc57600080fd5b6102c65a03f1151561160d57600080fd5b50505060405180519050840193508280600101935050611552565b856003015460648860060154896005015401896005015481151561164857fe5b04021015801561166e57508560020154606485896007015481151561166957fe5b040210155b87600b0160016101000a81548160ff0219169083151502179055507f0c77796cd10a570d9e9676dfefd3bd24776fa13e25f41d0b2e13a0069add50ab8888600b0160019054906101000a900460ff1660405180838152602001821515151581526020019250505060405180910390a15050505050505050565b600460009054906101000a900460ff1681565b6040805190810160405280600d81526020017f6372656174655f766f74696e670000000000000000000000000000000000000081525060006117706040805190810160405280600681526020017f4d454d4245520000000000000000000000000000000000000000000000000000815250613b5b565b90508073ffffffffffffffffffffffffffffffffffffffff16636c3ea72133846000604051602001526040518363ffffffff167c0100000000000000000000000000000000000000000000000000000000028152600401808373ffffffffffffffffffffffffffffffffffffffff1673ffffffffffffffffffffffffffffffffffffffff16815260200180602001828103825283818151815260200191508051906020019080838360005b8381101561183657808201518184015260208101905061181b565b50505050905090810190601f1680156118635780820380516001836020036101000a031916815260200191505b509350505050602060405180830381600087803b151561188257600080fd5b6102c65a03f1151561189357600080fd5b5050506040518051905015156118a857600080fd5b8073ffffffffffffffffffffffffffffffffffffffff166397f735d5336000604051602001526040518263ffffffff167c0100000000000000000000000000000000000000000000000000000000028152600401808273ffffffffffffffffffffffffffffffffffffffff1673ffffffffffffffffffffffffffffffffffffffff168152602001915050602060405180830381600087803b151561194b57600080fd5b6102c65a03f1151561195c57600080fd5b5050506040518051905015151561197257600080fd5b60405180600001905060405180910390206000191660028781548110151561199657fe5b90600052602060002090600a02016000016040518082805460018160011615610100020316600290048015611a025780601f106119e0576101008083540402835291820191611a02565b820191906000526020600020905b8154815290600101906020018083116119ee575b505091505060405180910390206000191614151515611a2057600080fd5b60018054806001018281611a349190613f41565b91600052602060002090600c02016000610180604051908101604052808c81526020018b81526020018a81526020013373ffffffffffffffffffffffffffffffffffffffff1681526020018981526020016000815260200160008152602001600081526020018881526020018781526020016000151581526020016000151581525090919091506000820151816000019080519060200190611ad7929190613f73565b506020820151816001019080519060200190611af4929190613f73565b506040820151816002015560608201518160030160006101000a81548173ffffffffffffffffffffffffffffffffffffffff021916908373ffffffffffffffffffffffffffffffffffffffff1602179055506080820151816004015560a0820151816005015560c0820151816006015560e08201518160070155610100820151816008019080519060200190611b8b929190613ff3565b50610120820151816009019080519060200190611ba9929190613f73565b5061014082015181600b0160006101000a81548160ff02191690831515021790555061016082015181600b0160016101000a81548160ff0219169083151502179055505050507f3205be6c9f54a5e02a1ee7ed665ab460898cce94d5976b5937f48ec19682036d60018080549050036040518082815260200191505060405180910390a15050505050505050565b600181815481101515611c4657fe5b90600052602060002090600c0201600091509050806000019080600101908060020154908060030160009054906101000a900473ffffffffffffffffffffffffffffffffffffffff1690806004015490806005015490806006015490806007015490806009019080600b0160009054906101000a900460ff169080600b0160019054906101000a900460ff1690508b565b6000600380549050905090565b60008060008060008060008060008060006040805190810160405280600581526020017f5441534b53000000000000000000000000000000000000000000000000000000815250611d3481613b5b565b73ffffffffffffffffffffffffffffffffffffffff163373ffffffffffffffffffffffffffffffffffffffff16141515611d6d57600080fd5b611dab6040805190810160405280600581526020017f5441534b53000000000000000000000000000000000000000000000000000000815250613b5b565b9b508b73ffffffffffffffffffffffffffffffffffffffff16632a1c52a58f600060405161010001526040518263ffffffff167c01000000000000000000000000000000000000000000000000000000000281526004018082815260200191505061010060405180830381600087803b1515611e2657600080fd5b6102c65a03f11515611e3757600080fd5b50505060405180519060200180519060200180519060200180519060200180519060200180519060200180519060200180519050505050509b509b50509a508b73ffffffffffffffffffffffffffffffffffffffff16637ed08e228f8f600060405160a001526040518363ffffffff167c0100000000000000000000000000000000000000000000000000000000028152600401808381526020018281526020019250505060a060405180830381600087803b1515611ef557600080fd5b6102c65a03f11515611f0657600080fd5b5050506040518051906020018051906020018051906020018051906020018051905050505097509750611f6d6040805190810160405280600581526020017f5641554c54000000000000000000000000000000000000000000000000000000815250613b5b565b95508573ffffffffffffffffffffffffffffffffffffffff1663f8bd65328b8960016040518463ffffffff167c0100000000000000000000000000000000000000000000000000000000028152600401808481526020018373ffffffffffffffffffffffffffffffffffffffff1673ffffffffffffffffffffffffffffffffffffffff168152602001821515151581526020019350505050600060405180830381600087803b151561201e57600080fd5b6102c65a03f1151561202f57600080fd5b50505061203c878a613c86565b600094505b8b73ffffffffffffffffffffffffffffffffffffffff1663b28796278f6000604051602001526040518263ffffffff167c010000000000000000000000000000000000000000000000000000000002815260040180828152602001915050602060405180830381600087803b15156120b857600080fd5b6102c65a03f115156120c957600080fd5b505050604051805190508510156123e6578b73ffffffffffffffffffffffffffffffffffffffff1663cbeaa0368f876000604051602001526040518363ffffffff167c01000000000000000000000000000000000000000000000000000000000281526004018083815260200182815260200192505050602060405180830381600087803b151561215957600080fd5b6102c65a03f1151561216a57600080fd5b5050506040518051905093508b73ffffffffffffffffffffffffffffffffffffffff1663fb1ad1108f876000604051602001526040518363ffffffff167c01000000000000000000000000000000000000000000000000000000000281526004018083815260200182815260200192505050602060405180830381600087803b15156121f557600080fd5b6102c65a03f1151561220657600080fd5b50505060405180519050925060038481548110151561222157fe5b906000526020600020906003020191508573ffffffffffffffffffffffffffffffffffffffff1663217bc6948489856001018660020160009054906101000a900473ffffffffffffffffffffffffffffffffffffffff1660016040518663ffffffff167c0100000000000000000000000000000000000000000000000000000000028152600401808681526020018573ffffffffffffffffffffffffffffffffffffffff1673ffffffffffffffffffffffffffffffffffffffff168152602001806020018473ffffffffffffffffffffffffffffffffffffffff1673ffffffffffffffffffffffffffffffffffffffff168152602001831515151581526020018281038252858181546001816001161561010002031660029004815260200191508054600181600116156101000203166002900480156123a25780601f10612377576101008083540402835291602001916123a2565b820191906000526020600020905b81548152906001019060200180831161238557829003601f168201915b50509650505050505050600060405180830381600087803b15156123c557600080fd5b6102c65a03f115156123d657600080fd5b5050508480600101955050612041565b5050505050505050505050505050565b6040805190810160405280600381526020017f44414f000000000000000000000000000000000000000000000000000000000081525061243581613b5b565b73ffffffffffffffffffffffffffffffffffffffff163373ffffffffffffffffffffffffffffffffffffffff1614151561246e57600080fd5b60028281548110151561247d57fe5b90600052602060002090600a02016000808201600061249c9190614046565b6001820160006124ac9190614046565b600282016000905560038201600090556004820160009055600582016000905560068201600090556007820160006124e4919061408e565b50505050565b60006040805190810160405280600381526020017f44414f000000000000000000000000000000000000000000000000000000000081525061252b81613b5b565b73ffffffffffffffffffffffffffffffffffffffff163373ffffffffffffffffffffffffffffffffffffffff1614151561256457600080fd5b6003805480600101828161257891906140af565b916000526020600020906003020160006060604051908101604052808a81526020018981526020018873ffffffffffffffffffffffffffffffffffffffff16815250909190915060008201518160000190805190602001906125db929190613f73565b5060208201518160010190805190602001906125f8929190613f73565b5060408201518160020160006101000a81548173ffffffffffffffffffffffffffffffffffffffff021916908373ffffffffffffffffffffffffffffffffffffffff1602179055505050506126816040805190810160405280600581526020017f5441534b53000000000000000000000000000000000000000000000000000000815250613b5b565b91508173ffffffffffffffffffffffffffffffffffffffff16632b331e0a84866040518363ffffffff167c010000000000000000000000000000000000000000000000000000000002815260040180806020018481526020018373ffffffffffffffffffffffffffffffffffffffff1673ffffffffffffffffffffffffffffffffffffffff168152602001828103825260058152602001807f746f6b656e0000000000000000000000000000000000000000000000000000008152506020019350505050600060405180830381600087803b151561275e57600080fd5b6102c65a03f1151561276f57600080fd5b505050505050505050565b60038181548110151561278957fe5b9060005260206000209060030201600091509050806000019080600101908060020160009054906101000a900473ffffffffffffffffffffffffffffffffffffffff16905083565b60006040805190810160405280600381526020017f44414f000000000000000000000000000000000000000000000000000000000081525061281281613b5b565b73ffffffffffffffffffffffffffffffffffffffff163373ffffffffffffffffffffffffffffffffffffffff1614151561284b57600080fd5b8351855114151561285b57600080fd5b61286b8c8c8c8c8c8c8c8a613d83565b600091505b82518210156128f7576001600260016002805490500381548110151561289257fe5b90600052602060002090600a0201600901600085858151811015156128b357fe5b906020019060200201516000191660001916815260200190815260200160002060006101000a81548160ff0219169083151502179055508180600101925050612870565b6129018585613e7d565b505050505050505050505050565b6040805190810160405280600381526020017f44414f000000000000000000000000000000000000000000000000000000000081525061294e81613b5b565b73ffffffffffffffffffffffffffffffffffffffff163373ffffffffffffffffffffffffffffffffffffffff1614151561298757600080fd5b6001805490508210151561299a57600080fd5b600180838154811015156129aa57fe5b90600052602060002090600c0201600b0160006101000a81548160ff0219169083151502179055505050565b60006040805190810160405280600481526020017f766f7465000000000000000000000000000000000000000000000000000000008152506000612a4e6040805190810160405280600681526020017f4d454d4245520000000000000000000000000000000000000000000000000000815250613b5b565b90508073ffffffffffffffffffffffffffffffffffffffff16636c3ea72133846000604051602001526040518363ffffffff167c0100000000000000000000000000000000000000000000000000000000028152600401808373ffffffffffffffffffffffffffffffffffffffff1673ffffffffffffffffffffffffffffffffffffffff16815260200180602001828103825283818151815260200191508051906020019080838360005b83811015612b14578082015181840152602081019050612af9565b50505050905090810190601f168015612b415780820380516001836020036101000a031916815260200191505b509350505050602060405180830381600087803b1515612b6057600080fd5b6102c65a03f11515612b7157600080fd5b505050604051805190501515612b8657600080fd5b8073ffffffffffffffffffffffffffffffffffffffff166397f735d5336000604051602001526040518263ffffffff167c0100000000000000000000000000000000000000000000000000000000028152600401808273ffffffffffffffffffffffffffffffffffffffff1673ffffffffffffffffffffffffffffffffffffffff168152602001915050602060405180830381600087803b1515612c2957600080fd5b6102c65a03f11515612c3a57600080fd5b50505060405180519050151515612c5057600080fd5b600186815481101515612c5f57fe5b90600052602060002090600c0201925082600b0160019054906101000a900460ff161515612c8c57600080fd5b836040518082805190602001908083835b602083101515612cc25780518252602082019150602081019050602083039250612c9d565b6001836020036101000a0380198251168184511680821785525050505050509050019150506040518091039020600019168360080186815481101515612d0457fe5b90600052602060002090015460001916141515612d2057600080fd5b612dc5836009018054600181600116156101000203166002900480601f016020809104026020016040519081016040528092919081815260200182805460018160011615610100020316600290048015612dbb5780601f10612d9057610100808354040283529160200191612dbb565b820191906000526020600020905b815481529060010190602001808311612d9e57829003601f168201915b5050505050613b5b565b73ffffffffffffffffffffffffffffffffffffffff168460405180828051906020019080838360005b83811015612e09578082015181840152602081019050612dee565b50505050905090810190601f168015612e365780820380516001836020036101000a031916815260200191505b5091505060006040518083038160008661646e5a03f1915050508260080185815481101515612e6157fe5b906000526020600020900160009055505050505050565b60008060008060008060008060006040805190810160405280600481526020017f766f7465000000000000000000000000000000000000000000000000000000008152506000612efc6040805190810160405280600681526020017f4d454d4245520000000000000000000000000000000000000000000000000000815250613b5b565b90508073ffffffffffffffffffffffffffffffffffffffff16636c3ea72133846000604051602001526040518363ffffffff167c0100000000000000000000000000000000000000000000000000000000028152600401808373ffffffffffffffffffffffffffffffffffffffff1673ffffffffffffffffffffffffffffffffffffffff16815260200180602001828103825283818151815260200191508051906020019080838360005b83811015612fc2578082015181840152602081019050612fa7565b50505050905090810190601f168015612fef5780820380516001836020036101000a031916815260200191505b509350505050602060405180830381600087803b151561300e57600080fd5b6102c65a03f1151561301f57600080fd5b50505060405180519050151561303457600080fd5b8073ffffffffffffffffffffffffffffffffffffffff166397f735d5336000604051602001526040518263ffffffff167c0100000000000000000000000000000000000000000000000000000000028152600401808273ffffffffffffffffffffffffffffffffffffffff1673ffffffffffffffffffffffffffffffffffffffff168152602001915050602060405180830381600087803b15156130d757600080fd5b6102c65a03f115156130e857600080fd5b505050604051805190501515156130fe57600080fd5b60018d81548110151561310d57fe5b90600052602060002090600c02019a5060028b6002015481548110151561313057fe5b90600052602060002090600a0201995061317e6040805190810160405280600681526020017f4d454d4245520000000000000000000000000000000000000000000000000000815250613b5b565b98508873ffffffffffffffffffffffffffffffffffffffff1663b307fc6d8a73ffffffffffffffffffffffffffffffffffffffff166339106821336000604051602001526040518263ffffffff167c0100000000000000000000000000000000000000000000000000000000028152600401808273ffffffffffffffffffffffffffffffffffffffff1673ffffffffffffffffffffffffffffffffffffffff168152602001915050602060405180830381600087803b151561323f57600080fd5b6102c65a03f1151561325057600080fd5b50505060405180519050600060405160a001526040518263ffffffff167c01000000000000000000000000000000000000000000000000000000000281526004018082815260200191505060a060405180830381600087803b15156132b457600080fd5b6102c65a03f115156132c557600080fd5b505050604051805190602001805190602001805190602001805190602001805190509a509a505050508a600b0160009054906101000a900460ff1615151561330c57600080fd5b8a600401544310158015613329575089600401548b600401540143105b151561333457600080fd5b8a600a0160003373ffffffffffffffffffffffffffffffffffffffff1673ffffffffffffffffffffffffffffffffffffffff16815260200190815260200160002060009054906101000a900460ff1615151561338f57600080fd5b8960090160008a73ffffffffffffffffffffffffffffffffffffffff166319b5176e336000604051602001526040518263ffffffff167c0100000000000000000000000000000000000000000000000000000000028152600401808273ffffffffffffffffffffffffffffffffffffffff1673ffffffffffffffffffffffffffffffffffffffff168152602001915050602060405180830381600087803b151561343857600080fd5b6102c65a03f1151561344957600080fd5b505050604051805190506000191660001916815260200190815260200160002060009054906101000a900460ff16151561348257600080fd5b60018b600a0160003373ffffffffffffffffffffffffffffffffffffffff1673ffffffffffffffffffffffffffffffffffffffff16815260200190815260200160002060006101000a81548160ff021916908315150217905550868a6006015402888b6005015402039550600094505b6003805490508510156136c55760038581548110151561350e57fe5b9060005260206000209060030201935060008460020160009054906101000a900473ffffffffffffffffffffffffffffffffffffffff1673ffffffffffffffffffffffffffffffffffffffff161415151561356857600080fd5b8360020160009054906101000a900473ffffffffffffffffffffffffffffffffffffffff1692508273ffffffffffffffffffffffffffffffffffffffff166370a08231336000604051602001526040518263ffffffff167c0100000000000000000000000000000000000000000000000000000000028152600401808273ffffffffffffffffffffffffffffffffffffffff1673ffffffffffffffffffffffffffffffffffffffff168152602001915050602060405180830381600087803b151561363257600080fd5b6102c65a03f1151561364357600080fd5b505050604051805190508a60080160008660020160009054906101000a900473ffffffffffffffffffffffffffffffffffffffff1673ffffffffffffffffffffffffffffffffffffffff1673ffffffffffffffffffffffffffffffffffffffff16815260200190815260200160002054028601955084806001019550506134f2565b60008612156136d357600095505b8b156136f057858b60050160008282540192505081905550613703565b858b600601600082825401925050819055505b60018b6007016000828254019250508190555050505050505050505050505050565b600080600460009054906101000a900460ff1615151561374457600080fd5b6001600460006101000a81548160ff02191690831515021790555060405180807f66756c6c5f74696d65000000000000000000000000000000000000000000000081525060090190506040518091039020915060016002818180549050019150816137af91906140e1565b5060026001600280549050038154811015156137c757fe5b90600052602060002090600a020190506040805190810160405280600781526020017f44656661756c7400000000000000000000000000000000000000000000000000815250816000019080519060200190613824929190614113565b506040805190810160405280601081526020017f466f7220696e697469616c697a696e6700000000000000000000000000000000815250816001019080519060200190613872929190614113565b5060648160020181905550606481600301819055506019816004018190555060018160050181905550600181600601819055508060070180548060010182816138bb9190614193565b916000526020600020900160008490919091509060001916905550600160026001600280549050038154811015156138ef57fe5b90600052602060002090600a02016009016000846000191660001916815260200190815260200160002060006101000a81548160ff0219169083151502179055505050565b60006040805190810160405280600381526020017f44414f000000000000000000000000000000000000000000000000000000000081525061397581613b5b565b73ffffffffffffffffffffffffffffffffffffffff163373ffffffffffffffffffffffffffffffffffffffff161415156139ae57600080fd5b600380549050831015156139c157600080fd5b6139ff6040805190810160405280600581526020017f5441534b53000000000000000000000000000000000000000000000000000000815250613b5b565b91508173ffffffffffffffffffffffffffffffffffffffff16636f48e676600385815481101515613a2c57fe5b906000526020600020906003020160020160009054906101000a900473ffffffffffffffffffffffffffffffffffffffff166040518263ffffffff167c0100000000000000000000000000000000000000000000000000000000028152600401808273ffffffffffffffffffffffffffffffffffffffff1673ffffffffffffffffffffffffffffffffffffffff168152602001915050600060405180830381600087803b1515613adb57600080fd5b6102c65a03f11515613aec57600080fd5b505050600383815481101515613afe57fe5b906000526020600020906003020160008082016000613b1d9190614046565b600182016000613b2d9190614046565b6002820160006101000a81549073ffffffffffffffffffffffffffffffffffffffff02191690555050505050565b6000806000809054906101000a900473ffffffffffffffffffffffffffffffffffffffff1690508073ffffffffffffffffffffffffffffffffffffffff166310a8169c846040518082805190602001908083835b602083101515613bd45780518252602082019150602081019050602083039250613baf565b6001836020036101000a03801982511681845116808217855250505050505090500191505060405180910390206000604051602001526040518263ffffffff167c0100000000000000000000000000000000000000000000000000000000028152600401808260001916600019168152602001915050602060405180830381600087803b1515613c6357600080fd5b6102c65a03f11515613c7457600080fd5b50505060405180519050915050919050565b6000613cc66040805190810160405280600681526020017f4d454d4245520000000000000000000000000000000000000000000000000000815250613b5b565b90508073ffffffffffffffffffffffffffffffffffffffff166306ebe49f84846040518363ffffffff167c0100000000000000000000000000000000000000000000000000000000028152600401808373ffffffffffffffffffffffffffffffffffffffff1673ffffffffffffffffffffffffffffffffffffffff16815260200182815260200192505050600060405180830381600087803b1515613d6a57600080fd5b6102c65a03f11515613d7b57600080fd5b505050505050565b60028054806001018281613d9791906141bf565b91600052602060002090600a02016000610100604051908101604052808c81526020018b81526020018a81526020018981526020018881526020018781526020018681526020018581525090919091506000820151816000019080519060200190613e03929190613f73565b506020820151816001019080519060200190613e20929190613f73565b5060408201518160020155606082015181600301556080820151816004015560a0820151816005015560c0820151816006015560e0820151816007019080519060200190613e6f929190613ff3565b505050505050505050505050565b60008060008092505b8451831015613f3a578483815181101515613e9d57fe5b9060200190602002015191508383815181101515613eb757fe5b906020019060200201519050806002600160028054905003815481101515613edb57fe5b90600052602060002090600a020160080160008473ffffffffffffffffffffffffffffffffffffffff1673ffffffffffffffffffffffffffffffffffffffff168152602001908152602001600020819055508280600101935050613e86565b5050505050565b815481835581811511613f6e57600c0281600c028360005260206000209182019101613f6d91906141f1565b5b505050565b828054600181600116156101000203166002900490600052602060002090601f016020900481019282601f10613fb457805160ff1916838001178555613fe2565b82800160010185558215613fe2579182015b82811115613fe1578251825591602001919060010190613fc6565b5b509050613fef91906142c7565b5090565b828054828255906000526020600020908101928215614035579160200282015b82811115614034578251829060001916905591602001919060010190614013565b5b50905061404291906142ec565b5090565b50805460018160011615610100020316600290046000825580601f1061406c575061408b565b601f01602090049060005260206000209081019061408a91906142c7565b5b50565b50805460008255906000526020600020908101906140ac91906142ec565b50565b8154818355818115116140dc576003028160030283600052602060002091820191016140db9190614311565b5b505050565b81548183558181151161410e57600a0281600a02836000526020600020918201910161410d9190614377565b5b505050565b828054600181600116156101000203166002900490600052602060002090601f016020900481019282601f1061415457805160ff1916838001178555614182565b82800160010185558215614182579182015b82811115614181578251825591602001919060010190614166565b5b50905061418f91906142c7565b5090565b8154818355818115116141ba578183600052602060002091820191016141b991906142ec565b5b505050565b8154818355818115116141ec57600a0281600a0283600052602060002091820191016141eb9190614377565b5b505050565b6142c491905b808211156142c057600080820160006142109190614046565b6001820160006142209190614046565b60028201600090556003820160006101000a81549073ffffffffffffffffffffffffffffffffffffffff0219169055600482016000905560058201600090556006820160009055600782016000905560088201600061427f919061408e565b60098201600061428f9190614046565b600b820160006101000a81549060ff0219169055600b820160016101000a81549060ff021916905550600c016141f7565b5090565b90565b6142e991905b808211156142e55760008160009055506001016142cd565b5090565b90565b61430e91905b8082111561430a5760008160009055506001016142f2565b5090565b90565b61437491905b8082111561437057600080820160006143309190614046565b6001820160006143409190614046565b6002820160006101000a81549073ffffffffffffffffffffffffffffffffffffffff021916905550600301614317565b5090565b90565b6143eb91905b808211156143e757600080820160006143969190614046565b6001820160006143a69190614046565b600282016000905560038201600090556004820160009055600582016000905560068201600090556007820160006143de919061408e565b50600a0161437d565b5090565b905600a165627a7a72305820fb565eff6c1c687f005f0dd23b2f4b50d69fe8078d65b35343fcbfdb4ffb58b10029",
  "source": "/*\r\n    dao.sol\r\n    Created by Zefram Lou (Zebang Liu) as part of the WikiGit project.\r\n\r\n    This file implements the mechanics of the DAO, including managing members,\r\n    holding votings, modifying the bylaws and structure of the DAO, calling and\r\n    managing other modules, allowing modules to access other modules, and so on.\r\n\r\n    The DAO is the absolute source of power of the entire DAP.\r\n*/\r\n\r\npragma solidity ^0.4.11;\r\n\r\nimport './erc20.sol';\r\nimport './vault.sol';\r\nimport './tasks_handler.sol';\r\nimport './member_handler.sol';\r\n\r\ncontract Dao is Module {\r\n    /*\r\n        Defines an ERC20 token recognized by the DAO.\r\n    */\r\n    struct RecognizedToken {\r\n        string name;\r\n        string symbol;\r\n        address tokenAddress;\r\n    }\r\n\r\n    /*\r\n        Defines a certain type of voting.\r\n        The weights are the linear coefficients for talleying the votes.\r\n    */\r\n    struct VotingType {\r\n        string name;\r\n        string description;\r\n        uint quorumPercent;\r\n        uint minForPercent; //Minimum proportion of for votes needed to pass the voting.\r\n        uint activeTimeInBlocks; //The number of blocks for which the voting is active.\r\n        uint goodRepWeight;\r\n        uint badRepWeight;\r\n        bytes32[] votableGroupList;\r\n        mapping(address => uint) tokenWeights; //From token's address to weight\r\n        mapping(bytes32 => bool) isEligible; //From group name's keccak256 hash to bool. For checking whether a group is allowed to vote.\r\n    }\r\n\r\n    struct Voting {\r\n        string name;\r\n        string description;\r\n        uint typeId; //The index of the voting type in the votingTypeList array.\r\n        address creator;\r\n        uint startBlockNumber;\r\n        uint forVotes;\r\n        uint againstVotes;\r\n        uint votedMemberCount;\r\n        bytes32[] executionHashList; //The list of hashes of the transaction bytecodes that are executed after the voting is passed.\r\n        string executionModule; //The name of the module that'll execute the transaction bytecode.\r\n        mapping(address => bool) hasVoted;\r\n        bool isInvalid;\r\n        bool passed;\r\n    }\r\n\r\n    modifier notBanned {\r\n        MemberHandler h = MemberHandler(moduleAddress('MEMBER'));\r\n        require(! h.isBanned(msg.sender));\r\n        _;\r\n     }\r\n    //Should only be used in functions meant to be directly called by members and don't need any rights.\r\n\r\n    modifier needsRight(string right) {\r\n        MemberHandler h = MemberHandler(moduleAddress('MEMBER'));\r\n        require(h.memberHasRight(msg.sender, right));\r\n        require(! h.isBanned(msg.sender)); //Makes function declarations more concise.\r\n        _;\r\n    }\r\n\r\n    Voting[] public votingList;\r\n    VotingType[] public votingTypeList;\r\n    RecognizedToken[] public recognizedTokenList;\r\n\r\n    bool public isInitialized;\r\n\r\n    event VotingCreated(uint votingId);\r\n    event VotingConcluded(uint votingId, bool passed);\r\n\r\n    //Initializing\r\n\r\n    function Dao(address mainAddr) Module(mainAddr) {\r\n\r\n    }\r\n\r\n    //Not in constructor to lower deployment cost\r\n    function init() {\r\n        require(! isInitialized);\r\n        isInitialized = true;\r\n\r\n        bytes32 fullTimeHash = keccak256('full_time');\r\n\r\n        //Initialize voting types\r\n        votingTypeList.length += 1;\r\n\r\n        VotingType storage vType = votingTypeList[votingTypeList.length - 1];\r\n        vType.name = 'Default';\r\n        vType.description = 'For initializing';\r\n        vType.quorumPercent = 100;\r\n        vType.minForPercent = 100;\r\n        vType.activeTimeInBlocks = 25;\r\n        vType.goodRepWeight = 1;\r\n        vType.badRepWeight = 1;\r\n        vType.votableGroupList.push(fullTimeHash);\r\n\r\n        votingTypeList[votingTypeList.length - 1].isEligible[fullTimeHash] = true;\r\n    }\r\n\r\n    //Voting\r\n\r\n    function createVoting(\r\n        string name,\r\n        string description,\r\n        uint votingTypeId,\r\n        uint startBlockNumber,\r\n        bytes32[] executionHashList,\r\n        string executionModule\r\n    )\r\n        needsRight('create_voting')\r\n    {\r\n        require(keccak256(votingTypeList[votingTypeId].name) != keccak256(''));\r\n\r\n        votingList.push(Voting({\r\n            name: name,\r\n            description: description,\r\n            typeId: votingTypeId,\r\n            creator: msg.sender,\r\n            startBlockNumber: startBlockNumber,\r\n            executionHashList: executionHashList,\r\n            executionModule: executionModule,\r\n            forVotes: 0,\r\n            againstVotes: 0,\r\n            votedMemberCount: 0,\r\n            isInvalid: false,\r\n            passed:false\r\n        }));\r\n\r\n        VotingCreated(votingList.length - 1);\r\n    }\r\n\r\n    function invalidateVotingAtIndex(uint index) onlyMod('DAO') {\r\n        require(index < votingList.length);\r\n\r\n        votingList[index].isInvalid = true;\r\n    }\r\n\r\n    function vote(uint votingId, bool support) needsRight('vote') {\r\n        Voting storage voting = votingList[votingId];\r\n        VotingType storage vType = votingTypeList[voting.typeId];\r\n\r\n        MemberHandler h = MemberHandler(moduleAddress('MEMBER'));\r\n        var (,goodRep, badRep) = h.memberList(h.memberId(msg.sender));\r\n\r\n        require(!voting.isInvalid);\r\n        require(block.number >= voting.startBlockNumber && block.number < voting.startBlockNumber + vType.activeTimeInBlocks);\r\n        require(!voting.hasVoted[msg.sender]);\r\n        require(vType.isEligible[h.memberGroupNameHash(msg.sender)]);\r\n\r\n        voting.hasVoted[msg.sender] = true;\r\n\r\n        int memberVotes = int(vType.goodRepWeight * goodRep) - int(vType.badRepWeight * badRep);\r\n        for (uint i = 0; i < recognizedTokenList.length; i++) {\r\n            RecognizedToken storage t = recognizedTokenList[i];\r\n\r\n            require(t.tokenAddress != 0);\r\n\r\n            ERC20 token = ERC20(t.tokenAddress);\r\n            memberVotes += int(vType.tokenWeights[t.tokenAddress] * token.balanceOf(msg.sender));\r\n        }\r\n        if (memberVotes < 0) {\r\n            memberVotes = 0;\r\n        }\r\n        if (support) {\r\n            voting.forVotes += uint(memberVotes);\r\n        } else {\r\n            voting.againstVotes += uint(memberVotes);\r\n        }\r\n        voting.votedMemberCount += 1;\r\n    }\r\n\r\n    function concludeVoting(uint votingId) needsRight('vote') {\r\n        Voting storage voting = votingList[votingId];\r\n        require(!voting.isInvalid);\r\n        voting.isInvalid = true;\r\n\r\n        VotingType storage vType = votingTypeList[voting.typeId];\r\n        require(block.number >= voting.startBlockNumber + vType.activeTimeInBlocks);\r\n\r\n        MemberHandler h = MemberHandler(moduleAddress('MEMBER'));\r\n\r\n        uint votingMemberCount;\r\n        for (uint i = 0; i < vType.votableGroupList.length; i++) {\r\n            votingMemberCount += h.groupMemberCount(vType.votableGroupList[i]);\r\n        }\r\n\r\n        voting.passed = (voting.forVotes / (voting.forVotes + voting.againstVotes) * 100 >= vType.minForPercent)\r\n                        && (voting.votedMemberCount / votingMemberCount * 100 >= vType.quorumPercent);\r\n        VotingConcluded(votingId, voting.passed);\r\n    }\r\n\r\n    function executeVoting(uint votingId, uint bytecodeHashId, bytes executionBytecode) needsRight('vote') {\r\n        Voting storage voting = votingList[votingId];\r\n        require(voting.passed);\r\n        require(voting.executionHashList[bytecodeHashId] == keccak256(executionBytecode));\r\n\r\n        moduleAddress(voting.executionModule).call(executionBytecode);\r\n        delete voting.executionHashList[bytecodeHashId];\r\n    }\r\n\r\n    function createVotingType(\r\n        string name,\r\n        string description,\r\n        uint quorumPercent,\r\n        uint minForPercent,\r\n        uint activeTimeInBlocks,\r\n        uint goodRepWeight,\r\n        uint badRepWeight,\r\n        address[] tokenAddresses,\r\n        uint[] tokenWeights,\r\n        bytes32[] votableGroupList\r\n    )\r\n        onlyMod('DAO')\r\n    {\r\n        require(tokenAddresses.length == tokenWeights.length);\r\n\r\n        pushNewVotingType(\r\n            name,\r\n            description,\r\n            quorumPercent,\r\n            minForPercent,\r\n            activeTimeInBlocks,\r\n            goodRepWeight,\r\n            badRepWeight,\r\n            votableGroupList\r\n        );\r\n\r\n        for (uint i = 0; i < votableGroupList.length; i++) {\r\n            votingTypeList[votingTypeList.length - 1].isEligible[votableGroupList[i]] = true;\r\n        }\r\n\r\n        setVotingTypeTokenWeights(tokenAddresses, tokenWeights);\r\n    }\r\n\r\n    //Split out as an independent function to prevent StackTooDeep error\r\n    function pushNewVotingType(\r\n        string name,\r\n        string description,\r\n        uint quorumPercent,\r\n        uint minForPercent,\r\n        uint activeTimeInBlocks,\r\n        uint goodRepWeight,\r\n        uint badRepWeight,\r\n        bytes32[] votableGroupList\r\n    )\r\n        internal\r\n    {\r\n        votingTypeList.push(VotingType({\r\n            name: name,\r\n            description: description,\r\n            quorumPercent: quorumPercent,\r\n            minForPercent: minForPercent,\r\n            activeTimeInBlocks: activeTimeInBlocks,\r\n            goodRepWeight: goodRepWeight,\r\n            badRepWeight: badRepWeight,\r\n            votableGroupList: votableGroupList\r\n        }));\r\n    }\r\n\r\n    //Split out as an independent function to prevent StackTooDeep error\r\n    function setVotingTypeTokenWeights(address[] tokenAddresses, uint[] tokenWeights) private {\r\n        for (uint i = 0; i < tokenAddresses.length; i++) {\r\n            address addr = tokenAddresses[i];\r\n            uint weight = tokenWeights[i];\r\n            votingTypeList[votingTypeList.length - 1].tokenWeights[addr] = weight;\r\n        }\r\n    }\r\n\r\n    function removeVotingTypeAtIndex(uint index) onlyMod('DAO')\r\n    {\r\n        delete votingTypeList[index];\r\n    }\r\n\r\n    //Token functions\r\n\r\n    function addRecognizedToken(\r\n        string name,\r\n        string symbol,\r\n        address tokenAddress,\r\n        uint rewardTokenCap\r\n    )\r\n        onlyMod('DAO')\r\n    {\r\n        recognizedTokenList.push(RecognizedToken({\r\n            name: name,\r\n            symbol: symbol,\r\n            tokenAddress: tokenAddress\r\n        }));\r\n\r\n        TasksHandler handler = TasksHandler(moduleAddress('TASKS'));\r\n        handler.setCap('token', rewardTokenCap, tokenAddress);\r\n    }\r\n\r\n    function removeRecognizedTokenAtIndex(uint index) onlyMod('DAO')\r\n    {\r\n        require(index < recognizedTokenList.length);\r\n\r\n        TasksHandler handler = TasksHandler(moduleAddress('TASKS'));\r\n        handler.deleteRewardTokenCap(recognizedTokenList[index].tokenAddress);\r\n\r\n        delete recognizedTokenList[index];\r\n    }\r\n\r\n    function paySolutionReward(uint taskId, uint solId) onlyMod('TASKS') {\r\n        TasksHandler handler = TasksHandler(moduleAddress('TASKS'));\r\n        var (_,,rewardInWeis, rewardGoodRep,) = handler.taskList(taskId);\r\n        var (__,submitter,) = handler.taskSolutionList(taskId, solId);\r\n\r\n        //Reward in ether\r\n        Vault vault = Vault(moduleAddress('VAULT'));\r\n        vault.addPendingWithdrawl(rewardInWeis, submitter, true);\r\n\r\n        //Reward in reputation\r\n        paySolutionRewardGoodRep(submitter, rewardGoodRep);\r\n\r\n        //Reward in tokens\r\n        for (uint i = 0; i < handler.rewardTokenCount(taskId); i++) {\r\n            uint id = handler.rewardTokenIndex(taskId, i);\r\n            uint reward = handler.rewardTokenAmount(taskId, i);\r\n\r\n            RecognizedToken storage token = recognizedTokenList[id];\r\n\r\n            vault.addPendingTokenWithdrawl(reward, submitter, token.symbol, token.tokenAddress, true);\r\n        }\r\n    }\r\n\r\n    function paySolutionRewardGoodRep(address submitter, uint rewardGoodRep) private {\r\n        MemberHandler h = MemberHandler(moduleAddress('MEMBER'));\r\n        h.incMemberGoodRep(submitter, rewardGoodRep);\r\n    }\r\n\r\n    /*\r\n        Used for penalizing malicious solution submitters.\r\n    */\r\n    function penalizeSolutionSubmitter(uint taskId, uint solId, bool banSubmitter)\r\n        onlyMod('DAO')\r\n    {\r\n        TasksHandler handler = TasksHandler(moduleAddress('TASKS'));\r\n        var (_,,,, penaltyBadRep,) = handler.taskList(taskId);\r\n        var (__,submitter,) = handler.taskSolutionList(taskId, solId);\r\n\r\n        //Check if submitter has already been penalized\r\n        require(!handler.hasBeenPenalizedForTask(taskId, submitter));\r\n        handler.setPenalizedStatus(taskId, submitter, true);\r\n\r\n        //Penalize reputation\r\n        MemberHandler h = MemberHandler(moduleAddress('MEMBER'));\r\n        h.incMemberBadRep(submitter, penaltyBadRep);\r\n\r\n        if (banSubmitter) {\r\n            h.alterBannedStatus(submitter, true);\r\n        }\r\n    }\r\n\r\n    //Helper functions\r\n    function recognizedTokensCount() constant returns(uint) {\r\n        return recognizedTokenList.length;\r\n    }\r\n}\r\n",
  "sourcePath": "D:\\WebstormProjects\\WikiGit\\dev\\contracts\\dao.sol",
  "compiler": {
    "name": "solc",
    "version": "0.4.18+commit.9cf6e910.Emscripten.clang"
  },
  "schemaVersion": "1.0.1",
  "updatedAt": "2017-11-01T07:10:49.516Z"
}