{
  "contractName": "GitHandler",
  "abi": [
    {
      "constant": false,
      "inputs": [
        {
          "name": "id",
          "type": "uint256"
        }
      ],
      "name": "setCurrentIPFSHashID",
      "outputs": [],
      "payable": false,
      "stateMutability": "nonpayable",
      "type": "function"
    },
    {
      "constant": true,
      "inputs": [],
      "name": "mainAddress",
      "outputs": [
        {
          "name": "",
          "type": "address"
        }
      ],
      "payable": false,
      "stateMutability": "view",
      "type": "function"
    },
    {
      "constant": true,
      "inputs": [],
      "name": "getCurrentIPFSHash",
      "outputs": [
        {
          "name": "hash",
          "type": "bytes"
        }
      ],
      "payable": false,
      "stateMutability": "view",
      "type": "function"
    },
    {
      "constant": true,
      "inputs": [
        {
          "name": "",
          "type": "uint256"
        }
      ],
      "name": "ipfsHashTree",
      "outputs": [
        {
          "name": "",
          "type": "bytes"
        }
      ],
      "payable": false,
      "stateMutability": "view",
      "type": "function"
    },
    {
      "constant": true,
      "inputs": [
        {
          "name": "",
          "type": "uint256"
        }
      ],
      "name": "prevHashIDPointer",
      "outputs": [
        {
          "name": "",
          "type": "uint256"
        }
      ],
      "payable": false,
      "stateMutability": "view",
      "type": "function"
    },
    {
      "constant": true,
      "inputs": [],
      "name": "currentHashID",
      "outputs": [
        {
          "name": "",
          "type": "uint256"
        }
      ],
      "payable": false,
      "stateMutability": "view",
      "type": "function"
    },
    {
      "constant": false,
      "inputs": [
        {
          "name": "taskId",
          "type": "uint256"
        },
        {
          "name": "solId",
          "type": "uint256"
        },
        {
          "name": "newHash",
          "type": "bytes"
        }
      ],
      "name": "commitTaskSolutionToRepo",
      "outputs": [],
      "payable": false,
      "stateMutability": "nonpayable",
      "type": "function"
    },
    {
      "constant": true,
      "inputs": [],
      "name": "getIPFSHashTreeCount",
      "outputs": [
        {
          "name": "count",
          "type": "uint256"
        }
      ],
      "payable": false,
      "stateMutability": "view",
      "type": "function"
    },
    {
      "inputs": [
        {
          "name": "repoHash",
          "type": "bytes"
        },
        {
          "name": "mainAddr",
          "type": "address"
        }
      ],
      "payable": false,
      "stateMutability": "nonpayable",
      "type": "constructor"
    },
    {
      "payable": false,
      "stateMutability": "nonpayable",
      "type": "fallback"
    }
  ],
  "bytecode": "0x606060405234156200001057600080fd5b60405162000e0038038062000e008339810160405280805182019190602001805190602001909190505080806000806101000a81548173ffffffffffffffffffffffffffffffffffffffff021916908373ffffffffffffffffffffffffffffffffffffffff1602179055505060018054806001018281620000929190620000e5565b916000526020600020900160008490919091509080519060200190620000ba92919062000114565b5050600060026000808152602001908152602001600020819055506000600381905550505062000240565b8154818355818115116200010f578183600052602060002091820191016200010e91906200019b565b5b505050565b828054600181600116156101000203166002900490600052602060002090601f016020900481019282601f106200015757805160ff191683800117855562000188565b8280016001018555821562000188579182015b82811115620001875782518255916020019190600101906200016a565b5b509050620001979190620001cc565b5090565b620001c991905b80821115620001c55760008181620001bb9190620001f4565b50600101620001a2565b5090565b90565b620001f191905b80821115620001ed576000816000905550600101620001d3565b5090565b90565b50805460018160011615610100020316600290046000825580601f106200021c57506200023d565b601f0160209004906000526020600020908101906200023c9190620001cc565b5b50565b610bb080620002506000396000f30060606040526004361061008e576000357c0100000000000000000000000000000000000000000000000000000000900463ffffffff1680630133a6741461009e5780630cdd4234146100c1578063718231331461011657806391a4ba01146101a4578063d881e11614610240578063f62dd62514610277578063f6865d15146102a0578063fb540cd41461030f575b341561009957600080fd5b600080fd5b34156100a957600080fd5b6100bf6004808035906020019091905050610338565b005b34156100cc57600080fd5b6100d46103bb565b604051808273ffffffffffffffffffffffffffffffffffffffff1673ffffffffffffffffffffffffffffffffffffffff16815260200191505060405180910390f35b341561012157600080fd5b6101296103e0565b6040518080602001828103825283818151815260200191508051906020019080838360005b8381101561016957808201518184015260208101905061014e565b50505050905090810190601f1680156101965780820380516001836020036101000a031916815260200191505b509250505060405180910390f35b34156101af57600080fd5b6101c560048080359060200190919050506104a2565b6040518080602001828103825283818151815260200191508051906020019080838360005b838110156102055780820151818401526020810190506101ea565b50505050905090810190601f1680156102325780820380516001836020036101000a031916815260200191505b509250505060405180910390f35b341561024b57600080fd5b610261600480803590602001909190505061055e565b6040518082815260200191505060405180910390f35b341561028257600080fd5b61028a610576565b6040518082815260200191505060405180910390f35b34156102ab57600080fd5b61030d600480803590602001909190803590602001909190803590602001908201803590602001908080601f0160208091040260200160405190810160405280939291908181526020018383808284378201915050505050509190505061057c565b005b341561031a57600080fd5b6103226108f3565b6040518082815260200191505060405180910390f35b6040805190810160405280600381526020017f44414f000000000000000000000000000000000000000000000000000000000081525061037781610900565b73ffffffffffffffffffffffffffffffffffffffff163373ffffffffffffffffffffffffffffffffffffffff161415156103b057600080fd5b816003819055505050565b6000809054906101000a900473ffffffffffffffffffffffffffffffffffffffff1681565b6103e8610a2b565b60016003548154811015156103f957fe5b90600052602060002090018054600181600116156101000203166002900480601f0160208091040260200160405190810160405280929190818152602001828054600181600116156101000203166002900480156104985780601f1061046d57610100808354040283529160200191610498565b820191906000526020600020905b81548152906001019060200180831161047b57829003601f168201915b5050505050905090565b6001818154811015156104b157fe5b90600052602060002090016000915090508054600181600116156101000203166002900480601f0160208091040260200160405190810160405280929190818152602001828054600181600116156101000203166002900480156105565780601f1061052b57610100808354040283529160200191610556565b820191906000526020600020905b81548152906001019060200180831161053957829003601f168201915b505050505081565b60026020528060005260406000206000915090505481565b60035481565b60008060008060008060006105c56040805190810160405280600581526020017f5441534b53000000000000000000000000000000000000000000000000000000815250610900565b96508673ffffffffffffffffffffffffffffffffffffffff16632a1c52a58b600060405161010001526040518263ffffffff167c01000000000000000000000000000000000000000000000000000000000281526004018082815260200191505061010060405180830381600087803b151561064057600080fd5b6102c65a03f1151561065157600080fd5b505050604051805190602001805190602001805190602001805190602001805190602001805190602001805190602001805190509950995099505050509650508673ffffffffffffffffffffffffffffffffffffffff16637ed08e228b8b600060405160a001526040518363ffffffff167c0100000000000000000000000000000000000000000000000000000000028152600401808381526020018281526020019250505060a060405180830381600087803b151561071057600080fd5b6102c65a03f1151561072157600080fd5b50505060405180519060200180519060200180519060200180519060200180519050505050915091503373ffffffffffffffffffffffffffffffffffffffff168673ffffffffffffffffffffffffffffffffffffffff1614151561078457600080fd5b82151561079057600080fd5b84151561079c57600080fd5b88841415156107aa57600080fd5b8673ffffffffffffffffffffffffffffffffffffffff16636b3b1d178b836000604051602001526040518363ffffffff167c0100000000000000000000000000000000000000000000000000000000028152600401808381526020018273ffffffffffffffffffffffffffffffffffffffff1673ffffffffffffffffffffffffffffffffffffffff16815260200192505050602060405180830381600087803b151561085557600080fd5b6102c65a03f1151561086657600080fd5b5050506040518051905015151561087c57600080fd5b600180548060010182816108909190610a3f565b916000526020600020900160008a909190915090805190602001906108b6929190610a6b565b5050600354600260006001808054905003815260200190815260200160002081905550600180805490500360038190555050505050505050505050565b6000600180549050905090565b6000806000809054906101000a900473ffffffffffffffffffffffffffffffffffffffff1690508073ffffffffffffffffffffffffffffffffffffffff166310a8169c846040518082805190602001908083835b6020831015156109795780518252602082019150602081019050602083039250610954565b6001836020036101000a03801982511681845116808217855250505050505090500191505060405180910390206000604051602001526040518263ffffffff167c0100000000000000000000000000000000000000000000000000000000028152600401808260001916600019168152602001915050602060405180830381600087803b1515610a0857600080fd5b6102c65a03f11515610a1957600080fd5b50505060405180519050915050919050565b602060405190810160405280600081525090565b815481835581811511610a6657818360005260206000209182019101610a659190610aeb565b5b505050565b828054600181600116156101000203166002900490600052602060002090601f016020900481019282601f10610aac57805160ff1916838001178555610ada565b82800160010185558215610ada579182015b82811115610ad9578251825591602001919060010190610abe565b5b509050610ae79190610b17565b5090565b610b1491905b80821115610b105760008181610b079190610b3c565b50600101610af1565b5090565b90565b610b3991905b80821115610b35576000816000905550600101610b1d565b5090565b90565b50805460018160011615610100020316600290046000825580601f10610b625750610b81565b601f016020900490600052602060002090810190610b809190610b17565b5b505600a165627a7a72305820eb5a048e4b017b6ebc35ca24efd03aa90b45ff95476d672d3fab91f006a8c1a10029",
  "source": "/*\r\n    git_handler.sol\r\n    Created by Zefram Lou (Zebang Liu) as part of the WikiGit project.\r\n\r\n    Barebone version of a contract that communicates with the Git implementation\r\n    in the user interface component (e.g. a Javascript UI).\r\n*/\r\n\r\npragma solidity ^0.4.18;\r\n\r\nimport './main.sol';\r\nimport './tasks_handler.sol';\r\n\r\ncontract GitHandler is Module {\r\n    /*\r\n        The Git handler stores the entire history of the Git repository's IPFS hash as a tree\r\n        identical to the type of tree structure used in Git itself.\r\n\r\n        A new IPFS hash that incorporates the most recent commit would point to\r\n        the current hash, pushed to ipfsHashes by the original poster of the task.\r\n        If currentHashID had been changed to the ID of a hash that's lower in the tree,\r\n        a new branch would automatically be formed upon pushing a new hash.\r\n\r\n        This design ensures that any attack on the Git repo (e.g. setting a new\r\n        IPFS hash that points to a malicious repo) can be easily reverted by\r\n        changing currentHashID to the index of the IPFS hash of the last working repo,\r\n        since no info is ever deleted.\r\n    */\r\n    bytes[] public ipfsHashTree; //Stores the tree of the IPFS hashes of the different states of the Git repository.\r\n    mapping(uint => uint) public prevHashIDPointer; //Stores the pointers pointing from an IPFS hash's index to the index of the previous hash with respect to the tree structure.\r\n    uint public currentHashID; //Stores the index of the IPFS hash of the Git repository at the current state.\r\n\r\n    function GitHandler(bytes repoHash, address mainAddr) Module(mainAddr) public {\r\n        ipfsHashTree.push(repoHash);\r\n        prevHashIDPointer[0] = 0; //For clarity\r\n        currentHashID = 0; //For clarity\r\n    }\r\n\r\n    function setCurrentIPFSHashID(uint id) public onlyMod('DAO') {\r\n        currentHashID = id;\r\n    }\r\n\r\n    function commitTaskSolutionToRepo(\r\n        uint taskId,\r\n        uint solId,\r\n        bytes newHash\r\n    )\r\n        public\r\n    {\r\n        TasksHandler handler = TasksHandler(moduleAddress('TASKS'));\r\n        var (,poster,,,,isInvalid, acceptedSolutionID, hasAcceptedSolution) = handler.taskList(taskId);\r\n        var (_,submitter,) = handler.taskSolutionList(taskId, solId);\r\n\r\n        require(poster == msg.sender); //Only the task's poster can commit.\r\n        require(hasAcceptedSolution); //Can only commit after a solution has been accepted.\r\n        require(isInvalid);\r\n        require(acceptedSolutionID == solId); //Has to be the accepted solution.\r\n        require(!handler.tHasBeenPenalized(taskId, submitter)); //Solution can't have been penalized.\r\n\r\n        ipfsHashTree.push(newHash);\r\n        prevHashIDPointer[ipfsHashTree.length - 1] = currentHashID;\r\n        currentHashID = ipfsHashTree.length - 1;\r\n    }\r\n\r\n    //Getters\r\n\r\n    function getCurrentIPFSHash() public view returns(bytes hash) {\r\n        return ipfsHashTree[currentHashID];\r\n    }\r\n\r\n    function getIPFSHashTreeCount() public view returns(uint count) {\r\n        return ipfsHashTree.length;\r\n    }\r\n\r\n    //Fallback\r\n    function() public {\r\n        revert();\r\n    }\r\n}\r\n",
  "sourcePath": "D:\\WebstormProjects\\WikiGit\\dev\\contracts\\git_handler.sol",
  "compiler": {
    "name": "solc",
    "version": "0.4.18+commit.9cf6e910.Emscripten.clang"
  },
  "schemaVersion": "1.0.1",
  "updatedAt": "2017-11-09T05:23:49.967Z"
}