{
  "contractName": "Main",
  "abi": [
    {
      "constant": true,
      "inputs": [
        {
          "name": "",
          "type": "bytes32"
        }
      ],
      "name": "moduleAddresses",
      "outputs": [
        {
          "name": "",
          "type": "address"
        }
      ],
      "payable": false,
      "stateMutability": "view",
      "type": "function"
    },
    {
      "constant": true,
      "inputs": [],
      "name": "hasInitedABIs",
      "outputs": [
        {
          "name": "",
          "type": "bool"
        }
      ],
      "payable": false,
      "stateMutability": "view",
      "type": "function"
    },
    {
      "constant": true,
      "inputs": [
        {
          "name": "",
          "type": "bytes32"
        }
      ],
      "name": "abiHashId",
      "outputs": [
        {
          "name": "",
          "type": "uint256"
        }
      ],
      "payable": false,
      "stateMutability": "view",
      "type": "function"
    },
    {
      "constant": true,
      "inputs": [],
      "name": "metadata",
      "outputs": [
        {
          "name": "",
          "type": "string"
        }
      ],
      "payable": false,
      "stateMutability": "view",
      "type": "function"
    },
    {
      "constant": true,
      "inputs": [
        {
          "name": "",
          "type": "uint256"
        }
      ],
      "name": "moduleNames",
      "outputs": [
        {
          "name": "",
          "type": "string"
        }
      ],
      "payable": false,
      "stateMutability": "view",
      "type": "function"
    },
    {
      "constant": true,
      "inputs": [
        {
          "name": "",
          "type": "uint256"
        }
      ],
      "name": "abiIPFSHashes",
      "outputs": [
        {
          "name": "",
          "type": "bytes"
        }
      ],
      "payable": false,
      "stateMutability": "view",
      "type": "function"
    },
    {
      "constant": false,
      "inputs": [
        {
          "name": "_index",
          "type": "uint256"
        }
      ],
      "name": "removeModuleAtIndex",
      "outputs": [],
      "payable": false,
      "stateMutability": "nonpayable",
      "type": "function"
    },
    {
      "constant": false,
      "inputs": [
        {
          "name": "_modId",
          "type": "uint256"
        },
        {
          "name": "_abiHash",
          "type": "bytes"
        }
      ],
      "name": "initializeABIHashForMod",
      "outputs": [],
      "payable": false,
      "stateMutability": "nonpayable",
      "type": "function"
    },
    {
      "constant": false,
      "inputs": [
        {
          "name": "_modName",
          "type": "string"
        },
        {
          "name": "_addr",
          "type": "address"
        },
        {
          "name": "_isNew",
          "type": "bool"
        }
      ],
      "name": "setModuleAddress",
      "outputs": [],
      "payable": false,
      "stateMutability": "nonpayable",
      "type": "function"
    },
    {
      "constant": false,
      "inputs": [
        {
          "name": "_meta",
          "type": "string"
        }
      ],
      "name": "setMetadata",
      "outputs": [],
      "payable": false,
      "stateMutability": "nonpayable",
      "type": "function"
    },
    {
      "constant": false,
      "inputs": [
        {
          "name": "_addrs",
          "type": "address[]"
        }
      ],
      "name": "initializeModuleAddresses",
      "outputs": [],
      "payable": false,
      "stateMutability": "nonpayable",
      "type": "function"
    },
    {
      "constant": true,
      "inputs": [
        {
          "name": "_modHash",
          "type": "bytes32"
        }
      ],
      "name": "getABIHashForMod",
      "outputs": [
        {
          "name": "abiHash",
          "type": "bytes"
        }
      ],
      "payable": false,
      "stateMutability": "view",
      "type": "function"
    },
    {
      "constant": true,
      "inputs": [],
      "name": "hasInitedAddrs",
      "outputs": [
        {
          "name": "",
          "type": "bool"
        }
      ],
      "payable": false,
      "stateMutability": "view",
      "type": "function"
    },
    {
      "constant": false,
      "inputs": [
        {
          "name": "_modHash",
          "type": "bytes32"
        },
        {
          "name": "_abiHash",
          "type": "bytes"
        }
      ],
      "name": "setABIHashForMod",
      "outputs": [],
      "payable": false,
      "stateMutability": "nonpayable",
      "type": "function"
    },
    {
      "inputs": [
        {
          "name": "_metadata",
          "type": "string"
        },
        {
          "name": "_abiIPFSHash",
          "type": "bytes"
        }
      ],
      "payable": false,
      "stateMutability": "nonpayable",
      "type": "constructor"
    },
    {
      "payable": false,
      "stateMutability": "nonpayable",
      "type": "fallback"
    }
  ],
  "bytecode": "0x606060405234156200001057600080fd5b604051620019b6380380620019b68339810160405280805182019190602001805182019190505081600290805190602001906200004f929190620000d9565b506004805480600101828162000066919062000160565b9160005260206000209001600083909190915090805190602001906200008e9291906200018f565b505033600360026101000a81548173ffffffffffffffffffffffffffffffffffffffff021916908373ffffffffffffffffffffffffffffffffffffffff1602179055505050620002bb565b828054600181600116156101000203166002900490600052602060002090601f016020900481019282601f106200011c57805160ff19168380011785556200014d565b828001600101855582156200014d579182015b828111156200014c5782518255916020019190600101906200012f565b5b5090506200015c919062000216565b5090565b8154818355818115116200018a578183600052602060002091820191016200018991906200023e565b5b505050565b828054600181600116156101000203166002900490600052602060002090601f016020900481019282601f10620001d257805160ff191683800117855562000203565b8280016001018555821562000203579182015b8281111562000202578251825591602001919060010190620001e5565b5b50905062000212919062000216565b5090565b6200023b91905b80821115620002375760008160009055506001016200021d565b5090565b90565b6200026c91905b808211156200026857600081816200025e91906200026f565b5060010162000245565b5090565b90565b50805460018160011615610100020316600290046000825580601f10620002975750620002b8565b601f016020900490600052602060002090810190620002b7919062000216565b5b50565b6116eb80620002cb6000396000f3006060604052600436106100d0576000357c0100000000000000000000000000000000000000000000000000000000900463ffffffff16806310a8169c146100e05780632ea247b614610147578063320391b514610174578063392f37e9146101af5780633ef6fbed1461023d57806344c1ab24146102d9578063711748a31461037557806371f90fe6146103985780638622031f146103fe578063a49a1e7d14610485578063d095edb2146104e2578063d1ce017c1461053c578063e9ae753d146105dc578063fa55afe214610609575b34156100db57600080fd5b600080fd5b34156100eb57600080fd5b610105600480803560001916906020019091905050610673565b604051808273ffffffffffffffffffffffffffffffffffffffff1673ffffffffffffffffffffffffffffffffffffffff16815260200191505060405180910390f35b341561015257600080fd5b61015a6106a6565b604051808215151515815260200191505060405180910390f35b341561017f57600080fd5b6101996004808035600019169060200190919050506106b9565b6040518082815260200191505060405180910390f35b34156101ba57600080fd5b6101c26106d1565b6040518080602001828103825283818151815260200191508051906020019080838360005b838110156102025780820151818401526020810190506101e7565b50505050905090810190601f16801561022f5780820380516001836020036101000a031916815260200191505b509250505060405180910390f35b341561024857600080fd5b61025e600480803590602001909190505061076f565b6040518080602001828103825283818151815260200191508051906020019080838360005b8381101561029e578082015181840152602081019050610283565b50505050905090810190601f1680156102cb5780820380516001836020036101000a031916815260200191505b509250505060405180910390f35b34156102e457600080fd5b6102fa600480803590602001909190505061082b565b6040518080602001828103825283818151815260200191508051906020019080838360005b8381101561033a57808201518184015260208101905061031f565b50505050905090810190601f1680156103675780820380516001836020036101000a031916815260200191505b509250505060405180910390f35b341561038057600080fd5b61039660048080359060200190919050506108e7565b005b34156103a357600080fd5b6103fc600480803590602001909190803590602001908201803590602001908080601f01602080910402602001604051908101604052809392919081815260200183838082843782019150505050505091905050610aa9565b005b341561040957600080fd5b610483600480803590602001908201803590602001908080601f0160208091040260200160405190810160405280939291908181526020018383808284378201915050505050509190803573ffffffffffffffffffffffffffffffffffffffff169060200190919080351515906020019091905050610c35565b005b341561049057600080fd5b6104e0600480803590602001908201803590602001908080601f01602080910402602001604051908101604052809392919081815260200183838082843782019150505050505091905050610dc8565b005b34156104ed57600080fd5b61053a600480803590602001908201803590602001908080602002602001604051908101604052809392919081815260200183836020028082843782019150505050505091905050610e72565b005b341561054757600080fd5b610561600480803560001916906020019091905050611198565b6040518080602001828103825283818151815260200191508051906020019080838360005b838110156105a1578082015181840152602081019050610586565b50505050905090810190601f1680156105ce5780820380516001836020036101000a031916815260200191505b509250505060405180910390f35b34156105e757600080fd5b6105ef611275565b604051808215151515815260200191505060405180910390f35b341561061457600080fd5b61067160048080356000191690602001909190803590602001908201803590602001908080601f01602080910402602001604051908101604052809392919081815260200183838082843782019150505050505091905050611288565b005b60006020528060005260406000206000915054906101000a900473ffffffffffffffffffffffffffffffffffffffff1681565b600360019054906101000a900460ff1681565b60056020528060005260406000206000915090505481565b60028054600181600116156101000203166002900480601f0160208091040260200160405190810160405280929190818152602001828054600181600116156101000203166002900480156107675780601f1061073c57610100808354040283529160200191610767565b820191906000526020600020905b81548152906001019060200180831161074a57829003601f168201915b505050505081565b60018181548110151561077e57fe5b90600052602060002090016000915090508054600181600116156101000203166002900480601f0160208091040260200160405190810160405280929190818152602001828054600181600116156101000203166002900480156108235780601f106107f857610100808354040283529160200191610823565b820191906000526020600020905b81548152906001019060200180831161080657829003601f168201915b505050505081565b60048181548110151561083a57fe5b90600052602060002090016000915090508054600181600116156101000203166002900480601f0160208091040260200160405190810160405280929190818152602001828054600181600116156101000203166002900480156108df5780601f106108b4576101008083540402835291602001916108df565b820191906000526020600020905b8154815290600101906020018083116108c257829003601f168201915b505050505081565b60008060007f44414f000000000000000000000000000000000000000000000000000000000060001916815260200190815260200160002060009054906101000a900473ffffffffffffffffffffffffffffffffffffffff1673ffffffffffffffffffffffffffffffffffffffff163373ffffffffffffffffffffffffffffffffffffffff1614151561097957600080fd5b60018281548110151561098857fe5b906000526020600020900160405180828054600181600116156101000203166002900480156109ee5780601f106109cc5761010080835404028352918201916109ee565b820191906000526020600020905b8154815290600101906020018083116109da575b505091505060405180910390209050600080826000191660001916815260200190815260200160002060006101000a81549073ffffffffffffffffffffffffffffffffffffffff0219169055600182815481101515610a4957fe5b90600052602060002090016000610a609190611366565b600482815481101515610a6f57fe5b90600052602060002090016000610a8691906113ae565b600560008260001916600019168152602001908152602001600020600090555050565b600360029054906101000a900473ffffffffffffffffffffffffffffffffffffffff1673ffffffffffffffffffffffffffffffffffffffff163373ffffffffffffffffffffffffffffffffffffffff16141515610b0557600080fd5b600360019054906101000a900460ff16151515610b2157600080fd5b60048054806001018281610b3591906113f6565b916000526020600020900160008390919091509080519060200190610b5b929190611422565b505060016004805490500360056000600185815481101515610b7957fe5b90600052602060002090016040518082805460018160011615610100020316600290048015610bdf5780601f10610bbd576101008083540402835291820191610bdf565b820191906000526020600020905b815481529060010190602001808311610bcb575b5050915050604051809103902060001916600019168152602001908152602001600020819055506007600480549050101515610c31576001600360016101000a81548160ff0219169083151502179055505b5050565b6000807f44414f000000000000000000000000000000000000000000000000000000000060001916815260200190815260200160002060009054906101000a900473ffffffffffffffffffffffffffffffffffffffff1673ffffffffffffffffffffffffffffffffffffffff163373ffffffffffffffffffffffffffffffffffffffff16141515610cc557600080fd5b81600080856040518082805190602001908083835b602083101515610cff5780518252602082019150602081019050602083039250610cda565b6001836020036101000a03801982511681845116808217855250505050505090500191505060405180910390206000191660001916815260200190815260200160002060006101000a81548173ffffffffffffffffffffffffffffffffffffffff021916908373ffffffffffffffffffffffffffffffffffffffff1602179055508015610dc35760018054806001018281610d9a91906114a2565b916000526020600020900160008590919091509080519060200190610dc09291906114ce565b50505b505050565b6000807f44414f000000000000000000000000000000000000000000000000000000000060001916815260200190815260200160002060009054906101000a900473ffffffffffffffffffffffffffffffffffffffff1673ffffffffffffffffffffffffffffffffffffffff163373ffffffffffffffffffffffffffffffffffffffff16141515610e5857600080fd5b8060029080519060200190610e6e9291906114ce565b5050565b6000600360009054906101000a900460ff16151515610e9057600080fd5b600360029054906101000a900473ffffffffffffffffffffffffffffffffffffffff1673ffffffffffffffffffffffffffffffffffffffff163373ffffffffffffffffffffffffffffffffffffffff16141515610eec57600080fd5b6001600360006101000a81548160ff02191690831515021790555060c0604051908101604052806040805190810160405280600381526020017f44414f000000000000000000000000000000000000000000000000000000000081525081526020016040805190810160405280600681526020017f4d454d424552000000000000000000000000000000000000000000000000000081525081526020016040805190810160405280600581526020017f5641554c5400000000000000000000000000000000000000000000000000000081525081526020016040805190810160405280600581526020017f5441534b5300000000000000000000000000000000000000000000000000000081525081526020016040805190810160405280600381526020017f474954000000000000000000000000000000000000000000000000000000000081525081526020016040805190810160405280600581526020017f544f4b454e000000000000000000000000000000000000000000000000000000815250815250600190600661108392919061154e565b50600090505b6001805490508110156111945781818151811015156110a457fe5b906020019060200201516000806001848154811015156110c057fe5b906000526020600020900160405180828054600181600116156101000203166002900480156111265780601f10611104576101008083540402835291820191611126565b820191906000526020600020905b815481529060010190602001808311611112575b505091505060405180910390206000191660001916815260200190815260200160002060006101000a81548173ffffffffffffffffffffffffffffffffffffffff021916908373ffffffffffffffffffffffffffffffffffffffff1602179055508080600101915050611089565b5050565b6111a06115ae565b6004600560008460001916600019168152602001908152602001600020548154811015156111ca57fe5b90600052602060002090018054600181600116156101000203166002900480601f0160208091040260200160405190810160405280929190818152602001828054600181600116156101000203166002900480156112695780601f1061123e57610100808354040283529160200191611269565b820191906000526020600020905b81548152906001019060200180831161124c57829003601f168201915b50505050509050919050565b600360009054906101000a900460ff1681565b6000807f44414f000000000000000000000000000000000000000000000000000000000060001916815260200190815260200160002060009054906101000a900473ffffffffffffffffffffffffffffffffffffffff1673ffffffffffffffffffffffffffffffffffffffff163373ffffffffffffffffffffffffffffffffffffffff1614151561131857600080fd5b8060046005600085600019166000191681526020019081526020016000205481548110151561134357fe5b90600052602060002090019080519060200190611361929190611422565b505050565b50805460018160011615610100020316600290046000825580601f1061138c57506113ab565b601f0160209004906000526020600020908101906113aa91906115c2565b5b50565b50805460018160011615610100020316600290046000825580601f106113d457506113f3565b601f0160209004906000526020600020908101906113f291906115c2565b5b50565b81548183558181151161141d5781836000526020600020918201910161141c91906115e7565b5b505050565b828054600181600116156101000203166002900490600052602060002090601f016020900481019282601f1061146357805160ff1916838001178555611491565b82800160010185558215611491579182015b82811115611490578251825591602001919060010190611475565b5b50905061149e91906115c2565b5090565b8154818355818115116114c9578183600052602060002091820191016114c89190611613565b5b505050565b828054600181600116156101000203166002900490600052602060002090601f016020900481019282601f1061150f57805160ff191683800117855561153d565b8280016001018555821561153d579182015b8281111561153c578251825591602001919060010190611521565b5b50905061154a91906115c2565b5090565b82805482825590600052602060002090810192821561159d579160200282015b8281111561159c57825182908051906020019061158c92919061163f565b509160200191906001019061156e565b5b5090506115aa9190611613565b5090565b602060405190810160405280600081525090565b6115e491905b808211156115e05760008160009055506001016115c8565b5090565b90565b61161091905b8082111561160c576000818161160391906113ae565b506001016115ed565b5090565b90565b61163c91905b80821115611638576000818161162f9190611366565b50600101611619565b5090565b90565b828054600181600116156101000203166002900490600052602060002090601f016020900481019282601f1061168057805160ff19168380011785556116ae565b828001600101855582156116ae579182015b828111156116ad578251825591602001919060010190611692565b5b5090506116bb91906115c2565b50905600a165627a7a7230582013ff7b5178a558b4e484008f5d9e10a59cfd45be78e728a65d1ff66543bb71610029",
  "source": "/*\r\n    main.sol\r\n    Created by Zefram Lou (Zebang Liu) as part of the WikiGit project.\r\n\r\n    This file implements the main contract of the DAP, or in other words\r\n    the module manager. The main contract records the metadata of the DAP,\r\n    as well as the names and addresses of all modules, including the DAO.\r\n    It is the first contract created when initializing a DAP. Its records\r\n    of the modules is the only place modules look to when trying to communicate\r\n    with other modules, and this centralized index of modules allows individual\r\n    module contracts to be updated down the road, which also means that\r\n    the main contract is the only contract in the DAP that cannot be updated.\r\n*/\r\n\r\npragma solidity ^0.4.18;\r\n\r\ncontract Module {\r\n    modifier onlyMod(string mod) { require(msg.sender == moduleAddress(mod)); _; }\r\n\r\n    address public mainAddress;\r\n    uint public constant decimals = 18;\r\n\r\n    function Module(address _mainAddress) public {\r\n        mainAddress = _mainAddress;\r\n    }\r\n\r\n    function moduleAddress(string mod) internal view returns(address addr){\r\n        Main main = Main(mainAddress);\r\n        addr = main.moduleAddresses(keccak256(mod));\r\n    }\r\n}\r\n\r\ncontract Main {\r\n    mapping(bytes32 => address) public moduleAddresses;\r\n    string[] public moduleNames;\r\n    string public metadata;\r\n    bool public hasInitedAddrs;\r\n    bool public hasInitedABIs;\r\n    address private creator;\r\n    bytes[] public abiIPFSHashes;\r\n    mapping(bytes32 => uint) public abiHashId;\r\n\r\n    modifier onlyDao{ require(msg.sender == moduleAddresses['DAO']); _; }\r\n\r\n    function Main(string _metadata, bytes _abiIPFSHash) public {\r\n        metadata = _metadata;\r\n        abiIPFSHashes.push(_abiIPFSHash);\r\n        creator = msg.sender;\r\n    }\r\n\r\n    /*\r\n        Used for initializing the module address index. As string[] variables can't be passed as function parameters, the addrs array\r\n        must be ordered in the following way:\r\n        DAO, MEMBER, VAULT, TASKS, GIT, TOKEN\r\n        @param address[] addrs The array that stores the addresses of all initial modules. Must follow the specified format.\r\n    */\r\n\r\n    function initializeModuleAddresses(address[] _addrs) public {\r\n        require(!hasInitedAddrs);\r\n        require(msg.sender == creator);\r\n        hasInitedAddrs = true;\r\n        moduleNames = ['DAO', 'MEMBER', 'VAULT', 'TASKS', 'GIT', 'TOKEN'];\r\n\r\n        for (uint i = 0; i < moduleNames.length; i++) {\r\n            moduleAddresses[keccak256(moduleNames[i])] = _addrs[i];\r\n        }\r\n    }\r\n\r\n    function initializeABIHashForMod(uint _modId, bytes _abiHash) public {\r\n        require(msg.sender == creator);\r\n        require(!hasInitedABIs);\r\n\r\n        abiIPFSHashes.push(_abiHash);\r\n        abiHashId[keccak256(moduleNames[_modId])] = abiIPFSHashes.length - 1;\r\n\r\n        if (abiIPFSHashes.length >= 7) {\r\n            hasInitedABIs = true;\r\n        }\r\n    }\r\n\r\n    function getABIHashForMod(bytes32 _modHash) public view returns(bytes abiHash) {\r\n        return abiIPFSHashes[abiHashId[_modHash]];\r\n    }\r\n\r\n    function setABIHashForMod(bytes32 _modHash, bytes _abiHash) public onlyDao {\r\n        abiIPFSHashes[abiHashId[_modHash]] = _abiHash;\r\n    }\r\n\r\n    function setModuleAddress(\r\n        string _modName,\r\n        address _addr,\r\n        bool _isNew\r\n    )\r\n        public\r\n        onlyDao\r\n    {\r\n        moduleAddresses[keccak256(_modName)] = _addr;\r\n        if (_isNew) {\r\n            moduleNames.push(_modName);\r\n        }\r\n    }\r\n\r\n    function removeModuleAtIndex(uint _index) public onlyDao {\r\n        bytes32 nameHash = keccak256(moduleNames[_index]);\r\n        delete moduleAddresses[nameHash];\r\n        delete moduleNames[_index];\r\n        delete abiIPFSHashes[_index];\r\n        delete abiHashId[nameHash];\r\n    }\r\n\r\n    function setMetadata(string _meta) public onlyDao {\r\n        metadata = _meta;\r\n    }\r\n\r\n    //Fallback\r\n    function() public {\r\n        revert();\r\n    }\r\n}\r\n",
  "sourcePath": "D:\\WebstormProjects\\WikiGit\\dev\\contracts\\main.sol",
  "compiler": {
    "name": "solc",
    "version": "0.4.18+commit.9cf6e910.Emscripten.clang"
  },
  "schemaVersion": "1.0.1",
  "updatedAt": "2018-01-05T06:14:26.005Z"
}