{
  "contractName": "MemberHandler",
  "abi": [
    {
      "constant": false,
      "inputs": [
        {
          "name": "_newName",
          "type": "string"
        }
      ],
      "name": "changeSelfName",
      "outputs": [],
      "payable": false,
      "stateMutability": "nonpayable",
      "type": "function"
    },
    {
      "constant": false,
      "inputs": [
        {
          "name": "_addr",
          "type": "address"
        },
        {
          "name": "_amount",
          "type": "uint256"
        }
      ],
      "name": "incMemberGoodRep",
      "outputs": [],
      "payable": false,
      "stateMutability": "nonpayable",
      "type": "function"
    },
    {
      "constant": true,
      "inputs": [],
      "name": "mainAddress",
      "outputs": [
        {
          "name": "",
          "type": "address"
        }
      ],
      "payable": false,
      "stateMutability": "view",
      "type": "function"
    },
    {
      "constant": true,
      "inputs": [
        {
          "name": "groupName",
          "type": "string"
        },
        {
          "name": "rightName",
          "type": "string"
        },
        {
          "name": "hasRight",
          "type": "bool"
        }
      ],
      "name": "memberCount",
      "outputs": [
        {
          "name": "",
          "type": "uint256"
        }
      ],
      "payable": false,
      "stateMutability": "view",
      "type": "function"
    },
    {
      "constant": false,
      "inputs": [
        {
          "name": "_id",
          "type": "uint256"
        },
        {
          "name": "_newGroupName",
          "type": "string"
        }
      ],
      "name": "changeMemberGroup",
      "outputs": [],
      "payable": false,
      "stateMutability": "nonpayable",
      "type": "function"
    },
    {
      "constant": true,
      "inputs": [
        {
          "name": "",
          "type": "bytes32"
        },
        {
          "name": "",
          "type": "bytes32"
        }
      ],
      "name": "groupRights",
      "outputs": [
        {
          "name": "",
          "type": "bool"
        }
      ],
      "payable": false,
      "stateMutability": "view",
      "type": "function"
    },
    {
      "constant": true,
      "inputs": [
        {
          "name": "_addr",
          "type": "address"
        }
      ],
      "name": "memberGroupNameHash",
      "outputs": [
        {
          "name": "",
          "type": "bytes32"
        }
      ],
      "payable": false,
      "stateMutability": "view",
      "type": "function"
    },
    {
      "constant": true,
      "inputs": [
        {
          "name": "",
          "type": "address"
        }
      ],
      "name": "decimals",
      "outputs": [
        {
          "name": "",
          "type": "uint256"
        }
      ],
      "payable": false,
      "stateMutability": "view",
      "type": "function"
    },
    {
      "constant": true,
      "inputs": [
        {
          "name": "",
          "type": "address"
        }
      ],
      "name": "memberId",
      "outputs": [
        {
          "name": "",
          "type": "uint256"
        }
      ],
      "payable": false,
      "stateMutability": "view",
      "type": "function"
    },
    {
      "constant": false,
      "inputs": [
        {
          "name": "_addr",
          "type": "address"
        },
        {
          "name": "right",
          "type": "string"
        }
      ],
      "name": "removeMemberWithAddress",
      "outputs": [
        {
          "name": "",
          "type": "bool"
        }
      ],
      "payable": false,
      "stateMutability": "nonpayable",
      "type": "function"
    },
    {
      "constant": true,
      "inputs": [
        {
          "name": "_groupName",
          "type": "string"
        },
        {
          "name": "_right",
          "type": "string"
        }
      ],
      "name": "getGroupRight",
      "outputs": [
        {
          "name": "",
          "type": "bool"
        }
      ],
      "payable": false,
      "stateMutability": "view",
      "type": "function"
    },
    {
      "constant": false,
      "inputs": [
        {
          "name": "_addr",
          "type": "address"
        },
        {
          "name": "_newStatus",
          "type": "bool"
        }
      ],
      "name": "alterBannedStatus",
      "outputs": [
        {
          "name": "",
          "type": "bool"
        }
      ],
      "payable": false,
      "stateMutability": "nonpayable",
      "type": "function"
    },
    {
      "constant": true,
      "inputs": [
        {
          "name": "_addr",
          "type": "address"
        },
        {
          "name": "_right",
          "type": "string"
        }
      ],
      "name": "memberHasRight",
      "outputs": [
        {
          "name": "",
          "type": "bool"
        }
      ],
      "payable": false,
      "stateMutability": "view",
      "type": "function"
    },
    {
      "constant": true,
      "inputs": [
        {
          "name": "",
          "type": "address"
        }
      ],
      "name": "getMemberListCount",
      "outputs": [
        {
          "name": "",
          "type": "uint256"
        }
      ],
      "payable": false,
      "stateMutability": "view",
      "type": "function"
    },
    {
      "constant": true,
      "inputs": [
        {
          "name": "",
          "type": "address"
        },
        {
          "name": "userAddress",
          "type": "address"
        },
        {
          "name": "groupName",
          "type": "string"
        },
        {
          "name": "goodRep",
          "type": "uint256"
        },
        {
          "name": "badRep",
          "type": "uint256"
        }
      ],
      "name": "isBanned",
      "outputs": [
        {
          "name": "",
          "type": "bool"
        }
      ],
      "payable": false,
      "stateMutability": "view",
      "type": "function"
    },
    {
      "constant": false,
      "inputs": [
        {
          "name": "_userName",
          "type": "string"
        },
        {
          "name": "_userAddress",
          "type": "address"
        },
        {
          "name": "_groupName",
          "type": "string"
        },
        {
          "name": "_goodRep",
          "type": "uint256"
        },
        {
          "name": "_badRep",
          "type": "uint256"
        }
      ],
      "name": "addMember",
      "outputs": [],
      "payable": false,
      "stateMutability": "nonpayable",
      "type": "function"
    },
    {
      "constant": false,
      "inputs": [
        {
          "name": "_newAddress",
          "type": "address"
        }
      ],
      "name": "changeSelfAddress",
      "outputs": [
        {
          "name": "",
          "type": "uint256"
        }
      ],
      "payable": false,
      "stateMutability": "nonpayable",
      "type": "function"
    },
    {
      "constant": true,
      "inputs": [
        {
          "name": "",
          "type": "bytes32"
        }
      ],
      "name": "groupMemberCount",
      "outputs": [
        {
          "name": "",
          "type": "uint256"
        },
        {
          "name": "userAddress",
          "type": "address"
        },
        {
          "name": "groupName",
          "type": "string"
        },
        {
          "name": "goodRep",
          "type": "uint256"
        },
        {
          "name": "badRep",
          "type": "uint256"
        }
      ],
      "payable": false,
      "stateMutability": "view",
      "type": "function"
    },
    {
      "constant": true,
      "inputs": [
        {
          "name": "",
          "type": "uint256"
        }
      ],
      "name": "memberList",
      "outputs": [
        {
          "name": "userName",
          "type": "string"
        },
        {
          "name": "userAddress",
          "type": "address"
        },
        {
          "name": "groupName",
          "type": "string"
        },
        {
          "name": "goodRep",
          "type": "uint256"
        },
        {
          "name": "badRep",
          "type": "uint256"
        }
      ],
      "payable": false,
      "stateMutability": "view",
      "type": "function"
    },
    {
      "constant": false,
      "inputs": [
        {
          "name": "_userName",
          "type": "string"
        }
      ],
      "name": "setSelfAsPureShareholder",
      "outputs": [],
      "payable": false,
      "stateMutability": "nonpayable",
      "type": "function"
    },
    {
      "constant": false,
      "inputs": [
        {
          "name": "_addr",
          "type": "address"
        },
        {
          "name": "_amount",
          "type": "uint256"
        }
      ],
      "name": "incMemberBadRep",
      "outputs": [],
      "payable": false,
      "stateMutability": "nonpayable",
      "type": "function"
    },
    {
      "inputs": [
        {
          "name": "_creatorUserName",
          "type": "string"
        },
        {
          "name": "_mainAddr",
          "type": "address"
        }
      ],
      "payable": false,
      "stateMutability": "nonpayable",
      "type": "constructor"
    },
    {
      "payable": false,
      "stateMutability": "nonpayable",
      "type": "fallback"
    }
  ],
  "bytecode": "0x606060405234156200001057600080fd5b60405162003356380380620033568339810160405280805182019190602001805190602001909190505080806000806101000a81548173ffffffffffffffffffffffffffffffffffffffff021916908373ffffffffffffffffffffffffffffffffffffffff160217905550506002805480600101828162000092919062000c5d565b9160005260206000209060050201600060a06040519081016040528060206040519081016040528060008152508152602001600073ffffffffffffffffffffffffffffffffffffffff16815260200160206040519081016040528060008152508152602001600081526020016000815250909190915060008201518160000190805190602001906200012692919062000c92565b5060208201518160010160006101000a81548173ffffffffffffffffffffffffffffffffffffffff021916908373ffffffffffffffffffffffffffffffffffffffff16021790555060408201518160020190805190602001906200018c92919062000c92565b50606082015181600301556080820151816004015550505060028054806001018281620001ba919062000c5d565b9160005260206000209060050201600060a0604051908101604052808681526020013373ffffffffffffffffffffffffffffffffffffffff1681526020016040805190810160405280600b81526020017f7465616d5f6d656d6265720000000000000000000000000000000000000000008152508152602001600181526020016000815250909190915060008201518160000190805190602001906200026292919062000c92565b5060208201518160010160006101000a81548173ffffffffffffffffffffffffffffffffffffffff021916908373ffffffffffffffffffffffffffffffffffffffff1602179055506040820151816002019080519060200190620002c892919062000c92565b5060608201518160030155608082015181600401555050506001600360003373ffffffffffffffffffffffffffffffffffffffff1673ffffffffffffffffffffffffffffffffffffffff168152602001908152602001600020819055506001806000828254019250508190555060016005600060405180807f7465616d5f6d656d626572000000000000000000000000000000000000000000815250600b01905060405180910390206000191660001916815260200190815260200160002060008282540192505081905550620004206040805190810160405280600b81526020017f7465616d5f6d656d6265720000000000000000000000000000000000000000008152506040805190810160405280600d81526020017f6372656174655f766f74696e6700000000000000000000000000000000000000815250600162000b4464010000000002620023fb176401000000009004565b620004ac6040805190810160405280600b81526020017f7465616d5f6d656d6265720000000000000000000000000000000000000000008152506040805190810160405280600b81526020017f7375626d69745f7461736b000000000000000000000000000000000000000000815250600162000b4464010000000002620023fb176401000000009004565b620005386040805190810160405280600b81526020017f7465616d5f6d656d6265720000000000000000000000000000000000000000008152506040805190810160405280601681526020017f7375626d69745f7461736b5f7265776172646c65737300000000000000000000815250600162000b4464010000000002620023fb176401000000009004565b620005c46040805190810160405280600b81526020017f7465616d5f6d656d6265720000000000000000000000000000000000000000008152506040805190810160405280600481526020017f766f746500000000000000000000000000000000000000000000000000000000815250600162000b4464010000000002620023fb176401000000009004565b620006506040805190810160405280600b81526020017f7465616d5f6d656d6265720000000000000000000000000000000000000000008152506040805190810160405280600e81526020017f71756f72756d5f696e636c756465000000000000000000000000000000000000815250600162000b4464010000000002620023fb176401000000009004565b620006dc6040805190810160405280600b81526020017f7465616d5f6d656d6265720000000000000000000000000000000000000000008152506040805190810160405280600f81526020017f7375626d69745f736f6c7574696f6e0000000000000000000000000000000000815250600162000b4464010000000002620023fb176401000000009004565b620007686040805190810160405280600b81526020017f7465616d5f6d656d6265720000000000000000000000000000000000000000008152506040805190810160405280600d81526020017f766f74655f736f6c7574696f6e00000000000000000000000000000000000000815250600162000b4464010000000002620023fb176401000000009004565b620007f46040805190810160405280600b81526020017f7465616d5f6d656d6265720000000000000000000000000000000000000000008152506040805190810160405280600b81526020017f6163636570745f68617368000000000000000000000000000000000000000000815250600162000b4464010000000002620023fb176401000000009004565b620008806040805190810160405280600b81526020017f636f6e7472696275746f720000000000000000000000000000000000000000008152506040805190810160405280600d81526020017f6372656174655f766f74696e6700000000000000000000000000000000000000815250600162000b4464010000000002620023fb176401000000009004565b6200090c6040805190810160405280600b81526020017f636f6e7472696275746f720000000000000000000000000000000000000000008152506040805190810160405280601681526020017f7375626d69745f7461736b5f7265776172646c65737300000000000000000000815250600162000b4464010000000002620023fb176401000000009004565b620009986040805190810160405280600b81526020017f636f6e7472696275746f720000000000000000000000000000000000000000008152506040805190810160405280600481526020017f766f746500000000000000000000000000000000000000000000000000000000815250600162000b4464010000000002620023fb176401000000009004565b62000a246040805190810160405280600b81526020017f636f6e7472696275746f720000000000000000000000000000000000000000008152506040805190810160405280600f81526020017f7375626d69745f736f6c7574696f6e0000000000000000000000000000000000815250600162000b4464010000000002620023fb176401000000009004565b62000ab06040805190810160405280601081526020017f707572655f7368617265686f6c646572000000000000000000000000000000008152506040805190810160405280600481526020017f766f746500000000000000000000000000000000000000000000000000000000815250600162000b4464010000000002620023fb176401000000009004565b62000b3c6040805190810160405280601081526020017f707572655f7368617265686f6c646572000000000000000000000000000000008152506040805190810160405280600d81526020017f6372656174655f766f74696e6700000000000000000000000000000000000000815250600162000b4464010000000002620023fb176401000000009004565b505062000e0a565b8060046000856040518082805190602001908083835b60208310151562000b81578051825260208201915060208101905060208303925062000b5a565b6001836020036101000a0380198251168184511680821785525050505050509050019150506040518091039020600019166000191681526020019081526020016000206000846040518082805190602001908083835b60208310151562000bfe578051825260208201915060208101905060208303925062000bd7565b6001836020036101000a03801982511681845116808217855250505050505090500191505060405180910390206000191660001916815260200190815260200160002060006101000a81548160ff021916908315150217905550505050565b81548183558181151162000c8d5760050281600502836000526020600020918201910162000c8c919062000d19565b5b505050565b828054600181600116156101000203166002900490600052602060002090601f016020900481019282601f1062000cd557805160ff191683800117855562000d06565b8280016001018555821562000d06579182015b8281111562000d0557825182559160200191906001019062000ce8565b5b50905062000d15919062000d96565b5090565b62000d9391905b8082111562000d8f576000808201600062000d3c919062000dbe565b6001820160006101000a81549073ffffffffffffffffffffffffffffffffffffffff021916905560028201600062000d75919062000dbe565b600382016000905560048201600090555060050162000d20565b5090565b90565b62000dbb91905b8082111562000db757600081600090555060010162000d9d565b5090565b90565b50805460018160011615610100020316600290046000825580601f1062000de6575062000e07565b601f01602090049060005260206000209081019062000e06919062000d96565b5b50565b61253c8062000e1a6000396000f30060606040526004361061011d576000357c0100000000000000000000000000000000000000000000000000000000900463ffffffff168063045eea7d1461012d57806306ebe49f1461018a5780630cdd4234146101cc57806311aee3801461022157806316cbf9871461024a578063182d5d4e146102b057806319b5176e146102fc578063313ce56714610351578063391068211461037a578063493caeea146103c7578063533c023b146104005780635bc72460146104b85780636c3ea721146104fc578063723b2b581461059057806397f735d5146105b95780639bd4d4551461060a5780639fd1bd1f146106db578063a483e61414610714578063b307fc6d1461074f578063d2a7ea17146108d2578063e56044c81461092f575b341561012857600080fd5b600080fd5b341561013857600080fd5b610188600480803590602001908201803590602001908080601f01602080910402602001604051908101604052809392919081815260200183838082843782019150505050505091905050610971565b005b341561019557600080fd5b6101ca600480803573ffffffffffffffffffffffffffffffffffffffff16906020019091908035906020019091905050610a88565b005b34156101d757600080fd5b6101df610b74565b604051808273ffffffffffffffffffffffffffffffffffffffff1673ffffffffffffffffffffffffffffffffffffffff16815260200191505060405180910390f35b341561022c57600080fd5b610234610b99565b6040518082815260200191505060405180910390f35b341561025557600080fd5b6102ae600480803590602001909190803590602001908201803590602001908080601f01602080910402602001604051908101604052809392919081815260200183838082843782019150505050505091905050610b9f565b005b34156102bb57600080fd5b6102e260048080356000191690602001909190803560001916906020019091905050610d8e565b604051808215151515815260200191505060405180910390f35b341561030757600080fd5b610333600480803573ffffffffffffffffffffffffffffffffffffffff16906020019091905050610dbd565b60405180826000191660001916815260200191505060405180910390f35b341561035c57600080fd5b610364610e3a565b6040518082815260200191505060405180910390f35b341561038557600080fd5b6103b1600480803573ffffffffffffffffffffffffffffffffffffffff16906020019091905050610e3f565b6040518082815260200191505060405180910390f35b34156103d257600080fd5b6103fe600480803573ffffffffffffffffffffffffffffffffffffffff16906020019091905050610e57565b005b341561040b57600080fd5b61049e600480803590602001908201803590602001908080601f0160208091040260200160405190810160405280939291908181526020018383808284378201915050505050509190803590602001908201803590602001908080601f0160208091040260200160405190810160405280939291908181526020018383808284378201915050505050509190505061113a565b604051808215151515815260200191505060405180910390f35b34156104c357600080fd5b6104fa600480803573ffffffffffffffffffffffffffffffffffffffff16906020019091908035151590602001909190505061124a565b005b341561050757600080fd5b610576600480803573ffffffffffffffffffffffffffffffffffffffff1690602001909190803590602001908201803590602001908080601f01602080910402602001604051908101604052809392919081815260200183838082843782019150505050505091905050611564565b604051808215151515815260200191505060405180910390f35b341561059b57600080fd5b6105a361161c565b6040518082815260200191505060405180910390f35b34156105c457600080fd5b6105f0600480803573ffffffffffffffffffffffffffffffffffffffff16906020019091905050611629565b604051808215151515815260200191505060405180910390f35b341561061557600080fd5b6106d9600480803590602001908201803590602001908080601f0160208091040260200160405190810160405280939291908181526020018383808284378201915050505050509190803573ffffffffffffffffffffffffffffffffffffffff1690602001909190803590602001908201803590602001908080601f01602080910402602001604051908101604052809392919081815260200183838082843782019150505050505091908035906020019091908035906020019091905050611649565b005b34156106e657600080fd5b610712600480803573ffffffffffffffffffffffffffffffffffffffff169060200190919050506118fe565b005b341561071f57600080fd5b610739600480803560001916906020019091905050611b07565b6040518082815260200191505060405180910390f35b341561075a57600080fd5b6107706004808035906020019091905050611b1f565b60405180806020018673ffffffffffffffffffffffffffffffffffffffff1673ffffffffffffffffffffffffffffffffffffffff1681526020018060200185815260200184815260200183810383528881815460018160011615610100020316600290048152602001915080546001816001161561010002031660029004801561083b5780601f106108105761010080835404028352916020019161083b565b820191906000526020600020905b81548152906001019060200180831161081e57829003601f168201915b50508381038252868181546001816001161561010002031660029004815260200191508054600181600116156101000203166002900480156108be5780601f10610893576101008083540402835291602001916108be565b820191906000526020600020905b8154815290600101906020018083116108a157829003601f168201915b505097505050505050505060405180910390f35b34156108dd57600080fd5b61092d600480803590602001908201803590602001908080601f01602080910402602001604051908101604052809392919081815260200183838082843782019150505050505091905050611b82565b005b341561093a57600080fd5b61096f600480803573ffffffffffffffffffffffffffffffffffffffff16906020019091908035906020019091905050611f6a565b005b600660003373ffffffffffffffffffffffffffffffffffffffff1673ffffffffffffffffffffffffffffffffffffffff16815260200190815260200160002060009054906101000a900460ff161515156109ca57600080fd5b6040518060000190506040518091039020600019166109e833612056565b6002016040518082805460018160011615610100020316600290048015610a465780601f10610a24576101008083540402835291820191610a46565b820191906000526020600020905b815481529060010190602001808311610a32575b505091505060405180910390206000191614151515610a6457600080fd5b80610a6e33612056565b6000019080519060200190610a849291906121e6565b5050565b60006040805190810160405280600381526020017f44414f0000000000000000000000000000000000000000000000000000000000815250610ac9816120bb565b73ffffffffffffffffffffffffffffffffffffffff163373ffffffffffffffffffffffffffffffffffffffff16141515610b0257600080fd5b6000600360008673ffffffffffffffffffffffffffffffffffffffff1673ffffffffffffffffffffffffffffffffffffffff1681526020019081526020016000205414151515610b5157600080fd5b610b5a84612056565b915082826003016000828254019250508190555050505050565b6000809054906101000a900473ffffffffffffffffffffffffffffffffffffffff1681565b60015481565b6040805190810160405280600381526020017f44414f0000000000000000000000000000000000000000000000000000000000815250610bde816120bb565b73ffffffffffffffffffffffffffffffffffffffff163373ffffffffffffffffffffffffffffffffffffffff16141515610c1757600080fd5b600160056000600286815481101515610c2c57fe5b90600052602060002090600502016002016040518082805460018160011615610100020316600290048015610c985780601f10610c76576101008083540402835291820191610c98565b820191906000526020600020905b815481529060010190602001808311610c84575b505091505060405180910390206000191660001916815260200190815260200160002060008282540392505081905550600160056000846040518082805190602001908083835b602083101515610d045780518252602082019150602081019050602083039250610cdf565b6001836020036101000a0380198251168184511680821785525050505050509050019150506040518091039020600019166000191681526020019081526020016000206000828254019250508190555081600284815481101515610d6457fe5b90600052602060002090600502016002019080519060200190610d889291906121e6565b50505050565b60046020528160005260406000206020528060005260406000206000915091509054906101000a900460ff1681565b6000610dc882612056565b6002016040518082805460018160011615610100020316600290048015610e265780601f10610e04576101008083540402835291820191610e26565b820191906000526020600020905b815481529060010190602001808311610e12575b505091505060405180910390209050919050565b601281565b60036020528060005260406000206000915090505481565b6000806040805190810160405280600381526020017f44414f0000000000000000000000000000000000000000000000000000000000815250610e99816120bb565b73ffffffffffffffffffffffffffffffffffffffff163373ffffffffffffffffffffffffffffffffffffffff16141515610ed257600080fd5b600360008573ffffffffffffffffffffffffffffffffffffffff1673ffffffffffffffffffffffffffffffffffffffff16815260200190815260200160002054925060008314151515610f2457600080fd5b600283815481101515610f3357fe5b90600052602060002090600502019150604051806000019050604051809103902060001916826002016040518082805460018160011615610100020316600290048015610fb75780601f10610f95576101008083540402835291820191610fb7565b820191906000526020600020905b815481529060010190602001808311610fa3575b505091505060405180910390206000191614151515610fd557600080fd5b6001806000828254039250508190555060016005600084600201604051808280546001816001161561010002031660029004801561104a5780601f1061102857610100808354040283529182019161104a565b820191906000526020600020905b815481529060010190602001808311611036575b50509150506040518091039020600019166000191681526020019081526020016000206000828254039250508190555060028381548110151561108957fe5b9060005260206000209060050201600080820160006110a89190612266565b6001820160006101000a81549073ffffffffffffffffffffffffffffffffffffffff02191690556002820160006110df9190612266565b600382016000905560048201600090555050600360008573ffffffffffffffffffffffffffffffffffffffff1673ffffffffffffffffffffffffffffffffffffffff1681526020019081526020016000206000905550505050565b600060046000846040518082805190602001908083835b6020831015156111765780518252602082019150602081019050602083039250611151565b6001836020036101000a0380198251168184511680821785525050505050509050019150506040518091039020600019166000191681526020019081526020016000206000836040518082805190602001908083835b6020831015156111f157805182526020820191506020810190506020830392506111cc565b6001836020036101000a03801982511681845116808217855250505050505090500191505060405180910390206000191660001916815260200190815260200160002060009054906101000a900460ff16905092915050565b60006040805190810160405280600381526020017f44414f000000000000000000000000000000000000000000000000000000000081525061128b816120bb565b73ffffffffffffffffffffffffffffffffffffffff163373ffffffffffffffffffffffffffffffffffffffff161415156112c457600080fd5b6000600360008673ffffffffffffffffffffffffffffffffffffffff1673ffffffffffffffffffffffffffffffffffffffff168152602001908152602001600020541415151561131357600080fd5b61131c84612056565b91508280156113755750600660008573ffffffffffffffffffffffffffffffffffffffff1673ffffffffffffffffffffffffffffffffffffffff16815260200190815260200160002060009054906101000a900460ff16155b15611414576001600560008460020160405180828054600181600116156101000203166002900480156113df5780601f106113bd5761010080835404028352918201916113df565b820191906000526020600020905b8154815290600101906020018083116113cb575b505091505060405180910390206000191660001916815260200190815260200160002060008282540392505081905550611507565b8215801561146b5750600660008573ffffffffffffffffffffffffffffffffffffffff1673ffffffffffffffffffffffffffffffffffffffff16815260200190815260200160002060009054906101000a900460ff165b15611506576001600560008460020160405180828054600181600116156101000203166002900480156114d55780601f106114b35761010080835404028352918201916114d5565b820191906000526020600020905b8154815290600101906020018083116114c1575b5050915050604051809103902060001916600019168152602001908152602001600020600082825401925050819055505b5b82600660008673ffffffffffffffffffffffffffffffffffffffff1673ffffffffffffffffffffffffffffffffffffffff16815260200190815260200160002060006101000a81548160ff02191690831515021790555050505050565b600061161461157284612056565b6002018054600181600116156101000203166002900480601f0160208091040260200160405190810160405280929190818152602001828054600181600116156101000203166002900480156116095780601f106115de57610100808354040283529160200191611609565b820191906000526020600020905b8154815290600101906020018083116115ec57829003601f168201915b50505050508361113a565b905092915050565b6000600280549050905090565b60066020528060005260406000206000915054906101000a900460ff1681565b6040805190810160405280600381526020017f44414f0000000000000000000000000000000000000000000000000000000000815250611688816120bb565b73ffffffffffffffffffffffffffffffffffffffff163373ffffffffffffffffffffffffffffffffffffffff161415156116c157600080fd5b6000600360008773ffffffffffffffffffffffffffffffffffffffff1673ffffffffffffffffffffffffffffffffffffffff1681526020019081526020016000205414151561170f57600080fd5b6002805480600101828161172391906122ae565b9160005260206000209060050201600060a0604051908101604052808a81526020018973ffffffffffffffffffffffffffffffffffffffff16815260200188815260200187815260200186815250909190915060008201518160000190805190602001906117929291906122e0565b5060208201518160010160006101000a81548173ffffffffffffffffffffffffffffffffffffffff021916908373ffffffffffffffffffffffffffffffffffffffff16021790555060408201518160020190805190602001906117f69291906122e0565b506060820151816003015560808201518160040155505050600160028054905003600360008773ffffffffffffffffffffffffffffffffffffffff1673ffffffffffffffffffffffffffffffffffffffff1681526020019081526020016000208190555060018060008282540192505081905550600160056000866040518082805190602001908083835b6020831015156118a65780518252602082019150602081019050602083039250611881565b6001836020036101000a03801982511681845116808217855250505050505090500191505060405180910390206000191660001916815260200190815260200160002060008282540192505081905550505050505050565b600660003373ffffffffffffffffffffffffffffffffffffffff1673ffffffffffffffffffffffffffffffffffffffff16815260200190815260200160002060009054906101000a900460ff1615151561195757600080fd5b60405180600001905060405180910390206000191661197533612056565b60020160405180828054600181600116156101000203166002900480156119d35780601f106119b15761010080835404028352918201916119d3565b820191906000526020600020905b8154815290600101906020018083116119bf575b5050915050604051809103902060001916141515156119f157600080fd5b806119fb33612056565b60010160006101000a81548173ffffffffffffffffffffffffffffffffffffffff021916908373ffffffffffffffffffffffffffffffffffffffff160217905550600360003373ffffffffffffffffffffffffffffffffffffffff1673ffffffffffffffffffffffffffffffffffffffff16815260200190815260200160002054600360008373ffffffffffffffffffffffffffffffffffffffff1673ffffffffffffffffffffffffffffffffffffffff168152602001908152602001600020819055506000600360003373ffffffffffffffffffffffffffffffffffffffff1673ffffffffffffffffffffffffffffffffffffffff1681526020019081526020016000208190555050565b60056020528060005260406000206000915090505481565b600281815481101515611b2e57fe5b906000526020600020906005020160009150905080600001908060010160009054906101000a900473ffffffffffffffffffffffffffffffffffffffff169080600201908060030154908060040154905085565b600080600660003373ffffffffffffffffffffffffffffffffffffffff1673ffffffffffffffffffffffffffffffffffffffff16815260200190815260200160002060009054906101000a900460ff16151515611bde57600080fd5b6000600360003373ffffffffffffffffffffffffffffffffffffffff1673ffffffffffffffffffffffffffffffffffffffff16815260200190815260200160002054141515611c2c57600080fd5b611c6a6040805190810160405280600381526020017f44414f00000000000000000000000000000000000000000000000000000000008152506120bb565b9150611caa6040805190810160405280600581526020017f544f4b454e0000000000000000000000000000000000000000000000000000008152506120bb565b905060008173ffffffffffffffffffffffffffffffffffffffff166370a08231336000604051602001526040518263ffffffff167c0100000000000000000000000000000000000000000000000000000000028152600401808273ffffffffffffffffffffffffffffffffffffffff1673ffffffffffffffffffffffffffffffffffffffff168152602001915050602060405180830381600087803b1515611d5157600080fd5b6102c65a03f11515611d6257600080fd5b505050604051805190501415611d7757600080fd5b600280549050600360003373ffffffffffffffffffffffffffffffffffffffff1673ffffffffffffffffffffffffffffffffffffffff1681526020019081526020016000208190555060028054806001018281611dd491906122ae565b9160005260206000209060050201600060a0604051908101604052808781526020013373ffffffffffffffffffffffffffffffffffffffff1681526020016040805190810160405280601081526020017f707572655f7368617265686f6c64657200000000000000000000000000000000815250815260200160008152602001600081525090919091506000820151816000019080519060200190611e7a9291906122e0565b5060208201518160010160006101000a81548173ffffffffffffffffffffffffffffffffffffffff021916908373ffffffffffffffffffffffffffffffffffffffff1602179055506040820151816002019080519060200190611ede9291906122e0565b5060608201518160030155608082015181600401555050506001806000828254019250508190555060016005600060405180807f707572655f7368617265686f6c64657200000000000000000000000000000000815250601001905060405180910390206000191660001916815260200190815260200160002060008282540192505081905550505050565b60006040805190810160405280600381526020017f44414f0000000000000000000000000000000000000000000000000000000000815250611fab816120bb565b73ffffffffffffffffffffffffffffffffffffffff163373ffffffffffffffffffffffffffffffffffffffff16141515611fe457600080fd5b6000600360008673ffffffffffffffffffffffffffffffffffffffff1673ffffffffffffffffffffffffffffffffffffffff168152602001908152602001600020541415151561203357600080fd5b61203c84612056565b915082826004016000828254019250508190555050505050565b60006002600360008473ffffffffffffffffffffffffffffffffffffffff1673ffffffffffffffffffffffffffffffffffffffff168152602001908152602001600020548154811015156120a657fe5b90600052602060002090600502019050919050565b6000806000809054906101000a900473ffffffffffffffffffffffffffffffffffffffff1690508073ffffffffffffffffffffffffffffffffffffffff166310a8169c846040518082805190602001908083835b602083101515612134578051825260208201915060208101905060208303925061210f565b6001836020036101000a03801982511681845116808217855250505050505090500191505060405180910390206000604051602001526040518263ffffffff167c0100000000000000000000000000000000000000000000000000000000028152600401808260001916600019168152602001915050602060405180830381600087803b15156121c357600080fd5b6102c65a03f115156121d457600080fd5b50505060405180519050915050919050565b828054600181600116156101000203166002900490600052602060002090601f016020900481019282601f1061222757805160ff1916838001178555612255565b82800160010185558215612255579182015b82811115612254578251825591602001919060010190612239565b5b5090506122629190612360565b5090565b50805460018160011615610100020316600290046000825580601f1061228c57506122ab565b601f0160209004906000526020600020908101906122aa9190612360565b5b50565b8154818355818115116122db576005028160050283600052602060002091820191016122da9190612385565b5b505050565b828054600181600116156101000203166002900490600052602060002090601f016020900481019282601f1061232157805160ff191683800117855561234f565b8280016001018555821561234f579182015b8281111561234e578251825591602001919060010190612333565b5b50905061235c9190612360565b5090565b61238291905b8082111561237e576000816000905550600101612366565b5090565b90565b6123f891905b808211156123f457600080820160006123a49190612266565b6001820160006101000a81549073ffffffffffffffffffffffffffffffffffffffff02191690556002820160006123db9190612266565b600382016000905560048201600090555060050161238b565b5090565b90565b8060046000856040518082805190602001908083835b6020831015156124365780518252602082019150602081019050602083039250612411565b6001836020036101000a0380198251168184511680821785525050505050509050019150506040518091039020600019166000191681526020019081526020016000206000846040518082805190602001908083835b6020831015156124b1578051825260208201915060208101905060208303925061248c565b6001836020036101000a03801982511681845116808217855250505050505090500191505060405180910390206000191660001916815260200190815260200160002060006101000a81548160ff0219169083151502179055505050505600a165627a7a723058202ebc0fe7c8231533c2bb3276425f904c988f6b3b08b22aa65e121d4b82e109730029",
  "source": "/*\r\n    member_handler.sol\r\n    Created by Zefram Lou (Zebang Liu) as part of the WikiGit project.\r\n\r\n    This file implements the member manifest and related functions.\r\n*/\r\n\r\npragma solidity ^0.4.18;\r\n\r\nimport 'zeppelin-solidity/contracts/math/SafeMath.sol';\r\nimport './main.sol';\r\nimport './dao.sol';\r\nimport './token.sol';\r\n\r\ncontract MemberHandler is Module {\r\n    /*\r\n        Defines a member of the DAO.\r\n    */\r\n    struct Member {\r\n        string userName;\r\n        address userAddress;\r\n        string groupName; //The member group that the member belongs to.\r\n        uint goodRep; //Good reputation\r\n        uint badRep; //Bad reputation\r\n    }\r\n\r\n    //Should only be used in functions meant to be directly called by members and don't need any rights.\r\n    modifier notBanned { require(!isBanned[msg.sender]); _; }\r\n\r\n    uint public memberCount;\r\n\r\n    Member[] public memberList;\r\n\r\n    //From member address to the index of the member in memberList.\r\n    mapping(address => uint) public memberId;\r\n\r\n    /*\r\n        Defines the rights of members in each member group.\r\n        keccak256(groupName) => (keccak256(rightName) => hasRight)\r\n    */\r\n    mapping(bytes32 => mapping(bytes32 => bool)) public groupRights;\r\n\r\n    mapping(bytes32 => uint) public groupMemberCount; //Group name's keccak256 hash to member count.\r\n\r\n    mapping(address => bool) public isBanned;\r\n\r\n    function MemberHandler(string _creatorUserName, address _mainAddr) Module(_mainAddr) public {\r\n        memberList.push(Member('',0,'',0,0)); //Member at index 0 is reserved, for efficiently checking whether an address has already been registered.\r\n\r\n        //Add msg.sender as member #1\r\n        memberList.push(Member(_creatorUserName, msg.sender, 'team_member', 1, 0));\r\n        memberId[msg.sender] = 1;\r\n        memberCount += 1;\r\n        groupMemberCount[keccak256('team_member')] += 1;\r\n\r\n        //Initialize group rights\r\n        //Team member rights\r\n        setGroupRight('team_member', 'create_voting', true);\r\n        setGroupRight('team_member', 'submit_task', true);\r\n        setGroupRight('team_member', 'submit_task_rewardless', true);\r\n        setGroupRight('team_member', 'vote', true);\r\n        setGroupRight('team_member', 'quorum_include', true);\r\n        setGroupRight('team_member', 'submit_solution', true);\r\n        setGroupRight('team_member', 'vote_solution', true);\r\n        setGroupRight('team_member', 'accept_hash', true);\r\n\r\n        //Part time contributor rights\r\n        setGroupRight('contributor', 'create_voting', true);\r\n        setGroupRight('contributor', 'submit_task_rewardless', true);\r\n        setGroupRight('contributor', 'vote', true);\r\n        setGroupRight('contributor', 'submit_solution', true);\r\n\r\n        //Pure shareholder (shareholder who doesn't contribute) rights\r\n        setGroupRight('pure_shareholder', 'vote', true);\r\n        setGroupRight('pure_shareholder', 'create_voting', true);\r\n    }\r\n\r\n    //Member functions\r\n\r\n    function addMember(\r\n        string _userName,\r\n        address _userAddress,\r\n        string _groupName,\r\n        uint _goodRep,\r\n        uint _badRep\r\n    )\r\n        public\r\n        onlyMod('DAO')\r\n    {\r\n        require(memberId[_userAddress] == 0); //Prevent altering existing members. ID 0 is reserved for creator.\r\n        memberList.push(Member({\r\n            userName: _userName,\r\n            userAddress: _userAddress,\r\n            groupName: _groupName,\r\n            goodRep: _goodRep,\r\n            badRep: _badRep\r\n        }));\r\n        memberId[_userAddress] = memberList.length - 1;\r\n        memberCount += 1;\r\n        groupMemberCount[keccak256(_groupName)] += 1;\r\n    }\r\n\r\n    //Used by shareholders who do not contribute to the project to add themselves into the member list,\r\n    //so that they can vote.\r\n    function setSelfAsPureShareholder(string _userName) public notBanned {\r\n        require(memberId[msg.sender] == 0); //Ensure user doesn't already exist\r\n        //Check if msg.sender has any voting shares\r\n        Dao dao = Dao(moduleAddress('DAO'));\r\n        Token token = Token(moduleAddress('TOKEN'));\r\n        if (token.balanceOf(msg.sender) == 0) {\r\n            revert();\r\n        }\r\n\r\n        memberId[msg.sender] = memberList.length;\r\n        memberList.push(Member({\r\n            userName: _userName,\r\n            userAddress: msg.sender,\r\n            groupName: 'pure_shareholder',\r\n            goodRep: 0,\r\n            badRep: 0\r\n        }));\r\n\r\n        memberCount += 1;\r\n        groupMemberCount[keccak256('pure_shareholder')] += 1;\r\n    }\r\n\r\n    function removeMemberWithAddress(address _addr) public onlyMod('DAO') {\r\n        uint index = memberId[_addr];\r\n        require(index != 0); //Ensure member exists.\r\n\r\n        Member storage member = memberList[index];\r\n        require(keccak256(member.groupName) != keccak256(''));\r\n\r\n        memberCount -= 1;\r\n        groupMemberCount[keccak256(member.groupName)] -= 1;\r\n\r\n        delete memberList[index];\r\n        delete memberId[_addr];\r\n    }\r\n\r\n    function alterBannedStatus(address _addr, bool _newStatus) public onlyMod('DAO') {\r\n        require(memberId[_addr] != 0); //Ensure member exists.\r\n\r\n        Member storage member = getMemberAtAddress(_addr);\r\n        if (_newStatus && !isBanned[_addr]) {\r\n            groupMemberCount[keccak256(member.groupName)] -= 1;\r\n        } else if (!_newStatus && isBanned[_addr]) {\r\n            groupMemberCount[keccak256(member.groupName)] += 1;\r\n        }\r\n        isBanned[_addr] = _newStatus;\r\n    }\r\n\r\n    function incMemberGoodRep(address _addr, uint _amount) public onlyMod('DAO') {\r\n        require(memberId[_addr] != 0); //Ensure member exists.\r\n\r\n        Member storage member = getMemberAtAddress(_addr);\r\n        member.goodRep += _amount;\r\n    }\r\n\r\n    function incMemberBadRep(address _addr, uint _amount) public onlyMod('DAO') {\r\n        require(memberId[_addr] != 0); //Ensure member exists.\r\n\r\n        Member storage member = getMemberAtAddress(_addr);\r\n        member.badRep += _amount;\r\n    }\r\n\r\n    function changeMemberGroup(uint _id, string _newGroupName) public onlyMod('DAO') {\r\n        groupMemberCount[keccak256(memberList[_id].groupName)] -= 1;\r\n        groupMemberCount[keccak256(_newGroupName)] += 1;\r\n        memberList[_id].groupName = _newGroupName;\r\n    }\r\n\r\n    function changeSelfName(string _newName) public notBanned {\r\n        require(keccak256(getMemberAtAddress(msg.sender).groupName) != keccak256(''));\r\n        getMemberAtAddress(msg.sender).userName = _newName;\r\n    }\r\n\r\n    function changeSelfAddress(address _newAddress) public notBanned {\r\n        require(keccak256(getMemberAtAddress(msg.sender).groupName) != keccak256(''));\r\n        getMemberAtAddress(msg.sender).userAddress = _newAddress;\r\n        memberId[_newAddress] = memberId[msg.sender];\r\n        memberId[msg.sender] = 0;\r\n    }\r\n\r\n    //Getters\r\n\r\n    function getMemberAtAddress(address _addr) internal view  returns(Member storage) {\r\n        return memberList[memberId[_addr]];\r\n    }\r\n\r\n    function getGroupRight(string _groupName, string _right) public view returns(bool) {\r\n        return groupRights[keccak256(_groupName)][keccak256(_right)];\r\n    }\r\n\r\n    function memberHasRight(address _addr, string _right) public view returns(bool) {\r\n        return getGroupRight(getMemberAtAddress(_addr).groupName, _right);\r\n    }\r\n\r\n    function memberGroupNameHash(address _addr) public view returns(bytes32) {\r\n        return keccak256(getMemberAtAddress(_addr).groupName);\r\n    }\r\n\r\n    function getMemberListCount() public view returns(uint) {\r\n        return memberList.length;\r\n    }\r\n\r\n    //Setters\r\n\r\n    //Do not confuse with setRightOfGroup(). This is an internal helper function.\r\n    function setGroupRight(\r\n        string _groupName,\r\n        string _right,\r\n        bool _hasRight\r\n    )\r\n        internal\r\n    {\r\n        groupRights[keccak256(_groupName)][keccak256(_right)] = _hasRight;\r\n    }\r\n\r\n    //Fallback\r\n    function() public {\r\n        revert();\r\n    }\r\n}\r\n",
  "sourcePath": "D:\\WebstormProjects\\WikiGit\\dev\\contracts\\member_handler.sol",
  "compiler": {
    "name": "solc",
    "version": "0.4.18+commit.9cf6e910.Emscripten.clang"
  },
  "schemaVersion": "1.0.1",
  "updatedAt": "2018-01-05T06:14:26.022Z"
}