{
  "contractName": "MemberHandler",
  "abi": [
    {
      "constant": false,
      "inputs": [
        {
          "name": "newName",
          "type": "string"
        }
      ],
      "name": "changeSelfName",
      "outputs": [],
      "payable": false,
      "stateMutability": "nonpayable",
      "type": "function"
    },
    {
      "constant": false,
      "inputs": [
        {
          "name": "addr",
          "type": "address"
        },
        {
          "name": "amount",
          "type": "uint256"
        }
      ],
      "name": "incMemberGoodRep",
      "outputs": [],
      "payable": false,
      "stateMutability": "nonpayable",
      "type": "function"
    },
    {
      "constant": true,
      "inputs": [],
      "name": "mainAddress",
      "outputs": [
        {
          "name": "",
          "type": "address"
        }
      ],
      "payable": false,
      "stateMutability": "view",
      "type": "function"
    },
    {
      "constant": false,
      "inputs": [
        {
          "name": "groupName",
          "type": "string"
        },
        {
          "name": "rightName",
          "type": "string"
        },
        {
          "name": "hasRight",
          "type": "bool"
        }
      ],
      "name": "setRightOfGroup",
      "outputs": [],
      "payable": false,
      "stateMutability": "nonpayable",
      "type": "function"
    },
    {
      "constant": false,
      "inputs": [
        {
          "name": "id",
          "type": "uint256"
        },
        {
          "name": "newGroupName",
          "type": "string"
        }
      ],
      "name": "changeMemberGroup",
      "outputs": [],
      "payable": false,
      "stateMutability": "nonpayable",
      "type": "function"
    },
    {
      "constant": true,
      "inputs": [
        {
          "name": "",
          "type": "bytes32"
        },
        {
          "name": "",
          "type": "bytes32"
        }
      ],
      "name": "groupRights",
      "outputs": [
        {
          "name": "",
          "type": "bool"
        }
      ],
      "payable": false,
      "stateMutability": "view",
      "type": "function"
    },
    {
      "constant": true,
      "inputs": [
        {
          "name": "addr",
          "type": "address"
        }
      ],
      "name": "memberGroupNameHash",
      "outputs": [
        {
          "name": "",
          "type": "bytes32"
        }
      ],
      "payable": false,
      "stateMutability": "view",
      "type": "function"
    },
    {
      "constant": true,
      "inputs": [
        {
          "name": "",
          "type": "address"
        }
      ],
      "name": "memberId",
      "outputs": [
        {
          "name": "",
          "type": "uint256"
        }
      ],
      "payable": false,
      "stateMutability": "view",
      "type": "function"
    },
    {
      "constant": false,
      "inputs": [
        {
          "name": "addr",
          "type": "address"
        }
      ],
      "name": "removeMemberWithAddress",
      "outputs": [],
      "payable": false,
      "stateMutability": "nonpayable",
      "type": "function"
    },
    {
      "constant": true,
      "inputs": [
        {
          "name": "groupName",
          "type": "string"
        },
        {
          "name": "right",
          "type": "string"
        }
      ],
      "name": "getGroupRight",
      "outputs": [
        {
          "name": "",
          "type": "bool"
        }
      ],
      "payable": false,
      "stateMutability": "view",
      "type": "function"
    },
    {
      "constant": false,
      "inputs": [
        {
          "name": "addr",
          "type": "address"
        },
        {
          "name": "newStatus",
          "type": "bool"
        }
      ],
      "name": "alterBannedStatus",
      "outputs": [],
      "payable": false,
      "stateMutability": "nonpayable",
      "type": "function"
    },
    {
      "constant": true,
      "inputs": [
        {
          "name": "addr",
          "type": "address"
        },
        {
          "name": "right",
          "type": "string"
        }
      ],
      "name": "memberHasRight",
      "outputs": [
        {
          "name": "",
          "type": "bool"
        }
      ],
      "payable": false,
      "stateMutability": "view",
      "type": "function"
    },
    {
      "constant": true,
      "inputs": [],
      "name": "getMemberListCount",
      "outputs": [
        {
          "name": "",
          "type": "uint256"
        }
      ],
      "payable": false,
      "stateMutability": "view",
      "type": "function"
    },
    {
      "constant": true,
      "inputs": [
        {
          "name": "",
          "type": "address"
        }
      ],
      "name": "isBanned",
      "outputs": [
        {
          "name": "",
          "type": "bool"
        }
      ],
      "payable": false,
      "stateMutability": "view",
      "type": "function"
    },
    {
      "constant": false,
      "inputs": [
        {
          "name": "userName",
          "type": "string"
        },
        {
          "name": "userAddress",
          "type": "address"
        },
        {
          "name": "groupName",
          "type": "string"
        },
        {
          "name": "goodRep",
          "type": "uint256"
        },
        {
          "name": "badRep",
          "type": "uint256"
        }
      ],
      "name": "addMember",
      "outputs": [],
      "payable": false,
      "stateMutability": "nonpayable",
      "type": "function"
    },
    {
      "constant": false,
      "inputs": [
        {
          "name": "newAddress",
          "type": "address"
        }
      ],
      "name": "changeSelfAddress",
      "outputs": [],
      "payable": false,
      "stateMutability": "nonpayable",
      "type": "function"
    },
    {
      "constant": true,
      "inputs": [
        {
          "name": "",
          "type": "bytes32"
        }
      ],
      "name": "groupMemberCount",
      "outputs": [
        {
          "name": "",
          "type": "uint256"
        }
      ],
      "payable": false,
      "stateMutability": "view",
      "type": "function"
    },
    {
      "constant": true,
      "inputs": [
        {
          "name": "",
          "type": "uint256"
        }
      ],
      "name": "memberList",
      "outputs": [
        {
          "name": "userName",
          "type": "string"
        },
        {
          "name": "userAddress",
          "type": "address"
        },
        {
          "name": "groupName",
          "type": "string"
        },
        {
          "name": "goodRep",
          "type": "uint256"
        },
        {
          "name": "badRep",
          "type": "uint256"
        }
      ],
      "payable": false,
      "stateMutability": "view",
      "type": "function"
    },
    {
      "constant": false,
      "inputs": [
        {
          "name": "userName",
          "type": "string"
        }
      ],
      "name": "setSelfAsFreelancer",
      "outputs": [],
      "payable": false,
      "stateMutability": "nonpayable",
      "type": "function"
    },
    {
      "constant": false,
      "inputs": [
        {
          "name": "userName",
          "type": "string"
        }
      ],
      "name": "setSelfAsPureShareholder",
      "outputs": [],
      "payable": false,
      "stateMutability": "nonpayable",
      "type": "function"
    },
    {
      "constant": false,
      "inputs": [
        {
          "name": "addr",
          "type": "address"
        },
        {
          "name": "amount",
          "type": "uint256"
        }
      ],
      "name": "incMemberBadRep",
      "outputs": [],
      "payable": false,
      "stateMutability": "nonpayable",
      "type": "function"
    },
    {
      "inputs": [
        {
          "name": "creatorUserName",
          "type": "string"
        },
        {
          "name": "mainAddr",
          "type": "address"
        }
      ],
      "payable": false,
      "stateMutability": "nonpayable",
      "type": "constructor"
    },
    {
      "payable": false,
      "stateMutability": "nonpayable",
      "type": "fallback"
    }
  ],
  "bytecode": "0x606060405234156200001057600080fd5b60405162003846380380620038468339810160405280805182019190602001805190602001909190505080806000806101000a81548173ffffffffffffffffffffffffffffffffffffffff021916908373ffffffffffffffffffffffffffffffffffffffff160217905550506001805480600101828162000092919062000d06565b9160005260206000209060050201600060a06040519081016040528060206040519081016040528060008152508152602001600073ffffffffffffffffffffffffffffffffffffffff16815260200160206040519081016040528060008152508152602001600081526020016000815250909190915060008201518160000190805190602001906200012692919062000d3b565b5060208201518160010160006101000a81548173ffffffffffffffffffffffffffffffffffffffff021916908373ffffffffffffffffffffffffffffffffffffffff16021790555060408201518160020190805190602001906200018c92919062000d3b565b50606082015181600301556080820151816004015550505060018054806001018281620001ba919062000d06565b9160005260206000209060050201600060a0604051908101604052808681526020013373ffffffffffffffffffffffffffffffffffffffff1681526020016040805190810160405280600981526020017f66756c6c5f74696d6500000000000000000000000000000000000000000000008152508152602001600181526020016000815250909190915060008201518160000190805190602001906200026292919062000d3b565b5060208201518160010160006101000a81548173ffffffffffffffffffffffffffffffffffffffff021916908373ffffffffffffffffffffffffffffffffffffffff1602179055506040820151816002019080519060200190620002c892919062000d3b565b5060608201518160030155608082015181600401555050506001600260003373ffffffffffffffffffffffffffffffffffffffff1673ffffffffffffffffffffffffffffffffffffffff16815260200190815260200160002081905550620003b16040805190810160405280600981526020017f66756c6c5f74696d6500000000000000000000000000000000000000000000008152506040805190810160405280600d81526020017f6372656174655f766f74696e6700000000000000000000000000000000000000815250600162000bed640100000000026200262d176401000000009004565b6200043d6040805190810160405280600981526020017f66756c6c5f74696d6500000000000000000000000000000000000000000000008152506040805190810160405280600b81526020017f7375626d69745f7461736b000000000000000000000000000000000000000000815250600162000bed640100000000026200262d176401000000009004565b620004c96040805190810160405280600981526020017f66756c6c5f74696d6500000000000000000000000000000000000000000000008152506040805190810160405280601681526020017f7375626d69745f7461736b5f7265776172646c65737300000000000000000000815250600162000bed640100000000026200262d176401000000009004565b620005556040805190810160405280600981526020017f66756c6c5f74696d6500000000000000000000000000000000000000000000008152506040805190810160405280600481526020017f766f746500000000000000000000000000000000000000000000000000000000815250600162000bed640100000000026200262d176401000000009004565b620005e16040805190810160405280600981526020017f66756c6c5f74696d6500000000000000000000000000000000000000000000008152506040805190810160405280600f81526020017f7375626d69745f736f6c7574696f6e0000000000000000000000000000000000815250600162000bed640100000000026200262d176401000000009004565b6200066d6040805190810160405280600981526020017f66756c6c5f74696d6500000000000000000000000000000000000000000000008152506040805190810160405280600d81526020017f766f74655f736f6c7574696f6e00000000000000000000000000000000000000815250600162000bed640100000000026200262d176401000000009004565b620006f96040805190810160405280600981526020017f66756c6c5f74696d6500000000000000000000000000000000000000000000008152506040805190810160405280601681526020017f6163636573735f70726f6a5f6d616e6167656d656e7400000000000000000000815250600162000bed640100000000026200262d176401000000009004565b620007856040805190810160405280600981526020017f706172745f74696d6500000000000000000000000000000000000000000000008152506040805190810160405280600d81526020017f6372656174655f766f74696e6700000000000000000000000000000000000000815250600162000bed640100000000026200262d176401000000009004565b620008116040805190810160405280600981526020017f706172745f74696d6500000000000000000000000000000000000000000000008152506040805190810160405280601681526020017f7375626d69745f7461736b5f7265776172646c65737300000000000000000000815250600162000bed640100000000026200262d176401000000009004565b6200089d6040805190810160405280600981526020017f706172745f74696d6500000000000000000000000000000000000000000000008152506040805190810160405280600481526020017f766f746500000000000000000000000000000000000000000000000000000000815250600162000bed640100000000026200262d176401000000009004565b620009296040805190810160405280600981526020017f706172745f74696d6500000000000000000000000000000000000000000000008152506040805190810160405280600f81526020017f7375626d69745f736f6c7574696f6e0000000000000000000000000000000000815250600162000bed640100000000026200262d176401000000009004565b620009b56040805190810160405280600981526020017f706172745f74696d6500000000000000000000000000000000000000000000008152506040805190810160405280600d81526020017f766f74655f736f6c7574696f6e00000000000000000000000000000000000000815250600162000bed640100000000026200262d176401000000009004565b62000a416040805190810160405280600981526020017f706172745f74696d6500000000000000000000000000000000000000000000008152506040805190810160405280601681526020017f6163636573735f70726f6a5f6d616e6167656d656e7400000000000000000000815250600162000bed640100000000026200262d176401000000009004565b62000acd6040805190810160405280600a81526020017f667265656c616e636572000000000000000000000000000000000000000000008152506040805190810160405280600f81526020017f7375626d69745f736f6c7574696f6e0000000000000000000000000000000000815250600162000bed640100000000026200262d176401000000009004565b62000b596040805190810160405280601081526020017f707572655f7368617265686f6c646572000000000000000000000000000000008152506040805190810160405280600481526020017f766f746500000000000000000000000000000000000000000000000000000000815250600162000bed640100000000026200262d176401000000009004565b62000be56040805190810160405280601081526020017f707572655f7368617265686f6c646572000000000000000000000000000000008152506040805190810160405280600d81526020017f6372656174655f766f74696e6700000000000000000000000000000000000000815250600162000bed640100000000026200262d176401000000009004565b505062000eb3565b8060036000856040518082805190602001908083835b60208310151562000c2a578051825260208201915060208101905060208303925062000c03565b6001836020036101000a0380198251168184511680821785525050505050509050019150506040518091039020600019166000191681526020019081526020016000206000846040518082805190602001908083835b60208310151562000ca7578051825260208201915060208101905060208303925062000c80565b6001836020036101000a03801982511681845116808217855250505050505090500191505060405180910390206000191660001916815260200190815260200160002060006101000a81548160ff021916908315150217905550505050565b81548183558181151162000d365760050281600502836000526020600020918201910162000d35919062000dc2565b5b505050565b828054600181600116156101000203166002900490600052602060002090601f016020900481019282601f1062000d7e57805160ff191683800117855562000daf565b8280016001018555821562000daf579182015b8281111562000dae57825182559160200191906001019062000d91565b5b50905062000dbe919062000e3f565b5090565b62000e3c91905b8082111562000e38576000808201600062000de5919062000e67565b6001820160006101000a81549073ffffffffffffffffffffffffffffffffffffffff021916905560028201600062000e1e919062000e67565b600382016000905560048201600090555060050162000dc9565b5090565b90565b62000e6491905b8082111562000e6057600081600090555060010162000e46565b5090565b90565b50805460018160011615610100020316600290046000825580601f1062000e8f575062000eb0565b601f01602090049060005260206000209081019062000eaf919062000e3f565b5b50565b6129838062000ec36000396000f30060606040526004361061011d576000357c0100000000000000000000000000000000000000000000000000000000900463ffffffff168063045eea7d1461012d57806306ebe49f1461018a5780630cdd4234146101cc578063101b94f11461022157806316cbf987146102cc578063182d5d4e1461033257806319b5176e1461037e57806339106821146103d3578063493caeea14610420578063533c023b146104595780635bc72460146105115780636c3ea72114610555578063723b2b58146105e957806397f735d5146106125780639bd4d455146106635780639fd1bd1f14610734578063a483e6141461076d578063b307fc6d146107a8578063b5e949a11461092b578063d2a7ea1714610988578063e56044c8146109e5575b341561012857600080fd5b600080fd5b341561013857600080fd5b610188600480803590602001908201803590602001908080601f01602080910402602001604051908101604052809392919081815260200183838082843782019150505050505091905050610a27565b005b341561019557600080fd5b6101ca600480803573ffffffffffffffffffffffffffffffffffffffff16906020019091908035906020019091905050610b3e565b005b34156101d757600080fd5b6101df610c2a565b604051808273ffffffffffffffffffffffffffffffffffffffff1673ffffffffffffffffffffffffffffffffffffffff16815260200191505060405180910390f35b341561022c57600080fd5b6102ca600480803590602001908201803590602001908080601f0160208091040260200160405190810160405280939291908181526020018383808284378201915050505050509190803590602001908201803590602001908080601f016020809104026020016040519081016040528093929190818152602001838380828437820191505050505050919080351515906020019091905050610c4f565b005b34156102d757600080fd5b610330600480803590602001909190803590602001908201803590602001908080601f01602080910402602001604051908101604052809392919081815260200183838082843782019150505050505091905050610cd8565b005b341561033d57600080fd5b61036460048080356000191690602001909190803560001916906020019091905050610ec7565b604051808215151515815260200191505060405180910390f35b341561038957600080fd5b6103b5600480803573ffffffffffffffffffffffffffffffffffffffff16906020019091905050610ef6565b60405180826000191660001916815260200191505060405180910390f35b34156103de57600080fd5b61040a600480803573ffffffffffffffffffffffffffffffffffffffff16906020019091905050610f73565b6040518082815260200191505060405180910390f35b341561042b57600080fd5b610457600480803573ffffffffffffffffffffffffffffffffffffffff16906020019091905050610f8b565b005b341561046457600080fd5b6104f7600480803590602001908201803590602001908080601f0160208091040260200160405190810160405280939291908181526020018383808284378201915050505050509190803590602001908201803590602001908080601f0160208091040260200160405190810160405280939291908181526020018383808284378201915050505050509190505061125e565b604051808215151515815260200191505060405180910390f35b341561051c57600080fd5b610553600480803573ffffffffffffffffffffffffffffffffffffffff16906020019091908035151590602001909190505061136e565b005b341561056057600080fd5b6105cf600480803573ffffffffffffffffffffffffffffffffffffffff1690602001909190803590602001908201803590602001908080601f01602080910402602001604051908101604052809392919081815260200183838082843782019150505050505091905050611688565b604051808215151515815260200191505060405180910390f35b34156105f457600080fd5b6105fc611740565b6040518082815260200191505060405180910390f35b341561061d57600080fd5b610649600480803573ffffffffffffffffffffffffffffffffffffffff1690602001909190505061174d565b604051808215151515815260200191505060405180910390f35b341561066e57600080fd5b610732600480803590602001908201803590602001908080601f0160208091040260200160405190810160405280939291908181526020018383808284378201915050505050509190803573ffffffffffffffffffffffffffffffffffffffff1690602001909190803590602001908201803590602001908080601f0160208091040260200160405190810160405280939291908181526020018383808284378201915050505050509190803590602001909190803590602001909190505061176d565b005b341561073f57600080fd5b61076b600480803573ffffffffffffffffffffffffffffffffffffffff16906020019091905050611a0f565b005b341561077857600080fd5b610792600480803560001916906020019091905050611c18565b6040518082815260200191505060405180910390f35b34156107b357600080fd5b6107c96004808035906020019091905050611c30565b60405180806020018673ffffffffffffffffffffffffffffffffffffffff1673ffffffffffffffffffffffffffffffffffffffff168152602001806020018581526020018481526020018381038352888181546001816001161561010002031660029004815260200191508054600181600116156101000203166002900480156108945780601f1061086957610100808354040283529160200191610894565b820191906000526020600020905b81548152906001019060200180831161087757829003601f168201915b50508381038252868181546001816001161561010002031660029004815260200191508054600181600116156101000203166002900480156109175780601f106108ec57610100808354040283529160200191610917565b820191906000526020600020905b8154815290600101906020018083116108fa57829003601f168201915b505097505050505050505060405180910390f35b341561093657600080fd5b610986600480803590602001908201803590602001908080601f01602080910402602001604051908101604052809392919081815260200183838082843782019150505050505091905050611c93565b005b341561099357600080fd5b6109e3600480803590602001908201803590602001908080601f01602080910402602001604051908101604052809392919081815260200183838082843782019150505050505091905050611ebc565b005b34156109f057600080fd5b610a25600480803573ffffffffffffffffffffffffffffffffffffffff169060200190919080359060200190919050506123b1565b005b600560003373ffffffffffffffffffffffffffffffffffffffff1673ffffffffffffffffffffffffffffffffffffffff16815260200190815260200160002060009054906101000a900460ff16151515610a8057600080fd5b604051806000019050604051809103902060001916610a9e3361249d565b6002016040518082805460018160011615610100020316600290048015610afc5780601f10610ada576101008083540402835291820191610afc565b820191906000526020600020905b815481529060010190602001808311610ae8575b505091505060405180910390206000191614151515610b1a57600080fd5b80610b243361249d565b6000019080519060200190610b3a929190612742565b5050565b60006040805190810160405280600381526020017f44414f0000000000000000000000000000000000000000000000000000000000815250610b7f81612502565b73ffffffffffffffffffffffffffffffffffffffff163373ffffffffffffffffffffffffffffffffffffffff16141515610bb857600080fd5b6000600260008673ffffffffffffffffffffffffffffffffffffffff1673ffffffffffffffffffffffffffffffffffffffff1681526020019081526020016000205414151515610c0757600080fd5b610c108461249d565b915082826003016000828254019250508190555050505050565b6000809054906101000a900473ffffffffffffffffffffffffffffffffffffffff1681565b6040805190810160405280600381526020017f44414f0000000000000000000000000000000000000000000000000000000000815250610c8e81612502565b73ffffffffffffffffffffffffffffffffffffffff163373ffffffffffffffffffffffffffffffffffffffff16141515610cc757600080fd5b610cd284848461262d565b50505050565b6040805190810160405280600381526020017f44414f0000000000000000000000000000000000000000000000000000000000815250610d1781612502565b73ffffffffffffffffffffffffffffffffffffffff163373ffffffffffffffffffffffffffffffffffffffff16141515610d5057600080fd5b600160046000600186815481101515610d6557fe5b90600052602060002090600502016002016040518082805460018160011615610100020316600290048015610dd15780601f10610daf576101008083540402835291820191610dd1565b820191906000526020600020905b815481529060010190602001808311610dbd575b505091505060405180910390206000191660001916815260200190815260200160002060008282540392505081905550600160046000846040518082805190602001908083835b602083101515610e3d5780518252602082019150602081019050602083039250610e18565b6001836020036101000a0380198251168184511680821785525050505050509050019150506040518091039020600019166000191681526020019081526020016000206000828254019250508190555081600184815481101515610e9d57fe5b90600052602060002090600502016002019080519060200190610ec1929190612742565b50505050565b60036020528160005260406000206020528060005260406000206000915091509054906101000a900460ff1681565b6000610f018261249d565b6002016040518082805460018160011615610100020316600290048015610f5f5780601f10610f3d576101008083540402835291820191610f5f565b820191906000526020600020905b815481529060010190602001808311610f4b575b505091505060405180910390209050919050565b60026020528060005260406000206000915090505481565b6000806040805190810160405280600381526020017f44414f0000000000000000000000000000000000000000000000000000000000815250610fcd81612502565b73ffffffffffffffffffffffffffffffffffffffff163373ffffffffffffffffffffffffffffffffffffffff1614151561100657600080fd5b600260008573ffffffffffffffffffffffffffffffffffffffff1673ffffffffffffffffffffffffffffffffffffffff1681526020019081526020016000205492506000831415151561105857600080fd5b60018381548110151561106757fe5b906000526020600020906005020191506040518060000190506040518091039020600019168260020160405180828054600181600116156101000203166002900480156110eb5780601f106110c95761010080835404028352918201916110eb565b820191906000526020600020905b8154815290600101906020018083116110d7575b50509150506040518091039020600019161415151561110957600080fd5b60016004600084600201604051808280546001816001161561010002031660029004801561116e5780601f1061114c57610100808354040283529182019161116e565b820191906000526020600020905b81548152906001019060200180831161115a575b5050915050604051809103902060001916600019168152602001908152602001600020600082825403925050819055506001838154811015156111ad57fe5b9060005260206000209060050201600080820160006111cc91906127c2565b6001820160006101000a81549073ffffffffffffffffffffffffffffffffffffffff021916905560028201600061120391906127c2565b600382016000905560048201600090555050600260008573ffffffffffffffffffffffffffffffffffffffff1673ffffffffffffffffffffffffffffffffffffffff1681526020019081526020016000206000905550505050565b600060036000846040518082805190602001908083835b60208310151561129a5780518252602082019150602081019050602083039250611275565b6001836020036101000a0380198251168184511680821785525050505050509050019150506040518091039020600019166000191681526020019081526020016000206000836040518082805190602001908083835b60208310151561131557805182526020820191506020810190506020830392506112f0565b6001836020036101000a03801982511681845116808217855250505050505090500191505060405180910390206000191660001916815260200190815260200160002060009054906101000a900460ff16905092915050565b60006040805190810160405280600381526020017f44414f00000000000000000000000000000000000000000000000000000000008152506113af81612502565b73ffffffffffffffffffffffffffffffffffffffff163373ffffffffffffffffffffffffffffffffffffffff161415156113e857600080fd5b6000600260008673ffffffffffffffffffffffffffffffffffffffff1673ffffffffffffffffffffffffffffffffffffffff168152602001908152602001600020541415151561143757600080fd5b6114408461249d565b91508280156114995750600560008573ffffffffffffffffffffffffffffffffffffffff1673ffffffffffffffffffffffffffffffffffffffff16815260200190815260200160002060009054906101000a900460ff16155b15611538576001600460008460020160405180828054600181600116156101000203166002900480156115035780601f106114e1576101008083540402835291820191611503565b820191906000526020600020905b8154815290600101906020018083116114ef575b50509150506040518091039020600019166000191681526020019081526020016000206000828254039250508190555061162b565b8215801561158f5750600560008573ffffffffffffffffffffffffffffffffffffffff1673ffffffffffffffffffffffffffffffffffffffff16815260200190815260200160002060009054906101000a900460ff165b1561162a576001600460008460020160405180828054600181600116156101000203166002900480156115f95780601f106115d75761010080835404028352918201916115f9565b820191906000526020600020905b8154815290600101906020018083116115e5575b5050915050604051809103902060001916600019168152602001908152602001600020600082825401925050819055505b5b82600560008673ffffffffffffffffffffffffffffffffffffffff1673ffffffffffffffffffffffffffffffffffffffff16815260200190815260200160002060006101000a81548160ff02191690831515021790555050505050565b60006117386116968461249d565b6002018054600181600116156101000203166002900480601f01602080910402602001604051908101604052809291908181526020018280546001816001161561010002031660029004801561172d5780601f106117025761010080835404028352916020019161172d565b820191906000526020600020905b81548152906001019060200180831161171057829003601f168201915b50505050508361125e565b905092915050565b6000600180549050905090565b60056020528060005260406000206000915054906101000a900460ff1681565b6040805190810160405280600381526020017f44414f00000000000000000000000000000000000000000000000000000000008152506117ac81612502565b73ffffffffffffffffffffffffffffffffffffffff163373ffffffffffffffffffffffffffffffffffffffff161415156117e557600080fd5b6000600260008773ffffffffffffffffffffffffffffffffffffffff1673ffffffffffffffffffffffffffffffffffffffff1681526020019081526020016000205414151561183357600080fd5b60018054806001018281611847919061280a565b9160005260206000209060050201600060a0604051908101604052808a81526020018973ffffffffffffffffffffffffffffffffffffffff16815260200188815260200187815260200186815250909190915060008201518160000190805190602001906118b692919061283c565b5060208201518160010160006101000a81548173ffffffffffffffffffffffffffffffffffffffff021916908373ffffffffffffffffffffffffffffffffffffffff160217905550604082015181600201908051906020019061191a92919061283c565b506060820151816003015560808201518160040155505050600180549050600260008773ffffffffffffffffffffffffffffffffffffffff1673ffffffffffffffffffffffffffffffffffffffff16815260200190815260200160002081905550600160046000866040518082805190602001908083835b6020831015156119b75780518252602082019150602081019050602083039250611992565b6001836020036101000a03801982511681845116808217855250505050505090500191505060405180910390206000191660001916815260200190815260200160002060008282540192505081905550505050505050565b600560003373ffffffffffffffffffffffffffffffffffffffff1673ffffffffffffffffffffffffffffffffffffffff16815260200190815260200160002060009054906101000a900460ff16151515611a6857600080fd5b604051806000019050604051809103902060001916611a863361249d565b6002016040518082805460018160011615610100020316600290048015611ae45780601f10611ac2576101008083540402835291820191611ae4565b820191906000526020600020905b815481529060010190602001808311611ad0575b505091505060405180910390206000191614151515611b0257600080fd5b80611b0c3361249d565b60010160006101000a81548173ffffffffffffffffffffffffffffffffffffffff021916908373ffffffffffffffffffffffffffffffffffffffff160217905550600260003373ffffffffffffffffffffffffffffffffffffffff1673ffffffffffffffffffffffffffffffffffffffff16815260200190815260200160002054600260008373ffffffffffffffffffffffffffffffffffffffff1673ffffffffffffffffffffffffffffffffffffffff168152602001908152602001600020819055506000600260003373ffffffffffffffffffffffffffffffffffffffff1673ffffffffffffffffffffffffffffffffffffffff1681526020019081526020016000208190555050565b60046020528060005260406000206000915090505481565b600181815481101515611c3f57fe5b906000526020600020906005020160009150905080600001908060010160009054906101000a900473ffffffffffffffffffffffffffffffffffffffff169080600201908060030154908060040154905085565b600560003373ffffffffffffffffffffffffffffffffffffffff1673ffffffffffffffffffffffffffffffffffffffff16815260200190815260200160002060009054906101000a900460ff16151515611cec57600080fd5b6000600260003373ffffffffffffffffffffffffffffffffffffffff1673ffffffffffffffffffffffffffffffffffffffff16815260200190815260200160002054141515611d3a57600080fd5b600180549050600260003373ffffffffffffffffffffffffffffffffffffffff1673ffffffffffffffffffffffffffffffffffffffff1681526020019081526020016000208190555060018054806001018281611d97919061280a565b9160005260206000209060050201600060a0604051908101604052808581526020013373ffffffffffffffffffffffffffffffffffffffff1681526020016040805190810160405280600a81526020017f667265656c616e63657200000000000000000000000000000000000000000000815250815260200160008152602001600081525090919091506000820151816000019080519060200190611e3d92919061283c565b5060208201518160010160006101000a81548173ffffffffffffffffffffffffffffffffffffffff021916908373ffffffffffffffffffffffffffffffffffffffff1602179055506040820151816002019080519060200190611ea192919061283c565b50606082015181600301556080820151816004015550505050565b6000806000806000600560003373ffffffffffffffffffffffffffffffffffffffff1673ffffffffffffffffffffffffffffffffffffffff16815260200190815260200160002060009054906101000a900460ff16151515611f1d57600080fd5b6000600260003373ffffffffffffffffffffffffffffffffffffffff1673ffffffffffffffffffffffffffffffffffffffff16815260200190815260200160002054141515611f6b57600080fd5b611fa96040805190810160405280600381526020017f44414f0000000000000000000000000000000000000000000000000000000000815250612502565b9450600092505b8473ffffffffffffffffffffffffffffffffffffffff1663c93edc8d6000604051602001526040518163ffffffff167c0100000000000000000000000000000000000000000000000000000000028152600401602060405180830381600087803b151561201c57600080fd5b6102c65a03f1151561202d57600080fd5b505050604051805190508310156121bf578473ffffffffffffffffffffffffffffffffffffffff1663ae802e47846000604051606001526040518263ffffffff167c010000000000000000000000000000000000000000000000000000000002815260040180828152602001915050606060405180830381600087803b15156120b557600080fd5b6102c65a03f115156120c657600080fd5b505050604051805190602001805190602001805190509350505081905060008173ffffffffffffffffffffffffffffffffffffffff166370a08231336000604051602001526040518263ffffffff167c0100000000000000000000000000000000000000000000000000000000028152600401808273ffffffffffffffffffffffffffffffffffffffff1673ffffffffffffffffffffffffffffffffffffffff168152602001915050602060405180830381600087803b151561218857600080fd5b6102c65a03f1151561219957600080fd5b5050506040518051905011156121b257600193506121bf565b8280600101935050611fb0565b8315156121cb57600080fd5b600180549050600260003373ffffffffffffffffffffffffffffffffffffffff1673ffffffffffffffffffffffffffffffffffffffff1681526020019081526020016000208190555060018054806001018281612228919061280a565b9160005260206000209060050201600060a0604051908101604052808a81526020013373ffffffffffffffffffffffffffffffffffffffff1681526020016040805190810160405280601081526020017f707572655f7368617265686f6c646572000000000000000000000000000000008152508152602001600081526020016000815250909190915060008201518160000190805190602001906122ce92919061283c565b5060208201518160010160006101000a81548173ffffffffffffffffffffffffffffffffffffffff021916908373ffffffffffffffffffffffffffffffffffffffff160217905550604082015181600201908051906020019061233292919061283c565b50606082015181600301556080820151816004015550505060016004600060405180807f707572655f7368617265686f6c64657200000000000000000000000000000000815250601001905060405180910390206000191660001916815260200190815260200160002060008282540192505081905550505050505050565b60006040805190810160405280600381526020017f44414f00000000000000000000000000000000000000000000000000000000008152506123f281612502565b73ffffffffffffffffffffffffffffffffffffffff163373ffffffffffffffffffffffffffffffffffffffff1614151561242b57600080fd5b6000600260008673ffffffffffffffffffffffffffffffffffffffff1673ffffffffffffffffffffffffffffffffffffffff168152602001908152602001600020541415151561247a57600080fd5b6124838461249d565b915082826004016000828254019250508190555050505050565b60006001600260008473ffffffffffffffffffffffffffffffffffffffff1673ffffffffffffffffffffffffffffffffffffffff168152602001908152602001600020548154811015156124ed57fe5b90600052602060002090600502019050919050565b6000806000809054906101000a900473ffffffffffffffffffffffffffffffffffffffff1690508073ffffffffffffffffffffffffffffffffffffffff166310a8169c846040518082805190602001908083835b60208310151561257b5780518252602082019150602081019050602083039250612556565b6001836020036101000a03801982511681845116808217855250505050505090500191505060405180910390206000604051602001526040518263ffffffff167c0100000000000000000000000000000000000000000000000000000000028152600401808260001916600019168152602001915050602060405180830381600087803b151561260a57600080fd5b6102c65a03f1151561261b57600080fd5b50505060405180519050915050919050565b8060036000856040518082805190602001908083835b6020831015156126685780518252602082019150602081019050602083039250612643565b6001836020036101000a0380198251168184511680821785525050505050509050019150506040518091039020600019166000191681526020019081526020016000206000846040518082805190602001908083835b6020831015156126e357805182526020820191506020810190506020830392506126be565b6001836020036101000a03801982511681845116808217855250505050505090500191505060405180910390206000191660001916815260200190815260200160002060006101000a81548160ff021916908315150217905550505050565b828054600181600116156101000203166002900490600052602060002090601f016020900481019282601f1061278357805160ff19168380011785556127b1565b828001600101855582156127b1579182015b828111156127b0578251825591602001919060010190612795565b5b5090506127be91906128bc565b5090565b50805460018160011615610100020316600290046000825580601f106127e85750612807565b601f01602090049060005260206000209081019061280691906128bc565b5b50565b8154818355818115116128375760050281600502836000526020600020918201910161283691906128e1565b5b505050565b828054600181600116156101000203166002900490600052602060002090601f016020900481019282601f1061287d57805160ff19168380011785556128ab565b828001600101855582156128ab579182015b828111156128aa57825182559160200191906001019061288f565b5b5090506128b891906128bc565b5090565b6128de91905b808211156128da5760008160009055506001016128c2565b5090565b90565b61295491905b80821115612950576000808201600061290091906127c2565b6001820160006101000a81549073ffffffffffffffffffffffffffffffffffffffff021916905560028201600061293791906127c2565b60038201600090556004820160009055506005016128e7565b5090565b905600a165627a7a72305820e79899bed9c738a95ad4d0f7023ed515a3963c1ad06c33949939cf4a93d904720029",
  "source": "/*\r\n    member_handler.sol\r\n    Created by Zefram Lou (Zebang Liu) as part of the WikiGit project.\r\n\r\n    This file implements the member manifest and related functions.\r\n*/\r\n\r\npragma solidity ^0.4.18;\r\n\r\nimport './main.sol';\r\nimport './erc20.sol';\r\nimport './dao.sol';\r\n\r\ncontract MemberHandler is Module {\r\n    /*\r\n        Defines a member of the DAO.\r\n    */\r\n    struct Member {\r\n        string userName;\r\n        address userAddress;\r\n        string groupName; //The member group that the member belongs to.\r\n        uint goodRep; //Good reputation\r\n        uint badRep; //Bad reputation\r\n    }\r\n\r\n    Member[] public memberList;\r\n\r\n    //Should only be used in functions meant to be directly called by members and don't need any rights.\r\n    modifier notBanned { require(!isBanned[msg.sender]); _; }\r\n\r\n    //From member address to the index of the member in memberList.\r\n    mapping(address => uint) public memberId;\r\n\r\n    /*\r\n        Defines the rights of members in each member group.\r\n        keccak256(groupName) => (keccak256(rightName) => hasRight)\r\n    */\r\n    mapping(bytes32 => mapping(bytes32 => bool)) public groupRights;\r\n\r\n    mapping(bytes32 => uint) public groupMemberCount; //Group name's keccak256 hash to member count.\r\n\r\n    mapping(address => bool) public isBanned;\r\n\r\n    function MemberHandler(string creatorUserName, address mainAddr) Module(mainAddr) public {\r\n        //Add msg.sender as member #1\r\n        memberList.push(Member('',0,'',0,0)); //Member at index 0 is reserved, for efficiently checking whether an address has already been registered.\r\n        memberList.push(Member(creatorUserName, msg.sender, 'full_time', 1, 0));\r\n        memberId[msg.sender] = 1;\r\n\r\n        //Initialize group rights\r\n        //Full time contributor rights\r\n        setGroupRight('full_time', 'create_voting', true);\r\n        setGroupRight('full_time', 'submit_task', true);\r\n        setGroupRight('full_time', 'submit_task_rewardless', true);\r\n        setGroupRight('full_time', 'vote', true);\r\n        setGroupRight('full_time', 'submit_solution', true);\r\n        //setGroupRight('full_time', 'accept_Solution', true);\r\n        setGroupRight('full_time', 'vote_solution', true);\r\n        setGroupRight('full_time', 'access_proj_management', true);\r\n\r\n        //Part time contributor rights\r\n        setGroupRight('part_time', 'create_voting', true);\r\n        setGroupRight('part_time', 'submit_task_rewardless', true);\r\n        setGroupRight('part_time', 'vote', true);\r\n        setGroupRight('part_time', 'submit_solution', true);\r\n        setGroupRight('part_time', 'vote_solution', true);\r\n        setGroupRight('part_time', 'access_proj_management', true);\r\n\r\n        //Freelancer rights\r\n        setGroupRight('freelancer', 'submit_solution', true);\r\n\r\n        //Pure shareholder (shareholder who doesn't contribute) rights\r\n        setGroupRight('pure_shareholder', 'vote', true);\r\n        setGroupRight('pure_shareholder', 'create_voting', true);\r\n    }\r\n\r\n    //Member functions\r\n\r\n    function addMember(\r\n        string userName,\r\n        address userAddress,\r\n        string groupName,\r\n        uint goodRep,\r\n        uint badRep\r\n    )\r\n        public\r\n        onlyMod('DAO')\r\n    {\r\n        require(memberId[userAddress] == 0); //Prevent altering existing members. ID 0 is reserved for creator.\r\n        memberList.push(Member({\r\n            userName: userName,\r\n            userAddress: userAddress,\r\n            groupName: groupName,\r\n            goodRep: goodRep,\r\n            badRep: badRep\r\n        }));\r\n        memberId[userAddress] = memberList.length;\r\n        groupMemberCount[keccak256(groupName)] += 1;\r\n    }\r\n\r\n    //Used by shareholders who do not contribute to the project to add themselves into the member list,\r\n    //so that they can vote.\r\n    function setSelfAsPureShareholder(string userName) public notBanned {\r\n        require(memberId[msg.sender] == 0); //Ensure user doesn't already exist\r\n        //Check if msg.sender has any voting shares\r\n        Dao dao = Dao(moduleAddress('DAO'));\r\n        bool hasShares;\r\n        for (uint i = 0; i < dao.getRecognizedTokenListCount(); i++) {\r\n            var(,tokenAddress) = dao.recognizedTokenList(i);\r\n            ERC20 token = ERC20(tokenAddress);\r\n            if (token.balanceOf(msg.sender) > 0) {\r\n                hasShares = true;\r\n                break;\r\n            }\r\n        }\r\n        require(hasShares);\r\n\r\n        memberId[msg.sender] = memberList.length;\r\n        memberList.push(Member({\r\n            userName: userName,\r\n            userAddress: msg.sender,\r\n            groupName: 'pure_shareholder',\r\n            goodRep: 0,\r\n            badRep: 0\r\n        }));\r\n\r\n        groupMemberCount[keccak256('pure_shareholder')] += 1;\r\n    }\r\n\r\n    //Used by freelancers to add themselves into the member list so that they can submit task solutions.\r\n    function setSelfAsFreelancer(string userName) public notBanned {\r\n        require(memberId[msg.sender] == 0); //Ensure user doesn't already exist\r\n\r\n        memberId[msg.sender] = memberList.length;\r\n        memberList.push(Member({\r\n            userName: userName,\r\n            userAddress: msg.sender,\r\n            groupName: 'freelancer',\r\n            goodRep: 0,\r\n            badRep: 0\r\n        }));\r\n    }\r\n\r\n    function removeMemberWithAddress(address addr) public onlyMod('DAO') {\r\n        uint index = memberId[addr];\r\n        require(index != 0); //Ensure member exists.\r\n\r\n        Member storage member = memberList[index];\r\n        require(keccak256(member.groupName) != keccak256(''));\r\n\r\n        groupMemberCount[keccak256(member.groupName)] -= 1;\r\n\r\n        delete memberList[index];\r\n        delete memberId[addr];\r\n    }\r\n\r\n    function alterBannedStatus(address addr, bool newStatus) public onlyMod('DAO') {\r\n        require(memberId[addr] != 0); //Ensure member exists.\r\n\r\n        Member storage member = getMemberAtAddress(addr);\r\n        if (newStatus && !isBanned[addr]) {\r\n            groupMemberCount[keccak256(member.groupName)] -= 1;\r\n        } else if (!newStatus && isBanned[addr]) {\r\n            groupMemberCount[keccak256(member.groupName)] += 1;\r\n        }\r\n        isBanned[addr] = newStatus;\r\n    }\r\n\r\n    function incMemberGoodRep(address addr, uint amount) public onlyMod('DAO') {\r\n        require(memberId[addr] != 0); //Ensure member exists.\r\n\r\n        Member storage member = getMemberAtAddress(addr);\r\n        member.goodRep += amount;\r\n    }\r\n\r\n    function incMemberBadRep(address addr, uint amount) public onlyMod('DAO') {\r\n        require(memberId[addr] != 0); //Ensure member exists.\r\n\r\n        Member storage member = getMemberAtAddress(addr);\r\n        member.badRep += amount;\r\n    }\r\n\r\n    function changeMemberGroup(uint id, string newGroupName) public onlyMod('DAO') {\r\n        groupMemberCount[keccak256(memberList[id].groupName)] -= 1;\r\n        groupMemberCount[keccak256(newGroupName)] += 1;\r\n        memberList[id].groupName = newGroupName;\r\n    }\r\n\r\n    //Do not confuse with setGroupRight(). This function allows votings to execute setGroupRight().\r\n    function setRightOfGroup(\r\n        string groupName,\r\n        string rightName,\r\n        bool hasRight\r\n    )\r\n        public\r\n        onlyMod('DAO')\r\n    {\r\n        setGroupRight(groupName, rightName, hasRight);\r\n    }\r\n\r\n    function changeSelfName(string newName) public notBanned {\r\n        require(keccak256(getMemberAtAddress(msg.sender).groupName) != keccak256(''));\r\n        getMemberAtAddress(msg.sender).userName = newName;\r\n    }\r\n\r\n    function changeSelfAddress(address newAddress) public notBanned {\r\n        require(keccak256(getMemberAtAddress(msg.sender).groupName) != keccak256(''));\r\n        getMemberAtAddress(msg.sender).userAddress = newAddress;\r\n        memberId[newAddress] = memberId[msg.sender];\r\n        memberId[msg.sender] = 0;\r\n    }\r\n\r\n    //Getters\r\n\r\n    function getMemberAtAddress(address addr) internal view  returns(Member storage) {\r\n        return memberList[memberId[addr]];\r\n    }\r\n\r\n    function getGroupRight(string groupName, string right) public view returns(bool) {\r\n        return groupRights[keccak256(groupName)][keccak256(right)];\r\n    }\r\n\r\n    function memberHasRight(address addr, string right) public view returns(bool) {\r\n        return getGroupRight(getMemberAtAddress(addr).groupName, right);\r\n    }\r\n\r\n    function memberGroupNameHash(address addr) public view returns(bytes32) {\r\n        return keccak256(getMemberAtAddress(addr).groupName);\r\n    }\r\n\r\n    function getMemberListCount() public view returns(uint) {\r\n        return memberList.length;\r\n    }\r\n\r\n    //Setters\r\n\r\n    //Do not confuse with setRightOfGroup(). This is an internal helper function.\r\n    function setGroupRight(\r\n        string groupName,\r\n        string right,\r\n        bool hasRight\r\n    )\r\n        internal\r\n    {\r\n        groupRights[keccak256(groupName)][keccak256(right)] = hasRight;\r\n    }\r\n\r\n    //Fallback\r\n    function() public {\r\n        revert();\r\n    }\r\n}\r\n",
  "sourcePath": "D:\\WebstormProjects\\WikiGit\\dev\\contracts\\member_handler.sol",
  "compiler": {
    "name": "solc",
    "version": "0.4.18+commit.9cf6e910.Emscripten.clang"
  },
  "schemaVersion": "1.0.1",
  "updatedAt": "2017-11-09T05:23:50.006Z"
}