{
  "contractName": "Module",
  "abi": [
    {
      "constant": true,
      "inputs": [],
      "name": "mainAddress",
      "outputs": [
        {
          "name": "",
          "type": "address"
        }
      ],
      "payable": false,
      "stateMutability": "view",
      "type": "function"
    },
    {
      "inputs": [
        {
          "name": "_mainAddress",
          "type": "address"
        }
      ],
      "payable": false,
      "stateMutability": "nonpayable",
      "type": "constructor"
    }
  ],
  "bytecode": "0x6060604052341561000f57600080fd5b60405160208061016183398101604052808051906020019091905050806000806101000a81548173ffffffffffffffffffffffffffffffffffffffff021916908373ffffffffffffffffffffffffffffffffffffffff1602179055505060e78061007a6000396000f300606060405260043610603f576000357c0100000000000000000000000000000000000000000000000000000000900463ffffffff1680630cdd4234146044575b600080fd5b3415604e57600080fd5b60546096565b604051808273ffffffffffffffffffffffffffffffffffffffff1673ffffffffffffffffffffffffffffffffffffffff16815260200191505060405180910390f35b6000809054906101000a900473ffffffffffffffffffffffffffffffffffffffff16815600a165627a7a7230582090f7b82fc206cc1f35cee10572df20d1195951b2906a7a3c10d9529e0b83eb630029",
  "source": "/*\r\n    main.sol\r\n    Created by Zefram Lou (Zebang Liu) as part of the WikiGit project.\r\n\r\n    This file implements the main contract of the DAP, or in other words\r\n    the module manager. The main contract records the metadata of the DAP,\r\n    as well as the names and addresses of all modules, including the DAO.\r\n    It is the first contract created when initializing a DAP. Its records\r\n    of the modules is the only place modules look to when trying to communicate\r\n    with other modules, and this centralized index of modules allows individual\r\n    module contracts to be updated down the road, which also means that\r\n    the main contract is the only contract in the DAP that cannot be updated.\r\n*/\r\n\r\npragma solidity ^0.4.18;\r\n\r\ncontract Module {\r\n    modifier onlyMod(string mod) { require(msg.sender == moduleAddress(mod)); _; }\r\n\r\n    address public mainAddress;\r\n\r\n    function Module(address _mainAddress) public {\r\n        mainAddress = _mainAddress;\r\n    }\r\n\r\n    function moduleAddress(string mod) internal view returns(address addr){\r\n        Main main = Main(mainAddress);\r\n        addr = main.moduleAddresses(keccak256(mod));\r\n    }\r\n}\r\n\r\ncontract Main {\r\n    mapping(bytes32 => address) public moduleAddresses;\r\n    string[] public moduleNames;\r\n    string public metadata;\r\n    bool public hasInitedAddrs;\r\n    bool public hasInitedABIs;\r\n    address private creator;\r\n    bytes[] public abiIPFSHashes;\r\n    mapping(bytes32 => uint) public abiHashId;\r\n\r\n    modifier onlyDao{ require(msg.sender == moduleAddresses['DAO']); _; }\r\n\r\n    function Main(string _metadata, bytes _abiIPFSHash) public {\r\n        metadata = _metadata;\r\n        abiIPFSHashes.push(_abiIPFSHash);\r\n        creator = msg.sender;\r\n    }\r\n\r\n    /*\r\n        Used for initializing the module address index. As string[] variables can't be passed as function parameters, the addrs array\r\n        must be ordered in the following way:\r\n        DAO, MEMBER, VAULT, TASKS, GIT\r\n        @param address[] addrs The array that stores the addresses of all initial modules. Must follow the specified format.\r\n    */\r\n\r\n    function initializeModuleAddresses(address[] addrs) public {\r\n        require(!hasInitedAddrs);\r\n        require(msg.sender == creator);\r\n        hasInitedAddrs = true;\r\n        moduleNames = ['DAO', 'MEMBER', 'VAULT', 'TASKS', 'GIT'];\r\n        for (uint i = 0; i < moduleNames.length; i++) {\r\n            moduleAddresses[keccak256(moduleNames[i])] = addrs[i];\r\n        }\r\n    }\r\n\r\n    function initializeABIHashForMod(uint modId, bytes abiHash) public {\r\n        require(msg.sender == creator);\r\n        require(!hasInitedABIs);\r\n\r\n        abiIPFSHashes.push(abiHash);\r\n        abiHashId[keccak256(moduleNames[modId])] = abiIPFSHashes.length - 1;\r\n\r\n        if (abiIPFSHashes.length >= 6) {\r\n            hasInitedABIs = true;\r\n        }\r\n    }\r\n\r\n    function getABIHashForMod(bytes32 modHash) public view returns(bytes abiHash) {\r\n        return abiIPFSHashes[abiHashId[modHash]];\r\n    }\r\n\r\n    function setABIHashForMod(bytes32 modHash, bytes abiHash) public onlyDao {\r\n        abiIPFSHashes[abiHashId[modHash]] = abiHash;\r\n    }\r\n\r\n    function setModuleAddress(\r\n        string modName,\r\n        address addr,\r\n        bool isNew\r\n    )\r\n        public\r\n        onlyDao\r\n    {\r\n        moduleAddresses[keccak256(modName)] = addr;\r\n        if (isNew) {\r\n            moduleNames.push(modName);\r\n        }\r\n    }\r\n\r\n    function removeModuleAtIndex(uint index) public onlyDao {\r\n        bytes32 nameHash = keccak256(moduleNames[index]);\r\n        delete moduleAddresses[nameHash];\r\n        delete moduleNames[index];\r\n        delete abiIPFSHashes[index];\r\n        delete abiHashId[nameHash];\r\n    }\r\n\r\n    function setMetadata(string meta) public onlyDao {\r\n        metadata = meta;\r\n    }\r\n\r\n    //Fallback\r\n    function() public {\r\n        revert();\r\n    }\r\n}\r\n",
  "sourcePath": "D:\\WebstormProjects\\WikiGit\\dev\\contracts\\main.sol",
  "compiler": {
    "name": "solc",
    "version": "0.4.18+commit.9cf6e910.Emscripten.clang"
  },
  "schemaVersion": "1.0.1",
  "updatedAt": "2017-11-19T22:16:20.532Z"
}