{
  "contractName": "TasksHandler",
  "abi": [
    {
      "constant": false,
      "inputs": [
        {
          "name": "taskId",
          "type": "uint256"
        },
        {
          "name": "solId",
          "type": "uint256"
        }
      ],
      "name": "acceptSolution",
      "outputs": [],
      "payable": false,
      "type": "function",
      "stateMutability": "nonpayable"
    },
    {
      "constant": true,
      "inputs": [],
      "name": "mainAddress",
      "outputs": [
        {
          "name": "",
          "type": "address"
        }
      ],
      "payable": false,
      "type": "function",
      "stateMutability": "view"
    },
    {
      "constant": true,
      "inputs": [
        {
          "name": "",
          "type": "uint256"
        }
      ],
      "name": "taskList",
      "outputs": [
        {
          "name": "metadata",
          "type": "string"
        },
        {
          "name": "poster",
          "type": "address"
        },
        {
          "name": "rewardInWeis",
          "type": "uint256"
        },
        {
          "name": "rewardGoodRep",
          "type": "uint256"
        },
        {
          "name": "penaltyBadRep",
          "type": "uint256"
        },
        {
          "name": "isInvalid",
          "type": "bool"
        },
        {
          "name": "acceptedSolutionID",
          "type": "uint256"
        },
        {
          "name": "hasAcceptedSolution",
          "type": "bool"
        }
      ],
      "payable": false,
      "type": "function",
      "stateMutability": "view"
    },
    {
      "constant": false,
      "inputs": [
        {
          "name": "capType",
          "type": "string"
        },
        {
          "name": "newCap",
          "type": "uint256"
        },
        {
          "name": "tokenAddress",
          "type": "address"
        }
      ],
      "name": "setCap",
      "outputs": [],
      "payable": false,
      "type": "function",
      "stateMutability": "nonpayable"
    },
    {
      "constant": false,
      "inputs": [
        {
          "name": "metadata",
          "type": "string"
        },
        {
          "name": "poster",
          "type": "address"
        },
        {
          "name": "rewardGoodRep",
          "type": "uint256"
        },
        {
          "name": "penaltyBadRep",
          "type": "uint256"
        }
      ],
      "name": "publishRewardlessTaskListing",
      "outputs": [],
      "payable": false,
      "type": "function",
      "stateMutability": "nonpayable"
    },
    {
      "constant": false,
      "inputs": [
        {
          "name": "sender",
          "type": "address"
        },
        {
          "name": "taskId",
          "type": "uint256"
        },
        {
          "name": "solId",
          "type": "uint256"
        },
        {
          "name": "isUpvote",
          "type": "bool"
        }
      ],
      "name": "voteOnSolution",
      "outputs": [],
      "payable": false,
      "type": "function",
      "stateMutability": "nonpayable"
    },
    {
      "constant": false,
      "inputs": [
        {
          "name": "taskId",
          "type": "uint256"
        },
        {
          "name": "memberAddr",
          "type": "address"
        },
        {
          "name": "status",
          "type": "bool"
        }
      ],
      "name": "setPenalizedStatus",
      "outputs": [],
      "payable": false,
      "type": "function",
      "stateMutability": "nonpayable"
    },
    {
      "constant": true,
      "inputs": [],
      "name": "rewardRepCap",
      "outputs": [
        {
          "name": "",
          "type": "uint256"
        }
      ],
      "payable": false,
      "type": "function",
      "stateMutability": "view"
    },
    {
      "constant": false,
      "inputs": [
        {
          "name": "tokenAddress",
          "type": "address"
        }
      ],
      "name": "deleteRewardTokenCap",
      "outputs": [],
      "payable": false,
      "type": "function",
      "stateMutability": "nonpayable"
    },
    {
      "constant": false,
      "inputs": [
        {
          "name": "taskId",
          "type": "uint256"
        },
        {
          "name": "metadata",
          "type": "string"
        },
        {
          "name": "patchIPFSHash",
          "type": "bytes"
        }
      ],
      "name": "submitSolution",
      "outputs": [],
      "payable": false,
      "type": "function",
      "stateMutability": "nonpayable"
    },
    {
      "constant": true,
      "inputs": [],
      "name": "rewardWeiCap",
      "outputs": [
        {
          "name": "",
          "type": "uint256"
        }
      ],
      "payable": false,
      "type": "function",
      "stateMutability": "view"
    },
    {
      "constant": true,
      "inputs": [
        {
          "name": "",
          "type": "uint256"
        },
        {
          "name": "",
          "type": "uint256"
        }
      ],
      "name": "taskSolutionList",
      "outputs": [
        {
          "name": "metadata",
          "type": "string"
        },
        {
          "name": "submitter",
          "type": "address"
        },
        {
          "name": "patchIPFSHash",
          "type": "bytes"
        },
        {
          "name": "upvotes",
          "type": "uint256"
        },
        {
          "name": "downvotes",
          "type": "uint256"
        }
      ],
      "payable": false,
      "type": "function",
      "stateMutability": "view"
    },
    {
      "constant": false,
      "inputs": [
        {
          "name": "index",
          "type": "uint256"
        }
      ],
      "name": "invalidateTaskListingAtIndex",
      "outputs": [],
      "payable": false,
      "type": "function",
      "stateMutability": "nonpayable"
    },
    {
      "constant": true,
      "inputs": [
        {
          "name": "",
          "type": "address"
        }
      ],
      "name": "rewardTokenCap",
      "outputs": [
        {
          "name": "",
          "type": "uint256"
        }
      ],
      "payable": false,
      "type": "function",
      "stateMutability": "view"
    },
    {
      "constant": true,
      "inputs": [
        {
          "name": "taskId",
          "type": "uint256"
        },
        {
          "name": "memberAddr",
          "type": "address"
        }
      ],
      "name": "hasBeenPenalizedForTask",
      "outputs": [
        {
          "name": "",
          "type": "bool"
        }
      ],
      "payable": false,
      "type": "function",
      "stateMutability": "view"
    },
    {
      "constant": true,
      "inputs": [
        {
          "name": "taskId",
          "type": "uint256"
        }
      ],
      "name": "rewardTokenCount",
      "outputs": [
        {
          "name": "",
          "type": "uint256"
        }
      ],
      "payable": false,
      "type": "function",
      "stateMutability": "view"
    },
    {
      "constant": false,
      "inputs": [
        {
          "name": "metadata",
          "type": "string"
        },
        {
          "name": "poster",
          "type": "address"
        },
        {
          "name": "rewardInWeis",
          "type": "uint256"
        },
        {
          "name": "rewardTokenIdList",
          "type": "uint256[]"
        },
        {
          "name": "rewardTokenAmountList",
          "type": "uint256[]"
        },
        {
          "name": "rewardGoodRep",
          "type": "uint256"
        },
        {
          "name": "penaltyBadRep",
          "type": "uint256"
        }
      ],
      "name": "publishTaskListing",
      "outputs": [],
      "payable": false,
      "type": "function",
      "stateMutability": "nonpayable"
    },
    {
      "constant": true,
      "inputs": [
        {
          "name": "taskId",
          "type": "uint256"
        },
        {
          "name": "tokenId",
          "type": "uint256"
        }
      ],
      "name": "rewardTokenIndex",
      "outputs": [
        {
          "name": "",
          "type": "uint256"
        }
      ],
      "payable": false,
      "type": "function",
      "stateMutability": "view"
    },
    {
      "constant": true,
      "inputs": [
        {
          "name": "taskId",
          "type": "uint256"
        },
        {
          "name": "tokenId",
          "type": "uint256"
        }
      ],
      "name": "rewardTokenAmount",
      "outputs": [
        {
          "name": "",
          "type": "uint256"
        }
      ],
      "payable": false,
      "type": "function",
      "stateMutability": "view"
    },
    {
      "constant": true,
      "inputs": [],
      "name": "penaltyRepCap",
      "outputs": [
        {
          "name": "",
          "type": "uint256"
        }
      ],
      "payable": false,
      "type": "function",
      "stateMutability": "view"
    },
    {
      "inputs": [
        {
          "name": "mainAddr",
          "type": "address"
        }
      ],
      "payable": false,
      "type": "constructor",
      "stateMutability": "nonpayable"
    },
    {
      "payable": false,
      "type": "fallback",
      "stateMutability": "nonpayable"
    },
    {
      "anonymous": false,
      "inputs": [
        {
          "indexed": false,
          "name": "taskId",
          "type": "uint256"
        },
        {
          "indexed": false,
          "name": "solutionId",
          "type": "uint256"
        },
        {
          "indexed": false,
          "name": "patchIPFSHash",
          "type": "bytes"
        }
      ],
      "name": "TaskSolutionAccepted",
      "type": "event"
    }
  ],
  "bytecode": "0x6060604052341561000f57600080fd5b60405160208061311d8339810160405280805190602001909190505080806000806101000a81548173ffffffffffffffffffffffffffffffffffffffff021916908373ffffffffffffffffffffffffffffffffffffffff16021790555050600380819055506006600481905550670de0b6b3a7640000600581905550506130828061009b6000396000f300606060405260043610610112576000357c0100000000000000000000000000000000000000000000000000000000900463ffffffff16806308bad193146101225780630cdd42341461014e5780632a1c52a5146101a35780632b331e0a146102c15780633e1a420f146103465780634f6848b6146103d45780635ce57b501461042a578063639062e5146104775780636f48e676146104a05780636fc90a2f146104d95780637dbe8bad146105825780637ed08e22146105ab57806392ebf8601461073757806397d5c06b1461075a578063a8f2dc79146107a7578063b287962714610801578063cb0675c714610838578063cbeaa0361461094f578063fb1ad1101461098f578063fe679102146109cf575b341561011d57600080fd5b600080fd5b341561012d57600080fd5b61014c60048080359060200190919080359060200190919050506109f8565b005b341561015957600080fd5b610161610d82565b604051808273ffffffffffffffffffffffffffffffffffffffff1673ffffffffffffffffffffffffffffffffffffffff16815260200191505060405180910390f35b34156101ae57600080fd5b6101c46004808035906020019091905050610da7565b60405180806020018973ffffffffffffffffffffffffffffffffffffffff1673ffffffffffffffffffffffffffffffffffffffff168152602001888152602001878152602001868152602001851515151581526020018481526020018315151515815260200182810382528a8181546001816001161561010002031660029004815260200191508054600181600116156101000203166002900480156102ab5780601f10610280576101008083540402835291602001916102ab565b820191906000526020600020905b81548152906001019060200180831161028e57829003601f168201915b5050995050505050505050505060405180910390f35b34156102cc57600080fd5b610344600480803590602001908201803590602001908080601f0160208091040260200160405190810160405280939291908181526020018383808284378201915050505050509190803590602001909190803573ffffffffffffffffffffffffffffffffffffffff16906020019091905050610e37565b005b341561035157600080fd5b6103d2600480803590602001908201803590602001908080601f0160208091040260200160405190810160405280939291908181526020018383808284378201915050505050509190803573ffffffffffffffffffffffffffffffffffffffff169060200190919080359060200190919080359060200190919050506111bd565b005b34156103df57600080fd5b610428600480803573ffffffffffffffffffffffffffffffffffffffff169060200190919080359060200190919080359060200190919080351515906020019091905050611526565b005b341561043557600080fd5b610475600480803590602001909190803573ffffffffffffffffffffffffffffffffffffffff169060200190919080351515906020019091905050611905565b005b341561048257600080fd5b61048a6119f8565b6040518082815260200191505060405180910390f35b34156104ab57600080fd5b6104d7600480803573ffffffffffffffffffffffffffffffffffffffff169060200190919050506119fe565b005b34156104e457600080fd5b610580600480803590602001909190803590602001908201803590602001908080601f0160208091040260200160405190810160405280939291908181526020018383808284378201915050505050509190803590602001908201803590602001908080601f01602080910402602001604051908101604052809392919081815260200183838082843782019150505050505091905050611abd565b005b341561058d57600080fd5b610595612122565b6040518082815260200191505060405180910390f35b34156105b657600080fd5b6105d56004808035906020019091908035906020019091905050612128565b60405180806020018673ffffffffffffffffffffffffffffffffffffffff1673ffffffffffffffffffffffffffffffffffffffff168152602001806020018581526020018481526020018381038352888181546001816001161561010002031660029004815260200191508054600181600116156101000203166002900480156106a05780601f10610675576101008083540402835291602001916106a0565b820191906000526020600020905b81548152906001019060200180831161068357829003601f168201915b50508381038252868181546001816001161561010002031660029004815260200191508054600181600116156101000203166002900480156107235780601f106106f857610100808354040283529160200191610723565b820191906000526020600020905b81548152906001019060200180831161070657829003601f168201915b505097505050505050505060405180910390f35b341561074257600080fd5b61075860048080359060200190919050506121a4565b005b341561076557600080fd5b610791600480803573ffffffffffffffffffffffffffffffffffffffff1690602001909190505061226b565b6040518082815260200191505060405180910390f35b34156107b257600080fd5b6107e7600480803590602001909190803573ffffffffffffffffffffffffffffffffffffffff16906020019091905050612283565b604051808215151515815260200191505060405180910390f35b341561080c57600080fd5b61082260048080359060200190919050506122f8565b6040518082815260200191505060405180910390f35b341561084357600080fd5b61094d600480803590602001908201803590602001908080601f0160208091040260200160405190810160405280939291908181526020018383808284378201915050505050509190803573ffffffffffffffffffffffffffffffffffffffff169060200190919080359060200190919080359060200190820180359060200190808060200260200160405190810160405280939291908181526020018383602002808284378201915050505050509190803590602001908201803590602001908080602002602001604051908101604052809392919081815260200183836020028082843782019150505050505091908035906020019091908035906020019091905050612325565b005b341561095a57600080fd5b61097960048080359060200190919080359060200190919050506127a6565b6040518082815260200191505060405180910390f35b341561099a57600080fd5b6109b960048080359060200190919080359060200190919050506127e9565b6040518082815260200191505060405180910390f35b34156109da57600080fd5b6109e261282c565b6040518082815260200191505060405180910390f35b600080600060018054905085101515610a1057600080fd5b600185815481101515610a1f57fe5b90600052602060002090600d02019250600285815481101515610a3e57fe5b90600052602060002090018054905084101515610a5a57600080fd5b600285815481101515610a6957fe5b906000526020600020900184815481101515610a8157fe5b906000526020600020906006020191503373ffffffffffffffffffffffffffffffffffffffff168360010160009054906101000a900473ffffffffffffffffffffffffffffffffffffffff1673ffffffffffffffffffffffffffffffffffffffff16141515610aef57600080fd5b82600b016000600287815481101515610b0457fe5b906000526020600020900186815481101515610b1c57fe5b906000526020600020906006020160010160009054906101000a900473ffffffffffffffffffffffffffffffffffffffff1673ffffffffffffffffffffffffffffffffffffffff1673ffffffffffffffffffffffffffffffffffffffff16815260200190815260200160002060009054906101000a900460ff16151515610ba257600080fd5b60018360070160006101000a81548160ff02191690831515021790555060018360090160006101000a81548160ff0219169083151502179055508383600801819055507f5688b42433f5850a07335a44d50b6e955e88073f39fa3ac6ab9c8d1a4093df128585846002016040518084815260200183815260200180602001828103825283818154600181600116156101000203166002900481526020019150805460018160011615610100020316600290048015610ca15780601f10610c7657610100808354040283529160200191610ca1565b820191906000526020600020905b815481529060010190602001808311610c8457829003601f168201915b505094505050505060405180910390a1610cef6040805190810160405280600381526020017f44414f0000000000000000000000000000000000000000000000000000000000815250612832565b90508073ffffffffffffffffffffffffffffffffffffffff16637a66e5cf86866040518363ffffffff167c01000000000000000000000000000000000000000000000000000000000281526004018083815260200182815260200192505050600060405180830381600087803b1515610d6757600080fd5b6102c65a03f11515610d7857600080fd5b5050505050505050565b6000809054906101000a900473ffffffffffffffffffffffffffffffffffffffff1681565b600181815481101515610db657fe5b90600052602060002090600d020160009150905080600001908060010160009054906101000a900473ffffffffffffffffffffffffffffffffffffffff16908060020154908060050154908060060154908060070160009054906101000a900460ff16908060080154908060090160009054906101000a900460ff16905088565b6040805190810160405280600381526020017f44414f0000000000000000000000000000000000000000000000000000000000815250610e7681612832565b73ffffffffffffffffffffffffffffffffffffffff163373ffffffffffffffffffffffffffffffffffffffff16141515610eaf57600080fd5b60405180807f77656900000000000000000000000000000000000000000000000000000000008152506003019050604051809103902060001916846040518082805190602001908083835b602083101515610f1f5780518252602082019150602081019050602083039250610efa565b6001836020036101000a0380198251168184511680821785525050505050509050019150506040518091039020600019161415610f6257826005819055506111b7565b60405180807f676f6f645f7265700000000000000000000000000000000000000000000000008152506008019050604051809103902060001916846040518082805190602001908083835b602083101515610fd25780518252602082019150602081019050602083039250610fad565b6001836020036101000a038019825116818451168082178552505050505050905001915050604051809103902060001916141561101557826003819055506111b6565b60405180807f6261645f726570000000000000000000000000000000000000000000000000008152506007019050604051809103902060001916846040518082805190602001908083835b6020831015156110855780518252602082019150602081019050602083039250611060565b6001836020036101000a03801982511681845116808217855250505050505090500191505060405180910390206000191614156110c857826004819055506111b5565b60405180807f746f6b656e0000000000000000000000000000000000000000000000000000008152506005019050604051809103902060001916846040518082805190602001908083835b6020831015156111385780518252602082019150602081019050602083039250611113565b6001836020036101000a03801982511681845116808217855250505050505090500191505060405180910390206000191614156111b45782600660008473ffffffffffffffffffffffffffffffffffffffff1673ffffffffffffffffffffffffffffffffffffffff168152602001908152602001600020819055505b5b5b5b50505050565b60006040805190810160405280601681526020017f7375626d69745f7461736b5f7265776172646c6573730000000000000000000081525060006112356040805190810160405280600681526020017f4d454d4245520000000000000000000000000000000000000000000000000000815250612832565b90508073ffffffffffffffffffffffffffffffffffffffff16636c3ea72133846000604051602001526040518363ffffffff167c0100000000000000000000000000000000000000000000000000000000028152600401808373ffffffffffffffffffffffffffffffffffffffff1673ffffffffffffffffffffffffffffffffffffffff16815260200180602001828103825283818151815260200191508051906020019080838360005b838110156112fb5780820151818401526020810190506112e0565b50505050905090810190601f1680156113285780820380516001836020036101000a031916815260200191505b509350505050602060405180830381600087803b151561134757600080fd5b6102c65a03f1151561135857600080fd5b50505060405180519050151561136d57600080fd5b8073ffffffffffffffffffffffffffffffffffffffff166397f735d5336000604051602001526040518263ffffffff167c0100000000000000000000000000000000000000000000000000000000028152600401808273ffffffffffffffffffffffffffffffffffffffff1673ffffffffffffffffffffffffffffffffffffffff168152602001915050602060405180830381600087803b151561141057600080fd5b6102c65a03f1151561142157600080fd5b5050506040518051905015151561143757600080fd5b600354851115151561144857600080fd5b600454841115151561145957600080fd5b600180818180549050019150816114709190612aed565b5060018080805490500381548110151561148657fe5b90600052602060002090600d02019250868360000190805190602001906114ae929190612b1f565b50858360010160006101000a81548173ffffffffffffffffffffffffffffffffffffffff021916908373ffffffffffffffffffffffffffffffffffffffff160217905550848360050181905550838360060181905550600160028181805490500191508161151c9190612b9f565b5050505050505050565b60006040805190810160405280600d81526020017f766f74655f736f6c7574696f6e00000000000000000000000000000000000000815250600061159e6040805190810160405280600681526020017f4d454d4245520000000000000000000000000000000000000000000000000000815250612832565b90508073ffffffffffffffffffffffffffffffffffffffff16636c3ea72133846000604051602001526040518363ffffffff167c0100000000000000000000000000000000000000000000000000000000028152600401808373ffffffffffffffffffffffffffffffffffffffff1673ffffffffffffffffffffffffffffffffffffffff16815260200180602001828103825283818151815260200191508051906020019080838360005b83811015611664578082015181840152602081019050611649565b50505050905090810190601f1680156116915780820380516001836020036101000a031916815260200191505b509350505050602060405180830381600087803b15156116b057600080fd5b6102c65a03f115156116c157600080fd5b5050506040518051905015156116d657600080fd5b8073ffffffffffffffffffffffffffffffffffffffff166397f735d5336000604051602001526040518263ffffffff167c0100000000000000000000000000000000000000000000000000000000028152600401808273ffffffffffffffffffffffffffffffffffffffff1673ffffffffffffffffffffffffffffffffffffffff168152602001915050602060405180830381600087803b151561177957600080fd5b6102c65a03f1151561178a57600080fd5b505050604051805190501515156117a057600080fd5b600180549050861015156117b357600080fd5b6002868154811015156117c257fe5b906000526020600020900180549050851015156117de57600080fd5b6002868154811015156117ed57fe5b90600052602060002090018581548110151561180557fe5b906000526020600020906006020192508260050160008873ffffffffffffffffffffffffffffffffffffffff1673ffffffffffffffffffffffffffffffffffffffff16815260200190815260200160002060009054906101000a900460ff1615151561187057600080fd5b60018360050160008973ffffffffffffffffffffffffffffffffffffffff1673ffffffffffffffffffffffffffffffffffffffff16815260200190815260200160002060006101000a81548160ff02191690831515021790555083156118e857600183600301600082825401925050819055506118fc565b600183600401600082825401925050819055505b50505050505050565b6040805190810160405280600381526020017f44414f000000000000000000000000000000000000000000000000000000000081525061194481612832565b73ffffffffffffffffffffffffffffffffffffffff163373ffffffffffffffffffffffffffffffffffffffff1614151561197d57600080fd5b8160018581548110151561198d57fe5b90600052602060002090600d0201600b0160008573ffffffffffffffffffffffffffffffffffffffff1673ffffffffffffffffffffffffffffffffffffffff16815260200190815260200160002060006101000a81548160ff02191690831515021790555050505050565b60035481565b6040805190810160405280600381526020017f44414f0000000000000000000000000000000000000000000000000000000000815250611a3d81612832565b73ffffffffffffffffffffffffffffffffffffffff163373ffffffffffffffffffffffffffffffffffffffff16141515611a7657600080fd5b600660008373ffffffffffffffffffffffffffffffffffffffff1673ffffffffffffffffffffffffffffffffffffffff168152602001908152602001600020600090555050565b6000806040805190810160405280600f81526020017f7375626d69745f736f6c7574696f6e00000000000000000000000000000000008152506000611b366040805190810160405280600681526020017f4d454d4245520000000000000000000000000000000000000000000000000000815250612832565b90508073ffffffffffffffffffffffffffffffffffffffff16636c3ea72133846000604051602001526040518363ffffffff167c0100000000000000000000000000000000000000000000000000000000028152600401808373ffffffffffffffffffffffffffffffffffffffff1673ffffffffffffffffffffffffffffffffffffffff16815260200180602001828103825283818151815260200191508051906020019080838360005b83811015611bfc578082015181840152602081019050611be1565b50505050905090810190601f168015611c295780820380516001836020036101000a031916815260200191505b509350505050602060405180830381600087803b1515611c4857600080fd5b6102c65a03f11515611c5957600080fd5b505050604051805190501515611c6e57600080fd5b8073ffffffffffffffffffffffffffffffffffffffff166397f735d5336000604051602001526040518263ffffffff167c0100000000000000000000000000000000000000000000000000000000028152600401808273ffffffffffffffffffffffffffffffffffffffff1673ffffffffffffffffffffffffffffffffffffffff168152602001915050602060405180830381600087803b1515611d1157600080fd5b6102c65a03f11515611d2257600080fd5b50505060405180519050151515611d3857600080fd5b60018054905087101515611d4b57600080fd5b600187815481101515611d5a57fe5b90600052602060002090600d020193508360070160009054906101000a900460ff16151515611d8857600080fd5b8360010160009054906101000a900473ffffffffffffffffffffffffffffffffffffffff1673ffffffffffffffffffffffffffffffffffffffff163373ffffffffffffffffffffffffffffffffffffffff1614151515611de757600080fd5b83600a0160003373ffffffffffffffffffffffffffffffffffffffff1673ffffffffffffffffffffffffffffffffffffffff16815260200190815260200160002060009054906101000a900460ff16151561201e57600184600a0160003373ffffffffffffffffffffffffffffffffffffffff1673ffffffffffffffffffffffffffffffffffffffff16815260200190815260200160002060006101000a81548160ff021916908315150217905550600287815481101515611ea557fe5b90600052602060002090018054806001018281611ec29190612bcb565b9160005260206000209060060201600060a0604051908101604052808a81526020013373ffffffffffffffffffffffffffffffffffffffff16815260200189815260200160008152602001600081525090919091506000820151816000019080519060200190611f33929190612bfd565b5060208201518160010160006101000a81548173ffffffffffffffffffffffffffffffffffffffff021916908373ffffffffffffffffffffffffffffffffffffffff1602179055506040820151816002019080519060200190611f97929190612c7d565b506060820151816003015560808201518160040155505050600160028054905003600188815481101515611fc757fe5b90600052602060002090600d0201600c0160003373ffffffffffffffffffffffffffffffffffffffff1673ffffffffffffffffffffffffffffffffffffffff16815260200190815260200160002081905550612119565b60018781548110151561202d57fe5b90600052602060002090600d0201600c0160003373ffffffffffffffffffffffffffffffffffffffff1673ffffffffffffffffffffffffffffffffffffffff1681526020019081526020016000205492508560028881548110151561208e57fe5b9060005260206000209001848154811015156120a657fe5b906000526020600020906006020160000190805190602001906120ca929190612b1f565b50846002888154811015156120db57fe5b9060005260206000209001848154811015156120f357fe5b90600052602060002090600602016002019080519060200190612117929190612cfd565b505b50505050505050565b60055481565b60028281548110151561213757fe5b90600052602060002090018181548110151561214f57fe5b90600052602060002090600602016000915091505080600001908060010160009054906101000a900473ffffffffffffffffffffffffffffffffffffffff169080600201908060030154908060040154905085565b6040805190810160405280600381526020017f44414f00000000000000000000000000000000000000000000000000000000008152506121e381612832565b73ffffffffffffffffffffffffffffffffffffffff163373ffffffffffffffffffffffffffffffffffffffff1614151561221c57600080fd5b6001805490508210151561222f57600080fd5b6001808381548110151561223f57fe5b90600052602060002090600d020160070160006101000a81548160ff0219169083151502179055505050565b60066020528060005260406000206000915090505481565b600060018381548110151561229457fe5b90600052602060002090600d0201600b0160008373ffffffffffffffffffffffffffffffffffffffff1673ffffffffffffffffffffffffffffffffffffffff16815260200190815260200160002060009054906101000a900460ff16905092915050565b600060018281548110151561230957fe5b90600052602060002090600d0201600401805490509050919050565b6040805190810160405280600b81526020017f7375626d69745f7461736b000000000000000000000000000000000000000000815250600061239b6040805190810160405280600681526020017f4d454d4245520000000000000000000000000000000000000000000000000000815250612832565b90508073ffffffffffffffffffffffffffffffffffffffff16636c3ea72133846000604051602001526040518363ffffffff167c0100000000000000000000000000000000000000000000000000000000028152600401808373ffffffffffffffffffffffffffffffffffffffff1673ffffffffffffffffffffffffffffffffffffffff16815260200180602001828103825283818151815260200191508051906020019080838360005b83811015612461578082015181840152602081019050612446565b50505050905090810190601f16801561248e5780820380516001836020036101000a031916815260200191505b509350505050602060405180830381600087803b15156124ad57600080fd5b6102c65a03f115156124be57600080fd5b5050506040518051905015156124d357600080fd5b8073ffffffffffffffffffffffffffffffffffffffff166397f735d5336000604051602001526040518263ffffffff167c0100000000000000000000000000000000000000000000000000000000028152600401808273ffffffffffffffffffffffffffffffffffffffff1673ffffffffffffffffffffffffffffffffffffffff168152602001915050602060405180830381600087803b151561257657600080fd5b6102c65a03f1151561258757600080fd5b5050506040518051905015151561259d57600080fd5b855185511415156125ad57600080fd5b60055487111515156125be57600080fd5b60035484111515156125cf57600080fd5b60045483111515156125e057600080fd5b6125ea868661295d565b600180548060010182816125fe9190612d7d565b91600052602060002090600d02016000610140604051908101604052808d81526020018c73ffffffffffffffffffffffffffffffffffffffff1681526020018b81526020018a8152602001898152602001888152602001878152602001600015158152602001600081526020016000151581525090919091506000820151816000019080519060200190612693929190612bfd565b5060208201518160010160006101000a81548173ffffffffffffffffffffffffffffffffffffffff021916908373ffffffffffffffffffffffffffffffffffffffff160217905550604082015181600201556060820151816003019080519060200190612701929190612daf565b50608082015181600401908051906020019061271e929190612daf565b5060a0820151816005015560c0820151816006015560e08201518160070160006101000a81548160ff02191690831515021790555061010082015181600801556101208201518160090160006101000a81548160ff021916908315150217905550505050600160028181805490500191508161279a9190612b9f565b50505050505050505050565b60006001838154811015156127b757fe5b90600052602060002090600d0201600301828154811015156127d557fe5b906000526020600020900154905092915050565b60006001838154811015156127fa57fe5b90600052602060002090600d02016004018281548110151561281857fe5b906000526020600020900154905092915050565b60045481565b6000806000809054906101000a900473ffffffffffffffffffffffffffffffffffffffff1690508073ffffffffffffffffffffffffffffffffffffffff166310a8169c846040518082805190602001908083835b6020831015156128ab5780518252602082019150602081019050602083039250612886565b6001836020036101000a03801982511681845116808217855250505050505090500191505060405180910390206000604051602001526040518263ffffffff167c0100000000000000000000000000000000000000000000000000000000028152600401808260001916600019168152602001915050602060405180830381600087803b151561293a57600080fd5b6102c65a03f1151561294b57600080fd5b50505060405180519050915050919050565b60008060008060006129a36040805190810160405280600381526020017f44414f0000000000000000000000000000000000000000000000000000000000815250612832565b9450600093505b8651841015612ae45786848151811015156129c157fe5b90602001906020020151925085848151811015156129db57fe5b9060200190602002015191508473ffffffffffffffffffffffffffffffffffffffff1663ae802e47846000604051606001526040518263ffffffff167c010000000000000000000000000000000000000000000000000000000002815260040180828152602001915050606060405180830381600087803b1515612a5e57600080fd5b6102c65a03f11515612a6f57600080fd5b5050506040518051906020018051906020018051905092505050600660008273ffffffffffffffffffffffffffffffffffffffff1673ffffffffffffffffffffffffffffffffffffffff168152602001908152602001600020548211151515612ad757600080fd5b83806001019450506129aa565b50505050505050565b815481835581811511612b1a57600d0281600d028360005260206000209182019101612b199190612dfc565b5b505050565b828054600181600116156101000203166002900490600052602060002090601f016020900481019282601f10612b6057805160ff1916838001178555612b8e565b82800160010185558215612b8e579182015b82811115612b8d578251825591602001919060010190612b72565b5b509050612b9b9190612eba565b5090565b815481835581811511612bc657818360005260206000209182019101612bc59190612edf565b5b505050565b815481835581811511612bf857600602816006028360005260206000209182019101612bf79190612f0b565b5b505050565b828054600181600116156101000203166002900490600052602060002090601f016020900481019282601f10612c3e57805160ff1916838001178555612c6c565b82800160010185558215612c6c579182015b82811115612c6b578251825591602001919060010190612c50565b5b509050612c799190612eba565b5090565b828054600181600116156101000203166002900490600052602060002090601f016020900481019282601f10612cbe57805160ff1916838001178555612cec565b82800160010185558215612cec579182015b82811115612ceb578251825591602001919060010190612cd0565b5b509050612cf99190612eba565b5090565b828054600181600116156101000203166002900490600052602060002090601f016020900481019282601f10612d3e57805160ff1916838001178555612d6c565b82800160010185558215612d6c579182015b82811115612d6b578251825591602001919060010190612d50565b5b509050612d799190612eba565b5090565b815481835581811511612daa57600d0281600d028360005260206000209182019101612da99190612dfc565b5b505050565b828054828255906000526020600020908101928215612deb579160200282015b82811115612dea578251825591602001919060010190612dcf565b5b509050612df89190612eba565b5090565b612eb791905b80821115612eb35760008082016000612e1b9190612f81565b6001820160006101000a81549073ffffffffffffffffffffffffffffffffffffffff02191690556002820160009055600382016000612e5a9190612fc9565b600482016000612e6a9190612fc9565b600582016000905560068201600090556007820160006101000a81549060ff021916905560088201600090556009820160006101000a81549060ff021916905550600d01612e02565b5090565b90565b612edc91905b80821115612ed8576000816000905550600101612ec0565b5090565b90565b612f0891905b80821115612f045760008181612efb9190612fea565b50600101612ee5565b5090565b90565b612f7e91905b80821115612f7a5760008082016000612f2a9190612f81565b6001820160006101000a81549073ffffffffffffffffffffffffffffffffffffffff0219169055600282016000612f61919061300e565b6003820160009055600482016000905550600601612f11565b5090565b90565b50805460018160011615610100020316600290046000825580601f10612fa75750612fc6565b601f016020900490600052602060002090810190612fc59190612eba565b5b50565b5080546000825590600052602060002090810190612fe79190612eba565b50565b508054600082556006029060005260206000209081019061300b9190612f0b565b50565b50805460018160011615610100020316600290046000825580601f106130345750613053565b601f0160209004906000526020600020908101906130529190612eba565b5b505600a165627a7a72305820f7416f0449dec553423f79f9890562de3fd9fe54c779c3174d1c60ad687af9de0029",
  "source": "/*\r\n    tasks_handler.sol\r\n    Created by Zefram Lou (Zebang Liu) as part of the WikiGit project.\r\n\r\n    This file implements the mechanisms for posting task listings, submitting\r\n    task solutions, and accepting task solutions as the final answers. It should\r\n    be possible to modify this file to allow compatability with third-party freelancing\r\n    platforms.\r\n*/\r\n\r\npragma solidity ^0.4.11;\r\n\r\nimport './main.sol';\r\nimport './dao.sol';\r\nimport './member_handler.sol';\r\n\r\ncontract TasksHandler is Module {\r\n    struct TaskListing {\r\n        string metadata; //Metadata of the task. Format dependent on the higher level UI.\r\n        address poster;\r\n        uint rewardInWeis;\r\n        uint[] rewardTokenIdList; //IDs of the rewarded tokens in the recognizedTokenList of the DAO.\r\n        uint[] rewardTokenAmountList; //Amount of rewarded tokens with respect to rewardTokenIdList.\r\n        uint rewardGoodRep; //Reward in good reputation.\r\n        uint penaltyBadRep; //Penalty in bad reputation if a solution is deemed malicious.\r\n        bool isInvalid;\r\n        uint acceptedSolutionID; //Index of the accepted solution.\r\n        bool hasAcceptedSolution;\r\n        mapping(address => bool) hasSubmitted; //Records whether a user has already submitted a solution.\r\n        mapping(address => bool) hasBeenPenalized; //Recordes whether a user has been penalized for a malicious solution.\r\n        mapping(address => uint) memberSolId; //From member address to index of member's solution submission.\r\n    }\r\n\r\n    /*\r\n        Defines a task solution. Solutions take the form of Git patches, and are currently stored onchain.\r\n        Future versions will move the patch data to decentralized storage platforms like Swarm and IPFS.\r\n    */\r\n    struct TaskSolution {\r\n        string metadata; //Metadata of the task. Format dependent on the higher level UI.\r\n        address submitter;\r\n        bytes patchIPFSHash; //IPFS hash of the Git patch.\r\n        /*\r\n            Solution voting allow members to express their evaluations of a solution.\r\n            Does not have any actual effect on the solution acceptance process.\r\n        */\r\n        uint upvotes;\r\n        uint downvotes;\r\n        mapping(address => bool) hasVoted;\r\n    }\r\n\r\n    modifier needsRight(string right) {\r\n        MemberHandler h = MemberHandler(moduleAddress('MEMBER'));\r\n        require(h.memberHasRight(msg.sender, right));\r\n        require(! h.isBanned(msg.sender)); //Makes function declarations more concise.\r\n        _;\r\n    }\r\n\r\n    TaskListing[] public taskList;\r\n    TaskSolution[][] public taskSolutionList;\r\n\r\n    /*\r\n        Upper bounds for reward amounts.\r\n    */\r\n    uint public rewardRepCap;\r\n    uint public penaltyRepCap;\r\n    uint public rewardWeiCap;\r\n    mapping(address => uint) public rewardTokenCap; //From token's address to cap\r\n\r\n    event TaskSolutionAccepted(uint taskId, uint solutionId, bytes patchIPFSHash);\r\n\r\n    function TasksHandler(address mainAddr) Module(mainAddr) {\r\n        //Initialize reward caps\r\n        rewardRepCap = 3;\r\n        penaltyRepCap = 6;\r\n        rewardWeiCap = 1 ether;\r\n    }\r\n\r\n    function publishTaskListing(\r\n        string metadata,\r\n        address poster,\r\n        uint rewardInWeis,\r\n        uint[] rewardTokenIdList,\r\n        uint[] rewardTokenAmountList,\r\n        uint rewardGoodRep,\r\n        uint penaltyBadRep\r\n    )\r\n        needsRight('submit_task')\r\n    {\r\n        //Check format\r\n        require(rewardTokenAmountList.length == rewardTokenIdList.length);\r\n\r\n        //Check if reward exceeds cap\r\n        require(rewardInWeis <= rewardWeiCap);\r\n        require(rewardGoodRep <= rewardRepCap);\r\n        require(penaltyBadRep <= penaltyRepCap);\r\n        checkTokenCap(rewardTokenIdList, rewardTokenAmountList);\r\n\r\n        taskList.push(TaskListing({\r\n            metadata: metadata,\r\n            poster: poster,\r\n            rewardInWeis: rewardInWeis,\r\n            rewardTokenIdList: rewardTokenIdList,\r\n            rewardTokenAmountList: rewardTokenAmountList,\r\n            rewardGoodRep: rewardGoodRep,\r\n            penaltyBadRep: penaltyBadRep,\r\n            isInvalid: false,\r\n            acceptedSolutionID: 0,\r\n            hasAcceptedSolution: false\r\n        }));\r\n        taskSolutionList.length += 1;\r\n    }\r\n\r\n    //Split out as an independent function to prevent StackTooDeep error\r\n    function checkTokenCap(uint[] rewardTokenIndexList, uint[] rewardTokenAmountList) constant private {\r\n        Dao dao = Dao(moduleAddress('DAO'));\r\n        for (uint i = 0; i < rewardTokenIndexList.length; i++) {\r\n            uint id = rewardTokenIndexList[i];\r\n            uint reward = rewardTokenAmountList[i];\r\n            var (,tokenAddress) = dao.recognizedTokenList(id);\r\n            require(reward <= rewardTokenCap[tokenAddress]);\r\n        }\r\n    }\r\n\r\n    /*\r\n        For part time contributors who don't have the right to post task listings with rewards.\r\n    */\r\n    function publishRewardlessTaskListing(\r\n        string metadata,\r\n        address poster,\r\n        uint rewardGoodRep,\r\n        uint penaltyBadRep\r\n    )\r\n        needsRight('submit_task_rewardless')\r\n    {\r\n        require(rewardGoodRep <= rewardRepCap);\r\n        require(penaltyBadRep <= penaltyRepCap);\r\n\r\n        taskList.length += 1;\r\n\r\n        TaskListing storage task = taskList[taskList.length - 1];\r\n        task.metadata = metadata;\r\n        task.poster = poster;\r\n        task.rewardGoodRep = rewardGoodRep;\r\n        task.penaltyBadRep = penaltyBadRep;\r\n\r\n        taskSolutionList.length += 1;\r\n    }\r\n\r\n    function invalidateTaskListingAtIndex(uint index) onlyMod('DAO') {\r\n        require(index < taskList.length);\r\n        taskList[index].isInvalid = true;\r\n    }\r\n\r\n    function submitSolution(uint taskId, string metadata, bytes patchIPFSHash)\r\n        needsRight('submit_solution')\r\n    {\r\n        require(taskId < taskList.length);\r\n\r\n        TaskListing storage task = taskList[taskId];\r\n\r\n        require(!task.isInvalid);\r\n        require(msg.sender != task.poster); //Prevent self-serving tasks\r\n\r\n        if (! task.hasSubmitted[msg.sender]) {\r\n            task.hasSubmitted[msg.sender] = true;\r\n            taskSolutionList[taskId].push(TaskSolution({\r\n                metadata: metadata,\r\n                submitter: msg.sender,\r\n                patchIPFSHash: patchIPFSHash,\r\n                upvotes: 0,\r\n                downvotes: 0\r\n            }));\r\n            taskList[taskId].memberSolId[msg.sender] = taskSolutionList.length - 1;\r\n        } else {\r\n            uint solId = taskList[taskId].memberSolId[msg.sender];\r\n            taskSolutionList[taskId][solId].metadata = metadata;\r\n            taskSolutionList[taskId][solId].patchIPFSHash = patchIPFSHash;\r\n        }\r\n    }\r\n\r\n    function voteOnSolution(address sender, uint taskId, uint solId, bool isUpvote)\r\n        needsRight('vote_solution')\r\n    {\r\n        require(taskId < taskList.length);\r\n        require(solId < taskSolutionList[taskId].length);\r\n\r\n        TaskSolution storage sol = taskSolutionList[taskId][solId];\r\n\r\n        require(!sol.hasVoted[sender]);\r\n        sol.hasVoted[sender] = true;\r\n\r\n        if (isUpvote) {\r\n            sol.upvotes += 1;\r\n        } else {\r\n            sol.downvotes += 1;\r\n        }\r\n    }\r\n\r\n    /*\r\n        Accepts a solution and pays the rewards to the solution submitter.\r\n        Can only be called by the poster of the task listing.\r\n    */\r\n    function acceptSolution(uint taskId, uint solId) {\r\n        require(taskId < taskList.length); //Ensure that taskId is valid.\r\n        TaskListing storage task = taskList[taskId];\r\n\r\n        require(solId < taskSolutionList[taskId].length); //Ensure that solId is valid.\r\n\r\n        TaskSolution storage sol = taskSolutionList[taskId][solId];\r\n\r\n        require(task.poster == msg.sender); //Ensure that the caller is the poster of the task listing.\r\n\r\n        require(!task.hasBeenPenalized[taskSolutionList[taskId][solId].submitter]);\r\n\r\n        task.isInvalid = true;\r\n        task.hasAcceptedSolution = true;\r\n        task.acceptedSolutionID = solId;\r\n\r\n        //Broadcast acceptance\r\n        TaskSolutionAccepted(taskId, solId, sol.patchIPFSHash);\r\n\r\n        //Pay submitter of solution\r\n        Dao dao = Dao(moduleAddress('DAO'));\r\n        dao.paySolutionReward(taskId, solId);\r\n    }\r\n\r\n    function setCap(string capType, uint newCap, address tokenAddress)\r\n        onlyMod('DAO')\r\n    {\r\n        if (keccak256(capType) == keccak256('wei')) {\r\n            rewardWeiCap = newCap;\r\n        } else if (keccak256(capType) == keccak256('good_rep')) {\r\n            rewardRepCap = newCap;\r\n        } else if (keccak256(capType) == keccak256('bad_rep')) {\r\n            penaltyRepCap = newCap;\r\n        } else if (keccak256(capType) == keccak256('token')) {\r\n            rewardTokenCap[tokenAddress] = newCap;\r\n        }\r\n    }\r\n\r\n    function deleteRewardTokenCap(address tokenAddress)\r\n        onlyMod('DAO')\r\n    {\r\n        delete rewardTokenCap[tokenAddress];\r\n    }\r\n\r\n    function setPenalizedStatus(uint taskId, address memberAddr, bool status) onlyMod('DAO') {\r\n        taskList[taskId].hasBeenPenalized[memberAddr] = status;\r\n    }\r\n\r\n    //Helper functions\r\n\r\n    function rewardTokenIndex(uint taskId, uint tokenId) constant returns(uint) {\r\n        return taskList[taskId].rewardTokenIdList[tokenId];\r\n    }\r\n\r\n    function rewardTokenAmount(uint taskId, uint tokenId) constant returns(uint) {\r\n        return taskList[taskId].rewardTokenAmountList[tokenId];\r\n    }\r\n\r\n    function rewardTokenCount(uint taskId) constant returns(uint) {\r\n        return taskList[taskId].rewardTokenAmountList.length;\r\n    }\r\n\r\n    function hasBeenPenalizedForTask(uint taskId, address memberAddr) constant returns(bool) {\r\n        return taskList[taskId].hasBeenPenalized[memberAddr];\r\n    }\r\n\r\n    function() {\r\n        revert();\r\n    }\r\n}\r\n",
  "sourcePath": "D:\\WebstormProjects\\WikiGit\\dev\\contracts\\tasks_handler.sol",
  "compiler": {
    "name": "solc",
    "version": "0.4.18+commit.9cf6e910.Emscripten.clang"
  },
  "schemaVersion": "1.0.1",
  "updatedAt": "2017-11-01T07:10:49.627Z"
}