{
  "contractName": "TasksHandler",
  "abi": [
    {
      "constant": false,
      "inputs": [
        {
          "name": "_taskId",
          "type": "uint256"
        },
        {
          "name": "_solId",
          "type": "uint256"
        }
      ],
      "name": "penalizeSolutionSubmitter",
      "outputs": [],
      "payable": false,
      "stateMutability": "nonpayable",
      "type": "function"
    },
    {
      "constant": false,
      "inputs": [
        {
          "name": "_taskId",
          "type": "uint256"
        },
        {
          "name": "_solId",
          "type": "uint256"
        }
      ],
      "name": "acceptSolution",
      "outputs": [
        {
          "name": "",
          "type": "address"
        }
      ],
      "payable": false,
      "stateMutability": "nonpayable",
      "type": "function"
    },
    {
      "constant": true,
      "inputs": [
        {
          "name": "taskId",
          "type": "uint256"
        },
        {
          "name": "addr",
          "type": "address"
        }
      ],
      "name": "mainAddress",
      "outputs": [
        {
          "name": "",
          "type": "address"
        }
      ],
      "payable": false,
      "stateMutability": "view",
      "type": "function"
    },
    {
      "constant": false,
      "inputs": [
        {
          "name": "_capType",
          "type": "string"
        },
        {
          "name": "_newCap",
          "type": "uint256"
        }
      ],
      "name": "setCap",
      "outputs": [
        {
          "name": "",
          "type": "uint256"
        }
      ],
      "payable": false,
      "stateMutability": "nonpayable",
      "type": "function"
    },
    {
      "constant": true,
      "inputs": [
        {
          "name": "_taskId",
          "type": "uint256"
        },
        {
          "name": "_addr",
          "type": "address"
        }
      ],
      "name": "tMemberSolId",
      "outputs": [
        {
          "name": "",
          "type": "uint256"
        }
      ],
      "payable": false,
      "stateMutability": "view",
      "type": "function"
    },
    {
      "constant": true,
      "inputs": [
        {
          "name": "",
          "type": "uint256"
        }
      ],
      "name": "taskList",
      "outputs": [
        {
          "name": "metadata",
          "type": "string"
        },
        {
          "name": "poster",
          "type": "address"
        },
        {
          "name": "rewardInWeis",
          "type": "uint256"
        },
        {
          "name": "rewardTokenAmount",
          "type": "uint256"
        },
        {
          "name": "rewardGoodRep",
          "type": "uint256"
        },
        {
          "name": "penaltyBadRep",
          "type": "uint256"
        },
        {
          "name": "state",
          "type": "uint8"
        },
        {
          "name": "acceptedSolutionID",
          "type": "uint256"
        }
      ],
      "payable": false,
      "stateMutability": "view",
      "type": "function"
    },
    {
      "constant": true,
      "inputs": [
        {
          "name": "capType",
          "type": "string"
        },
        {
          "name": "newCap",
          "type": "uint256"
        },
        {
          "name": "tokenAddress",
          "type": "address"
        }
      ],
      "name": "decimals",
      "outputs": [
        {
          "name": "",
          "type": "uint256"
        }
      ],
      "payable": false,
      "stateMutability": "view",
      "type": "function"
    },
    {
      "constant": false,
      "inputs": [
        {
          "name": "_taskId",
          "type": "uint256"
        },
        {
          "name": "_solId",
          "type": "uint256"
        },
        {
          "name": "_isUpvote",
          "type": "bool"
        },
        {
          "name": "penaltyBadRep",
          "type": "uint256"
        }
      ],
      "name": "voteOnSolution",
      "outputs": [],
      "payable": false,
      "stateMutability": "nonpayable",
      "type": "function"
    },
    {
      "constant": false,
      "inputs": [
        {
          "name": "_metadata",
          "type": "string"
        },
        {
          "name": "_poster",
          "type": "address"
        },
        {
          "name": "_rewardGoodRep",
          "type": "uint256"
        },
        {
          "name": "_penaltyBadRep",
          "type": "uint256"
        }
      ],
      "name": "publishRewardlessTaskListing",
      "outputs": [],
      "payable": false,
      "stateMutability": "nonpayable",
      "type": "function"
    },
    {
      "constant": true,
      "inputs": [
        {
          "name": "taskId",
          "type": "uint256"
        },
        {
          "name": "memberAddr",
          "type": "address"
        },
        {
          "name": "status",
          "type": "bool"
        }
      ],
      "name": "rewardTokenCap",
      "outputs": [
        {
          "name": "",
          "type": "uint256"
        }
      ],
      "payable": false,
      "stateMutability": "view",
      "type": "function"
    },
    {
      "constant": false,
      "inputs": [
        {
          "name": "_taskId",
          "type": "uint256"
        },
        {
          "name": "_memberAddr",
          "type": "address"
        },
        {
          "name": "_status",
          "type": "bool"
        }
      ],
      "name": "setPenalizedStatus",
      "outputs": [
        {
          "name": "",
          "type": "uint256"
        }
      ],
      "payable": false,
      "stateMutability": "nonpayable",
      "type": "function"
    },
    {
      "constant": true,
      "inputs": [
        {
          "name": "taskId",
          "type": "uint256"
        },
        {
          "name": "solId",
          "type": "uint256"
        },
        {
          "name": "addr",
          "type": "address"
        }
      ],
      "name": "rewardRepCap",
      "outputs": [
        {
          "name": "",
          "type": "uint256"
        }
      ],
      "payable": false,
      "stateMutability": "view",
      "type": "function"
    },
    {
      "constant": true,
      "inputs": [
        {
          "name": "_taskId",
          "type": "uint256"
        },
        {
          "name": "_addr",
          "type": "address"
        }
      ],
      "name": "tHasBeenPenalized",
      "outputs": [
        {
          "name": "",
          "type": "bool"
        }
      ],
      "payable": false,
      "stateMutability": "view",
      "type": "function"
    },
    {
      "constant": true,
      "inputs": [
        {
          "name": "_taskId",
          "type": "uint256"
        },
        {
          "name": "_addr",
          "type": "address"
        }
      ],
      "name": "tHasSubmitted",
      "outputs": [
        {
          "name": "",
          "type": "bool"
        }
      ],
      "payable": false,
      "stateMutability": "view",
      "type": "function"
    },
    {
      "constant": false,
      "inputs": [
        {
          "name": "_taskId",
          "type": "uint256"
        },
        {
          "name": "_metadata",
          "type": "string"
        },
        {
          "name": "_patchIPFSHash",
          "type": "bytes"
        }
      ],
      "name": "submitSolution",
      "outputs": [],
      "payable": false,
      "stateMutability": "nonpayable",
      "type": "function"
    },
    {
      "constant": true,
      "inputs": [
        {
          "name": "taskId",
          "type": "uint256"
        },
        {
          "name": "metadata",
          "type": "string"
        },
        {
          "name": "patchIPFSHash",
          "type": "bytes"
        }
      ],
      "name": "rewardWeiCap",
      "outputs": [
        {
          "name": "",
          "type": "uint256"
        }
      ],
      "payable": false,
      "stateMutability": "view",
      "type": "function"
    },
    {
      "constant": true,
      "inputs": [
        {
          "name": "",
          "type": "uint256"
        },
        {
          "name": "",
          "type": "uint256"
        }
      ],
      "name": "taskSolutionList",
      "outputs": [
        {
          "name": "metadata",
          "type": "string"
        },
        {
          "name": "submitter",
          "type": "address"
        },
        {
          "name": "patchIPFSHash",
          "type": "bytes"
        },
        {
          "name": "upvotes",
          "type": "uint256"
        },
        {
          "name": "downvotes",
          "type": "uint256"
        }
      ],
      "payable": false,
      "stateMutability": "view",
      "type": "function"
    },
    {
      "constant": true,
      "inputs": [
        {
          "name": "_taskId",
          "type": "uint256"
        },
        {
          "name": "_solId",
          "type": "uint256"
        },
        {
          "name": "_addr",
          "type": "address"
        }
      ],
      "name": "sHasDownvoted",
      "outputs": [
        {
          "name": "",
          "type": "bool"
        },
        {
          "name": "submitter",
          "type": "address"
        },
        {
          "name": "patchIPFSHash",
          "type": "bytes"
        },
        {
          "name": "upvotes",
          "type": "uint256"
        },
        {
          "name": "downvotes",
          "type": "uint256"
        }
      ],
      "payable": false,
      "stateMutability": "view",
      "type": "function"
    },
    {
      "constant": false,
      "inputs": [
        {
          "name": "_index",
          "type": "uint256"
        }
      ],
      "name": "invalidateTaskListingAtIndex",
      "outputs": [],
      "payable": false,
      "stateMutability": "nonpayable",
      "type": "function"
    },
    {
      "constant": false,
      "inputs": [
        {
          "name": "_metadata",
          "type": "string"
        },
        {
          "name": "_poster",
          "type": "address"
        },
        {
          "name": "_rewardInWeis",
          "type": "uint256"
        },
        {
          "name": "_rewardTokenAmount",
          "type": "uint256"
        },
        {
          "name": "_rewardGoodRep",
          "type": "uint256"
        },
        {
          "name": "_penaltyBadRep",
          "type": "uint256"
        }
      ],
      "name": "publishTaskListing",
      "outputs": [
        {
          "name": "",
          "type": "uint256"
        }
      ],
      "payable": false,
      "stateMutability": "nonpayable",
      "type": "function"
    },
    {
      "constant": true,
      "inputs": [
        {
          "name": "_taskId",
          "type": "uint256"
        },
        {
          "name": "_addr",
          "type": "address"
        }
      ],
      "name": "tHasUpvoted",
      "outputs": [
        {
          "name": "",
          "type": "bool"
        }
      ],
      "payable": false,
      "stateMutability": "view",
      "type": "function"
    },
    {
      "constant": true,
      "inputs": [
        {
          "name": "metadata",
          "type": "string"
        },
        {
          "name": "poster",
          "type": "address"
        },
        {
          "name": "rewardInWeis",
          "type": "uint256"
        },
        {
          "name": "rewardTokenIdList",
          "type": "uint256[]"
        },
        {
          "name": "rewardTokenAmountList",
          "type": "uint256[]"
        },
        {
          "name": "rewardGoodRep",
          "type": "uint256"
        },
        {
          "name": "penaltyBadRep",
          "type": "uint256"
        }
      ],
      "name": "penaltyRepCap",
      "outputs": [
        {
          "name": "",
          "type": "uint256"
        }
      ],
      "payable": false,
      "stateMutability": "view",
      "type": "function"
    },
    {
      "constant": true,
      "inputs": [
        {
          "name": "mainAddr",
          "type": "address"
        },
        {
          "name": "_rewardRepCap",
          "type": "uint256"
        },
        {
          "name": "_penaltyRepCap",
          "type": "uint256"
        },
        {
          "name": "_rewardWeiCap",
          "type": "uint256"
        },
        {
          "name": "_rewardTokenCap",
          "type": "uint256"
        }
      ],
      "name": "penaltyRepCap",
      "outputs": [
        {
          "name": "",
          "type": "uint256"
        }
      ],
      "payable": false,
      "stateMutability": "nonpayable",
      "type": "constructor"
    },
    {
      "inputs": [
        {
          "name": "mainAddr",
          "type": "address"
        }
      ],
      "payable": false,
      "stateMutability": "nonpayable",
      "type": "fallback"
    },
    {
      "payable": false,
      "stateMutability": "nonpayable",
      "type": "event",
      "anonymous": false,
      "inputs": [
        {
          "indexed": false,
          "name": "taskId",
          "type": "uint256"
        },
        {
          "indexed": false,
          "name": "solutionId",
          "type": "uint256"
        },
        {
          "indexed": false,
          "name": "patchIPFSHash",
          "type": "bytes"
        }
      ],
      "name": "TaskSolutionAccepted"
    },
    {
      "anonymous": false,
      "inputs": [
        {
          "indexed": false,
          "name": "taskId",
          "type": "uint256"
        },
        {
          "indexed": false,
          "name": "solutionId",
          "type": "uint256"
        },
        {
          "indexed": false,
          "name": "patchIPFSHash",
          "type": "bytes"
        }
      ],
      "name": "TaskSolutionAccepted",
      "type": "event"
    }
  ],
  "bytecode": "0x6060604052341561000f57600080fd5b60405160a08061335a8339810160405280805190602001909190805190602001909190805190602001909190805190602001909190805190602001909190505084806000806101000a81548173ffffffffffffffffffffffffffffffffffffffff021916908373ffffffffffffffffffffffffffffffffffffffff16021790555050836003819055508260048190555081600581905550806006819055505050505050613299806100c16000396000f300606060405260043610610128576000357c0100000000000000000000000000000000000000000000000000000000900463ffffffff16806305b496bb1461013857806308bad193146101645780630cdd4234146101905780630f91c8a5146101e55780630fc958dd1461024b5780632a1c52a5146102a1578063313ce567146103c557806333849e55146103ee5780633e1a420f146104255780635c72fbc5146104b35780635ce57b50146104dc578063639062e5146105295780636b3b1d17146105525780636cedc6ea146105ac5780636fc90a2f146106065780637dbe8bad146106af5780637ed08e22146106d85780638d1c3b8b1461086457806392ebf860146108c75780639621bcf7146108ea578063af0a078e1461098a578063fe679102146109e4575b341561013357600080fd5b600080fd5b341561014357600080fd5b6101626004808035906020019091908035906020019091905050610a0d565b005b341561016f57600080fd5b61018e6004808035906020019091908035906020019091905050610cb9565b005b341561019b57600080fd5b6101a3611113565b604051808273ffffffffffffffffffffffffffffffffffffffff1673ffffffffffffffffffffffffffffffffffffffff16815260200191505060405180910390f35b34156101f057600080fd5b610249600480803590602001908201803590602001908080601f01602080910402602001604051908101604052809392919081815260200183838082843782019150505050505091908035906020019091905050611138565b005b341561025657600080fd5b61028b600480803590602001909190803573ffffffffffffffffffffffffffffffffffffffff16906020019091905050611480565b6040518082815260200191505060405180910390f35b34156102ac57600080fd5b6102c260048080359060200190919050506114e8565b60405180806020018973ffffffffffffffffffffffffffffffffffffffff1673ffffffffffffffffffffffffffffffffffffffff16815260200188815260200187815260200186815260200185815260200184600281111561032057fe5b60ff16815260200183815260200182810382528a8181546001816001161561010002031660029004815260200191508054600181600116156101000203166002900480156103af5780601f10610384576101008083540402835291602001916103af565b820191906000526020600020905b81548152906001019060200180831161039257829003601f168201915b5050995050505050505050505060405180910390f35b34156103d057600080fd5b6103d861156b565b6040518082815260200191505060405180910390f35b34156103f957600080fd5b61042360048080359060200190919080359060200190919080351515906020019091905050611570565b005b341561043057600080fd5b6104b1600480803590602001908201803590602001908080601f0160208091040260200160405190810160405280939291908181526020018383808284378201915050505050509190803573ffffffffffffffffffffffffffffffffffffffff169060200190919080359060200190919080359060200190919050506119c2565b005b34156104be57600080fd5b6104c6611dc8565b6040518082815260200191505060405180910390f35b34156104e757600080fd5b610527600480803590602001909190803573ffffffffffffffffffffffffffffffffffffffff169060200190919080351515906020019091905050611dce565b005b341561053457600080fd5b61053c611ec1565b6040518082815260200191505060405180910390f35b341561055d57600080fd5b610592600480803590602001909190803573ffffffffffffffffffffffffffffffffffffffff16906020019091905050611ec7565b604051808215151515815260200191505060405180910390f35b34156105b757600080fd5b6105ec600480803590602001909190803573ffffffffffffffffffffffffffffffffffffffff16906020019091905050611f3c565b604051808215151515815260200191505060405180910390f35b341561061157600080fd5b6106ad600480803590602001909190803590602001908201803590602001908080601f0160208091040260200160405190810160405280939291908181526020018383808284378201915050505050509190803590602001908201803590602001908080601f01602080910402602001604051908101604052809392919081815260200183838082843782019150505050505091905050611fb1565b005b34156106ba57600080fd5b6106c26125cf565b6040518082815260200191505060405180910390f35b34156106e357600080fd5b61070260048080359060200190919080359060200190919050506125d5565b60405180806020018673ffffffffffffffffffffffffffffffffffffffff1673ffffffffffffffffffffffffffffffffffffffff168152602001806020018581526020018481526020018381038352888181546001816001161561010002031660029004815260200191508054600181600116156101000203166002900480156107cd5780601f106107a2576101008083540402835291602001916107cd565b820191906000526020600020905b8154815290600101906020018083116107b057829003601f168201915b50508381038252868181546001816001161561010002031660029004815260200191508054600181600116156101000203166002900480156108505780601f1061082557610100808354040283529160200191610850565b820191906000526020600020905b81548152906001019060200180831161083357829003601f168201915b505097505050505050505060405180910390f35b341561086f57600080fd5b6108ad600480803590602001909190803590602001909190803573ffffffffffffffffffffffffffffffffffffffff16906020019091905050612651565b604051808215151515815260200191505060405180910390f35b34156108d257600080fd5b6108e860048080359060200190919050506126df565b005b34156108f557600080fd5b610988600480803590602001908201803590602001908080601f0160208091040260200160405190810160405280939291908181526020018383808284378201915050505050509190803573ffffffffffffffffffffffffffffffffffffffff16906020019091908035906020019091908035906020019091908035906020019091908035906020019091905050612802565b005b341561099557600080fd5b6109ca600480803590602001909190803573ffffffffffffffffffffffffffffffffffffffff16906020019091905050612c2a565b604051808215151515815260200191505060405180910390f35b34156109ef57600080fd5b6109f7612c9f565b6040518082815260200191505060405180910390f35b6000806000600285815481101515610a2157fe5b90600052602060002090018054905084101515610a3d57600080fd5b600285815481101515610a4c57fe5b906000526020600020900184815481101515610a6457fe5b90600052602060002090600602019250610aa2858460010160009054906101000a900473ffffffffffffffffffffffffffffffffffffffff16611ec7565b151515610aae57600080fd5b610ade858460010160009054906101000a900473ffffffffffffffffffffffffffffffffffffffff166001611dce565b610b1c6040805190810160405280600681526020017f4d454d4245520000000000000000000000000000000000000000000000000000815250612ca5565b915060028273ffffffffffffffffffffffffffffffffffffffff1663a483e6146000604051602001526040518163ffffffff167c010000000000000000000000000000000000000000000000000000000002815260040180807f7465616d5f6d656d6265720000000000000000000000000000000000000000008152506020019050602060405180830381600087803b1515610bb757600080fd5b6102c65a03f11515610bc857600080fd5b5050506040518051905002600384600401540210151515610be857600080fd5b610c266040805190810160405280600381526020017f44414f0000000000000000000000000000000000000000000000000000000000815250612ca5565b90508073ffffffffffffffffffffffffffffffffffffffff166305b496bb86866040518363ffffffff167c01000000000000000000000000000000000000000000000000000000000281526004018083815260200182815260200192505050600060405180830381600087803b1515610c9e57600080fd5b6102c65a03f11515610caf57600080fd5b5050505050505050565b60008060008060018054905086101515610cd257600080fd5b600186815481101515610ce157fe5b90600052602060002090600c0201935060006002811115610cfe57fe5b8460060160009054906101000a900460ff166002811115610d1b57fe5b141515610d2757600080fd5b83600a016000600288815481101515610d3c57fe5b906000526020600020900187815481101515610d5457fe5b906000526020600020906006020160010160009054906101000a900473ffffffffffffffffffffffffffffffffffffffff1673ffffffffffffffffffffffffffffffffffffffff1673ffffffffffffffffffffffffffffffffffffffff16815260200190815260200160002060009054906101000a900460ff16151515610dda57600080fd5b600286815481101515610de957fe5b90600052602060002090018054905085101515610e0557600080fd5b600286815481101515610e1457fe5b906000526020600020900185815481101515610e2c57fe5b90600052602060002090600602019250610e7a6040805190810160405280600681526020017f4d454d4245520000000000000000000000000000000000000000000000000000815250612ca5565b915060028273ffffffffffffffffffffffffffffffffffffffff1663a483e6146000604051602001526040518163ffffffff167c010000000000000000000000000000000000000000000000000000000002815260040180807f7465616d5f6d656d6265720000000000000000000000000000000000000000008152506020019050602060405180830381600087803b1515610f1557600080fd5b6102c65a03f11515610f2657600080fd5b5050506040518051905002600384600301540210151515610f4657600080fd5b60018460060160006101000a81548160ff02191690836002811115610f6757fe5b02179055508484600701819055507f5688b42433f5850a07335a44d50b6e955e88073f39fa3ac6ab9c8d1a4093df1286868560020160405180848152602001838152602001806020018281038252838181546001816001161561010002031660029004815260200191508054600181600116156101000203166002900480156110315780601f1061100657610100808354040283529160200191611031565b820191906000526020600020905b81548152906001019060200180831161101457829003601f168201915b505094505050505060405180910390a161107f6040805190810160405280600381526020017f44414f0000000000000000000000000000000000000000000000000000000000815250612ca5565b90508073ffffffffffffffffffffffffffffffffffffffff16637a66e5cf87876040518363ffffffff167c01000000000000000000000000000000000000000000000000000000000281526004018083815260200182815260200192505050600060405180830381600087803b15156110f757600080fd5b6102c65a03f1151561110857600080fd5b505050505050505050565b6000809054906101000a900473ffffffffffffffffffffffffffffffffffffffff1681565b6040805190810160405280600381526020017f44414f000000000000000000000000000000000000000000000000000000000081525061117781612ca5565b73ffffffffffffffffffffffffffffffffffffffff163373ffffffffffffffffffffffffffffffffffffffff161415156111b057600080fd5b60405180807f77656900000000000000000000000000000000000000000000000000000000008152506003019050604051809103902060001916836040518082805190602001908083835b60208310151561122057805182526020820191506020810190506020830392506111fb565b6001836020036101000a0380198251168184511680821785525050505050509050019150506040518091039020600019161415611263578160058190555061147b565b60405180807f676f6f645f7265700000000000000000000000000000000000000000000000008152506008019050604051809103902060001916836040518082805190602001908083835b6020831015156112d357805182526020820191506020810190506020830392506112ae565b6001836020036101000a0380198251168184511680821785525050505050509050019150506040518091039020600019161415611316578160038190555061147a565b60405180807f6261645f726570000000000000000000000000000000000000000000000000008152506007019050604051809103902060001916836040518082805190602001908083835b6020831015156113865780518252602082019150602081019050602083039250611361565b6001836020036101000a03801982511681845116808217855250505050505090500191505060405180910390206000191614156113c95781600481905550611479565b60405180807f746f6b656e0000000000000000000000000000000000000000000000000000008152506005019050604051809103902060001916836040518082805190602001908083835b6020831015156114395780518252602082019150602081019050602083039250611414565b6001836020036101000a038019825116818451168082178552505050505050905001915050604051809103902060001916141561147857816006819055505b5b5b5b505050565b600060018381548110151561149157fe5b90600052602060002090600c0201600b0160008373ffffffffffffffffffffffffffffffffffffffff1673ffffffffffffffffffffffffffffffffffffffff16815260200190815260200160002054905092915050565b6001818154811015156114f757fe5b90600052602060002090600c020160009150905080600001908060010160009054906101000a900473ffffffffffffffffffffffffffffffffffffffff16908060020154908060030154908060040154908060050154908060060160009054906101000a900460ff16908060070154905088565b601281565b6000806040805190810160405280600d81526020017f766f74655f736f6c7574696f6e0000000000000000000000000000000000000081525060006115e96040805190810160405280600681526020017f4d454d4245520000000000000000000000000000000000000000000000000000815250612ca5565b90508073ffffffffffffffffffffffffffffffffffffffff16636c3ea72133846000604051602001526040518363ffffffff167c0100000000000000000000000000000000000000000000000000000000028152600401808373ffffffffffffffffffffffffffffffffffffffff1673ffffffffffffffffffffffffffffffffffffffff16815260200180602001828103825283818151815260200191508051906020019080838360005b838110156116af578082015181840152602081019050611694565b50505050905090810190601f1680156116dc5780820380516001836020036101000a031916815260200191505b509350505050602060405180830381600087803b15156116fb57600080fd5b6102c65a03f1151561170c57600080fd5b50505060405180519050151561172157600080fd5b8073ffffffffffffffffffffffffffffffffffffffff166397f735d5336000604051602001526040518263ffffffff167c0100000000000000000000000000000000000000000000000000000000028152600401808273ffffffffffffffffffffffffffffffffffffffff1673ffffffffffffffffffffffffffffffffffffffff168152602001915050602060405180830381600087803b15156117c457600080fd5b6102c65a03f115156117d557600080fd5b505050604051805190501515156117eb57600080fd5b600180549050871015156117fe57600080fd5b60028781548110151561180d57fe5b9060005260206000209001805490508610151561182957600080fd5b6000600281111561183657fe5b60018881548110151561184557fe5b90600052602060002090600c020160060160009054906101000a900460ff16600281111561186f57fe5b14151561187b57600080fd5b84156119135760018781548110151561189057fe5b90600052602060002090600c020193508360080160003373ffffffffffffffffffffffffffffffffffffffff1673ffffffffffffffffffffffffffffffffffffffff16815260200190815260200160002060009054906101000a900460ff161515156118fb57600080fd5b600183600301600082825401925050819055506119b9565b60028781548110151561192257fe5b90600052602060002090018681548110151561193a57fe5b906000526020600020906006020192508260050160003373ffffffffffffffffffffffffffffffffffffffff1673ffffffffffffffffffffffffffffffffffffffff16815260200190815260200160002060009054906101000a900460ff161515156119a557600080fd5b600183600401600082825401925050819055505b50505050505050565b6040805190810160405280601681526020017f7375626d69745f7461736b5f7265776172646c657373000000000000000000008152506000611a386040805190810160405280600681526020017f4d454d4245520000000000000000000000000000000000000000000000000000815250612ca5565b90508073ffffffffffffffffffffffffffffffffffffffff16636c3ea72133846000604051602001526040518363ffffffff167c0100000000000000000000000000000000000000000000000000000000028152600401808373ffffffffffffffffffffffffffffffffffffffff1673ffffffffffffffffffffffffffffffffffffffff16815260200180602001828103825283818151815260200191508051906020019080838360005b83811015611afe578082015181840152602081019050611ae3565b50505050905090810190601f168015611b2b5780820380516001836020036101000a031916815260200191505b509350505050602060405180830381600087803b1515611b4a57600080fd5b6102c65a03f11515611b5b57600080fd5b505050604051805190501515611b7057600080fd5b8073ffffffffffffffffffffffffffffffffffffffff166397f735d5336000604051602001526040518263ffffffff167c0100000000000000000000000000000000000000000000000000000000028152600401808273ffffffffffffffffffffffffffffffffffffffff1673ffffffffffffffffffffffffffffffffffffffff168152602001915050602060405180830381600087803b1515611c1357600080fd5b6102c65a03f11515611c2457600080fd5b50505060405180519050151515611c3a57600080fd5b6003548411151515611c4b57600080fd5b6004548311151515611c5c57600080fd5b60018054806001018281611c709190612dd0565b91600052602060002090600c02016000610100604051908101604052808a81526020018973ffffffffffffffffffffffffffffffffffffffff168152602001600081526020016000815260200188815260200187815260200160006002811115611cd657fe5b8152602001600081525090919091506000820151816000019080519060200190611d01929190612e02565b5060208201518160010160006101000a81548173ffffffffffffffffffffffffffffffffffffffff021916908373ffffffffffffffffffffffffffffffffffffffff16021790555060408201518160020155606082015181600301556080820151816004015560a0820151816005015560c08201518160060160006101000a81548160ff02191690836002811115611d9557fe5b021790555060e082015181600701555050506001600281818054905001915081611dbf9190612e82565b50505050505050565b60065481565b6040805190810160405280600381526020017f44414f0000000000000000000000000000000000000000000000000000000000815250611e0d81612ca5565b73ffffffffffffffffffffffffffffffffffffffff163373ffffffffffffffffffffffffffffffffffffffff16141515611e4657600080fd5b81600185815481101515611e5657fe5b90600052602060002090600c0201600a0160008573ffffffffffffffffffffffffffffffffffffffff1673ffffffffffffffffffffffffffffffffffffffff16815260200190815260200160002060006101000a81548160ff02191690831515021790555050505050565b60035481565b6000600183815481101515611ed857fe5b90600052602060002090600c0201600a0160008373ffffffffffffffffffffffffffffffffffffffff1673ffffffffffffffffffffffffffffffffffffffff16815260200190815260200160002060009054906101000a900460ff16905092915050565b6000600183815481101515611f4d57fe5b90600052602060002090600c020160090160008373ffffffffffffffffffffffffffffffffffffffff1673ffffffffffffffffffffffffffffffffffffffff16815260200190815260200160002060009054906101000a900460ff16905092915050565b6000806040805190810160405280600f81526020017f7375626d69745f736f6c7574696f6e0000000000000000000000000000000000815250600061202a6040805190810160405280600681526020017f4d454d4245520000000000000000000000000000000000000000000000000000815250612ca5565b90508073ffffffffffffffffffffffffffffffffffffffff16636c3ea72133846000604051602001526040518363ffffffff167c0100000000000000000000000000000000000000000000000000000000028152600401808373ffffffffffffffffffffffffffffffffffffffff1673ffffffffffffffffffffffffffffffffffffffff16815260200180602001828103825283818151815260200191508051906020019080838360005b838110156120f05780820151818401526020810190506120d5565b50505050905090810190601f16801561211d5780820380516001836020036101000a031916815260200191505b509350505050602060405180830381600087803b151561213c57600080fd5b6102c65a03f1151561214d57600080fd5b50505060405180519050151561216257600080fd5b8073ffffffffffffffffffffffffffffffffffffffff166397f735d5336000604051602001526040518263ffffffff167c0100000000000000000000000000000000000000000000000000000000028152600401808273ffffffffffffffffffffffffffffffffffffffff1673ffffffffffffffffffffffffffffffffffffffff168152602001915050602060405180830381600087803b151561220557600080fd5b6102c65a03f1151561221657600080fd5b5050506040518051905015151561222c57600080fd5b6001805490508710151561223f57600080fd5b60018781548110151561224e57fe5b90600052602060002090600c020193506000600281111561226b57fe5b8460060160009054906101000a900460ff16600281111561228857fe5b14151561229457600080fd5b8360090160003373ffffffffffffffffffffffffffffffffffffffff1673ffffffffffffffffffffffffffffffffffffffff16815260200190815260200160002060009054906101000a900460ff1615156124cb5760018460090160003373ffffffffffffffffffffffffffffffffffffffff1673ffffffffffffffffffffffffffffffffffffffff16815260200190815260200160002060006101000a81548160ff02191690831515021790555060028781548110151561235257fe5b9060005260206000209001805480600101828161236f9190612eae565b9160005260206000209060060201600060a0604051908101604052808a81526020013373ffffffffffffffffffffffffffffffffffffffff168152602001898152602001600081526020016000815250909190915060008201518160000190805190602001906123e0929190612e02565b5060208201518160010160006101000a81548173ffffffffffffffffffffffffffffffffffffffff021916908373ffffffffffffffffffffffffffffffffffffffff1602179055506040820151816002019080519060200190612444929190612ee0565b50606082015181600301556080820151816004015550505060016002805490500360018881548110151561247457fe5b90600052602060002090600c0201600b0160003373ffffffffffffffffffffffffffffffffffffffff1673ffffffffffffffffffffffffffffffffffffffff168152602001908152602001600020819055506125c6565b6001878154811015156124da57fe5b90600052602060002090600c0201600b0160003373ffffffffffffffffffffffffffffffffffffffff1673ffffffffffffffffffffffffffffffffffffffff1681526020019081526020016000205492508560028881548110151561253b57fe5b90600052602060002090018481548110151561255357fe5b90600052602060002090600602016000019080519060200190612577929190612f60565b508460028881548110151561258857fe5b9060005260206000209001848154811015156125a057fe5b906000526020600020906006020160020190805190602001906125c4929190612fe0565b505b50505050505050565b60055481565b6002828154811015156125e457fe5b9060005260206000209001818154811015156125fc57fe5b90600052602060002090600602016000915091505080600001908060010160009054906101000a900473ffffffffffffffffffffffffffffffffffffffff169080600201908060030154908060040154905085565b600060028481548110151561266257fe5b90600052602060002090018381548110151561267a57fe5b906000526020600020906006020160050160008373ffffffffffffffffffffffffffffffffffffffff1673ffffffffffffffffffffffffffffffffffffffff16815260200190815260200160002060009054906101000a900460ff1690509392505050565b6040805190810160405280600381526020017f44414f000000000000000000000000000000000000000000000000000000000081525061271e81612ca5565b73ffffffffffffffffffffffffffffffffffffffff163373ffffffffffffffffffffffffffffffffffffffff1614151561275757600080fd5b6001805490508210151561276a57600080fd5b6000600281111561277757fe5b60018381548110151561278657fe5b90600052602060002090600c020160060160009054906101000a900460ff1660028111156127b057fe5b1415156127bc57600080fd5b60026001838154811015156127cd57fe5b90600052602060002090600c020160060160006101000a81548160ff021916908360028111156127f957fe5b02179055505050565b6040805190810160405280600b81526020017f7375626d69745f7461736b00000000000000000000000000000000000000000081525060006128786040805190810160405280600681526020017f4d454d4245520000000000000000000000000000000000000000000000000000815250612ca5565b90508073ffffffffffffffffffffffffffffffffffffffff16636c3ea72133846000604051602001526040518363ffffffff167c0100000000000000000000000000000000000000000000000000000000028152600401808373ffffffffffffffffffffffffffffffffffffffff1673ffffffffffffffffffffffffffffffffffffffff16815260200180602001828103825283818151815260200191508051906020019080838360005b8381101561293e578082015181840152602081019050612923565b50505050905090810190601f16801561296b5780820380516001836020036101000a031916815260200191505b509350505050602060405180830381600087803b151561298a57600080fd5b6102c65a03f1151561299b57600080fd5b5050506040518051905015156129b057600080fd5b8073ffffffffffffffffffffffffffffffffffffffff166397f735d5336000604051602001526040518263ffffffff167c0100000000000000000000000000000000000000000000000000000000028152600401808273ffffffffffffffffffffffffffffffffffffffff1673ffffffffffffffffffffffffffffffffffffffff168152602001915050602060405180830381600087803b1515612a5357600080fd5b6102c65a03f11515612a6457600080fd5b50505060405180519050151515612a7a57600080fd5b6005548611151515612a8b57600080fd5b6006548511151515612a9c57600080fd5b6003548411151515612aad57600080fd5b6004548311151515612abe57600080fd5b60018054806001018281612ad29190612dd0565b91600052602060002090600c02016000610100604051908101604052808c81526020018b73ffffffffffffffffffffffffffffffffffffffff1681526020018a815260200189815260200188815260200187815260200160006002811115612b3657fe5b8152602001600081525090919091506000820151816000019080519060200190612b61929190612e02565b5060208201518160010160006101000a81548173ffffffffffffffffffffffffffffffffffffffff021916908373ffffffffffffffffffffffffffffffffffffffff16021790555060408201518160020155606082015181600301556080820151816004015560a0820151816005015560c08201518160060160006101000a81548160ff02191690836002811115612bf557fe5b021790555060e082015181600701555050506001600281818054905001915081612c1f9190612e82565b505050505050505050565b6000600183815481101515612c3b57fe5b90600052602060002090600c020160080160008373ffffffffffffffffffffffffffffffffffffffff1673ffffffffffffffffffffffffffffffffffffffff16815260200190815260200160002060009054906101000a900460ff16905092915050565b60045481565b6000806000809054906101000a900473ffffffffffffffffffffffffffffffffffffffff1690508073ffffffffffffffffffffffffffffffffffffffff166310a8169c846040518082805190602001908083835b602083101515612d1e5780518252602082019150602081019050602083039250612cf9565b6001836020036101000a03801982511681845116808217855250505050505090500191505060405180910390206000604051602001526040518263ffffffff167c0100000000000000000000000000000000000000000000000000000000028152600401808260001916600019168152602001915050602060405180830381600087803b1515612dad57600080fd5b6102c65a03f11515612dbe57600080fd5b50505060405180519050915050919050565b815481835581811511612dfd57600c0281600c028360005260206000209182019101612dfc9190613060565b5b505050565b828054600181600116156101000203166002900490600052602060002090601f016020900481019282601f10612e4357805160ff1916838001178555612e71565b82800160010185558215612e71579182015b82811115612e70578251825591602001919060010190612e55565b5b509050612e7e91906130f2565b5090565b815481835581811511612ea957818360005260206000209182019101612ea89190613117565b5b505050565b815481835581811511612edb57600602816006028360005260206000209182019101612eda9190613143565b5b505050565b828054600181600116156101000203166002900490600052602060002090601f016020900481019282601f10612f2157805160ff1916838001178555612f4f565b82800160010185558215612f4f579182015b82811115612f4e578251825591602001919060010190612f33565b5b509050612f5c91906130f2565b5090565b828054600181600116156101000203166002900490600052602060002090601f016020900481019282601f10612fa157805160ff1916838001178555612fcf565b82800160010185558215612fcf579182015b82811115612fce578251825591602001919060010190612fb3565b5b509050612fdc91906130f2565b5090565b828054600181600116156101000203166002900490600052602060002090601f016020900481019282601f1061302157805160ff191683800117855561304f565b8280016001018555821561304f579182015b8281111561304e578251825591602001919060010190613033565b5b50905061305c91906130f2565b5090565b6130ef91905b808211156130eb576000808201600061307f91906131b9565b6001820160006101000a81549073ffffffffffffffffffffffffffffffffffffffff021916905560028201600090556003820160009055600482016000905560058201600090556006820160006101000a81549060ff0219169055600782016000905550600c01613066565b5090565b90565b61311491905b808211156131105760008160009055506001016130f8565b5090565b90565b61314091905b8082111561313c57600081816131339190613201565b5060010161311d565b5090565b90565b6131b691905b808211156131b2576000808201600061316291906131b9565b6001820160006101000a81549073ffffffffffffffffffffffffffffffffffffffff02191690556002820160006131999190613225565b6003820160009055600482016000905550600601613149565b5090565b90565b50805460018160011615610100020316600290046000825580601f106131df57506131fe565b601f0160209004906000526020600020908101906131fd91906130f2565b5b50565b50805460008255600602906000526020600020908101906132229190613143565b50565b50805460018160011615610100020316600290046000825580601f1061324b575061326a565b601f01602090049060005260206000209081019061326991906130f2565b5b505600a165627a7a72305820b56d6fcb0ec0a092f5054d9af354f2d62f5895b9289d0239ccca7797b93ca5630029",
  "source": "/*\r\n    tasks_handler.sol\r\n    Created by Zefram Lou (Zebang Liu) as part of the WikiGit project.\r\n\r\n    This file implements the mechanisms for posting task listings, submitting\r\n    task solutions, and accepting task solutions as the final answers. It should\r\n    be possible to modify this file to allow compatability with third-party freelancing\r\n    platforms.\r\n*/\r\n\r\npragma solidity ^0.4.18;\r\n\r\nimport './main.sol';\r\nimport './dao.sol';\r\nimport './member_handler.sol';\r\n\r\ncontract TasksHandler is Module {\r\n    enum TaskState { Open, Solved, Invalid }\r\n\r\n    struct TaskListing {\r\n        string metadata; //Metadata of the task. Format dependent on the higher level UI.\r\n        address poster;\r\n        uint rewardInWeis;\r\n        uint rewardTokenAmount; //Amount of rewarded tokens\r\n        uint rewardGoodRep; //Reward in good reputation.\r\n        uint penaltyBadRep; //Penalty in bad reputation if a solution is deemed malicious.\r\n        TaskState state;\r\n        uint acceptedSolutionID; //Index of the accepted solution.\r\n        mapping(address => bool) hasUpvoted; //Records whether a team member has upvoted a solution.\r\n        mapping(address => bool) hasSubmitted; //Records whether a user has already submitted a solution.\r\n        mapping(address => bool) hasBeenPenalized; //Recordes whether a user has been penalized for a malicious solution.\r\n        mapping(address => uint) memberSolId; //From member address to index of member's solution submission.\r\n    }\r\n\r\n    /*\r\n        Defines a task solution.\r\n    */\r\n    struct TaskSolution {\r\n        string metadata; //Metadata of the task. Format dependent on the higher level UI.\r\n        address submitter;\r\n        bytes patchIPFSHash; //IPFS hash of the Git patch.\r\n        /*\r\n            Solution voting allow members to express their evaluations of a solution.\r\n            Solutions that receives upvote from more than 2/3 of team members will be accepted.\r\n            Solutions that receives downvote from more than 2/3 of team members will be open to penalization.\r\n        */\r\n        uint upvotes;\r\n        uint downvotes;\r\n        mapping(address => bool) hasDownvoted;\r\n    }\r\n\r\n    modifier needsRight(string right) {\r\n        MemberHandler h = MemberHandler(moduleAddress('MEMBER'));\r\n        require(h.memberHasRight(msg.sender, right));\r\n        require(! h.isBanned(msg.sender)); //Makes function declarations more concise.\r\n        _;\r\n    }\r\n\r\n    TaskListing[] public taskList;\r\n    TaskSolution[][] public taskSolutionList;\r\n\r\n    /*\r\n        Upper bounds for reward amounts.\r\n    */\r\n    uint public rewardRepCap;\r\n    uint public penaltyRepCap;\r\n    uint public rewardWeiCap;\r\n    uint public rewardTokenCap;\r\n\r\n    event TaskSolutionAccepted(uint taskId, uint solutionId, bytes patchIPFSHash);\r\n\r\n    function TasksHandler(\r\n        address mainAddr,\r\n        uint _rewardRepCap,\r\n        uint _penaltyRepCap,\r\n        uint _rewardWeiCap,\r\n        uint _rewardTokenCap\r\n    )\r\n        Module(mainAddr)\r\n        public\r\n    {\r\n        //Initialize reward caps\r\n        rewardRepCap = _rewardRepCap;\r\n        penaltyRepCap = _penaltyRepCap;\r\n        rewardWeiCap = _rewardWeiCap;\r\n        rewardTokenCap = _rewardTokenCap;\r\n    }\r\n\r\n    function publishTaskListing(\r\n        string _metadata,\r\n        address _poster,\r\n        uint _rewardInWeis,\r\n        uint _rewardTokenAmount,\r\n        uint _rewardGoodRep,\r\n        uint _penaltyBadRep\r\n    )\r\n        public\r\n        needsRight('submit_task')\r\n    {\r\n        //Check if reward exceeds cap\r\n        require(_rewardInWeis <= rewardWeiCap);\r\n        require(_rewardTokenAmount <= rewardTokenCap);\r\n        require(_rewardGoodRep <= rewardRepCap);\r\n        require(_penaltyBadRep <= penaltyRepCap);\r\n\r\n        taskList.push(TaskListing({\r\n            metadata: _metadata,\r\n            poster: _poster,\r\n            rewardInWeis: _rewardInWeis,\r\n            rewardTokenAmount: _rewardTokenAmount,\r\n            rewardGoodRep: _rewardGoodRep,\r\n            penaltyBadRep: _penaltyBadRep,\r\n            state: TaskState.Open,\r\n            acceptedSolutionID: 0\r\n        }));\r\n        taskSolutionList.length += 1;\r\n    }\r\n\r\n    /*\r\n        For part time contributors who don't have the right to post task listings with rewards.\r\n    */\r\n    function publishRewardlessTaskListing(\r\n        string _metadata,\r\n        address _poster,\r\n        uint _rewardGoodRep,\r\n        uint _penaltyBadRep\r\n    )\r\n        public\r\n        needsRight('submit_task_rewardless')\r\n    {\r\n        require(_rewardGoodRep <= rewardRepCap);\r\n        require(_penaltyBadRep <= penaltyRepCap);\r\n\r\n        taskList.push(TaskListing({\r\n            metadata: _metadata,\r\n            poster: _poster,\r\n            rewardInWeis: 0,\r\n            rewardTokenAmount: 0,\r\n            rewardGoodRep: _rewardGoodRep,\r\n            penaltyBadRep: _penaltyBadRep,\r\n            state: TaskState.Open,\r\n            acceptedSolutionID: 0\r\n        }));\r\n\r\n        taskSolutionList.length += 1;\r\n    }\r\n\r\n    function invalidateTaskListingAtIndex(uint _index) public onlyMod('DAO') {\r\n        require(_index < taskList.length);\r\n        require(taskList[_index].state == TaskState.Open);\r\n        taskList[_index].state = TaskState.Invalid;\r\n    }\r\n\r\n    function submitSolution(\r\n        uint _taskId,\r\n        string _metadata,\r\n        bytes _patchIPFSHash\r\n    )\r\n        public\r\n        needsRight('submit_solution')\r\n    {\r\n        require(_taskId < taskList.length);\r\n\r\n        TaskListing storage task = taskList[_taskId];\r\n\r\n        require(task.state == TaskState.Open);\r\n\r\n        if (! task.hasSubmitted[msg.sender]) {\r\n            task.hasSubmitted[msg.sender] = true;\r\n            taskSolutionList[_taskId].push(TaskSolution({\r\n                metadata: _metadata,\r\n                submitter: msg.sender,\r\n                patchIPFSHash: _patchIPFSHash,\r\n                upvotes: 0,\r\n                downvotes: 0\r\n            }));\r\n            taskList[_taskId].memberSolId[msg.sender] = taskSolutionList.length - 1;\r\n        } else {\r\n            uint solId = taskList[_taskId].memberSolId[msg.sender];\r\n            taskSolutionList[_taskId][solId].metadata = _metadata;\r\n            taskSolutionList[_taskId][solId].patchIPFSHash = _patchIPFSHash;\r\n        }\r\n    }\r\n\r\n    function voteOnSolution(\r\n        uint _taskId,\r\n        uint _solId,\r\n        bool _isUpvote\r\n    )\r\n        public\r\n        needsRight('vote_solution')\r\n    {\r\n        require(_taskId < taskList.length);\r\n        require(_solId < taskSolutionList[_taskId].length);\r\n        require(taskList[_taskId].state == TaskState.Open);\r\n\r\n        if (_isUpvote) {\r\n            TaskListing storage task = taskList[_taskId];\r\n            require(! task.hasUpvoted[msg.sender]);\r\n            sol.upvotes += 1;\r\n        } else {\r\n            TaskSolution storage sol = taskSolutionList[_taskId][_solId];\r\n            require(! sol.hasDownvoted[msg.sender]);\r\n            sol.downvotes += 1;\r\n        }\r\n    }\r\n\r\n    /*\r\n        Accepts a solution and pays the rewards to the solution submitter.\r\n    */\r\n    function acceptSolution(uint _taskId, uint _solId) public {\r\n        require(_taskId < taskList.length); //Ensure that taskId is valid.\r\n        TaskListing storage task = taskList[_taskId];\r\n        require(task.state == TaskState.Open);\r\n        require(!task.hasBeenPenalized[taskSolutionList[_taskId][_solId].submitter]);\r\n\r\n        require(_solId < taskSolutionList[_taskId].length); //Ensure that solId is valid.\r\n        TaskSolution storage sol = taskSolutionList[_taskId][_solId];\r\n\r\n        MemberHandler h = MemberHandler(moduleAddress('MEMBER'));\r\n        require(sol.upvotes * 3 >= h.groupMemberCount('team_member') * 2); //At least 2/3 of team members upvoted\r\n\r\n        task.state = TaskState.Solved;\r\n        task.acceptedSolutionID = _solId;\r\n\r\n        //Broadcast acceptance\r\n        TaskSolutionAccepted(_taskId, _solId, sol.patchIPFSHash);\r\n\r\n        //Pay submitter of solution\r\n        Dao dao = Dao(moduleAddress('DAO'));\r\n        dao.paySolutionReward(_taskId, _solId);\r\n    }\r\n\r\n    function penalizeSolutionSubmitter(uint _taskId, uint _solId) public {\r\n        require(_solId < taskSolutionList[_taskId].length); //Ensure that solId is valid.\r\n        TaskSolution storage sol = taskSolutionList[_taskId][_solId];\r\n\r\n        require(!tHasBeenPenalized(_taskId, sol.submitter));\r\n        setPenalizedStatus(_taskId, sol.submitter, true);\r\n\r\n        MemberHandler h = MemberHandler(moduleAddress('MEMBER'));\r\n        require(sol.downvotes * 3 >= h.groupMemberCount('team_member') * 2); //At least 2/3 of team members downvoted\r\n\r\n        Dao dao = Dao(moduleAddress('DAO'));\r\n        dao.penalizeSolutionSubmitter(_taskId, _solId);\r\n    }\r\n\r\n    function setCap(\r\n        string _capType,\r\n        uint _newCap\r\n    )\r\n        public\r\n        onlyMod('DAO')\r\n    {\r\n        if (keccak256(_capType) == keccak256('wei')) {\r\n            rewardWeiCap = _newCap;\r\n        } else if (keccak256(_capType) == keccak256('good_rep')) {\r\n            rewardRepCap = _newCap;\r\n        } else if (keccak256(_capType) == keccak256('bad_rep')) {\r\n            penaltyRepCap = _newCap;\r\n        } else if (keccak256(_capType) == keccak256('token')) {\r\n            rewardTokenCap = _newCap;\r\n        }\r\n    }\r\n\r\n    function setPenalizedStatus(uint _taskId, address _memberAddr, bool _status) public onlyMod('DAO') {\r\n        taskList[_taskId].hasBeenPenalized[_memberAddr] = _status;\r\n    }\r\n\r\n    //Getters\r\n\r\n    function tHasSubmitted(uint _taskId, address _addr) public view returns(bool) {\r\n        return taskList[_taskId].hasSubmitted[_addr];\r\n    }\r\n\r\n    function tHasBeenPenalized(uint _taskId, address _addr) public view returns(bool) {\r\n        return taskList[_taskId].hasBeenPenalized[_addr];\r\n    }\r\n\r\n    function tMemberSolId(uint _taskId, address _addr) public view returns(uint) {\r\n        return taskList[_taskId].memberSolId[_addr];\r\n    }\r\n\r\n    function tHasUpvoted(\r\n        uint _taskId,\r\n        address _addr\r\n    )\r\n        public\r\n        view\r\n        returns(bool)\r\n    {\r\n        return taskList[_taskId].hasUpvoted[_addr];\r\n    }\r\n\r\n    function sHasDownvoted(\r\n        uint _taskId,\r\n        uint _solId,\r\n        address _addr\r\n    )\r\n        public\r\n        view\r\n        returns(bool)\r\n    {\r\n        return taskSolutionList[_taskId][_solId].hasDownvoted[_addr];\r\n    }\r\n\r\n    //Fallback\r\n    function() public {\r\n        revert();\r\n    }\r\n}\r\n",
  "sourcePath": "D:\\WebstormProjects\\WikiGit\\dev\\contracts\\tasks_handler.sol",
  "compiler": {
    "name": "solc",
    "version": "0.4.18+commit.9cf6e910.Emscripten.clang"
  },
  "schemaVersion": "1.0.1",
  "updatedAt": "2018-01-05T06:14:26.048Z"
}