{
  "contractName": "TasksHandler",
  "abi": [
    {
      "constant": false,
      "inputs": [
        {
          "name": "taskId",
          "type": "uint256"
        },
        {
          "name": "solId",
          "type": "uint256"
        }
      ],
      "name": "acceptSolution",
      "outputs": [],
      "payable": false,
      "stateMutability": "nonpayable",
      "type": "function"
    },
    {
      "constant": true,
      "inputs": [],
      "name": "mainAddress",
      "outputs": [
        {
          "name": "",
          "type": "address"
        }
      ],
      "payable": false,
      "stateMutability": "view",
      "type": "function"
    },
    {
      "constant": true,
      "inputs": [
        {
          "name": "taskId",
          "type": "uint256"
        },
        {
          "name": "addr",
          "type": "address"
        }
      ],
      "name": "tMemberSolId",
      "outputs": [
        {
          "name": "",
          "type": "uint256"
        }
      ],
      "payable": false,
      "stateMutability": "view",
      "type": "function"
    },
    {
      "constant": true,
      "inputs": [
        {
          "name": "taskId",
          "type": "uint256"
        }
      ],
      "name": "getTRewardTokenListCount",
      "outputs": [
        {
          "name": "",
          "type": "uint256"
        }
      ],
      "payable": false,
      "stateMutability": "view",
      "type": "function"
    },
    {
      "constant": true,
      "inputs": [
        {
          "name": "taskId",
          "type": "uint256"
        },
        {
          "name": "tokenId",
          "type": "uint256"
        }
      ],
      "name": "getTRewardTokenAmount",
      "outputs": [
        {
          "name": "",
          "type": "uint256"
        }
      ],
      "payable": false,
      "stateMutability": "view",
      "type": "function"
    },
    {
      "constant": true,
      "inputs": [
        {
          "name": "",
          "type": "uint256"
        }
      ],
      "name": "taskList",
      "outputs": [
        {
          "name": "metadata",
          "type": "string"
        },
        {
          "name": "poster",
          "type": "address"
        },
        {
          "name": "rewardInWeis",
          "type": "uint256"
        },
        {
          "name": "rewardGoodRep",
          "type": "uint256"
        },
        {
          "name": "penaltyBadRep",
          "type": "uint256"
        },
        {
          "name": "isInvalid",
          "type": "bool"
        },
        {
          "name": "acceptedSolutionID",
          "type": "uint256"
        },
        {
          "name": "hasAcceptedSolution",
          "type": "bool"
        }
      ],
      "payable": false,
      "stateMutability": "view",
      "type": "function"
    },
    {
      "constant": false,
      "inputs": [
        {
          "name": "capType",
          "type": "string"
        },
        {
          "name": "newCap",
          "type": "uint256"
        },
        {
          "name": "tokenAddress",
          "type": "address"
        }
      ],
      "name": "setCap",
      "outputs": [],
      "payable": false,
      "stateMutability": "nonpayable",
      "type": "function"
    },
    {
      "constant": false,
      "inputs": [
        {
          "name": "metadata",
          "type": "string"
        },
        {
          "name": "poster",
          "type": "address"
        },
        {
          "name": "rewardGoodRep",
          "type": "uint256"
        },
        {
          "name": "penaltyBadRep",
          "type": "uint256"
        }
      ],
      "name": "publishRewardlessTaskListing",
      "outputs": [],
      "payable": false,
      "stateMutability": "nonpayable",
      "type": "function"
    },
    {
      "constant": false,
      "inputs": [
        {
          "name": "sender",
          "type": "address"
        },
        {
          "name": "taskId",
          "type": "uint256"
        },
        {
          "name": "solId",
          "type": "uint256"
        },
        {
          "name": "isUpvote",
          "type": "bool"
        }
      ],
      "name": "voteOnSolution",
      "outputs": [],
      "payable": false,
      "stateMutability": "nonpayable",
      "type": "function"
    },
    {
      "constant": false,
      "inputs": [
        {
          "name": "taskId",
          "type": "uint256"
        },
        {
          "name": "memberAddr",
          "type": "address"
        },
        {
          "name": "status",
          "type": "bool"
        }
      ],
      "name": "setPenalizedStatus",
      "outputs": [],
      "payable": false,
      "stateMutability": "nonpayable",
      "type": "function"
    },
    {
      "constant": true,
      "inputs": [],
      "name": "rewardRepCap",
      "outputs": [
        {
          "name": "",
          "type": "uint256"
        }
      ],
      "payable": false,
      "stateMutability": "view",
      "type": "function"
    },
    {
      "constant": true,
      "inputs": [
        {
          "name": "taskId",
          "type": "uint256"
        },
        {
          "name": "solId",
          "type": "uint256"
        },
        {
          "name": "addr",
          "type": "address"
        }
      ],
      "name": "sHasVoted",
      "outputs": [
        {
          "name": "",
          "type": "bool"
        }
      ],
      "payable": false,
      "stateMutability": "view",
      "type": "function"
    },
    {
      "constant": true,
      "inputs": [
        {
          "name": "taskId",
          "type": "uint256"
        },
        {
          "name": "addr",
          "type": "address"
        }
      ],
      "name": "tHasBeenPenalized",
      "outputs": [
        {
          "name": "",
          "type": "bool"
        }
      ],
      "payable": false,
      "stateMutability": "view",
      "type": "function"
    },
    {
      "constant": true,
      "inputs": [
        {
          "name": "taskId",
          "type": "uint256"
        },
        {
          "name": "addr",
          "type": "address"
        }
      ],
      "name": "tHasSubmitted",
      "outputs": [
        {
          "name": "",
          "type": "bool"
        }
      ],
      "payable": false,
      "stateMutability": "view",
      "type": "function"
    },
    {
      "constant": false,
      "inputs": [
        {
          "name": "tokenAddress",
          "type": "address"
        }
      ],
      "name": "deleteRewardTokenCap",
      "outputs": [],
      "payable": false,
      "stateMutability": "nonpayable",
      "type": "function"
    },
    {
      "constant": false,
      "inputs": [
        {
          "name": "taskId",
          "type": "uint256"
        },
        {
          "name": "metadata",
          "type": "string"
        },
        {
          "name": "patchIPFSHash",
          "type": "bytes"
        }
      ],
      "name": "submitSolution",
      "outputs": [],
      "payable": false,
      "stateMutability": "nonpayable",
      "type": "function"
    },
    {
      "constant": true,
      "inputs": [],
      "name": "rewardWeiCap",
      "outputs": [
        {
          "name": "",
          "type": "uint256"
        }
      ],
      "payable": false,
      "stateMutability": "view",
      "type": "function"
    },
    {
      "constant": true,
      "inputs": [
        {
          "name": "",
          "type": "uint256"
        },
        {
          "name": "",
          "type": "uint256"
        }
      ],
      "name": "taskSolutionList",
      "outputs": [
        {
          "name": "metadata",
          "type": "string"
        },
        {
          "name": "submitter",
          "type": "address"
        },
        {
          "name": "patchIPFSHash",
          "type": "bytes"
        },
        {
          "name": "upvotes",
          "type": "uint256"
        },
        {
          "name": "downvotes",
          "type": "uint256"
        }
      ],
      "payable": false,
      "stateMutability": "view",
      "type": "function"
    },
    {
      "constant": false,
      "inputs": [
        {
          "name": "index",
          "type": "uint256"
        }
      ],
      "name": "invalidateTaskListingAtIndex",
      "outputs": [],
      "payable": false,
      "stateMutability": "nonpayable",
      "type": "function"
    },
    {
      "constant": true,
      "inputs": [
        {
          "name": "",
          "type": "address"
        }
      ],
      "name": "rewardTokenCap",
      "outputs": [
        {
          "name": "",
          "type": "uint256"
        }
      ],
      "payable": false,
      "stateMutability": "view",
      "type": "function"
    },
    {
      "constant": true,
      "inputs": [
        {
          "name": "taskId",
          "type": "uint256"
        },
        {
          "name": "tokenId",
          "type": "uint256"
        }
      ],
      "name": "getTRewardTokenIndex",
      "outputs": [
        {
          "name": "",
          "type": "uint256"
        }
      ],
      "payable": false,
      "stateMutability": "view",
      "type": "function"
    },
    {
      "constant": false,
      "inputs": [
        {
          "name": "metadata",
          "type": "string"
        },
        {
          "name": "poster",
          "type": "address"
        },
        {
          "name": "rewardInWeis",
          "type": "uint256"
        },
        {
          "name": "rewardTokenIdList",
          "type": "uint256[]"
        },
        {
          "name": "rewardTokenAmountList",
          "type": "uint256[]"
        },
        {
          "name": "rewardGoodRep",
          "type": "uint256"
        },
        {
          "name": "penaltyBadRep",
          "type": "uint256"
        }
      ],
      "name": "publishTaskListing",
      "outputs": [],
      "payable": false,
      "stateMutability": "nonpayable",
      "type": "function"
    },
    {
      "constant": true,
      "inputs": [],
      "name": "penaltyRepCap",
      "outputs": [
        {
          "name": "",
          "type": "uint256"
        }
      ],
      "payable": false,
      "stateMutability": "view",
      "type": "function"
    },
    {
      "inputs": [
        {
          "name": "mainAddr",
          "type": "address"
        }
      ],
      "payable": false,
      "stateMutability": "nonpayable",
      "type": "constructor"
    },
    {
      "payable": false,
      "stateMutability": "nonpayable",
      "type": "fallback"
    },
    {
      "anonymous": false,
      "inputs": [
        {
          "indexed": false,
          "name": "taskId",
          "type": "uint256"
        },
        {
          "indexed": false,
          "name": "solutionId",
          "type": "uint256"
        },
        {
          "indexed": false,
          "name": "patchIPFSHash",
          "type": "bytes"
        }
      ],
      "name": "TaskSolutionAccepted",
      "type": "event"
    }
  ],
  "bytecode": "0x6060604052341561000f57600080fd5b6040516020806133bc8339810160405280805190602001909190505080806000806101000a81548173ffffffffffffffffffffffffffffffffffffffff021916908373ffffffffffffffffffffffffffffffffffffffff16021790555050600380819055506006600481905550670de0b6b3a7640000600581905550506133218061009b6000396000f300606060405260043610610133576000357c0100000000000000000000000000000000000000000000000000000000900463ffffffff16806308bad193146101435780630cdd42341461016f5780630fc958dd146101c4578063105d1f661461021a57806329ba71cf146102515780632a1c52a5146102915780632b331e0a146103af5780633e1a420f146104345780634f6848b6146104c25780635ce57b5014610518578063639062e5146105655780636906b7d41461058e5780636b3b1d17146105f15780636cedc6ea1461064b5780636f48e676146106a55780636fc90a2f146106de5780637dbe8bad146107875780637ed08e22146107b057806392ebf8601461093c57806397d5c06b1461095f578063ab5976ea146109ac578063cb0675c7146109ec578063fe67910214610b03575b341561013e57600080fd5b600080fd5b341561014e57600080fd5b61016d6004808035906020019091908035906020019091905050610b2c565b005b341561017a57600080fd5b610182610eb6565b604051808273ffffffffffffffffffffffffffffffffffffffff1673ffffffffffffffffffffffffffffffffffffffff16815260200191505060405180910390f35b34156101cf57600080fd5b610204600480803590602001909190803573ffffffffffffffffffffffffffffffffffffffff16906020019091905050610edb565b6040518082815260200191505060405180910390f35b341561022557600080fd5b61023b6004808035906020019091905050610f43565b6040518082815260200191505060405180910390f35b341561025c57600080fd5b61027b6004808035906020019091908035906020019091905050610f70565b6040518082815260200191505060405180910390f35b341561029c57600080fd5b6102b26004808035906020019091905050610fb3565b60405180806020018973ffffffffffffffffffffffffffffffffffffffff1673ffffffffffffffffffffffffffffffffffffffff168152602001888152602001878152602001868152602001851515151581526020018481526020018315151515815260200182810382528a8181546001816001161561010002031660029004815260200191508054600181600116156101000203166002900480156103995780601f1061036e57610100808354040283529160200191610399565b820191906000526020600020905b81548152906001019060200180831161037c57829003601f168201915b5050995050505050505050505060405180910390f35b34156103ba57600080fd5b610432600480803590602001908201803590602001908080601f0160208091040260200160405190810160405280939291908181526020018383808284378201915050505050509190803590602001909190803573ffffffffffffffffffffffffffffffffffffffff16906020019091905050611043565b005b341561043f57600080fd5b6104c0600480803590602001908201803590602001908080601f0160208091040260200160405190810160405280939291908181526020018383808284378201915050505050509190803573ffffffffffffffffffffffffffffffffffffffff169060200190919080359060200190919080359060200190919050506113c9565b005b34156104cd57600080fd5b610516600480803573ffffffffffffffffffffffffffffffffffffffff169060200190919080359060200190919080359060200190919080351515906020019091905050611732565b005b341561052357600080fd5b610563600480803590602001909190803573ffffffffffffffffffffffffffffffffffffffff169060200190919080351515906020019091905050611b11565b005b341561057057600080fd5b610578611c04565b6040518082815260200191505060405180910390f35b341561059957600080fd5b6105d7600480803590602001909190803590602001909190803573ffffffffffffffffffffffffffffffffffffffff16906020019091905050611c0a565b604051808215151515815260200191505060405180910390f35b34156105fc57600080fd5b610631600480803590602001909190803573ffffffffffffffffffffffffffffffffffffffff16906020019091905050611c98565b604051808215151515815260200191505060405180910390f35b341561065657600080fd5b61068b600480803590602001909190803573ffffffffffffffffffffffffffffffffffffffff16906020019091905050611d0d565b604051808215151515815260200191505060405180910390f35b34156106b057600080fd5b6106dc600480803573ffffffffffffffffffffffffffffffffffffffff16906020019091905050611d82565b005b34156106e957600080fd5b610785600480803590602001909190803590602001908201803590602001908080601f0160208091040260200160405190810160405280939291908181526020018383808284378201915050505050509190803590602001908201803590602001908080601f01602080910402602001604051908101604052809392919081815260200183838082843782019150505050505091905050611e41565b005b341561079257600080fd5b61079a6124a6565b6040518082815260200191505060405180910390f35b34156107bb57600080fd5b6107da60048080359060200190919080359060200190919050506124ac565b60405180806020018673ffffffffffffffffffffffffffffffffffffffff1673ffffffffffffffffffffffffffffffffffffffff168152602001806020018581526020018481526020018381038352888181546001816001161561010002031660029004815260200191508054600181600116156101000203166002900480156108a55780601f1061087a576101008083540402835291602001916108a5565b820191906000526020600020905b81548152906001019060200180831161088857829003601f168201915b50508381038252868181546001816001161561010002031660029004815260200191508054600181600116156101000203166002900480156109285780601f106108fd57610100808354040283529160200191610928565b820191906000526020600020905b81548152906001019060200180831161090b57829003601f168201915b505097505050505050505060405180910390f35b341561094757600080fd5b61095d6004808035906020019091905050612528565b005b341561096a57600080fd5b610996600480803573ffffffffffffffffffffffffffffffffffffffff169060200190919050506125ef565b6040518082815260200191505060405180910390f35b34156109b757600080fd5b6109d66004808035906020019091908035906020019091905050612607565b6040518082815260200191505060405180910390f35b34156109f757600080fd5b610b01600480803590602001908201803590602001908080601f0160208091040260200160405190810160405280939291908181526020018383808284378201915050505050509190803573ffffffffffffffffffffffffffffffffffffffff16906020019091908035906020019091908035906020019082018035906020019080806020026020016040519081016040528093929190818152602001838360200280828437820191505050505050919080359060200190820180359060200190808060200260200160405190810160405280939291908181526020018383602002808284378201915050505050509190803590602001909190803590602001909190505061264a565b005b3415610b0e57600080fd5b610b16612acb565b6040518082815260200191505060405180910390f35b600080600060018054905085101515610b4457600080fd5b600185815481101515610b5357fe5b90600052602060002090600d02019250600285815481101515610b7257fe5b90600052602060002090018054905084101515610b8e57600080fd5b600285815481101515610b9d57fe5b906000526020600020900184815481101515610bb557fe5b906000526020600020906006020191503373ffffffffffffffffffffffffffffffffffffffff168360010160009054906101000a900473ffffffffffffffffffffffffffffffffffffffff1673ffffffffffffffffffffffffffffffffffffffff16141515610c2357600080fd5b82600b016000600287815481101515610c3857fe5b906000526020600020900186815481101515610c5057fe5b906000526020600020906006020160010160009054906101000a900473ffffffffffffffffffffffffffffffffffffffff1673ffffffffffffffffffffffffffffffffffffffff1673ffffffffffffffffffffffffffffffffffffffff16815260200190815260200160002060009054906101000a900460ff16151515610cd657600080fd5b60018360070160006101000a81548160ff02191690831515021790555060018360090160006101000a81548160ff0219169083151502179055508383600801819055507f5688b42433f5850a07335a44d50b6e955e88073f39fa3ac6ab9c8d1a4093df128585846002016040518084815260200183815260200180602001828103825283818154600181600116156101000203166002900481526020019150805460018160011615610100020316600290048015610dd55780601f10610daa57610100808354040283529160200191610dd5565b820191906000526020600020905b815481529060010190602001808311610db857829003601f168201915b505094505050505060405180910390a1610e236040805190810160405280600381526020017f44414f0000000000000000000000000000000000000000000000000000000000815250612ad1565b90508073ffffffffffffffffffffffffffffffffffffffff16637a66e5cf86866040518363ffffffff167c01000000000000000000000000000000000000000000000000000000000281526004018083815260200182815260200192505050600060405180830381600087803b1515610e9b57600080fd5b6102c65a03f11515610eac57600080fd5b5050505050505050565b6000809054906101000a900473ffffffffffffffffffffffffffffffffffffffff1681565b6000600183815481101515610eec57fe5b90600052602060002090600d0201600c0160008373ffffffffffffffffffffffffffffffffffffffff1673ffffffffffffffffffffffffffffffffffffffff16815260200190815260200160002054905092915050565b6000600182815481101515610f5457fe5b90600052602060002090600d0201600401805490509050919050565b6000600183815481101515610f8157fe5b90600052602060002090600d020160040182815481101515610f9f57fe5b906000526020600020900154905092915050565b600181815481101515610fc257fe5b90600052602060002090600d020160009150905080600001908060010160009054906101000a900473ffffffffffffffffffffffffffffffffffffffff16908060020154908060050154908060060154908060070160009054906101000a900460ff16908060080154908060090160009054906101000a900460ff16905088565b6040805190810160405280600381526020017f44414f000000000000000000000000000000000000000000000000000000000081525061108281612ad1565b73ffffffffffffffffffffffffffffffffffffffff163373ffffffffffffffffffffffffffffffffffffffff161415156110bb57600080fd5b60405180807f77656900000000000000000000000000000000000000000000000000000000008152506003019050604051809103902060001916846040518082805190602001908083835b60208310151561112b5780518252602082019150602081019050602083039250611106565b6001836020036101000a038019825116818451168082178552505050505050905001915050604051809103902060001916141561116e57826005819055506113c3565b60405180807f676f6f645f7265700000000000000000000000000000000000000000000000008152506008019050604051809103902060001916846040518082805190602001908083835b6020831015156111de57805182526020820191506020810190506020830392506111b9565b6001836020036101000a038019825116818451168082178552505050505050905001915050604051809103902060001916141561122157826003819055506113c2565b60405180807f6261645f726570000000000000000000000000000000000000000000000000008152506007019050604051809103902060001916846040518082805190602001908083835b602083101515611291578051825260208201915060208101905060208303925061126c565b6001836020036101000a03801982511681845116808217855250505050505090500191505060405180910390206000191614156112d457826004819055506113c1565b60405180807f746f6b656e0000000000000000000000000000000000000000000000000000008152506005019050604051809103902060001916846040518082805190602001908083835b602083101515611344578051825260208201915060208101905060208303925061131f565b6001836020036101000a03801982511681845116808217855250505050505090500191505060405180910390206000191614156113c05782600660008473ffffffffffffffffffffffffffffffffffffffff1673ffffffffffffffffffffffffffffffffffffffff168152602001908152602001600020819055505b5b5b5b50505050565b60006040805190810160405280601681526020017f7375626d69745f7461736b5f7265776172646c6573730000000000000000000081525060006114416040805190810160405280600681526020017f4d454d4245520000000000000000000000000000000000000000000000000000815250612ad1565b90508073ffffffffffffffffffffffffffffffffffffffff16636c3ea72133846000604051602001526040518363ffffffff167c0100000000000000000000000000000000000000000000000000000000028152600401808373ffffffffffffffffffffffffffffffffffffffff1673ffffffffffffffffffffffffffffffffffffffff16815260200180602001828103825283818151815260200191508051906020019080838360005b838110156115075780820151818401526020810190506114ec565b50505050905090810190601f1680156115345780820380516001836020036101000a031916815260200191505b509350505050602060405180830381600087803b151561155357600080fd5b6102c65a03f1151561156457600080fd5b50505060405180519050151561157957600080fd5b8073ffffffffffffffffffffffffffffffffffffffff166397f735d5336000604051602001526040518263ffffffff167c0100000000000000000000000000000000000000000000000000000000028152600401808273ffffffffffffffffffffffffffffffffffffffff1673ffffffffffffffffffffffffffffffffffffffff168152602001915050602060405180830381600087803b151561161c57600080fd5b6102c65a03f1151561162d57600080fd5b5050506040518051905015151561164357600080fd5b600354851115151561165457600080fd5b600454841115151561166557600080fd5b6001808181805490500191508161167c9190612d8c565b5060018080805490500381548110151561169257fe5b90600052602060002090600d02019250868360000190805190602001906116ba929190612dbe565b50858360010160006101000a81548173ffffffffffffffffffffffffffffffffffffffff021916908373ffffffffffffffffffffffffffffffffffffffff16021790555084836005018190555083836006018190555060016002818180549050019150816117289190612e3e565b5050505050505050565b60006040805190810160405280600d81526020017f766f74655f736f6c7574696f6e0000000000000000000000000000000000000081525060006117aa6040805190810160405280600681526020017f4d454d4245520000000000000000000000000000000000000000000000000000815250612ad1565b90508073ffffffffffffffffffffffffffffffffffffffff16636c3ea72133846000604051602001526040518363ffffffff167c0100000000000000000000000000000000000000000000000000000000028152600401808373ffffffffffffffffffffffffffffffffffffffff1673ffffffffffffffffffffffffffffffffffffffff16815260200180602001828103825283818151815260200191508051906020019080838360005b83811015611870578082015181840152602081019050611855565b50505050905090810190601f16801561189d5780820380516001836020036101000a031916815260200191505b509350505050602060405180830381600087803b15156118bc57600080fd5b6102c65a03f115156118cd57600080fd5b5050506040518051905015156118e257600080fd5b8073ffffffffffffffffffffffffffffffffffffffff166397f735d5336000604051602001526040518263ffffffff167c0100000000000000000000000000000000000000000000000000000000028152600401808273ffffffffffffffffffffffffffffffffffffffff1673ffffffffffffffffffffffffffffffffffffffff168152602001915050602060405180830381600087803b151561198557600080fd5b6102c65a03f1151561199657600080fd5b505050604051805190501515156119ac57600080fd5b600180549050861015156119bf57600080fd5b6002868154811015156119ce57fe5b906000526020600020900180549050851015156119ea57600080fd5b6002868154811015156119f957fe5b906000526020600020900185815481101515611a1157fe5b906000526020600020906006020192508260050160008873ffffffffffffffffffffffffffffffffffffffff1673ffffffffffffffffffffffffffffffffffffffff16815260200190815260200160002060009054906101000a900460ff16151515611a7c57600080fd5b60018360050160008973ffffffffffffffffffffffffffffffffffffffff1673ffffffffffffffffffffffffffffffffffffffff16815260200190815260200160002060006101000a81548160ff0219169083151502179055508315611af45760018360030160008282540192505081905550611b08565b600183600401600082825401925050819055505b50505050505050565b6040805190810160405280600381526020017f44414f0000000000000000000000000000000000000000000000000000000000815250611b5081612ad1565b73ffffffffffffffffffffffffffffffffffffffff163373ffffffffffffffffffffffffffffffffffffffff16141515611b8957600080fd5b81600185815481101515611b9957fe5b90600052602060002090600d0201600b0160008573ffffffffffffffffffffffffffffffffffffffff1673ffffffffffffffffffffffffffffffffffffffff16815260200190815260200160002060006101000a81548160ff02191690831515021790555050505050565b60035481565b6000600284815481101515611c1b57fe5b906000526020600020900183815481101515611c3357fe5b906000526020600020906006020160050160008373ffffffffffffffffffffffffffffffffffffffff1673ffffffffffffffffffffffffffffffffffffffff16815260200190815260200160002060009054906101000a900460ff1690509392505050565b6000600183815481101515611ca957fe5b90600052602060002090600d0201600b0160008373ffffffffffffffffffffffffffffffffffffffff1673ffffffffffffffffffffffffffffffffffffffff16815260200190815260200160002060009054906101000a900460ff16905092915050565b6000600183815481101515611d1e57fe5b90600052602060002090600d0201600a0160008373ffffffffffffffffffffffffffffffffffffffff1673ffffffffffffffffffffffffffffffffffffffff16815260200190815260200160002060009054906101000a900460ff16905092915050565b6040805190810160405280600381526020017f44414f0000000000000000000000000000000000000000000000000000000000815250611dc181612ad1565b73ffffffffffffffffffffffffffffffffffffffff163373ffffffffffffffffffffffffffffffffffffffff16141515611dfa57600080fd5b600660008373ffffffffffffffffffffffffffffffffffffffff1673ffffffffffffffffffffffffffffffffffffffff168152602001908152602001600020600090555050565b6000806040805190810160405280600f81526020017f7375626d69745f736f6c7574696f6e00000000000000000000000000000000008152506000611eba6040805190810160405280600681526020017f4d454d4245520000000000000000000000000000000000000000000000000000815250612ad1565b90508073ffffffffffffffffffffffffffffffffffffffff16636c3ea72133846000604051602001526040518363ffffffff167c0100000000000000000000000000000000000000000000000000000000028152600401808373ffffffffffffffffffffffffffffffffffffffff1673ffffffffffffffffffffffffffffffffffffffff16815260200180602001828103825283818151815260200191508051906020019080838360005b83811015611f80578082015181840152602081019050611f65565b50505050905090810190601f168015611fad5780820380516001836020036101000a031916815260200191505b509350505050602060405180830381600087803b1515611fcc57600080fd5b6102c65a03f11515611fdd57600080fd5b505050604051805190501515611ff257600080fd5b8073ffffffffffffffffffffffffffffffffffffffff166397f735d5336000604051602001526040518263ffffffff167c0100000000000000000000000000000000000000000000000000000000028152600401808273ffffffffffffffffffffffffffffffffffffffff1673ffffffffffffffffffffffffffffffffffffffff168152602001915050602060405180830381600087803b151561209557600080fd5b6102c65a03f115156120a657600080fd5b505050604051805190501515156120bc57600080fd5b600180549050871015156120cf57600080fd5b6001878154811015156120de57fe5b90600052602060002090600d020193508360070160009054906101000a900460ff1615151561210c57600080fd5b8360010160009054906101000a900473ffffffffffffffffffffffffffffffffffffffff1673ffffffffffffffffffffffffffffffffffffffff163373ffffffffffffffffffffffffffffffffffffffff161415151561216b57600080fd5b83600a0160003373ffffffffffffffffffffffffffffffffffffffff1673ffffffffffffffffffffffffffffffffffffffff16815260200190815260200160002060009054906101000a900460ff1615156123a257600184600a0160003373ffffffffffffffffffffffffffffffffffffffff1673ffffffffffffffffffffffffffffffffffffffff16815260200190815260200160002060006101000a81548160ff02191690831515021790555060028781548110151561222957fe5b906000526020600020900180548060010182816122469190612e6a565b9160005260206000209060060201600060a0604051908101604052808a81526020013373ffffffffffffffffffffffffffffffffffffffff168152602001898152602001600081526020016000815250909190915060008201518160000190805190602001906122b7929190612e9c565b5060208201518160010160006101000a81548173ffffffffffffffffffffffffffffffffffffffff021916908373ffffffffffffffffffffffffffffffffffffffff160217905550604082015181600201908051906020019061231b929190612f1c565b50606082015181600301556080820151816004015550505060016002805490500360018881548110151561234b57fe5b90600052602060002090600d0201600c0160003373ffffffffffffffffffffffffffffffffffffffff1673ffffffffffffffffffffffffffffffffffffffff1681526020019081526020016000208190555061249d565b6001878154811015156123b157fe5b90600052602060002090600d0201600c0160003373ffffffffffffffffffffffffffffffffffffffff1673ffffffffffffffffffffffffffffffffffffffff1681526020019081526020016000205492508560028881548110151561241257fe5b90600052602060002090018481548110151561242a57fe5b9060005260206000209060060201600001908051906020019061244e929190612dbe565b508460028881548110151561245f57fe5b90600052602060002090018481548110151561247757fe5b9060005260206000209060060201600201908051906020019061249b929190612f9c565b505b50505050505050565b60055481565b6002828154811015156124bb57fe5b9060005260206000209001818154811015156124d357fe5b90600052602060002090600602016000915091505080600001908060010160009054906101000a900473ffffffffffffffffffffffffffffffffffffffff169080600201908060030154908060040154905085565b6040805190810160405280600381526020017f44414f000000000000000000000000000000000000000000000000000000000081525061256781612ad1565b73ffffffffffffffffffffffffffffffffffffffff163373ffffffffffffffffffffffffffffffffffffffff161415156125a057600080fd5b600180549050821015156125b357600080fd5b600180838154811015156125c357fe5b90600052602060002090600d020160070160006101000a81548160ff0219169083151502179055505050565b60066020528060005260406000206000915090505481565b600060018381548110151561261857fe5b90600052602060002090600d02016003018281548110151561263657fe5b906000526020600020900154905092915050565b6040805190810160405280600b81526020017f7375626d69745f7461736b00000000000000000000000000000000000000000081525060006126c06040805190810160405280600681526020017f4d454d4245520000000000000000000000000000000000000000000000000000815250612ad1565b90508073ffffffffffffffffffffffffffffffffffffffff16636c3ea72133846000604051602001526040518363ffffffff167c0100000000000000000000000000000000000000000000000000000000028152600401808373ffffffffffffffffffffffffffffffffffffffff1673ffffffffffffffffffffffffffffffffffffffff16815260200180602001828103825283818151815260200191508051906020019080838360005b8381101561278657808201518184015260208101905061276b565b50505050905090810190601f1680156127b35780820380516001836020036101000a031916815260200191505b509350505050602060405180830381600087803b15156127d257600080fd5b6102c65a03f115156127e357600080fd5b5050506040518051905015156127f857600080fd5b8073ffffffffffffffffffffffffffffffffffffffff166397f735d5336000604051602001526040518263ffffffff167c0100000000000000000000000000000000000000000000000000000000028152600401808273ffffffffffffffffffffffffffffffffffffffff1673ffffffffffffffffffffffffffffffffffffffff168152602001915050602060405180830381600087803b151561289b57600080fd5b6102c65a03f115156128ac57600080fd5b505050604051805190501515156128c257600080fd5b855185511415156128d257600080fd5b60055487111515156128e357600080fd5b60035484111515156128f457600080fd5b600454831115151561290557600080fd5b61290f8686612bfc565b60018054806001018281612923919061301c565b91600052602060002090600d02016000610140604051908101604052808d81526020018c73ffffffffffffffffffffffffffffffffffffffff1681526020018b81526020018a81526020018981526020018881526020018781526020016000151581526020016000815260200160001515815250909190915060008201518160000190805190602001906129b8929190612e9c565b5060208201518160010160006101000a81548173ffffffffffffffffffffffffffffffffffffffff021916908373ffffffffffffffffffffffffffffffffffffffff160217905550604082015181600201556060820151816003019080519060200190612a2692919061304e565b506080820151816004019080519060200190612a4392919061304e565b5060a0820151816005015560c0820151816006015560e08201518160070160006101000a81548160ff02191690831515021790555061010082015181600801556101208201518160090160006101000a81548160ff0219169083151502179055505050506001600281818054905001915081612abf9190612e3e565b50505050505050505050565b60045481565b6000806000809054906101000a900473ffffffffffffffffffffffffffffffffffffffff1690508073ffffffffffffffffffffffffffffffffffffffff166310a8169c846040518082805190602001908083835b602083101515612b4a5780518252602082019150602081019050602083039250612b25565b6001836020036101000a03801982511681845116808217855250505050505090500191505060405180910390206000604051602001526040518263ffffffff167c0100000000000000000000000000000000000000000000000000000000028152600401808260001916600019168152602001915050602060405180830381600087803b1515612bd957600080fd5b6102c65a03f11515612bea57600080fd5b50505060405180519050915050919050565b6000806000806000612c426040805190810160405280600381526020017f44414f0000000000000000000000000000000000000000000000000000000000815250612ad1565b9450600093505b8651841015612d83578684815181101515612c6057fe5b9060200190602002015192508584815181101515612c7a57fe5b9060200190602002015191508473ffffffffffffffffffffffffffffffffffffffff1663ae802e47846000604051606001526040518263ffffffff167c010000000000000000000000000000000000000000000000000000000002815260040180828152602001915050606060405180830381600087803b1515612cfd57600080fd5b6102c65a03f11515612d0e57600080fd5b5050506040518051906020018051906020018051905092505050600660008273ffffffffffffffffffffffffffffffffffffffff1673ffffffffffffffffffffffffffffffffffffffff168152602001908152602001600020548211151515612d7657600080fd5b8380600101945050612c49565b50505050505050565b815481835581811511612db957600d0281600d028360005260206000209182019101612db8919061309b565b5b505050565b828054600181600116156101000203166002900490600052602060002090601f016020900481019282601f10612dff57805160ff1916838001178555612e2d565b82800160010185558215612e2d579182015b82811115612e2c578251825591602001919060010190612e11565b5b509050612e3a9190613159565b5090565b815481835581811511612e6557818360005260206000209182019101612e64919061317e565b5b505050565b815481835581811511612e9757600602816006028360005260206000209182019101612e9691906131aa565b5b505050565b828054600181600116156101000203166002900490600052602060002090601f016020900481019282601f10612edd57805160ff1916838001178555612f0b565b82800160010185558215612f0b579182015b82811115612f0a578251825591602001919060010190612eef565b5b509050612f189190613159565b5090565b828054600181600116156101000203166002900490600052602060002090601f016020900481019282601f10612f5d57805160ff1916838001178555612f8b565b82800160010185558215612f8b579182015b82811115612f8a578251825591602001919060010190612f6f565b5b509050612f989190613159565b5090565b828054600181600116156101000203166002900490600052602060002090601f016020900481019282601f10612fdd57805160ff191683800117855561300b565b8280016001018555821561300b579182015b8281111561300a578251825591602001919060010190612fef565b5b5090506130189190613159565b5090565b81548183558181151161304957600d0281600d028360005260206000209182019101613048919061309b565b5b505050565b82805482825590600052602060002090810192821561308a579160200282015b8281111561308957825182559160200191906001019061306e565b5b5090506130979190613159565b5090565b61315691905b8082111561315257600080820160006130ba9190613220565b6001820160006101000a81549073ffffffffffffffffffffffffffffffffffffffff021916905560028201600090556003820160006130f99190613268565b6004820160006131099190613268565b600582016000905560068201600090556007820160006101000a81549060ff021916905560088201600090556009820160006101000a81549060ff021916905550600d016130a1565b5090565b90565b61317b91905b8082111561317757600081600090555060010161315f565b5090565b90565b6131a791905b808211156131a3576000818161319a9190613289565b50600101613184565b5090565b90565b61321d91905b8082111561321957600080820160006131c99190613220565b6001820160006101000a81549073ffffffffffffffffffffffffffffffffffffffff021916905560028201600061320091906132ad565b60038201600090556004820160009055506006016131b0565b5090565b90565b50805460018160011615610100020316600290046000825580601f106132465750613265565b601f0160209004906000526020600020908101906132649190613159565b5b50565b50805460008255906000526020600020908101906132869190613159565b50565b50805460008255600602906000526020600020908101906132aa91906131aa565b50565b50805460018160011615610100020316600290046000825580601f106132d357506132f2565b601f0160209004906000526020600020908101906132f19190613159565b5b505600a165627a7a72305820e914a7082ed7ab9c9c94ef5599eb183c5e78e4ac7f1ea1e086e269a9a2bbece10029",
  "source": "/*\r\n    tasks_handler.sol\r\n    Created by Zefram Lou (Zebang Liu) as part of the WikiGit project.\r\n\r\n    This file implements the mechanisms for posting task listings, submitting\r\n    task solutions, and accepting task solutions as the final answers. It should\r\n    be possible to modify this file to allow compatability with third-party freelancing\r\n    platforms.\r\n*/\r\n\r\npragma solidity ^0.4.18;\r\n\r\nimport './main.sol';\r\nimport './dao.sol';\r\nimport './member_handler.sol';\r\n\r\ncontract TasksHandler is Module {\r\n    struct TaskListing {\r\n        string metadata; //Metadata of the task. Format dependent on the higher level UI.\r\n        address poster;\r\n        uint rewardInWeis;\r\n        uint[] rewardTokenIdList; //IDs of the rewarded tokens in the recognizedTokenList of the DAO.\r\n        uint[] rewardTokenAmountList; //Amount of rewarded tokens with respect to rewardTokenIdList.\r\n        uint rewardGoodRep; //Reward in good reputation.\r\n        uint penaltyBadRep; //Penalty in bad reputation if a solution is deemed malicious.\r\n        bool isInvalid;\r\n        uint acceptedSolutionID; //Index of the accepted solution.\r\n        bool hasAcceptedSolution;\r\n        mapping(address => bool) hasSubmitted; //Records whether a user has already submitted a solution.\r\n        mapping(address => bool) hasBeenPenalized; //Recordes whether a user has been penalized for a malicious solution.\r\n        mapping(address => uint) memberSolId; //From member address to index of member's solution submission.\r\n    }\r\n\r\n    /*\r\n        Defines a task solution. Solutions take the form of Git patches, and are currently stored onchain.\r\n        Future versions will move the patch data to decentralized storage platforms like Swarm and IPFS.\r\n    */\r\n    struct TaskSolution {\r\n        string metadata; //Metadata of the task. Format dependent on the higher level UI.\r\n        address submitter;\r\n        bytes patchIPFSHash; //IPFS hash of the Git patch.\r\n        /*\r\n            Solution voting allow members to express their evaluations of a solution.\r\n            Does not have any actual effect on the solution acceptance process.\r\n        */\r\n        uint upvotes;\r\n        uint downvotes;\r\n        mapping(address => bool) hasVoted;\r\n    }\r\n\r\n    modifier needsRight(string right) {\r\n        MemberHandler h = MemberHandler(moduleAddress('MEMBER'));\r\n        require(h.memberHasRight(msg.sender, right));\r\n        require(! h.isBanned(msg.sender)); //Makes function declarations more concise.\r\n        _;\r\n    }\r\n\r\n    TaskListing[] public taskList;\r\n    TaskSolution[][] public taskSolutionList;\r\n\r\n    /*\r\n        Upper bounds for reward amounts.\r\n    */\r\n    uint public rewardRepCap;\r\n    uint public penaltyRepCap;\r\n    uint public rewardWeiCap;\r\n    mapping(address => uint) public rewardTokenCap; //From token's address to cap\r\n\r\n    event TaskSolutionAccepted(uint taskId, uint solutionId, bytes patchIPFSHash);\r\n\r\n    function TasksHandler(address mainAddr) Module(mainAddr) public {\r\n        //Initialize reward caps\r\n        rewardRepCap = 3;\r\n        penaltyRepCap = 6;\r\n        rewardWeiCap = 1 ether;\r\n    }\r\n\r\n    function publishTaskListing(\r\n        string metadata,\r\n        address poster,\r\n        uint rewardInWeis,\r\n        uint[] rewardTokenIdList,\r\n        uint[] rewardTokenAmountList,\r\n        uint rewardGoodRep,\r\n        uint penaltyBadRep\r\n    )\r\n        public\r\n        needsRight('submit_task')\r\n    {\r\n        //Check format\r\n        require(rewardTokenAmountList.length == rewardTokenIdList.length);\r\n\r\n        //Check if reward exceeds cap\r\n        require(rewardInWeis <= rewardWeiCap);\r\n        require(rewardGoodRep <= rewardRepCap);\r\n        require(penaltyBadRep <= penaltyRepCap);\r\n        checkTokenCap(rewardTokenIdList, rewardTokenAmountList);\r\n\r\n        taskList.push(TaskListing({\r\n            metadata: metadata,\r\n            poster: poster,\r\n            rewardInWeis: rewardInWeis,\r\n            rewardTokenIdList: rewardTokenIdList,\r\n            rewardTokenAmountList: rewardTokenAmountList,\r\n            rewardGoodRep: rewardGoodRep,\r\n            penaltyBadRep: penaltyBadRep,\r\n            isInvalid: false,\r\n            acceptedSolutionID: 0,\r\n            hasAcceptedSolution: false\r\n        }));\r\n        taskSolutionList.length += 1;\r\n    }\r\n\r\n    //Split out as an independent function to prevent StackTooDeep error\r\n    function checkTokenCap(uint[] rewardTokenIndexList, uint[] rewardTokenAmountList) private view {\r\n        Dao dao = Dao(moduleAddress('DAO'));\r\n        for (uint i = 0; i < rewardTokenIndexList.length; i++) {\r\n            uint id = rewardTokenIndexList[i];\r\n            uint reward = rewardTokenAmountList[i];\r\n            var (,tokenAddress) = dao.recognizedTokenList(id);\r\n            require(reward <= rewardTokenCap[tokenAddress]);\r\n        }\r\n    }\r\n\r\n    /*\r\n        For part time contributors who don't have the right to post task listings with rewards.\r\n    */\r\n    function publishRewardlessTaskListing(\r\n        string metadata,\r\n        address poster,\r\n        uint rewardGoodRep,\r\n        uint penaltyBadRep\r\n    )\r\n        public\r\n        needsRight('submit_task_rewardless')\r\n    {\r\n        require(rewardGoodRep <= rewardRepCap);\r\n        require(penaltyBadRep <= penaltyRepCap);\r\n\r\n        taskList.length += 1;\r\n\r\n        TaskListing storage task = taskList[taskList.length - 1];\r\n        task.metadata = metadata;\r\n        task.poster = poster;\r\n        task.rewardGoodRep = rewardGoodRep;\r\n        task.penaltyBadRep = penaltyBadRep;\r\n\r\n        taskSolutionList.length += 1;\r\n    }\r\n\r\n    function invalidateTaskListingAtIndex(uint index) public onlyMod('DAO') {\r\n        require(index < taskList.length);\r\n        taskList[index].isInvalid = true;\r\n    }\r\n\r\n    function submitSolution(\r\n        uint taskId,\r\n        string metadata,\r\n        bytes patchIPFSHash\r\n    )\r\n        public\r\n        needsRight('submit_solution')\r\n    {\r\n        require(taskId < taskList.length);\r\n\r\n        TaskListing storage task = taskList[taskId];\r\n\r\n        require(!task.isInvalid);\r\n        require(msg.sender != task.poster); //Prevent self-serving tasks\r\n\r\n        if (! task.hasSubmitted[msg.sender]) {\r\n            task.hasSubmitted[msg.sender] = true;\r\n            taskSolutionList[taskId].push(TaskSolution({\r\n                metadata: metadata,\r\n                submitter: msg.sender,\r\n                patchIPFSHash: patchIPFSHash,\r\n                upvotes: 0,\r\n                downvotes: 0\r\n            }));\r\n            taskList[taskId].memberSolId[msg.sender] = taskSolutionList.length - 1;\r\n        } else {\r\n            uint solId = taskList[taskId].memberSolId[msg.sender];\r\n            taskSolutionList[taskId][solId].metadata = metadata;\r\n            taskSolutionList[taskId][solId].patchIPFSHash = patchIPFSHash;\r\n        }\r\n    }\r\n\r\n    function voteOnSolution(\r\n        address sender,\r\n        uint taskId,\r\n        uint solId,\r\n        bool isUpvote\r\n    )\r\n        public\r\n        needsRight('vote_solution')\r\n    {\r\n        require(taskId < taskList.length);\r\n        require(solId < taskSolutionList[taskId].length);\r\n\r\n        TaskSolution storage sol = taskSolutionList[taskId][solId];\r\n\r\n        require(!sol.hasVoted[sender]);\r\n        sol.hasVoted[sender] = true;\r\n\r\n        if (isUpvote) {\r\n            sol.upvotes += 1;\r\n        } else {\r\n            sol.downvotes += 1;\r\n        }\r\n    }\r\n\r\n    /*\r\n        Accepts a solution and pays the rewards to the solution submitter.\r\n        Can only be called by the poster of the task listing.\r\n    */\r\n    function acceptSolution(uint taskId, uint solId) public {\r\n        require(taskId < taskList.length); //Ensure that taskId is valid.\r\n        TaskListing storage task = taskList[taskId];\r\n\r\n        require(solId < taskSolutionList[taskId].length); //Ensure that solId is valid.\r\n\r\n        TaskSolution storage sol = taskSolutionList[taskId][solId];\r\n\r\n        require(task.poster == msg.sender); //Ensure that the caller is the poster of the task listing.\r\n\r\n        require(!task.hasBeenPenalized[taskSolutionList[taskId][solId].submitter]);\r\n\r\n        task.isInvalid = true;\r\n        task.hasAcceptedSolution = true;\r\n        task.acceptedSolutionID = solId;\r\n\r\n        //Broadcast acceptance\r\n        TaskSolutionAccepted(taskId, solId, sol.patchIPFSHash);\r\n\r\n        //Pay submitter of solution\r\n        Dao dao = Dao(moduleAddress('DAO'));\r\n        dao.paySolutionReward(taskId, solId);\r\n    }\r\n\r\n    function setCap(\r\n        string capType,\r\n        uint newCap,\r\n        address tokenAddress\r\n    )\r\n        public\r\n        onlyMod('DAO')\r\n    {\r\n        if (keccak256(capType) == keccak256('wei')) {\r\n            rewardWeiCap = newCap;\r\n        } else if (keccak256(capType) == keccak256('good_rep')) {\r\n            rewardRepCap = newCap;\r\n        } else if (keccak256(capType) == keccak256('bad_rep')) {\r\n            penaltyRepCap = newCap;\r\n        } else if (keccak256(capType) == keccak256('token')) {\r\n            rewardTokenCap[tokenAddress] = newCap;\r\n        }\r\n    }\r\n\r\n    function deleteRewardTokenCap(address tokenAddress) public onlyMod('DAO')\r\n    {\r\n        delete rewardTokenCap[tokenAddress];\r\n    }\r\n\r\n    function setPenalizedStatus(uint taskId, address memberAddr, bool status) public onlyMod('DAO') {\r\n        taskList[taskId].hasBeenPenalized[memberAddr] = status;\r\n    }\r\n\r\n    //Getters\r\n\r\n    function tHasSubmitted(uint taskId, address addr) public view returns(bool) {\r\n        return taskList[taskId].hasSubmitted[addr];\r\n    }\r\n\r\n    function tHasBeenPenalized(uint taskId, address addr) public view returns(bool) {\r\n        return taskList[taskId].hasBeenPenalized[addr];\r\n    }\r\n\r\n    function tMemberSolId(uint taskId, address addr) public view returns(uint) {\r\n        return taskList[taskId].memberSolId[addr];\r\n    }\r\n\r\n    function sHasVoted(uint taskId, uint solId, address addr) public view returns(bool) {\r\n        return taskSolutionList[taskId][solId].hasVoted[addr];\r\n    }\r\n\r\n    function getTRewardTokenIndex(uint taskId, uint tokenId) public view returns(uint) {\r\n        return taskList[taskId].rewardTokenIdList[tokenId];\r\n    }\r\n\r\n    function getTRewardTokenAmount(uint taskId, uint tokenId) public view returns(uint) {\r\n        return taskList[taskId].rewardTokenAmountList[tokenId];\r\n    }\r\n\r\n    function getTRewardTokenListCount(uint taskId) public view returns(uint) {\r\n        return taskList[taskId].rewardTokenAmountList.length;\r\n    }\r\n\r\n    //Fallback\r\n    function() public {\r\n        revert();\r\n    }\r\n}\r\n",
  "sourcePath": "D:\\WebstormProjects\\WikiGit\\dev\\contracts\\tasks_handler.sol",
  "compiler": {
    "name": "solc",
    "version": "0.4.18+commit.9cf6e910.Emscripten.clang"
  },
  "schemaVersion": "1.0.1",
  "updatedAt": "2017-11-09T05:23:50.094Z"
}