{
  "contractName": "Vault",
  "abi": [
    {
      "constant": true,
      "inputs": [],
      "name": "mainAddress",
      "outputs": [
        {
          "name": "",
          "type": "address"
        }
      ],
      "payable": false,
      "stateMutability": "view",
      "type": "function"
    },
    {
      "constant": true,
      "inputs": [
        {
          "name": "multiplier",
          "type": "uint256"
        },
        {
          "name": "tokenAddress",
          "type": "address"
        },
        {
          "name": "startBlockNumber",
          "type": "uint256"
        },
        {
          "name": "endBlockNumber",
          "type": "uint256"
        },
        {
          "name": "donationCapInWeis",
          "type": "uint256"
        }
      ],
      "name": "decimals",
      "outputs": [
        {
          "name": "",
          "type": "uint256"
        }
      ],
      "payable": false,
      "stateMutability": "view",
      "type": "function"
    },
    {
      "constant": false,
      "inputs": [
        {
          "name": "_multiplier",
          "type": "uint256"
        },
        {
          "name": "_startBlockNumber",
          "type": "uint256"
        },
        {
          "name": "_endBlockNumber",
          "type": "uint256"
        },
        {
          "name": "_hardCapInWeis",
          "type": "uint256"
        }
      ],
      "name": "startCoinOffering",
      "outputs": [
        {
          "name": "",
          "type": "address"
        }
      ],
      "payable": false,
      "stateMutability": "nonpayable",
      "type": "function"
    },
    {
      "constant": true,
      "inputs": [
        {
          "name": "id",
          "type": "uint256"
        }
      ],
      "name": "rewardFreezeTime",
      "outputs": [
        {
          "name": "",
          "type": "uint256"
        }
      ],
      "payable": false,
      "stateMutability": "view",
      "type": "function"
    },
    {
      "constant": true,
      "inputs": [
        {
          "name": "amount",
          "type": "uint256"
        },
        {
          "name": "to",
          "type": "address"
        },
        {
          "name": "symbol",
          "type": "string"
        },
        {
          "name": "tokenAddr",
          "type": "address"
        },
        {
          "name": "isReward",
          "type": "bool"
        }
      ],
      "name": "withdrawlFreezeTime",
      "outputs": [
        {
          "name": "",
          "type": "uint256"
        }
      ],
      "payable": false,
      "stateMutability": "view",
      "type": "function"
    },
    {
      "constant": true,
      "inputs": [],
      "name": "frozenTokens",
      "outputs": [
        {
          "name": "",
          "type": "uint256"
        }
      ],
      "payable": false,
      "stateMutability": "view",
      "type": "function"
    },
    {
      "constant": true,
      "inputs": [],
      "name": "getPendingWithdrawlListCount",
      "outputs": [
        {
          "name": "",
          "type": "uint256"
        }
      ],
      "payable": false,
      "stateMutability": "view",
      "type": "function"
    },
    {
      "constant": false,
      "inputs": [
        {
          "name": "_id",
          "type": "uint256"
        }
      ],
      "name": "invalidatePendingWithdrawl",
      "outputs": [
        {
          "name": "",
          "type": "uint256"
        }
      ],
      "payable": false,
      "stateMutability": "nonpayable",
      "type": "function"
    },
    {
      "constant": false,
      "inputs": [
        {
          "name": "_id",
          "type": "uint256"
        }
      ],
      "name": "payoutPendingWithdrawl",
      "outputs": [],
      "payable": false,
      "stateMutability": "nonpayable",
      "type": "function"
    },
    {
      "constant": false,
      "inputs": [
        {
          "name": "_amount",
          "type": "uint256"
        },
        {
          "name": "_to",
          "type": "address"
        },
        {
          "name": "_isReward",
          "type": "bool"
        },
        {
          "name": "_isEther",
          "type": "bool"
        }
      ],
      "name": "addPendingWithdrawl",
      "outputs": [
        {
          "name": "amount",
          "type": "uint256"
        },
        {
          "name": "to",
          "type": "address"
        },
        {
          "name": "frozenUntilBlock",
          "type": "uint256"
        },
        {
          "name": "isInvalid",
          "type": "bool"
        },
        {
          "name": "tokenSymbol",
          "type": "string"
        },
        {
          "name": "tokenAddress",
          "type": "address"
        }
      ],
      "payable": false,
      "stateMutability": "nonpayable",
      "type": "function"
    },
    {
      "constant": true,
      "inputs": [
        {
          "name": "id",
          "type": "uint256"
        }
      ],
      "name": "frozenFunds",
      "outputs": [
        {
          "name": "",
          "type": "uint256"
        }
      ],
      "payable": false,
      "stateMutability": "view",
      "type": "function"
    },
    {
      "constant": false,
      "inputs": [
        {
          "name": "_newTime",
          "type": "uint256"
        },
        {
          "name": "_isReward",
          "type": "bool"
        }
      ],
      "name": "changeFreezeTime",
      "outputs": [
        {
          "name": "",
          "type": "uint256"
        }
      ],
      "payable": false,
      "stateMutability": "nonpayable",
      "type": "function"
    },
    {
      "constant": true,
      "inputs": [
        {
          "name": "",
          "type": "uint256"
        }
      ],
      "name": "pendingWithdrawlList",
      "outputs": [
        {
          "name": "amount",
          "type": "uint256"
        },
        {
          "name": "to",
          "type": "address"
        },
        {
          "name": "frozenUntilBlock",
          "type": "uint256"
        },
        {
          "name": "isEther",
          "type": "bool"
        },
        {
          "name": "isInvalid",
          "type": "bool"
        }
      ],
      "payable": false,
      "stateMutability": "view",
      "type": "function"
    },
    {
      "constant": true,
      "inputs": [
        {
          "name": "newTime",
          "type": "uint256"
        },
        {
          "name": "isReward",
          "type": "bool"
        }
      ],
      "name": "currentCoinOffering",
      "outputs": [
        {
          "name": "multiplier",
          "type": "uint256"
        },
        {
          "name": "startBlockNumber",
          "type": "uint256"
        },
        {
          "name": "endBlockNumber",
          "type": "uint256"
        },
        {
          "name": "raisedFundsInWeis",
          "type": "uint256"
        },
        {
          "name": "hardCapInWeis",
          "type": "uint256"
        }
      ],
      "payable": false,
      "stateMutability": "view",
      "type": "function"
    },
    {
      "constant": true,
      "inputs": [
        {
          "name": "_mainAddr",
          "type": "address"
        },
        {
          "name": "_rewardFreezeTime",
          "type": "uint256"
        },
        {
          "name": "_withdrawlFreezeTime",
          "type": "uint256"
        }
      ],
      "name": "payBehaviorList",
      "outputs": [
        {
          "name": "multiplier",
          "type": "uint256"
        },
        {
          "name": "tokenAddress",
          "type": "address"
        },
        {
          "name": "startBlockNumber",
          "type": "uint256"
        },
        {
          "name": "endBlockNumber",
          "type": "uint256"
        },
        {
          "name": "totalDonationInWeis",
          "type": "uint256"
        },
        {
          "name": "donationCapInWeis",
          "type": "uint256"
        }
      ],
      "payable": false,
      "stateMutability": "nonpayable",
      "type": "constructor"
    },
    {
      "constant": true,
      "inputs": [
        {
          "name": "",
          "type": "address"
        }
      ],
      "name": "frozenTokens",
      "outputs": [
        {
          "name": "",
          "type": "uint256"
        }
      ],
      "payable": true,
      "stateMutability": "payable",
      "type": "fallback"
    },
    {
      "constant": true,
      "inputs": [
        {
          "name": "",
          "type": "uint256"
        }
      ],
      "name": "pendingWithdrawlList",
      "outputs": [
        {
          "name": "amountInWeis",
          "type": "uint256"
        },
        {
          "name": "to",
          "type": "address"
        },
        {
          "name": "frozenUntilBlock",
          "type": "uint256"
        },
        {
          "name": "isInvalid",
          "type": "bool"
        }
      ],
      "payable": false,
      "stateMutability": "view",
      "type": "function"
    },
    {
      "constant": false,
      "inputs": [
        {
          "name": "amountInWeis",
          "type": "uint256"
        },
        {
          "name": "to",
          "type": "address"
        },
        {
          "name": "isReward",
          "type": "bool"
        }
      ],
      "name": "addPendingWithdrawl",
      "outputs": [],
      "payable": false,
      "stateMutability": "nonpayable",
      "type": "function"
    },
    {
      "constant": false,
      "inputs": [
        {
          "name": "id",
          "type": "uint256"
        }
      ],
      "name": "invalidatePendingTokenWithdrawl",
      "outputs": [],
      "payable": false,
      "stateMutability": "nonpayable",
      "type": "function"
    },
    {
      "inputs": [
        {
          "name": "mainAddr",
          "type": "address"
        }
      ],
      "payable": false,
      "stateMutability": "nonpayable",
      "type": "constructor"
    },
    {
      "payable": true,
      "stateMutability": "payable",
      "type": "fallback"
    }
  ],
  "bytecode": "0x6060604052341561000f57600080fd5b6040516060806112da8339810160405280805190602001909190805190602001909190805190602001909190505082806000806101000a81548173ffffffffffffffffffffffffffffffffffffffff021916908373ffffffffffffffffffffffffffffffffffffffff16021790555050816008819055508060078190555050505061123b8061009f6000396000f3006060604052600436106100d0576000357c0100000000000000000000000000000000000000000000000000000000900463ffffffff1680630cdd423414610255578063313ce567146102aa57806341f70465146102d357806342d6bf19146103115780634510419d1461033a578063508d962b1461036357806356b30aec1461038c5780635c72b160146103b55780637b317ef6146103d85780637e1db495146103fb57806390a74e2c146104535780639b3e9a481461047c578063d8998374146104aa578063e4ee798914610531575b60004360018001541080156100e9575060016002015443105b156102525760016004015434600160030154011115151561010957600080fd5b60016003015434600160030154011015151561012457600080fd5b346001600301600082825401925050819055506101756040805190810160405280600581526020017f544f4b454e000000000000000000000000000000000000000000000000000000815250610576565b90508073ffffffffffffffffffffffffffffffffffffffff166340c10f1933601234600160000154028115156101a757fe5b046000604051602001526040518363ffffffff167c0100000000000000000000000000000000000000000000000000000000028152600401808373ffffffffffffffffffffffffffffffffffffffff1673ffffffffffffffffffffffffffffffffffffffff16815260200182815260200192505050602060405180830381600087803b151561023557600080fd5b6102c65a03f1151561024657600080fd5b50505060405180519050505b50005b341561026057600080fd5b6102686106a1565b604051808273ffffffffffffffffffffffffffffffffffffffff1673ffffffffffffffffffffffffffffffffffffffff16815260200191505060405180910390f35b34156102b557600080fd5b6102bd6106c6565b6040518082815260200191505060405180910390f35b34156102de57600080fd5b61030f60048080359060200190919080359060200190919080359060200190919080359060200190919050506106cb565b005b341561031c57600080fd5b6103246107aa565b6040518082815260200191505060405180910390f35b341561034557600080fd5b61034d6107b0565b6040518082815260200191505060405180910390f35b341561036e57600080fd5b6103766107b6565b6040518082815260200191505060405180910390f35b341561039757600080fd5b61039f6107bc565b6040518082815260200191505060405180910390f35b34156103c057600080fd5b6103d660048080359060200190919050506107c9565b005b34156103e357600080fd5b6103f960048080359060200190919050506108dc565b005b341561040657600080fd5b610451600480803590602001909190803573ffffffffffffffffffffffffffffffffffffffff1690602001909190803515159060200190919080351515906020019091905050610b40565b005b341561045e57600080fd5b61046661101f565b6040518082815260200191505060405180910390f35b341561048757600080fd5b6104a860048080359060200190919080351515906020019091905050611025565b005b34156104b557600080fd5b6104cb60048080359060200190919050506110bc565b604051808681526020018573ffffffffffffffffffffffffffffffffffffffff1673ffffffffffffffffffffffffffffffffffffffff16815260200184815260200183151515158152602001821515151581526020019550505050505060405180910390f35b341561053c57600080fd5b61054461113b565b604051808681526020018581526020018481526020018381526020018281526020019550505050505060405180910390f35b6000806000809054906101000a900473ffffffffffffffffffffffffffffffffffffffff1690508073ffffffffffffffffffffffffffffffffffffffff166310a8169c846040518082805190602001908083835b6020831015156105ef57805182526020820191506020810190506020830392506105ca565b6001836020036101000a03801982511681845116808217855250505050505090500191505060405180910390206000604051602001526040518263ffffffff167c0100000000000000000000000000000000000000000000000000000000028152600401808260001916600019168152602001915050602060405180830381600087803b151561067e57600080fd5b6102c65a03f1151561068f57600080fd5b50505060405180519050915050919050565b6000809054906101000a900473ffffffffffffffffffffffffffffffffffffffff1681565b601281565b6040805190810160405280600381526020017f44414f000000000000000000000000000000000000000000000000000000000081525061070a81610576565b73ffffffffffffffffffffffffffffffffffffffff163373ffffffffffffffffffffffffffffffffffffffff1614151561074357600080fd5b60a0604051908101604052808681526020018581526020018481526020016000815260200183815250600160008201518160000155602082015181600101556040820151816002015560608201518160030155608082015181600401559050505050505050565b60085481565b60075481565b600a5481565b6000600680549050905090565b60006040805190810160405280600381526020017f44414f000000000000000000000000000000000000000000000000000000000081525061080a81610576565b73ffffffffffffffffffffffffffffffffffffffff163373ffffffffffffffffffffffffffffffffffffffff1614151561084357600080fd5b6006805490508310151561085657600080fd5b60068381548110151561086557fe5b9060005260206000209060040201915060018260030160016101000a81548160ff0219169083151502179055508160030160009054906101000a900460ff16156108c25781600001546009600082825403925050819055506108d7565b8160000154600a600082825403925050819055505b505050565b600080600680549050831015156108f257600080fd5b60068381548110151561090157fe5b906000526020600020906004020191508160030160019054906101000a900460ff1615151561092f57600080fd5b8160020154431015151561094257600080fd5b60018260030160016101000a81548160ff0219169083151502179055508160030160009054906101000a900460ff16156109f75781600001546009600082825403925050819055508160010160009054906101000a900473ffffffffffffffffffffffffffffffffffffffff1673ffffffffffffffffffffffffffffffffffffffff166108fc83600001549081150290604051600060405180830381858888f1935050505015156109f257600080fd5b610b3b565b8160000154600a60008282540392505081905550610a496040805190810160405280600581526020017f544f4b454e000000000000000000000000000000000000000000000000000000815250610576565b90508073ffffffffffffffffffffffffffffffffffffffff1663a9059cbb8360010160009054906101000a900473ffffffffffffffffffffffffffffffffffffffff1684600001546000604051602001526040518363ffffffff167c0100000000000000000000000000000000000000000000000000000000028152600401808373ffffffffffffffffffffffffffffffffffffffff1673ffffffffffffffffffffffffffffffffffffffff16815260200182815260200192505050602060405180830381600087803b1515610b1e57600080fd5b6102c65a03f11515610b2f57600080fd5b50505060405180519050505b505050565b6000806000806040805190810160405280600381526020017f44414f0000000000000000000000000000000000000000000000000000000000815250610b8581610576565b73ffffffffffffffffffffffffffffffffffffffff163373ffffffffffffffffffffffffffffffffffffffff16141515610bbe57600080fd5b8615610bce576008549450610bd4565b60075494505b8515610c5a576009543073ffffffffffffffffffffffffffffffffffffffff1631039350888410151515610c0757600080fd5b8773ffffffffffffffffffffffffffffffffffffffff1631898973ffffffffffffffffffffffffffffffffffffffff163101111515610c4557600080fd5b88600960008282540192505081905550610f08565b610c986040805190810160405280600581526020017f544f4b454e000000000000000000000000000000000000000000000000000000815250610576565b9250600a548373ffffffffffffffffffffffffffffffffffffffff166370a08231306000604051602001526040518263ffffffff167c0100000000000000000000000000000000000000000000000000000000028152600401808273ffffffffffffffffffffffffffffffffffffffff1673ffffffffffffffffffffffffffffffffffffffff168152602001915050602060405180830381600087803b1515610d4057600080fd5b6102c65a03f11515610d5157600080fd5b50505060405180519050039150888210151515610d6d57600080fd5b8273ffffffffffffffffffffffffffffffffffffffff166370a08231896000604051602001526040518263ffffffff167c0100000000000000000000000000000000000000000000000000000000028152600401808273ffffffffffffffffffffffffffffffffffffffff1673ffffffffffffffffffffffffffffffffffffffff168152602001915050602060405180830381600087803b1515610e1057600080fd5b6102c65a03f11515610e2157600080fd5b50505060405180519050898473ffffffffffffffffffffffffffffffffffffffff166370a082318b6000604051602001526040518263ffffffff167c0100000000000000000000000000000000000000000000000000000000028152600401808273ffffffffffffffffffffffffffffffffffffffff1673ffffffffffffffffffffffffffffffffffffffff168152602001915050602060405180830381600087803b1515610ecf57600080fd5b6102c65a03f11515610ee057600080fd5b5050506040518051905001111515610ef757600080fd5b88600a600082825401925050819055505b60068054806001018281610f1c919061115f565b9160005260206000209060040201600060a0604051908101604052808d81526020018c73ffffffffffffffffffffffffffffffffffffffff16815260200189430181526020018a151581526020016000151581525090919091506000820151816000015560208201518160010160006101000a81548173ffffffffffffffffffffffffffffffffffffffff021916908373ffffffffffffffffffffffffffffffffffffffff1602179055506040820151816002015560608201518160030160006101000a81548160ff02191690831515021790555060808201518160030160016101000a81548160ff021916908315150217905550505050505050505050505050565b60095481565b6040805190810160405280600381526020017f44414f000000000000000000000000000000000000000000000000000000000081525061106481610576565b73ffffffffffffffffffffffffffffffffffffffff163373ffffffffffffffffffffffffffffffffffffffff1614151561109d57600080fd5b81156110af57826008819055506110b7565b826007819055505b505050565b6006818154811015156110cb57fe5b90600052602060002090600402016000915090508060000154908060010160009054906101000a900473ffffffffffffffffffffffffffffffffffffffff16908060020154908060030160009054906101000a900460ff16908060030160019054906101000a900460ff16905085565b60018060000154908060010154908060020154908060030154908060040154905085565b81548183558181151161118c5760040281600402836000526020600020918201910161118b9190611191565b5b505050565b61120c91905b80821115611208576000808201600090556001820160006101000a81549073ffffffffffffffffffffffffffffffffffffffff021916905560028201600090556003820160006101000a81549060ff02191690556003820160016101000a81549060ff021916905550600401611197565b5090565b905600a165627a7a72305820823fbf7b9a793122319509b347d7bec4ba900fc1bb7cef93adb107ff8a69d6d60029",
  "source": "/*\r\n    vault.sol\r\n    Created by Zefram Lou (Zebang Liu) as part of the WikiGit project.\r\n\r\n    This file implements the DASP's vault, or in other words the manager\r\n    of the DAP's funds. It allows for the delayed withdrawl of ethers\r\n    and/or ERC20 tokens (the delay prevents malicious withdrawls), and\r\n    giving people who donate ethers to the vault custom tokens in return.\r\n    The latter function can be used to implement things like ICOs and\r\n    honorary tokens (such as the unicorn token), and more.\r\n*/\r\n\r\npragma solidity ^0.4.18;\r\n\r\nimport './token.sol';\r\nimport './main.sol';\r\n\r\ncontract Vault is Module {\r\n    /*\r\n        Defines how the vault will behave when a donor donates some ether.\r\n        For each donation, the vault will grant multiplier * donationInWei / inputCurrencyPriceInWei\r\n        tokens hosted at tokenAddress.\r\n        The use of oracles is not yet implemented.\r\n    */\r\n    struct CoinOffering {\r\n        /*\r\n            Number of tokens that would be granted to donor for each input currency unit. Decimal.\r\n        */\r\n        uint multiplier;\r\n\r\n        /*\r\n            The pay behavior will only be valid if the current block number is\r\n            larger than or equal to startBlockNumber.\r\n        */\r\n        uint startBlockNumber;\r\n\r\n        /*\r\n            The pay behavior will only be valid if the current block number is\r\n            less than untilBlockNumber.\r\n        */\r\n        uint endBlockNumber;\r\n\r\n        /*\r\n            Implements a cap for the total amount of raised funds.\r\n        */\r\n        uint raisedFundsInWeis;\r\n        uint hardCapInWeis;\r\n    }\r\n\r\n    /*\r\n        Defines a pending withdrawl of ether. Each withdrawl of funds is frozen for\r\n        a period of time, when members scrutinize the validity of this withdrawl.\r\n        If the pending withdrawl doesn't get invalidated by a voting, the payout function\r\n        may be called by anyone to actualize the withdrawl.\r\n    */\r\n    struct PendingWithdrawl {\r\n        /*\r\n            The amount of the withdrawl, in weis if it's an Ether withdrawl.\r\n        */\r\n        uint amount;\r\n\r\n        /*\r\n            Address of the receipient.\r\n        */\r\n        address to;\r\n\r\n        /*\r\n            The block number until which the actual withdrawl of funds cannot be made.\r\n        */\r\n        uint frozenUntilBlock;\r\n\r\n        bool isEther;\r\n\r\n        /*\r\n            Indicates whether this withdrawl is invalid.\r\n        */\r\n        bool isInvalid;\r\n    }\r\n\r\n    CoinOffering public currentCoinOffering;\r\n    PendingWithdrawl[] public pendingWithdrawlList; // List of pending withdrawls.\r\n\r\n    uint public withdrawlFreezeTime; //The time for which a withdrawl requested by a DAO voting is frozen, in blocks.\r\n    uint public rewardFreezeTime; //The time for which a withdrawl requested by a member rewarding someone who completed a task, in blocks.\r\n\r\n    uint public frozenFunds; //The amount of ethers currently frozen, in weis.\r\n    uint public frozenTokens; //The amount of tokens currently frozen.\r\n\r\n    function Vault(\r\n        address _mainAddr,\r\n        uint _rewardFreezeTime,\r\n        uint _withdrawlFreezeTime\r\n    )\r\n        Module(_mainAddr)\r\n        public\r\n    {\r\n        //Initialize withdrawl freeze times\r\n        rewardFreezeTime = _rewardFreezeTime;\r\n        withdrawlFreezeTime = _withdrawlFreezeTime;\r\n    }\r\n\r\n    //Withdrawl handlers\r\n\r\n    function addPendingWithdrawl(\r\n        uint _amount,\r\n        address _to,\r\n        bool _isReward,\r\n        bool _isEther\r\n    )\r\n        public\r\n        onlyMod('DAO')\r\n    {\r\n        uint blocksUntilWithdrawl;\r\n        if (_isReward) {\r\n            blocksUntilWithdrawl = rewardFreezeTime;\r\n        } else {\r\n            blocksUntilWithdrawl = withdrawlFreezeTime;\r\n        }\r\n\r\n        //Check if vault has enough funds for the withdrawl\r\n        //If so, freeze the fund that will be withdrawn\r\n        if (_isEther) {\r\n            uint availableFunds = this.balance - frozenFunds;\r\n            require(availableFunds >= _amount); //Make sure there's enough free ether in the vault\r\n            require(_to.balance + _amount > _to.balance); //Prevent overflow\r\n\r\n            frozenFunds += _amount; //Freeze the pending withdrawl's amount.\r\n        } else {\r\n            Token token = Token(moduleAddress('TOKEN'));\r\n            uint availableTokens = token.balanceOf(address(this)) - frozenTokens;\r\n            require(availableTokens >= _amount); //Make sure there's enough unfrozen tokens in the vault\r\n            require(token.balanceOf(_to) + _amount > token.balanceOf(_to)); //Prevent overflow\r\n\r\n            frozenTokens += _amount; //Freezes the pending withdrawl's amount.\r\n        }\r\n\r\n        pendingWithdrawlList.push(PendingWithdrawl({\r\n            amount: _amount,\r\n            to: _to,\r\n            frozenUntilBlock: block.number + blocksUntilWithdrawl,\r\n            isEther: _isEther,\r\n            isInvalid: false\r\n        }));\r\n    }\r\n\r\n    function payoutPendingWithdrawl(uint _id) public {\r\n        require(_id < pendingWithdrawlList.length); //Ensure the id is valid.\r\n        PendingWithdrawl storage w = pendingWithdrawlList[_id];\r\n        require(!w.isInvalid); //Ensure the withdrawl is valid.\r\n        require(block.number >= w.frozenUntilBlock); //Ensure the vetting period has ended.\r\n\r\n        w.isInvalid = true;\r\n\r\n        if (w.isEther) {\r\n            frozenFunds -= w.amount; //Defrost the frozen funds for payout.\r\n            w.to.transfer(w.amount);\r\n        } else {\r\n            frozenTokens -= w.amount; //Defrost the frozen funds for payout.\r\n            Token token = Token(moduleAddress('TOKEN'));\r\n            token.transfer(w.to, w.amount);\r\n        }\r\n    }\r\n\r\n    function invalidatePendingWithdrawl(uint _id) public onlyMod('DAO') {\r\n        require(_id < pendingWithdrawlList.length);\r\n        PendingWithdrawl storage w = pendingWithdrawlList[_id];\r\n        w.isInvalid = true;\r\n        if (w.isEther) {\r\n            frozenFunds -= w.amount; //Defrost the frozen funds.\r\n        } else {\r\n            frozenTokens -= w.amount; //Defrost the frozen funds.\r\n        }\r\n    }\r\n\r\n    function changeFreezeTime(uint _newTime, bool _isReward) public onlyMod('DAO') {\r\n        if (_isReward) {\r\n            rewardFreezeTime = _newTime;\r\n        } else {\r\n            withdrawlFreezeTime = _newTime;\r\n        }\r\n    }\r\n\r\n    //Coin offering manipulators.\r\n\r\n    function startCoinOffering(\r\n        uint _multiplier,\r\n        uint _startBlockNumber,\r\n        uint _endBlockNumber,\r\n        uint _hardCapInWeis\r\n    )\r\n        public\r\n        onlyMod('DAO')\r\n    {\r\n        currentCoinOffering = CoinOffering({\r\n            multiplier: _multiplier,\r\n            startBlockNumber: _startBlockNumber,\r\n            endBlockNumber: _endBlockNumber,\r\n            raisedFundsInWeis: 0,\r\n            hardCapInWeis: _hardCapInWeis\r\n        });\r\n    }\r\n\r\n    //Handles incoming donation.\r\n    function() public payable {\r\n        if (currentCoinOffering.startBlockNumber < block.number && block.number < currentCoinOffering.endBlockNumber) {\r\n            //Ensure cap won't be exceeded\r\n            require(currentCoinOffering.raisedFundsInWeis + msg.value <= currentCoinOffering.hardCapInWeis);\r\n            //Prevent overflow\r\n            require(currentCoinOffering.raisedFundsInWeis + msg.value >= currentCoinOffering.raisedFundsInWeis);\r\n\r\n            currentCoinOffering.raisedFundsInWeis += msg.value;\r\n\r\n            Token token = Token(moduleAddress('TOKEN'));\r\n            token.mint(msg.sender, currentCoinOffering.multiplier * msg.value / decimals);\r\n        }\r\n    }\r\n\r\n    //Getters\r\n\r\n    function getPendingWithdrawlListCount() public view returns(uint) {\r\n        return pendingWithdrawlList.length;\r\n    }\r\n}\r\n",
  "sourcePath": "D:\\WebstormProjects\\WikiGit\\dev\\contracts\\vault.sol",
  "compiler": {
    "name": "solc",
    "version": "0.4.18+commit.9cf6e910.Emscripten.clang"
  },
  "schemaVersion": "1.0.1",
  "updatedAt": "2018-01-06T02:20:33.253Z"
}