{
  "contractName": "Vault",
  "abi": [
    {
      "constant": true,
      "inputs": [],
      "name": "getPayBehaviorListCount",
      "outputs": [
        {
          "name": "",
          "type": "uint256"
        }
      ],
      "payable": false,
      "stateMutability": "view",
      "type": "function"
    },
    {
      "constant": false,
      "inputs": [
        {
          "name": "multiplier",
          "type": "uint256"
        },
        {
          "name": "tokenAddress",
          "type": "address"
        },
        {
          "name": "startBlockNumber",
          "type": "uint256"
        },
        {
          "name": "endBlockNumber",
          "type": "uint256"
        },
        {
          "name": "donationCapInWeis",
          "type": "uint256"
        }
      ],
      "name": "addPayBehavior",
      "outputs": [],
      "payable": false,
      "stateMutability": "nonpayable",
      "type": "function"
    },
    {
      "constant": true,
      "inputs": [],
      "name": "mainAddress",
      "outputs": [
        {
          "name": "",
          "type": "address"
        }
      ],
      "payable": false,
      "stateMutability": "view",
      "type": "function"
    },
    {
      "constant": false,
      "inputs": [
        {
          "name": "id",
          "type": "uint256"
        }
      ],
      "name": "payoutPendingTokenWithdrawl",
      "outputs": [],
      "payable": false,
      "stateMutability": "nonpayable",
      "type": "function"
    },
    {
      "constant": false,
      "inputs": [
        {
          "name": "amount",
          "type": "uint256"
        },
        {
          "name": "to",
          "type": "address"
        },
        {
          "name": "symbol",
          "type": "string"
        },
        {
          "name": "tokenAddr",
          "type": "address"
        },
        {
          "name": "isReward",
          "type": "bool"
        }
      ],
      "name": "addPendingTokenWithdrawl",
      "outputs": [],
      "payable": false,
      "stateMutability": "nonpayable",
      "type": "function"
    },
    {
      "constant": true,
      "inputs": [],
      "name": "rewardFreezeTime",
      "outputs": [
        {
          "name": "",
          "type": "uint256"
        }
      ],
      "payable": false,
      "stateMutability": "view",
      "type": "function"
    },
    {
      "constant": true,
      "inputs": [],
      "name": "withdrawlFreezeTime",
      "outputs": [
        {
          "name": "",
          "type": "uint256"
        }
      ],
      "payable": false,
      "stateMutability": "view",
      "type": "function"
    },
    {
      "constant": true,
      "inputs": [],
      "name": "getPendingWithdrawlListCount",
      "outputs": [
        {
          "name": "",
          "type": "uint256"
        }
      ],
      "payable": false,
      "stateMutability": "view",
      "type": "function"
    },
    {
      "constant": false,
      "inputs": [
        {
          "name": "id",
          "type": "uint256"
        }
      ],
      "name": "invalidatePendingWithdrawl",
      "outputs": [],
      "payable": false,
      "stateMutability": "nonpayable",
      "type": "function"
    },
    {
      "constant": true,
      "inputs": [
        {
          "name": "",
          "type": "uint256"
        }
      ],
      "name": "pendingTokenWithdrawlList",
      "outputs": [
        {
          "name": "amount",
          "type": "uint256"
        },
        {
          "name": "to",
          "type": "address"
        },
        {
          "name": "frozenUntilBlock",
          "type": "uint256"
        },
        {
          "name": "isInvalid",
          "type": "bool"
        },
        {
          "name": "tokenSymbol",
          "type": "string"
        },
        {
          "name": "tokenAddress",
          "type": "address"
        }
      ],
      "payable": false,
      "stateMutability": "view",
      "type": "function"
    },
    {
      "constant": false,
      "inputs": [
        {
          "name": "id",
          "type": "uint256"
        }
      ],
      "name": "payoutPendingWithdrawl",
      "outputs": [],
      "payable": false,
      "stateMutability": "nonpayable",
      "type": "function"
    },
    {
      "constant": true,
      "inputs": [],
      "name": "frozenFunds",
      "outputs": [
        {
          "name": "",
          "type": "uint256"
        }
      ],
      "payable": false,
      "stateMutability": "view",
      "type": "function"
    },
    {
      "constant": true,
      "inputs": [],
      "name": "getPendingTokenWithdrawlListCount",
      "outputs": [
        {
          "name": "",
          "type": "uint256"
        }
      ],
      "payable": false,
      "stateMutability": "view",
      "type": "function"
    },
    {
      "constant": false,
      "inputs": [
        {
          "name": "newTime",
          "type": "uint256"
        },
        {
          "name": "isReward",
          "type": "bool"
        }
      ],
      "name": "changeFreezeTime",
      "outputs": [],
      "payable": false,
      "stateMutability": "nonpayable",
      "type": "function"
    },
    {
      "constant": true,
      "inputs": [
        {
          "name": "",
          "type": "uint256"
        }
      ],
      "name": "payBehaviorList",
      "outputs": [
        {
          "name": "multiplier",
          "type": "uint256"
        },
        {
          "name": "tokenAddress",
          "type": "address"
        },
        {
          "name": "startBlockNumber",
          "type": "uint256"
        },
        {
          "name": "endBlockNumber",
          "type": "uint256"
        },
        {
          "name": "totalDonationInWeis",
          "type": "uint256"
        },
        {
          "name": "donationCapInWeis",
          "type": "uint256"
        }
      ],
      "payable": false,
      "stateMutability": "view",
      "type": "function"
    },
    {
      "constant": true,
      "inputs": [
        {
          "name": "",
          "type": "address"
        }
      ],
      "name": "frozenTokens",
      "outputs": [
        {
          "name": "",
          "type": "uint256"
        }
      ],
      "payable": false,
      "stateMutability": "view",
      "type": "function"
    },
    {
      "constant": true,
      "inputs": [
        {
          "name": "",
          "type": "uint256"
        }
      ],
      "name": "pendingWithdrawlList",
      "outputs": [
        {
          "name": "amountInWeis",
          "type": "uint256"
        },
        {
          "name": "to",
          "type": "address"
        },
        {
          "name": "frozenUntilBlock",
          "type": "uint256"
        },
        {
          "name": "isInvalid",
          "type": "bool"
        }
      ],
      "payable": false,
      "stateMutability": "view",
      "type": "function"
    },
    {
      "constant": false,
      "inputs": [
        {
          "name": "amountInWeis",
          "type": "uint256"
        },
        {
          "name": "to",
          "type": "address"
        },
        {
          "name": "isReward",
          "type": "bool"
        }
      ],
      "name": "addPendingWithdrawl",
      "outputs": [],
      "payable": false,
      "stateMutability": "nonpayable",
      "type": "function"
    },
    {
      "constant": false,
      "inputs": [
        {
          "name": "id",
          "type": "uint256"
        }
      ],
      "name": "invalidatePendingTokenWithdrawl",
      "outputs": [],
      "payable": false,
      "stateMutability": "nonpayable",
      "type": "function"
    },
    {
      "inputs": [
        {
          "name": "mainAddr",
          "type": "address"
        }
      ],
      "payable": false,
      "stateMutability": "nonpayable",
      "type": "constructor"
    },
    {
      "payable": true,
      "stateMutability": "payable",
      "type": "fallback"
    }
  ],
  "bytecode": "0x6060604052341561000f57600080fd5b604051602080611d718339810160405280805190602001909190505080806000806101000a81548173ffffffffffffffffffffffffffffffffffffffff021916908373ffffffffffffffffffffffffffffffffffffffff16021790555050610dc4600581905550610dc460048190555050611ce28061008f6000396000f300606060405260043610610106576000357c0100000000000000000000000000000000000000000000000000000000900463ffffffff16806222ec5e146102a15780630120a9f4146102ca5780630cdd42341461032757806311c1758c1461037c578063217bc6941461039f57806342d6bf191461044e5780634510419d1461047757806356b30aec146104a05780635c72b160146104c95780636eccb406146104ec5780637b317ef61461062457806390a74e2c14610647578063929eb86c146106705780639b3e9a4814610699578063b3d8a669146106c7578063bfd858081461074d578063d89983741461079a578063f8bd653214610816578063f952aaa414610863575b60008060008092505b60018054905083101561029c5760018381548110151561012b57fe5b906000526020600020906006020191504382600201541080156101515750816003015443105b1561028f578160050154348360040154011115151561016f57600080fd5b8160040154348360040154011015151561018857600080fd5b3482600401600082825401925050819055508160010160009054906101000a900473ffffffffffffffffffffffffffffffffffffffff1690508073ffffffffffffffffffffffffffffffffffffffff1663a9059cbb33348560000154026000604051602001526040518363ffffffff167c0100000000000000000000000000000000000000000000000000000000028152600401808373ffffffffffffffffffffffffffffffffffffffff1673ffffffffffffffffffffffffffffffffffffffff16815260200182815260200192505050602060405180830381600087803b151561027257600080fd5b6102c65a03f1151561028357600080fd5b50505060405180519050505b828060010193505061010f565b505050005b34156102ac57600080fd5b6102b4610886565b6040518082815260200191505060405180910390f35b34156102d557600080fd5b610325600480803590602001909190803573ffffffffffffffffffffffffffffffffffffffff16906020019091908035906020019091908035906020019091908035906020019091905050610893565b005b341561033257600080fd5b61033a6109fd565b604051808273ffffffffffffffffffffffffffffffffffffffff1673ffffffffffffffffffffffffffffffffffffffff16815260200191505060405180910390f35b341561038757600080fd5b61039d6004808035906020019091905050610a22565b005b34156103aa57600080fd5b61044c600480803590602001909190803573ffffffffffffffffffffffffffffffffffffffff1690602001909190803590602001908201803590602001908080601f0160208091040260200160405190810160405280939291908181526020018383808284378201915050505050509190803573ffffffffffffffffffffffffffffffffffffffff169060200190919080351515906020019091905050610c35565b005b341561045957600080fd5b610461611127565b6040518082815260200191505060405180910390f35b341561048257600080fd5b61048a61112d565b6040518082815260200191505060405180910390f35b34156104ab57600080fd5b6104b3611133565b6040518082815260200191505060405180910390f35b34156104d457600080fd5b6104ea6004808035906020019091905050611140565b005b34156104f757600080fd5b61050d6004808035906020019091905050611222565b604051808781526020018673ffffffffffffffffffffffffffffffffffffffff1673ffffffffffffffffffffffffffffffffffffffff16815260200185815260200184151515158152602001806020018373ffffffffffffffffffffffffffffffffffffffff1673ffffffffffffffffffffffffffffffffffffffff1681526020018281038252848181546001816001161561010002031660029004815260200191508054600181600116156101000203166002900480156106105780601f106105e557610100808354040283529160200191610610565b820191906000526020600020905b8154815290600101906020018083116105f357829003601f168201915b505097505050505050505060405180910390f35b341561062f57600080fd5b61064560048080359060200190919050506112b9565b005b341561065257600080fd5b61065a6113bb565b6040518082815260200191505060405180910390f35b341561067b57600080fd5b6106836113c1565b6040518082815260200191505060405180910390f35b34156106a457600080fd5b6106c5600480803590602001909190803515159060200190919050506113ce565b005b34156106d257600080fd5b6106e86004808035906020019091905050611465565b604051808781526020018673ffffffffffffffffffffffffffffffffffffffff1673ffffffffffffffffffffffffffffffffffffffff168152602001858152602001848152602001838152602001828152602001965050505050505060405180910390f35b341561075857600080fd5b610784600480803573ffffffffffffffffffffffffffffffffffffffff169060200190919050506114d0565b6040518082815260200191505060405180910390f35b34156107a557600080fd5b6107bb60048080359060200190919050506114e8565b604051808581526020018473ffffffffffffffffffffffffffffffffffffffff1673ffffffffffffffffffffffffffffffffffffffff1681526020018381526020018215151515815260200194505050505060405180910390f35b341561082157600080fd5b610861600480803590602001909190803573ffffffffffffffffffffffffffffffffffffffff169060200190919080351515906020019091905050611554565b005b341561086e57600080fd5b610884600480803590602001909190505061174c565b005b6000600180549050905090565b6040805190810160405280600381526020017f44414f00000000000000000000000000000000000000000000000000000000008152506108d28161188f565b73ffffffffffffffffffffffffffffffffffffffff163373ffffffffffffffffffffffffffffffffffffffff1614151561090b57600080fd5b6001805480600101828161091f91906119ba565b9160005260206000209060060201600060c0604051908101604052808a81526020018973ffffffffffffffffffffffffffffffffffffffff168152602001888152602001878152602001600081526020018681525090919091506000820151816000015560208201518160010160006101000a81548173ffffffffffffffffffffffffffffffffffffffff021916908373ffffffffffffffffffffffffffffffffffffffff16021790555060408201518160020155606082015181600301556080820151816004015560a08201518160050155505050505050505050565b6000809054906101000a900473ffffffffffffffffffffffffffffffffffffffff1681565b60008060038054905083101515610a3857600080fd5b600383815481101515610a4757fe5b906000526020600020906006020191508160030160009054906101000a900460ff16151515610a7557600080fd5b81600201544310151515610a8857600080fd5b60018260030160006101000a81548160ff0219169083151502179055508160000154600760008460050160009054906101000a900473ffffffffffffffffffffffffffffffffffffffff1673ffffffffffffffffffffffffffffffffffffffff1673ffffffffffffffffffffffffffffffffffffffff168152602001908152602001600020600082825403925050819055508160050160009054906101000a900473ffffffffffffffffffffffffffffffffffffffff1690508073ffffffffffffffffffffffffffffffffffffffff1663a9059cbb8360010160009054906101000a900473ffffffffffffffffffffffffffffffffffffffff1684600001546000604051602001526040518363ffffffff167c0100000000000000000000000000000000000000000000000000000000028152600401808373ffffffffffffffffffffffffffffffffffffffff1673ffffffffffffffffffffffffffffffffffffffff16815260200182815260200192505050602060405180830381600087803b1515610c1457600080fd5b6102c65a03f11515610c2557600080fd5b5050506040518051905050505050565b60008060006040805190810160405280600381526020017f44414f0000000000000000000000000000000000000000000000000000000000815250610c798161188f565b73ffffffffffffffffffffffffffffffffffffffff163373ffffffffffffffffffffffffffffffffffffffff16141515610cb257600080fd5b859350600760008773ffffffffffffffffffffffffffffffffffffffff1673ffffffffffffffffffffffffffffffffffffffff168152602001908152602001600020548473ffffffffffffffffffffffffffffffffffffffff166370a08231306000604051602001526040518263ffffffff167c0100000000000000000000000000000000000000000000000000000000028152600401808273ffffffffffffffffffffffffffffffffffffffff1673ffffffffffffffffffffffffffffffffffffffff168152602001915050602060405180830381600087803b1515610d9857600080fd5b6102c65a03f11515610da957600080fd5b50505060405180519050039250888310151515610dc557600080fd5b8373ffffffffffffffffffffffffffffffffffffffff166370a08231896000604051602001526040518263ffffffff167c0100000000000000000000000000000000000000000000000000000000028152600401808273ffffffffffffffffffffffffffffffffffffffff1673ffffffffffffffffffffffffffffffffffffffff168152602001915050602060405180830381600087803b1515610e6857600080fd5b6102c65a03f11515610e7957600080fd5b50505060405180519050898573ffffffffffffffffffffffffffffffffffffffff166370a082318b6000604051602001526040518263ffffffff167c0100000000000000000000000000000000000000000000000000000000028152600401808273ffffffffffffffffffffffffffffffffffffffff1673ffffffffffffffffffffffffffffffffffffffff168152602001915050602060405180830381600087803b1515610f2757600080fd5b6102c65a03f11515610f3857600080fd5b5050506040518051905001111515610f4f57600080fd5b88600760008873ffffffffffffffffffffffffffffffffffffffff1673ffffffffffffffffffffffffffffffffffffffff168152602001908152602001600020600082825401925050819055508415610fac576005549150610fb2565b60045491505b60038054806001018281610fc691906119ec565b9160005260206000209060060201600060c0604051908101604052808d81526020018c73ffffffffffffffffffffffffffffffffffffffff16815260200186430181526020016000151581526020018b81526020018a73ffffffffffffffffffffffffffffffffffffffff1681525090919091506000820151816000015560208201518160010160006101000a81548173ffffffffffffffffffffffffffffffffffffffff021916908373ffffffffffffffffffffffffffffffffffffffff1602179055506040820151816002015560608201518160030160006101000a81548160ff02191690831515021790555060808201518160040190805190602001906110d1929190611a1e565b5060a08201518160050160006101000a81548173ffffffffffffffffffffffffffffffffffffffff021916908373ffffffffffffffffffffffffffffffffffffffff160217905550505050505050505050505050565b60055481565b60045481565b6000600280549050905090565b60006040805190810160405280600381526020017f44414f00000000000000000000000000000000000000000000000000000000008152506111818161188f565b73ffffffffffffffffffffffffffffffffffffffff163373ffffffffffffffffffffffffffffffffffffffff161415156111ba57600080fd5b600280549050831015156111cd57600080fd5b6002838154811015156111dc57fe5b9060005260206000209060040201915060018260030160006101000a81548160ff0219169083151502179055508160000154600660008282540392505081905550505050565b60038181548110151561123157fe5b90600052602060002090600602016000915090508060000154908060010160009054906101000a900473ffffffffffffffffffffffffffffffffffffffff16908060020154908060030160009054906101000a900460ff169080600401908060050160009054906101000a900473ffffffffffffffffffffffffffffffffffffffff16905086565b6000600280549050821015156112ce57600080fd5b6002828154811015156112dd57fe5b906000526020600020906004020190508060030160009054906101000a900460ff1615151561130b57600080fd5b8060020154431015151561131e57600080fd5b60018160030160006101000a81548160ff02191690831515021790555080600001546006600082825403925050819055508060010160009054906101000a900473ffffffffffffffffffffffffffffffffffffffff1673ffffffffffffffffffffffffffffffffffffffff166108fc82600001549081150290604051600060405180830381858888f1935050505015156113b757600080fd5b5050565b60065481565b6000600380549050905090565b6040805190810160405280600381526020017f44414f000000000000000000000000000000000000000000000000000000000081525061140d8161188f565b73ffffffffffffffffffffffffffffffffffffffff163373ffffffffffffffffffffffffffffffffffffffff1614151561144657600080fd5b81156114585782600581905550611460565b826004819055505b505050565b60018181548110151561147457fe5b90600052602060002090600602016000915090508060000154908060010160009054906101000a900473ffffffffffffffffffffffffffffffffffffffff16908060020154908060030154908060040154908060050154905086565b60076020528060005260406000206000915090505481565b6002818154811015156114f757fe5b90600052602060002090600402016000915090508060000154908060010160009054906101000a900473ffffffffffffffffffffffffffffffffffffffff16908060020154908060030160009054906101000a900460ff16905084565b6000806040805190810160405280600381526020017f44414f00000000000000000000000000000000000000000000000000000000008152506115968161188f565b73ffffffffffffffffffffffffffffffffffffffff163373ffffffffffffffffffffffffffffffffffffffff161415156115cf57600080fd5b6006543073ffffffffffffffffffffffffffffffffffffffff16310392508583101515156115fc57600080fd5b8473ffffffffffffffffffffffffffffffffffffffff1631868673ffffffffffffffffffffffffffffffffffffffff16310111151561163a57600080fd5b85600660008282540192505081905550831561165a576005549150611660565b60045491505b600280548060010182816116749190611a9e565b916000526020600020906004020160006080604051908101604052808a81526020018973ffffffffffffffffffffffffffffffffffffffff16815260200186430181526020016000151581525090919091506000820151816000015560208201518160010160006101000a81548173ffffffffffffffffffffffffffffffffffffffff021916908373ffffffffffffffffffffffffffffffffffffffff1602179055506040820151816002015560608201518160030160006101000a81548160ff021916908315150217905550505050505050505050565b60006040805190810160405280600381526020017f44414f000000000000000000000000000000000000000000000000000000000081525061178d8161188f565b73ffffffffffffffffffffffffffffffffffffffff163373ffffffffffffffffffffffffffffffffffffffff161415156117c657600080fd5b600380549050831015156117d957600080fd5b6003838154811015156117e857fe5b9060005260206000209060060201915060018260030160006101000a81548160ff0219169083151502179055508160000154600760008460050160009054906101000a900473ffffffffffffffffffffffffffffffffffffffff1673ffffffffffffffffffffffffffffffffffffffff1673ffffffffffffffffffffffffffffffffffffffff16815260200190815260200160002060008282540392505081905550505050565b6000806000809054906101000a900473ffffffffffffffffffffffffffffffffffffffff1690508073ffffffffffffffffffffffffffffffffffffffff166310a8169c846040518082805190602001908083835b60208310151561190857805182526020820191506020810190506020830392506118e3565b6001836020036101000a03801982511681845116808217855250505050505090500191505060405180910390206000604051602001526040518263ffffffff167c0100000000000000000000000000000000000000000000000000000000028152600401808260001916600019168152602001915050602060405180830381600087803b151561199757600080fd5b6102c65a03f115156119a857600080fd5b50505060405180519050915050919050565b8154818355818115116119e7576006028160060283600052602060002091820191016119e69190611ad0565b5b505050565b815481835581811511611a1957600602816006028360005260206000209182019101611a189190611b3e565b5b505050565b828054600181600116156101000203166002900490600052602060002090601f016020900481019282601f10611a5f57805160ff1916838001178555611a8d565b82800160010185558215611a8d579182015b82811115611a8c578251825591602001919060010190611a71565b5b509050611a9a9190611bdf565b5090565b815481835581811511611acb57600402816004028360005260206000209182019101611aca9190611c04565b5b505050565b611b3b91905b80821115611b37576000808201600090556001820160006101000a81549073ffffffffffffffffffffffffffffffffffffffff0219169055600282016000905560038201600090556004820160009055600582016000905550600601611ad6565b5090565b90565b611bdc91905b80821115611bd8576000808201600090556001820160006101000a81549073ffffffffffffffffffffffffffffffffffffffff021916905560028201600090556003820160006101000a81549060ff0219169055600482016000611ba89190611c6e565b6005820160006101000a81549073ffffffffffffffffffffffffffffffffffffffff021916905550600601611b44565b5090565b90565b611c0191905b80821115611bfd576000816000905550600101611be5565b5090565b90565b611c6b91905b80821115611c67576000808201600090556001820160006101000a81549073ffffffffffffffffffffffffffffffffffffffff021916905560028201600090556003820160006101000a81549060ff021916905550600401611c0a565b5090565b90565b50805460018160011615610100020316600290046000825580601f10611c945750611cb3565b601f016020900490600052602060002090810190611cb29190611bdf565b5b505600a165627a7a72305820e4b0af04fb6282c270f02119f818d1938077c4462813b0afc83988713de53c320029",
  "source": "/*\r\n    vault.sol\r\n    Created by Zefram Lou (Zebang Liu) as part of the WikiGit project.\r\n\r\n    This file implements the DAP's vault, or in other words the manager\r\n    of the DAP's funds. It allows for the delayed withdrawl of ethers\r\n    and/or ERC20 tokens (the delay prevents malicious withdrawls), and\r\n    giving people who donate ethers to the vault custom tokens in return.\r\n    The latter function can be used to implement things like ICOs and\r\n    honorary tokens (such as the unicorn token), and more.\r\n*/\r\n\r\npragma solidity ^0.4.18;\r\n\r\nimport './main.sol';\r\n\r\nimport './erc20.sol';\r\n\r\ncontract Vault is Module {\r\n    /*\r\n        Defines how the vault will behave when a donor donates some ether.\r\n        For each donation, the vault will grant multiplier * donationInWei / inputCurrencyPriceInWei\r\n        tokens hosted at tokenAddress.\r\n        The use of oracles is not yet implemented.\r\n    */\r\n    struct PayBehavior {\r\n        /*\r\n            Number of tokens that would be granted to donor for each input currency unit.\r\n        */\r\n        uint multiplier;\r\n\r\n        /*\r\n            Address of an oracle that returns the price of the desired input currency,\r\n            such as USD, in Weis.\r\n            Use zero if Wei is the desired input currency unit.\r\n            Use of oracles not yet implemented.\r\n        */\r\n        //address oracleAddress;\r\n\r\n        /*\r\n            Address of the contract that grants donor tokens.\r\n        */\r\n        address tokenAddress;\r\n\r\n        /*\r\n            The pay behavior will only be valid if the current block number is\r\n            larger than or equal to startBlockNumber.\r\n        */\r\n        uint startBlockNumber;\r\n\r\n        /*\r\n            The pay behavior will only be valid if the current block number is\r\n            less than untilBlockNumber.\r\n        */\r\n        uint endBlockNumber;\r\n\r\n        /*\r\n            Implements a cap for the total amount of donation.\r\n        */\r\n        uint totalDonationInWeis;\r\n        uint donationCapInWeis;\r\n    }\r\n\r\n    /*\r\n        Defines a pending withdrawl of ether. Each withdrawl of funds is frozen for\r\n        a period of time, when members scrutinize the validity of this withdrawl.\r\n        If the pending withdrawl doesn't get invalidated by a voting, the payout function\r\n        may be called by anyone to actualize the withdrawl.\r\n    */\r\n    struct PendingWithdrawl {\r\n        /*\r\n            The amount of the withdrawl, in weis.\r\n        */\r\n        uint amountInWeis;\r\n\r\n        /*\r\n            Address of the receipient.\r\n        */\r\n        address to;\r\n\r\n        /*\r\n            The block number until which the actual withdrawl of funds cannot be made.\r\n        */\r\n        uint frozenUntilBlock;\r\n\r\n        /*\r\n            Indicates whether this withdrawl is invalid.\r\n        */\r\n        bool isInvalid;\r\n    }\r\n\r\n    /*\r\n        Defines a pending withdrawl of ERC20 tokens. Similar to PendingWithdrawl.\r\n    */\r\n    struct PendingTokenWithdrawl {\r\n        /*\r\n            The amount of the withdrawl.\r\n        */\r\n        uint amount;\r\n\r\n        /*\r\n            Address of the receipient.\r\n        */\r\n        address to;\r\n\r\n        /*\r\n            The block number until which the actual withdrawl of funds cannot be made.\r\n        */\r\n        uint frozenUntilBlock;\r\n\r\n        /*\r\n            Indicates whether this withdrawl is invalid.\r\n        */\r\n        bool isInvalid;\r\n\r\n        /*\r\n            The symbol of the token. Doesn't serve any use apart from enhancing readability.\r\n        */\r\n        string tokenSymbol;\r\n\r\n        /*\r\n            The address of the ERC20 token contract.\r\n        */\r\n        address tokenAddress;\r\n    }\r\n\r\n    PayBehavior[] public payBehaviorList; //List of pay behaviors.\r\n    PendingWithdrawl[] public pendingWithdrawlList; // List of pending withdrawls.\r\n    PendingTokenWithdrawl[] public pendingTokenWithdrawlList; //List of pending token withdrawls.\r\n\r\n    uint public withdrawlFreezeTime; //The time for which a withdrawl requested by a DAO voting is frozen, in blocks.\r\n    uint public rewardFreezeTime; //The time for which a withdrawl requested by a member rewarding someone who completed a task, in blocks.\r\n\r\n    uint public frozenFunds; //The amount of ethers currently frozen, in weis.\r\n    mapping(address => uint) public frozenTokens; //The amount of ERC20 tokens currently frozen. Mapping from token address to amount.\r\n\r\n    function Vault(address mainAddr) Module(mainAddr) public {\r\n        //Initialize withdrawl freeze times\r\n        rewardFreezeTime = 3524; //Roughly 24 hours\r\n        withdrawlFreezeTime = 3524; //Roughly 24 hours\r\n    }\r\n\r\n    //Import and export functions for updating modules.\r\n    /*\r\n    //Called by the old vault to transfer data to the new vault.\r\n    function importFromVault(uint length) onlyMod('VAULT') {\r\n        Vault oldVault = Vault(moduleAddress('VAULT'));\r\n        for (uint i = 0; i < length; i++) {\r\n            var (multiplier, oracleAddress, tokenAddress, startBlockNumber, endBlockNumber, _, donationCapInWeis)\r\n                = oldVault.payBehaviorList(i);\r\n            payBehaviorList[i] = PayBehavior({\r\n                multiplier: multiplier,\r\n                oracleAddress: oracleAddress,\r\n                tokenAddress: tokenAddress,\r\n                startBlockNumber: startBlockNumber,\r\n                endBlockNumber: endBlockNumber,\r\n                totalDonationInWeis: 0,\r\n                donationCapInWeis: donationCapInWeis\r\n            });\r\n        }\r\n    }\r\n\r\n    //Transfers all data and funds to the new vault.\r\n    function exportToVault(address newVaultAddr, bool burn) onlyMod('DAO') {\r\n        Vault newVault = Vault(newVaultAddr);\r\n        newVault.importFromVault(payBehaviorList.length);\r\n        if (burn) {\r\n            selfdestruct(newVaultAddr);\r\n        } else {\r\n            newVault.transfer(this.balance);\r\n        }\r\n    }\r\n    */\r\n    //Withdrawl handlers\r\n\r\n    function addPendingWithdrawl(\r\n        uint amountInWeis,\r\n        address to,\r\n        bool isReward\r\n    )\r\n        public\r\n        onlyMod('DAO')\r\n    {\r\n        uint availableFunds = this.balance - frozenFunds;\r\n        require(availableFunds >= amountInWeis); //Make sure there's enough free ether in the vault\r\n        require(to.balance + amountInWeis > to.balance); //Prevent overflow\r\n\r\n        frozenFunds += amountInWeis; //Freeze the pending withdrawl's amount.\r\n\r\n        uint blocksUntilWithdrawl;\r\n        if (isReward) {\r\n            blocksUntilWithdrawl = rewardFreezeTime;\r\n        } else {\r\n            blocksUntilWithdrawl = withdrawlFreezeTime;\r\n        }\r\n\r\n        pendingWithdrawlList.push(PendingWithdrawl({\r\n            amountInWeis: amountInWeis,\r\n            to: to,\r\n            frozenUntilBlock: block.number + blocksUntilWithdrawl,\r\n            isInvalid: false\r\n        }));\r\n    }\r\n\r\n    function addPendingTokenWithdrawl(\r\n        uint amount,\r\n        address to,\r\n        string symbol,\r\n        address tokenAddr,\r\n        bool isReward\r\n    )\r\n        public\r\n        onlyMod('DAO')\r\n    {\r\n        ERC20 token = ERC20(tokenAddr);\r\n        uint availableTokens = token.balanceOf(this) - frozenTokens[tokenAddr];\r\n        require(availableTokens >= amount); //Make sure there's enough unfrozen tokens in the vault\r\n        require(token.balanceOf(to) + amount > token.balanceOf(to)); //Prevent overflow\r\n\r\n        frozenTokens[tokenAddr] += amount; //Freezes the pending withdrawl's amount.\r\n\r\n        uint blocksUntilWithdrawl;\r\n        if (isReward) {\r\n            blocksUntilWithdrawl = rewardFreezeTime;\r\n        } else {\r\n            blocksUntilWithdrawl = withdrawlFreezeTime;\r\n        }\r\n\r\n        pendingTokenWithdrawlList.push(PendingTokenWithdrawl({\r\n            amount: amount,\r\n            to: to,\r\n            frozenUntilBlock: block.number + blocksUntilWithdrawl,\r\n            tokenSymbol: symbol,\r\n            tokenAddress: tokenAddr,\r\n            isInvalid: false\r\n        }));\r\n    }\r\n\r\n    function payoutPendingWithdrawl(uint id) public {\r\n        require(id < pendingWithdrawlList.length); //Ensure the id is valid.\r\n        PendingWithdrawl storage w = pendingWithdrawlList[id];\r\n        require(!w.isInvalid); //Ensure the withdrawl is valid.\r\n        require(block.number >= w.frozenUntilBlock); //Ensure the vetting period has ended.\r\n\r\n        w.isInvalid = true;\r\n        frozenFunds -= w.amountInWeis; //Defrost the frozen funds for payout.\r\n\r\n        w.to.transfer(w.amountInWeis);\r\n    }\r\n\r\n    function payoutPendingTokenWithdrawl(uint id) public {\r\n        require(id < pendingTokenWithdrawlList.length); //Ensure the id is valid.\r\n        PendingTokenWithdrawl storage w = pendingTokenWithdrawlList[id];\r\n        require(!w.isInvalid); //Ensure the withdrawl is valid.\r\n        require(block.number >= w.frozenUntilBlock); //Ensure the vetting period has ended.\r\n\r\n        w.isInvalid = true;\r\n        frozenTokens[w.tokenAddress] -= w.amount; //Defrost the frozen funds for payout.\r\n\r\n        ERC20 token = ERC20(w.tokenAddress);\r\n        token.transfer(w.to, w.amount);\r\n    }\r\n\r\n    function invalidatePendingWithdrawl(uint id) public onlyMod('DAO') {\r\n        require(id < pendingWithdrawlList.length);\r\n        PendingWithdrawl storage w = pendingWithdrawlList[id];\r\n        w.isInvalid = true;\r\n        frozenFunds -= w.amountInWeis; //Defrost the frozen funds.\r\n    }\r\n\r\n    function invalidatePendingTokenWithdrawl(uint id) public onlyMod('DAO') {\r\n        require(id < pendingTokenWithdrawlList.length);\r\n        PendingTokenWithdrawl storage w = pendingTokenWithdrawlList[id];\r\n        w.isInvalid = true;\r\n        frozenTokens[w.tokenAddress] -= w.amount; //Defrost the frozen funds.\r\n    }\r\n\r\n    function changeFreezeTime(uint newTime, bool isReward) public onlyMod('DAO') {\r\n        if (isReward) {\r\n            rewardFreezeTime = newTime;\r\n        } else {\r\n            withdrawlFreezeTime = newTime;\r\n        }\r\n    }\r\n\r\n    //Pay behavior manipulators.\r\n\r\n    function addPayBehavior(\r\n        uint multiplier,\r\n        //address oracleAddress,\r\n        address tokenAddress,\r\n        uint startBlockNumber,\r\n        uint endBlockNumber,\r\n        uint donationCapInWeis\r\n    )\r\n        public\r\n        onlyMod('DAO')\r\n    {\r\n        payBehaviorList.push(PayBehavior({\r\n            multiplier: multiplier,\r\n            //oracleAddress: oracleAddress,\r\n            tokenAddress: tokenAddress,\r\n            startBlockNumber: startBlockNumber,\r\n            endBlockNumber: endBlockNumber,\r\n            totalDonationInWeis: 0,\r\n            donationCapInWeis: donationCapInWeis\r\n        }));\r\n    }\r\n    /*\r\n    function removePayBehaviorAtIndex(uint index) onlyMod('DAO') {\r\n        delete payBehaviorList[index];\r\n    }\r\n\r\n    function removeAllPayBehaviors() onlyMod('DAO') {\r\n        delete payBehaviorList;\r\n    }\r\n    */\r\n    //Handles incoming donation.\r\n    function() public payable {\r\n        for (uint i = 0; i < payBehaviorList.length; i++) {\r\n            PayBehavior storage behavior = payBehaviorList[i];\r\n            if (behavior.startBlockNumber < block.number && block.number < behavior.endBlockNumber) {\r\n                //Todo: implement specific interface for oracle and token\r\n                //if (behavior.oracleAddress == 0) {\r\n                    //Ensure cap won't be exceeded\r\n                    require(behavior.totalDonationInWeis + msg.value <= behavior.donationCapInWeis);\r\n                    //Prevent overflow\r\n                    require(behavior.totalDonationInWeis + msg.value >= behavior.totalDonationInWeis);\r\n\r\n                    behavior.totalDonationInWeis += msg.value;\r\n\r\n                    ERC20 token = ERC20(behavior.tokenAddress);\r\n                    //Using transfer() here to conform with ERC20. Effectively mint().\r\n                    //The token contract should have infinite tokens for the vault contract's account.\r\n                    token.transfer(msg.sender, behavior.multiplier * msg.value);\r\n                //} else {\r\n                    /*\r\n                    Oracle oracle = Oracle(behavior.oracleAddress);\r\n                    uint inputCurrencyPriceInWeis = oracle.getPrice();\r\n                    ERC20 token = ERC20(behavior.tokenAddress());\r\n                    token.transfer(msg.sender, behavior.multiplier * msg.value / inputCurrencyPriceInWeis);\r\n                    */\r\n                //}\r\n            }\r\n        }\r\n    }\r\n\r\n    //Getters\r\n\r\n    function getPayBehaviorListCount() public view returns(uint) {\r\n        return payBehaviorList.length;\r\n    }\r\n\r\n    function getPendingWithdrawlListCount() public view returns(uint) {\r\n        return pendingWithdrawlList.length;\r\n    }\r\n\r\n    function getPendingTokenWithdrawlListCount() public view returns(uint) {\r\n        return pendingTokenWithdrawlList.length;\r\n    }\r\n}\r\n",
  "sourcePath": "D:\\WebstormProjects\\WikiGit\\dev\\contracts\\vault.sol",
  "compiler": {
    "name": "solc",
    "version": "0.4.18+commit.9cf6e910.Emscripten.clang"
  },
  "schemaVersion": "1.0.1",
  "updatedAt": "2017-11-09T05:23:49.982Z"
}